:020000040800F2
:10000000D80900209901000875100008770B000836
:1000100071100008410800084119000800000000A4
:10002000000000000000000000000000AB0100081C
:10003000E908000800000000AF010008B101000855
:10004000B3010008B3010008B3010008B3010008C0
:10005000B3010008B3010008ED080008B30100086F
:10006000B3010008B3010008B3010008B3010008A0
:10007000B3010008B3010008B3010008B301000890
:10008000B3010008B3010008B3010008B301000880
:10009000B3010008B3010008B3010008B301000870
:1000A000B3010008B3010008B3010008B301000860
:1000B000DD130008B3010008B3010008B301000814
:1000C000B3010008B3010008B3010008B301000840
:1000D000B301000805160008B301000899160008CE
:1000E000B3010008B3010008B301000800F002F8F2
:1000F00000F042F80AA090E8000C82448344AAF180
:100100000107DA4501D100F037F8AFF2090EBAE87D
:100110000F0013F0010F18BFFB1A43F0010318473B
:100120007868000098680000103A24BF78C878C149
:10013000FAD8520724BF30C830C144BF04680C60ED
:10014000704700000023002400250026103A28BF35
:1001500078C1FBD8520728BF30C148BF0B60704739
:10016000642900F09580632900F0C8820020704760
:100170001FB51FBD10B510BD00F034FB1146FFF7D1
:10018000F7FF03F0BBF900F052FB03B4FFF7F2FFF7
:1001900003BC01F05AFC00000948804709480047A9
:1001A000FEE7FEE7FEE7FEE7FEE7FEE7FEE7FEE727
:1001B000FEE7FEE704480549054A064B7047000084
:1001C0007D130008ED000008D8030020D8090020A6
:1001D000D8050020D8050020704710B54C1084EADF
:1001E000530404D54042C1F1000138BF491E1B42EF
:1001F00004D55242C3F1000338BF5B1E00F080F902
:1002000014F0804F04D04042C1F1000138BF491EB4
:1002100014F0004F04D05242C3F1000338BF5B1EFC
:1002200010BD00000FB4044910B503AA029800F0F5
:1002300071FA10BC5DF814FB0400002070B50C4688
:100240000546012A05D02878800600D5EA690023F2
:1002500002E0012305E05B1C934202D2E05C00282F
:10026000F9D1A869E618C01AA861286A184428625A
:100270002846AFF3008004E0D5E9012114F8010B12
:100280009047B442F8D32846AFF3008070BD000019
:100290002DE9F0410646002410687529314616A55F
:1002A00010D0AFF30080002802DA404213A507E027
:1002B00031688A0701D512A502E0490704D511A5C6
:1002C000012401E0AFF3008000210A2206F1240797
:1002D00009E0B0FBF2FCB0FBF2F302FB1C00303093
:1002E00078541846491C0028F3D123462A46304644
:1002F000BDE8F04100F086B9000000002D000000CC
:100300002B000000200000002DE9F05F8946044624
:100310004FF0000ADFF874B1FB44C0F820A020467B
:10032000E1688847002874D0252806D0D4E9012147
:100330009047206A401C2062F1E700265F46204675
:10034000E16888472028054607DB312D05D278195A
:1003500010F8200C08B10643F1E7B00701D526F0EC
:100360000406C4F81CA00027C4F818A02A2D09D040
:10037000284601F063FB38B304EB8708303DC8F82A
:10038000185019E059F8041B204604EB87029161CC
:10039000E1688847012F054618D1E069002820DA76
:1003A00026F020061DE0D8F8180000EB800005EBD1
:1003B00040003038C8F818002046E16888470546F4
:1003C00001F03CFB0028EED1012F0AD02E2D08D1E0
:1003D0002046E16888477F1C0546022F46F020062C
:1003E000C4DBA069002803DA404246F00106A061A0
:1003F000F00701D026F010066C2D0BD0682D09D027
:100400004C2D39D06A2D35D0742D35D07A2D33D07E
:1004100016E038E0E1682F4620468847B842054696
:1004200009D16C2F26D04FF48060E1680643204646
:100430008847054604E06C2F1AD04FF480700643BD
:100440000DB3A5F14100192802D8203546F4006605
:100450004A462946204626604E46FFF781FE80B177
:1004600001280BD0F61D26F0070000F1080956E719
:100470004020E4E78020D8E70020D6E706F1040911
:100480004DE7284652E7206ABDE8F09F2A65000044
:1004900040EA010310B59B070FD1042A0DD310C801
:1004A00008C9121F9C42F8D020BA19BA884201D953
:1004B000012010BD4FF0FF3010BD1AB1D30703D09B
:1004C000521C07E0002010BD10F8013B11F8014B51
:1004D0001B1B07D110F8013B11F8014B1B1B01D16D
:1004E000921EF1D1184610BD02F0FF0343EA032229
:1004F00042EA024200F022B97047704770477047E5
:1005000053EA020C00F069802DE9F04B4FF0000631
:10051000002B1FBFB3FA83F503FA05F424FA05F69E
:100520005E4012BF1643B2FA82F502FA05F4C5F135
:1005300020051EBF22FA05FC44EA0C04203556EAC9
:10054000044C4FEA144418BF641C4FF000084FF0ED
:100550000009904271EB030C39D3002919BFB1FA9D
:1005600081F701FA07F6B0FA80F700FA07F6C7F14B
:1005700020071EBF20FA07FC46EA0C062037B6FB10
:10058000F4FCA7EB0507103F07F01F0BCBF120068B
:100590000CFA0BFB2CFA06F644BFB3460026202FBC
:1005A000A4BF5E464FF0000B5BEA060C08BF4FF09D
:1005B000010B19EB0B09ABFB027C48EB0608C01BD7
:1005C00006FB02CC0BFB03CC71EB0C01C1E70B4625
:1005D000024641464846BDE8F08B13B54FF0000097
:1005E0004FF00001AFF30080BDE81C40704710B52C
:1005F00000F0C4F8006810BD10B5044600F0BEF865
:10060000046010BD2DE9F0470D4699469246044618
:1006100000F124080168880604D5E06921F0100182
:10062000216000E00120A84201DD471B00E0002717
:10063000A1697A1902EB0900081AA0612078C006A6
:1006400002D42046AFF30080002608E0D4E901215F
:100650001AF806009047206A401C761C20624E451E
:10066000F4DB2078C0060AD52046AFF3008006E010
:10067000D4E9012130209047206A401C2062381EB6
:10068000A7F10107F4DC07E0D4E9012118F805001F
:100690009047206A401C2062281EA5F10105F3DC6A
:1006A0002046AFF300802078000602D50220BDE886
:1006B000F0870120FBE7000001694A1C026108780D
:1006C000704700B58FB0CDE9013100210591054992
:1006D0007944CDE9031011466846FFF715FE0FB0C7
:1006E00000BD0000E5FFFFFF10B5436913B1AFF394
:1006F000008001E0FFF7A2FD012010BD127800F19B
:1007000024010A7000224A700122EDE711684FF0BF
:10071000FF32E9E7074B70B50D467B44FFF7D1FF89
:100720000446284600F02EF810B14FF0FF3070BD9F
:10073000204670BD0F2700004FF000020429C0F0D2
:10074000128010F0030C00F02380CCF1040CBCF1FB
:10075000020F18BF00F8012BA8BF20F8022BA1EB55
:100760000C0100F015B85FEAC17C24BF00F8012B32
:1007700000F8012B48BF00F8012B70470048704774
:1007800074030020007B00F0800070474FF00002EF
:1007900000B5134694469646203922BFA0E80C5077
:1007A000A0E80C50B1F12001BFF4F7AF090728BF52
:1007B000A0E80C5048BF0CC05DF804EB890028BFCE
:1007C00040F8042B08BF704748BF20F8022B11F0F7
:1007D000804F18BF00F8012B704700000048704799
:1007E000740300207546FFF7F9FFAE460500694621
:1007F000534620F00700854618B020B5FFF7DAFC15
:10080000BDE820404FF000064FF000074FF0000811
:100810004FF0000B21F00701AC46ACE8C009ACE892
:10082000C009ACE8C009ACE8C0098D46704710B5F6
:100830000446AFF300802046BDE81040FFF7A5BC9A
:1008400000BFFEE700F0805111B10349086001E0EC
:100850000249486070470000040402400000024062
:1008600021B1026842F00102026004E002684FF622
:10087000FE731A40026070470146486880B27047B4
:1008800001460020002201F0805313B1054B1A6885
:1008900001E0054B1A6802EA01030BB1012000E0F8
:1008A00000207047000402400000024010B5002202
:1008B000026847F6F0739A430C6A8B6823430C690D
:1008C00023434C6923438C692343CC6923434C6AFB
:1008D00023438C6A23431A430260CB6843600B684E
:1008E00083604B68C36010BD7047000010B50120E5
:1008F00000F036F868B10A4B0A4A111F081F02F0CF
:100900009FFE0949087020B10846017807A0FFF74B
:1009100089FC01200449087000F01CF810BD00009B
:1009200054030020500300200C0000206D70755F00
:10093000646D705F6765745F6461746120466169AE
:100940006C65642065726F7272206E756D3A2564F5
:100950000A0D0000014908607047000014040140BE
:10096000014600200022074B1B6803EA0102054BE9
:1009700014331B680B4013B10AB1012000E00020C2
:100980007047000000040140002123498279002AB9
:100990003AD00A46126803689A430B461A600A1D49
:1009A000126803689A430B1D1A60027911440A68A1
:1009B00003681A430A60184A0832126803689A43A7
:1009C000154B08331A601A1D126803689A43124BBC
:1009D0000C331A604279102A0ED11A1F126803686C
:1009E0001A430D4B08331A601A1D126803681A4324
:1009F000094B0C331A600DE00749427911440A682B
:100A000003681A430A6005E0027911440A68036822
:100A10009A430A60704700000004014030B500228C
:100A20008B071C0F0F2303FA04F20B4B8C1053F8A7
:100A300024309343084C8D1044F8253023468C1005
:100A400053F824308C07240F00FA04F42343024C9B
:100A50008D1044F8253030BD080001402DE9F041EB
:100A6000024600250026002000230024002791F8DC
:100A700003C00CF00F0591F803C00CF0100CBCF192
:100A8000000F03D091F802C04CEA050591F800C0B0
:100A9000BCF1000F31D0146800202BE04FF0010CA6
:100AA0000CFA00F3B1F800C00CEA03069E4220D114
:100AB00083004FF00F0C0CFA03F7BC4305FA03FC5C
:100AC0004CEA040491F803C0BCF1280F06D14FF0A2
:100AD000010C0CFA00FCC2F814C00AE091F803C043
:100AE000BCF1480F05D14FF0010C0CFA00FCC2F824
:100AF00010C0401C0828D1D31460B1F800C0BCF16C
:100B0000FF0F34DD546800202EE000F1080C4FF098
:100B1000010808FA0CF3B1F800C00CEA03069E4283
:100B200021D183004FF00F0C0CFA03F7BC4305FAF8
:100B300003FC4CEA040491F803C0BCF1280F05D172
:100B400000F1080C08FA0CF8C2F8148091F803C000
:100B5000BCF1480F07D100F1080C4FF0010808FA6A
:100B60000CF8C2F81080401C0828CED35460BDE8B1
:100B7000F0810161704700BFFEE7000010B5002062
:100B80000E4908600E48006820F070400C4908606B
:100B90000846006840F04050086000200949C1F84C
:100BA0009C0100F011F801200449086000F00CF8E5
:100BB00000200449C1F8980110BD0000988121422D
:100BC000000C01400080214210B5022001F016FB0C
:100BD00010BD000008B50121082000F0CDFAC020AA
:100BE000ADF8000010208DF8030003208DF80200FE
:100BF00069460448FFF732FFC0210248FFF7B9FFFA
:100C000008BD0000000C014010B500200E4908602E
:100C10000E48006820F070400C49086008460068E3
:100C200040F04050086001200949C1F89C01FFF7DD
:100C3000CBFF012004490860FFF7C6FF00200449EC
:100C4000C1F8980110BD000098812142000C0140BC
:100C50000080214270B5054600241648006820F047
:100C60007040144908600846006840F00040086081
:100C7000002614E0002010490860FFF7A5FF0120BE
:100C80000E49C1F898016006040E0B487C380068D4
:100C900008B1601CC4B2FFF797FF701CC6B2082EE3
:100CA000E8DB15B9FFF7B0FF01E0FFF767FF20466B
:100CB00070BD0000000C014098812142008021425B
:100CC00070B504461248006820F070401049086072
:100CD0000846006840F04050086000200D49086058
:100CE000002512E0E0090B49091D08606006040EAA
:100CF00001200949C1F89801FFF766FF0020054966
:100D00000860FFF761FF681CC5B2082DEADB70BD03
:100D1000000C0140988121420080214210B50E480C
:100D2000006820F070400C4908600846006840F0F8
:100D3000405008600120094908600949C1F898013C
:100D4000FFF742FF002005490860FFF73DFF002044
:100D50000349C1F8980110BD000C01409C8121425B
:100D60000080214210B50E48006820F070400C4908
:100D700008600846006840F04050086000200949BB
:100D800008600949C1F89C01FFF71EFF01200549D1
:100D900008600549C1F89C01FFF716FF10BD00006F
:100DA000000C0140988121420080214210B50024AE
:100DB0001448006820F07040124908600846006836
:100DC00040F00040086001200F490860FFF7FCFE7A
:100DD00001200E49C1F89801FFF7F6FE07E0601CFC
:100DE000C4B2FA2C03DDFFF7BDFF012010BD064899
:100DF000803800680028F2D10349091F086000BF4D
:100E0000F4E70000000C01409C8121420080214257
:100E100010B5FFF7DFFE80216B2000F0D7F86420CB
:100E200001F0C6F900216B2000F0D0F8032000F09B
:100E30008BF8002000F080F8642000F0AAF8002170
:100E4000382000F0C3F800216A2000F0BFF800212C
:100E5000232000F0BBF88021372000F0B7F8752080
:100E600000F013F80446682C0BD101216B2000F030
:100E7000ADF800216C2000F0A9F8322000F089F8CC
:100E800001E0012010BD0020FCE770B50446FFF72B
:100E900045FFD020FFF714FFFFF788FF2046FFF73C
:100EA0000FFFFFF783FFFFF739FFD120FFF708FFA0
:100EB000FFF77CFF0020FFF7CDFE0546FFF752FF4E
:100EC000284670BD2DE9F04106460F4614461D46E2
:100ED000FFF724FF002141EA4601C8B2FFF7F0FE08
:100EE000FFF764FF20B1FFF73DFF0120BDE8F0816F
:100EF0003846FFF7E5FEFFF759FFFFF70FFF012127
:100F000001EB4601C8B2FFF7DBFEFFF74FFF0DE034
:100F1000012C04D10020FFF79DFE287003E0012082
:100F2000FFF798FE2870601EC4B26D1C002CEFD134
:100F3000FFF718FF0020D9E710B50446E006010EC0
:100F40001C2000F043F810BD10B50446E006010E69
:100F50001B2000F03BF810BD70B504460025BC2CEA
:100F600001DB012510E0622C01DB02250CE02A2CBC
:100F700001DB032508E0142C01DB042504E00A2C26
:100F800001DB052500E0062529461A2000F01EF8A1
:100F900070BD70B50446B4F57A7F01DD4FF47A7404
:100FA000042C00DA04244FF47A7090FBF4F0401E15
:100FB000C5B22946192000F009F80546264604EB7B
:100FC000D671C1F34F00FFF7C7FF70BD70B505467E
:100FD0000C46FFF7A3FED020FFF772FEFFF7E6FEF8
:100FE00018B1FFF7BFFE012070BD2846FFF768FE6D
:100FF000FFF7DCFE2046FFF763FEFFF7D7FE18B1D0
:10100000FFF7B0FE0120EFE7FFF7ACFE0020EBE7B3
:101010002DE9F04105460E4617469846FFF77EFE3D
:10102000002141EA4501C8B2FFF74AFEFFF7BEFEC4
:1010300020B1FFF797FE0120BDE8F0813046FFF7B1
:101040003FFEFFF7B3FE00240CE018F80400FFF7A2
:1010500037FEFFF7ABFE18B1FFF784FE0120EBE788
:10106000601CC4B2BC42F0DBFFF77CFE0020E3E76B
:1010700000BFFEE770470EB50121042000F07CF8A8
:101080000121084600F078F800210846FFF7C6FC69
:10109000012000908DF8060000208DF80400082043
:1010A0008DF805006846FFF76FFC06208DF80800F4
:1010B00001208DF80B0000208DF809008DF80A0042
:1010C00002A800F001F80EBD70B5002100230F2228
:1010D000C47804B3154C246804F4E064C4F5E064F7
:1010E000210AC1F10403CA40447804FA03F1847868
:1010F0001440214309010E4C0678A155047804F0F0
:101100001F050124AC4005786D11AD0005F1E02507
:10111000C5F8004109E0047804F01F050124AC4043
:10112000044D0678761145F8264070BD0CED00E0C0
:1011300000E400E080E100E029B1064A5269024380
:10114000044B5A6104E0034A52698243014B5A61DD
:10115000704700000010024029B1064AD2690243DC
:10116000044BDA6104E0034AD2698243014BDA613D
:10117000704700000010024029B1064A92690243FC
:10118000044B9A6104E0034A92698243014B9A61DD
:10119000704700000010024030B5002100220024FA
:1011A00000232D4D6D6805F00C0121B1042905D0F7
:1011B000082923D105E0294D056022E0274D05606F
:1011C0001FE0254D6D6805F47012234D6D6805F420
:1011D0008034022505EB92421CB9214D5543056030
:1011E0000BE01D4D6D6805F400351DB11C4D5543D8
:1011F000056002E0194D5543056002E0174D05609A
:1012000000BF00BF144D6D6805F0F0010909154DD0
:101210006B5C0568DD4045600F4D6D6805F4E0616D
:10122000090A104D6B5C4568DD4085600A4D6D68AC
:1012300005F46051C90A0B4D6B5C4568DD40C56023
:10124000054D6D6805F44041890B074D6B5CC56821
:10125000B5FBF3F5056130BD0010024000127A00C5
:1012600000093D00240000203400002010B500F0EB
:1012700001F810BD0CB500200190009033480068C3
:1012800040F480303149086000BF3048006800F405
:10129000003000900198401C0190009818B9019806
:1012A000B0F5A06FF1D12948006800F4003010B10A
:1012B0000120009001E0002000900098012843D117
:1012C0002348006840F01000214908600846006883
:1012D00020F0030008600846006840F00200086043
:1012E0001A484068194948600846406848600846FE
:1012F000406840F4806048600846406820F47C10F4
:1013000048600846406840F4E810486008460068B5
:1013100040F08070086000BF0C48006800F000706A
:101320000028F9D00948406820F0030007494860C8
:101330000846406840F00200486000BF034840682B
:1013400000F00C000828F9D10CBD0000001002408C
:1013500000200240042808D14FF0E021096941F043
:1013600004014FF0E022116107E04FF0E02109692C
:1013700021F004014FF0E0221161704710B51348CD
:10138000006840F0010011490860084640681049B3
:1013900008400E494860084600680E4908400B495D
:1013A00008600846006820F480200860084640680D
:1013B00020F4FE0048604FF41F008860FFF756FFDE
:1013C0004FF000600449086010BD000000100240AA
:1013D0000000FFF8FFFFF6FE08ED00E010B5012168
:1013E000880700F06CF800284ED00121880700F033
:1013F00057F82649086801F001FD2549254A128859
:1014000088542021224A23480088401C11541F4937
:10141000486801F0F3FC1E4A1E490988891C505493
:1014200020211C480088C01C11541849886801F00C
:10143000E5FC174A17490988091D50542021154811
:101440000088401D115413480088801D11490880F0
:101450004FF40050FFF714FA48B10F48FFF70CFAA9
:1014600028B900F063FA4FF40050FFF7EBF9094890
:101470000088B0F5967F07DB01228021074800F045
:1014800073F900200349088010BD000048030020C4
:10149000040200200E0000204400024000380140F9
:1014A000CA430282704721B1028842F001020280E1
:1014B00004E002884FF6FE731A400280704730B590
:1014C0000246002000230024158A05EA01039589BD
:1014D00005EA010413B10CB1012000E0002030BD89
:1014E0001AB183890B43838102E083898B43838113
:1014F00070470000002202881D4B98420ED01D4B01
:1015000098420BD0B0F1804F08D01B4B984205D0C9
:101510001A4B984202D01A4B984204D14FF68F735F
:101520001A404B881A43174B984207D0164B9842E3
:1015300004D04FF6FF431A40CB881A4302808B88B1
:1015400083850B8803850A4B98420BD0094B984240
:1015500008D00E4B984205D00D4B984202D00D4B4F
:10156000984201D10B7A03860123838270470000E1
:10157000002C0140003401400004004000080040FD
:10158000000C0040001000400014004000400140EA
:1015900000440140004801403EB505460C4601218B
:1015A0000846FFF7D9FD00F01CF8681E80B2ADF8C0
:1015B0000400601E80B2ADF800000020ADF802000B
:1015C000ADF8060069464FF08040FFF793FF012217
:1015D00011469007FFF784FF01218807FFF763FF9B
:1015E0003EBD08B51C208DF8000003208DF80100D9
:1015F0008DF8020001208DF803006846FFF764FDB6
:1016000008BD000010B540F225511F4800F0C2F897
:10161000002838D01C4800F053F9C4B221461BA062
:10162000FEF700FE1A48008800F4004058BB184836
:10163000008800F4804060B10A2C03D000201449D7
:10164000088020E01248008840F4004010490880DB
:1016500019E00D2C06D10E48008840F480400C495A
:10166000088010E00A480088C0F30D0009490C54B6
:1016700007480088401C0649088008460088C7289B
:1016800001DD0020088010BD003801402563000006
:10169000080000207400002010B540F225510A48CF
:1016A00000F078F870B1084800F00AF9C4B2532C81
:1016B00003D101200549088004E04B2C02D102200F
:1016C0000249088010BD0000004800400A000020C8
:1016D00021B1828942F40052828104E082894DF670
:1016E000FF731A408281704700B585B00121042044
:1016F000FFF742FD01218803FFF73EFD4FF4007024
:10170000ADF8100018208DF8130003208DF812009A
:1017100004A91348FFF7A2F94FF48060ADF8100058
:1017200004208DF8130004A90D48FFF797F94FF432
:10173000165000900020ADF80400ADF80600ADF89A
:101740000800ADF80C000C20ADF80A006946054809
:1017500000F04AF801210348FFF7BAFF05B000BDC9
:1017600000080140003801401AB1838A0B4383828C
:1017700002E0838A8B438382704702460020B1F5E2
:10178000007F00D100BF13880B400BB1012000E0A7
:101790000020704770B50246002400230025002079
:1017A00040F66A16B14200D100BFC1F3421501F004
:1017B0001F03012606FA03F3012D02D19689334057
:1017C00006E0022D02D1168A334001E0968A3340AA
:1017D0000C12012606FA04F41688344013B10CB139
:1017E000012000E0002070BD2DE9F04786B00546DD
:1017F0000E460024A24600BFA1460027B08900B1D2
:1018000000BF2F462C8A4CF6FF700440F08804433A
:101810002C82AC894EF6F3100440B088318908431D
:10182000718908430443AC81AC8A4FF6FF40044001
:10183000B0890443AC8201A8FFF7AEFC1F48874281
:1018400002D1DDF810A001E0DDF80CA0A88900F4B9
:10185000004040B10AEBCA0000EB0A1031684900B1
:10186000B0FBF1F807E00AEBCA0000EB0A103168A0
:101870008900B0FBF1F86420B8FBF0F00401200906
:10188000642101FB1089A88900F4004040B1322096
:1018900000EBC900B0FBF1F000F00700044308E0E2
:1018A000322000EB09106421B0FBF1F000F00F00D2
:1018B00004432C8106B0BDE8F087000000380140E9
:1018C00001468888C0F308007047C1F3080282808F
:1018D0007047000000B58BB001210846FFF72CFCD3
:1018E0000F4800900F480190102002904FF496701E
:1018F000039000200490802005900020069007901F
:1019000008904FF48050099000200A9069460648DC
:10191000FEF7CCFF01210448FEF7A2FF0BB000BD8B
:1019200004380140040200204400024010B50021A8
:101930000248FEF795FFFFF7CDFF10BD44000240BF
:1019400000BFFEE7490050EAC12018BF04204A0D3D
:1019500018BF40F0010040F2FF72B2EB515F08BFC8
:1019600040F00200012808BF052070472DE9F04132
:101970004F1E00EBC7010446D1E9000115461E4683
:1019800037F006020DD02A46334603F047FA7F1E91
:1019900004EBC703D3E9002303F038F837F006025D
:1019A000F1D1022F25D0042F13D0062F18BFBDE888
:1019B000F0812A46334603F031FAD4E90A2303F0D2
:1019C00025F82A46334603F029FAD4E9082303F020
:1019D0001DF82A46334603F021FAD4E9062303F022
:1019E00015F82A46334603F019FAD4E9042303F024
:1019F0000DF82A46334603F011FAD4E9022303F026
:101A000005F82A46334603F009FAD4E90023BDE875
:101A1000F04102F0FBBF012204F0ABB802F0F6BFC8
:101A2000002213461046114603F0A0B8024A0020D7
:101A3000110704F09EB8000001FDFFFF30380A28AE
:101A400001D20120704700207047014600BF704757
:101A50002DE9FE4F06460F460025684601F0F8F9CD
:101A6000002442E056F8240057F82410A0EB010AA5
:101A7000BAF1000F01DB514601E0CAF1000108464E
:101A800003F072FE83464FF08F4103F03BFD80462A
:101A90005DF82400002103F0F7FD16D05DF8241056
:101AA000404603F02FFD82464FF07E5103F0BAFF0F
:101AB000814629F0004A0F48416A504603F080FFF2
:101AC00012D20120A04005430EE00A48C1694046F9
:101AD00003F076FE05D30748016A404603F070FF25
:101AE00002D20120A0400543641C032CBADB284627
:101AF000BDE8FE8F285C00082DE9F04D8D4F21F0E8
:101B0000004A86B005460C46BA452ADBAAEB070018
:101B100028430AD08848824501DC1AD1CDB106B0ED
:101B20002846BDE8F04DFFF776BF844A844B28462F
:101B300003F074F907460E46824A834B2846214635
:101B400003F06CF906B03A463346BDE8F04D02F0BA
:101B50005DBF0120FEF750FD06B0BDE8F04DFFF778
:101B60005FBF7A48824542DABAF1795F0BDA2846DC
:101B7000FFF7E8FE042808BFFFF758FF284606B025
:101B80002146BDE8F08D2A460B46104603F046F983
:101B9000834602466E480E460B4606217844FFF700
:101BA000E5FE5A46334603F039F9804669488A46CD
:101BB0005A46334604217844FFF7D8FE5A46334646
:101BC00003F02CF900223B4602F020FF02460B46B0
:101BD0004046514602F0CAFF2A46234603F01EF94A
:101BE00006B02A462346BDE8F04D02F00FBF284656
:101BF00024F0004100223D463B4603F00DFA4FF031
:101C0000FF3203F0B6FF0646024653480F460B4626
:101C100006217844FFF7AAFE32463B4603F0FEF861
:101C2000CDE900014D4832463B4604217844FFF798
:101C30009DFE32463B4603F0F1F800222B4602F0AF
:101C4000E5FE834602913046394602F087FE804623
:101C500043480D46504517DCDDE900015A46029B1A
:101C600002F084FF42462B4603F0D8F842462B464A
:101C700002F0CCFE012203F07CFF304A304B03F02F
:101C8000BDFA304A304B4CE04FF0000A52460B464A
:101C9000404602F0BBFECDE9031052462B461046EB
:101CA000194603F0BBF832463B4603F0B5F9DDE9CF
:101CB000033202F05BFF06460F46DDE900015A469B
:101CC000029B02F053FF83460091012230463946C1
:101CD00003F04FFF194A1A4B03F09EF906460F46D0
:101CE00001224046294603F044FF5A46009B03F078
:101CF00095F832463B4603F081FA06460F4601222C
:101D00005046294603F035FF0E4DDFF858802A462D
:101D1000434603F081F932463B4603F07DF92A46FB
:101D2000434603F079F9002CD8BF81F0004106B09A
:101D3000BDE8F08D0000F03F0000F07F075C143339
:101D400026A6913C182D4454FB21F93F0000E03FAA
:101D5000B84C0000CE4C0000424C0000584C000033
:101D60003333EF3FFB21E93F2DE9F84F04460D46A1
:101D700021F0004000917349814211DC7249884290
:101D800001DC06D12CB120462946BDE8F84FFFF70B
:101D900042BE6E48002DCCBF6D496E49BDE8F88F3C
:101DA0006D49814211DD6D498142D8BF4FF0FF3648
:101DB0006DDD20462946FFF7C5FD042808BFFFF763
:101DC00035FE20462946BDE8F88F6549654F25F068
:101DD0000045814233DD6449814219DD00263246E7
:101DE0004FF080432046294602F010FE80468A4686
:101DF00001222046294603F0BCFE00223B4603F0A8
:101E0000FDF94246534602F0B1FE04460D463EE05F
:101E100001260022BA463B462046294602F0F6FD3E
:101E200080460F46002253462046294603F0E6F935
:101E300042463B4602F09AFE04460D4627E04B49D7
:101E400081421BDDDFF828A10226002253462046EE
:101E5000294602F0E3FF00223B4602F0D7FD804610
:101E60000F46002253462046294603F0C7F9424652
:101E70003B4602F07BFE04460D4608E00326224660
:101E80002B4600203B4902F071FE04460D462246D7
:101E90002B461046194602F0C1FF8B468246024689
:101EA0000B4602F0BBFF07460246334888460B4606
:101EB00006217844FFF75AFD52465B4602F0AEFF1A
:101EC00082462E488B463A46434605217844FFF722
:101ED0004DFD3A46434602F0A1FF02460B46002E56
:101EE000504659460CDA02F091FD22462B4602F08C
:101EF00095FF01B022462B46BDE8F04F03F08CB8A9
:101F000002F084FD22462B4602F088FF1C4A7A44E8
:101F100002EBC603D3E9002303F070F922462B46F7
:101F200003F06CF9174A7A4402EBC603D3E90023A5
:101F300003F072F8009A002AB8BF81F00041BDE8B2
:101F4000F88F0000000010440000F07F182D44546A
:101F5000FB21F93FFB21F9BF0000DC3F0000203EE0
:101F60000000F33F0000F03F0000E63F0080034028
:101F70000000F83F0000F0BF5A4A0000184A000075
:101F8000B64900007E4900002DE9F04D9446CCF1A1
:101F9000000423F000464CEA0404524F46EAD4748D
:101FA0009A46884621F00042BC4206D8454240EAA3
:101FB000050442EAD474BC4204D9BDE8F04D62463F
:101FC000FFF72CBDAAF14055A5F17F6555EA0C0439
:101FD0000BD0022404EAAA74434DDFF810E144EA6E
:101FE000D87452EA000B04D00CE0BDE8F04DFFF7C6
:101FF000BBBE002C14BF012CBDE8F08D022C30D0EC
:10200000032C32D056EA0C0B0AD0BE4220D1BA4281
:1020100009D126F0804622F080423346114617E06F
:1020200000291ADB25E0DFF8C8B0FB44002C04BF10
:10203000DBE90001BDE8F08D012C02BFDBE9000106
:1020400081F00041BDE8F08D022C0AD0032C0CD0A9
:10205000BA4212D1B8F1000F0BDA23482549BDE886
:10206000F08D28462449BDE8F08D28467146BDE82C
:10207000F08D1D482149BDE8F08D921B12153C2AB8
:10208000C4BF19481D490EDCBAF1000FBEBF12F1E2
:102090003C0F0020014606DB624602F067FD21F09E
:1020A0000041FFF761FE002C08BFBDE8F08D012C58
:1020B00004BF81F00041BDE8F08D114A114B022CA4
:1020C00007D003F09BF82A46BDE8F04D0A4B03F019
:1020D00095B803F093F82A46BDE8F04D064B02F0A0
:1020E0009BBF00000000F07F182D4454FB2109C065
:1020F00012490000FB21F9BFFB210940FB21F93FF8
:10210000075C143326A6A13C2DE9F0410446E07893
:1021100000F0C006E07800F03F05607800F00100B4
:1021200098B1EF102846E91705EB5171C910A5EBDE
:10213000C101491C01F0FF080B48006820B10A48A2
:10214000414602683846904700BF607800F00800BA
:1021500030B10548406818B1B011034A516888474A
:102160000020BDE8F08100006403002010B56FF08E
:102170000400FFF7EFF80A4800680A49B0FBF1F0E5
:10218000094908700846007800EB4001C1EBC01017
:102190004FF6FF7101EAC0000449088010BD00003D
:1021A0001000002000127A00000000200200002031
:1021B0000146114A12884A434FF0E0235A61002237
:1021C0009A611A46126942F001021A6100BF4FF08B
:1021D000E022106900F001021AB100F48032002AF6
:1021E000F5D04FF0E022126922F001024FF0E02317
:1021F0001A6100229A617047020000200146114ACC
:1022000012784A434FF0E0235A6100229A611A463D
:10221000126942F001021A6100BF4FF0E02210691A
:1022200000F001021AB100F48032002AF5D04FF01C
:10223000E022126922F001024FF0E0231A6100222D
:102240009A6170470000002038B5044664B1202030
:102250008DF8000028208DF8010030208DF8020054
:1022600038208DF8030004E0A32204216846FEF71D
:102270003BF96A46042140F69E2002F09DFA01F0E7
:1022800087FE38BD3EB5044602208DF80000CA2006
:102290008DF80100E3208DF8020009208DF803007D
:1022A0006A460421682002F087FAA3208DF8000016
:1022B00004F0400048B1C0208DF80100C8208DF81E
:1022C0000200C2208DF8030006E0A3208DF8010073
:1022D0008DF802008DF8030004F4C07048B1C420EA
:1022E0008DF80400CC208DF80500C6208DF806007E
:1022F00006E0A3208DF804008DF805008DF8060097
:10230000A3208DF807008DF808008DF809006A46B3
:102310000A2140F6A72002F04FFA04F0030018B19A
:1023200020208DF8000002E0D8208DF800006A46D9
:10233000012140F6B62002F03FFA04F0200018B167
:10234000012000F0ADF802E0002000F0A9F804F44C
:10235000C07008B304F4807060B1B2208DF8000042
:102360008B208DF80100B6208DF802009B208DF89F
:1023700003000BE0B0208DF8000080208DF80100F4
:10238000B4208DF8020090208DF803006A460421E5
:1023900040F6A22002F010FA04F0010020B3F82069
:1023A0008DF800006A4601214FF40B6002F004FA38
:1023B000FA21072000F02CFC072000F0F3FB01209D
:1023C00000F013FC642000F0F3FC4FF4FA7000F00E
:1023D00002FDC821304800F0A3FB282000F0BCFB20
:1023E0000A2000F0CCFB08E0D8208DF800006A46F7
:1023F00001214FF40B6002F0DFF904F0020018B184
:10240000D9208DF8000002E0D8208DF800006A463F
:10241000012140F23D7002F0CFF904F0040018B140
:10242000012000F069F802E0002000F065F804F0F7
:10243000100018B10120FFF707FF02E00020FFF7AE
:1024400003FF44F008001549488101F0A1FD002078
:102450001249887304F0400018B10846807B801D43
:10246000887304F4C07020B10C48807B801D0B4938
:10247000887304F0140020B10848807B10300749AD
:10248000887304F0030020B10448807B001D0349D9
:10249000887300203EBD000009E3CA0264030020E7
:1024A0003EB504466CB10EA1D1E900208968CDE9A2
:1024B000002002916A4609214FF4976002F07CF9EE
:1024C0003EBD0AA2D2E900109268CDE90102009156
:1024D0006A4609214FF4976002F06EF9F0E70000B8
:1024E000B8AAB38DB4980D355D000000B8AAAAAAA9
:1024F000B088C3C5C700000038B5044664B1C02029
:102500008DF80000C2208DF80100C4208DF8020073
:10251000C6208DF8030004E08B2204216846FDF7F5
:10252000E3FF6A46042140F6982002F045F901F0E5
:102530002FFD38BD10B5C8234FF48062024940F624
:10254000F63001F0B9FB10BD505C00082DE9F04FEA
:102550008DB00746884615469946DDE9166B00247E
:10256000002030806B49887B5A4605A901F070FC39
:1025700018B1601E0DB0BDE8F08F6648807A00F09B
:102580001400002867D09DF8140000069DF815106F
:1025900040EA01409DF8161040EA01209DF817100E
:1025A000084328609DF8180000069DF8191040EABD
:1025B00001409DF81A1040EA01209DF81B100843C5
:1025C00068609DF81C0000069DF81D1040EA01405F
:1025D0009DF81E1040EA01209DF81F100843A860D6
:1025E0009DF8200000069DF8211040EA01409DF86A
:1025F000221040EA01209DF823100843E86004F10E
:102600001000C4B228680014019068680014029099
:10261000A86800140390E8680014049001984043EF
:10262000029901FB0100039901FB0100049901FBE0
:10263000010ABAF1706F02DBBAF1885F05DD01F0C3
:10264000A7FC00203080401E94E7B6F9000040F45B
:102650008070308000BF2F48807A00F0400020B3A7
:1026600005A9601C085C095D40EA012000B2A8F8D9
:10267000000005A9E01C095C05AAA01C105C41EA49
:10268000002000B2A8F8020005A9601D095C201D09
:10269000105C41EA002000B2A8F80400A01DC4B2FA
:1026A000B6F9000040F0080030801A48408900F474
:1026B000C07008B305A9601C085C095D40EA0120F0
:1026C00000B2388005A9E01C095C05AAA01C105CBA
:1026D00041EA002000B2788005A9601D095C201D38
:1026E000105C41EA002000B2B880A01DC4B2B6F967
:1026F000000040F0700030800648807A00F003004F
:1027000018B105A90819FFF7FFFC484600F05EFF65
:1027100000202FE76403002070B588B0064601A8AA
:1027200001F01EF9BDF804000021C90341EA50453B
:10273000C4034448007A00F0030056F820000590D6
:102740004048007A00F0040010B10598404205901E
:102750003C48007AC0F3C10056F820000690394882
:10276000007A00F0200010B10698404206903548EB
:10277000007AC0F3811056F8200007903148008994
:1027800000F4807010B10798404207900598C11777
:10279000A0FB042301FB043100FB0510810041EA8A
:1027A000927005900698C117A0FB042301FB043129
:1027B00000FB0510810041EA927006900798C1174E
:1027C000A0FB042301FB043100FB0510810041EA5A
:1027D000927007900598000E8DF808000598000C7F
:1027E0008DF809000598000A8DF80A000598C0B216
:1027F0008DF80B000698000E8DF80C000698000C62
:102800008DF80D000698000A8DF80E000698C0B2EB
:102810008DF80F000798000E8DF810000798000C37
:102820008DF811000798000A8DF812000798C0B2C1
:102830008DF8130002AA0C214FF4257001F0BCFFA3
:1028400008B070BD6403002030B585B0044616A200
:1028500007CA02AB07C3C82C03DD4FF0FF3005B039
:1028600030BDC82090FBF4F0401E85B2280A8DF8D8
:102870000000E8B28DF801006A46022140F21620FD
:1028800001F09AFF10B14FF0FF30E8E702AA0C21E7
:1028900040F6C12001F090FF10B14FF0FF30DEE7AD
:1028A000044884810020DAE7FEF2ABC4AAF1DFDF3E
:1028B000BBAFDFDF640300201FB504464848007A41
:1028C00000F0030054F8200001904548007A00F021
:1028D000040010B10198404201904148007AC0F3D1
:1028E000C10054F8200002903D48007A00F020001A
:1028F00010B10298404202903948007AC0F381102A
:1029000054F8200003903648008900F4807010B11C
:102910000398404203903349019880FB0101800FE6
:1029200040EA810001902F49029880FB011082004B
:1029300042EA917002902B49039880FB01108200BB
:1029400042EA917003900198000E8DF80000019802
:10295000000C8DF801000198000A8DF80200019822
:10296000C0B28DF803006A4604214FF4747001F080
:1029700023FF18B14FF0FF3004B010BD0298000ED5
:102980008DF800000298000C8DF801000298000AF2
:102990008DF802000298C0B28DF803006A46042147
:1029A0004FF4757001F008FF10B14FF0FF30E3E70E
:1029B0000398000E8DF800000398000C8DF80100BC
:1029C0000398000A8DF802000398C0B28DF8030046
:1029D0006A4604214FF4767001F0EEFECCE7000069
:1029E0006403002009E3CA0210B586B0044647A07C
:1029F0000068039046A00068029046A0006801901D
:102A000045A00068009004F0030003A9085C8DF85D
:102A1000140003A8C4F3C101405C8DF8150003A89D
:102A2000C4F38111405C8DF8160004F0030002A984
:102A3000085C8DF8100002A8C4F3C101405C8DF859
:102A4000110002A8C4F38111405C8DF8120005AAA0
:102A5000032140F2264001F0AFFE18B14FF0FF30E5
:102A600006B010BD04AA032140F22A4001F0A4FEE2
:102A700010B14FF0FF30F3E70198059000980490F3
:102A800004F0040058B19DF8140040F001008DF8E6
:102A900014009DF8100040F001008DF8100004F0C3
:102AA000200058B19DF8150040F001008DF8150088
:102AB0009DF8110040F001008DF8110004F48070C1
:102AC00058B19DF8160040F001008DF816009DF8F1
:102AD000120040F001008DF8120005AA03214FF406
:102AE000886001F069FE10B14FF0FF30B8E704AA2A
:102AF000032140F2314001F05FFE10B14FF0FF3092
:102B0000AEE7064804810020AAE700004CCD6C0027
:102B10000CC92C0036567600264666006403002059
:102B2000F8B505460E464FF47A7095FBF0F000FBC1
:102B300006F4200E8DF80000200C8DF80100200A0C
:102B40008DF80200E0B28DF803006A4604214FF4CC
:102B5000AE7001F031FEF8BD38B50446052094FB97
:102B6000F0F084B220128DF80000E0B28DF8010080
:102B70006A4602214FF4AD7001F01EFE38BD38B533
:102B80000446052094FBF0F084B220128DF800007A
:102B9000E0B28DF801006A4602214FF4AC7001F0FA
:102BA0000BFE38BD38B504460020009004F001004B
:102BB00020B19DF8000040F03000009004F00200C9
:102BC00020B19DF8000040F00C00009004F00400DB
:102BD00020B19DF8000040F0030000906A460121FA
:102BE0004FF4A47001F0E8FD38BD38B50446012C5F
:102BF00001DA012402E0042C00DD0424601EC0B2CE
:102C000000906A46012140F24F1001F0D5FD38BD19
:102C10002DE9FC4706460F4606F0070010B1B7F550
:102C2000C86F03DD4FF0FF30BDE8FC87384602F087
:102C3000B3FD8146594902F065FC8046684600F0C4
:102C400069FE9DF80000022806D0042816D0082846
:102C500026D0102848D135E04FF08D41404602F093
:102C6000E3FD814602F060FD84B24D49404602F02A
:102C7000DBFD814602F058FD85B238E04FF08C4113
:102C8000404602F0D1FD814602F04EFD84B2454936
:102C9000404602F0C9FD814602F046FD85B226E0BD
:102CA0004FF08B41404602F0BFFD814602F03CFDF3
:102CB00084B23D49404602F0B7FD814602F034FD42
:102CC00085B214E04FF08A41404602F0ADFD8146E6
:102CD00002F02AFD84B23549404602F0A5FD814646
:102CE00002F022FD85B202E04FF0FF309CE700BF0A
:102CF00020128DF80400E0B28DF8050028128DF83E
:102D00000600E8B28DF8070006F00100A0B101AAA4
:102D100002214FF4EA7001F04FFD10B14FF0FF3087
:102D200082E70DF1060202214FF4927001F044FD9A
:102D300010B14FF0FF3077E706F00200A0B101AA12
:102D400002214FF4EC7001F037FD10B14FF0FF306D
:102D50006AE70DF1060202214FF4947001F02CFD98
:102D600010B14FF0FF305FE706F00400A0B101AAF8
:102D700002214FF4EE7001F01FFD10B14FF0FF3053
:102D800052E70DF1060202214FF4967001F014FD96
:102D900010B14FF0FF3047E7002045E700004843FF
:102DA000000040460000C045000040450000C0440F
:102DB00038B50446052094FBF0F085B228128DF852
:102DC0000000E8B28DF801006A4602214FF4EF706E
:102DD00001F0F2FC38BD38B50446052094FBF0F054
:102DE00085B228128DF80000E8B28DF801006A461D
:102DF00002214FF4ED7001F0DFFC38BD10B5044640
:102E00004FF08641204602F0DBFD01D8FF2010BDC7
:102E10004FF04341204602F0D3FC01D80020F6E7F2
:102E2000204602F065FC8030C0B2F0E770B5044681
:102E30000D46E1B20548FEF748FD00BF802103487A
:102E4000FEF79BFC0028F9D0204670BD00380140F9
:102E50007CB5054628494968087801AB04220D2154
:102E6000FEF730F808B107207CBD9DF80700C0F3DD
:102E700001109DF8041001F0E00140EAE1008DF836
:102E800000009DF80700C0F381009DF8051001F0D7
:102E9000E00140EAE1008DF801009DF8070000F034
:102EA00003009DF8061001F0E00140EAE1008DF812
:102EB000020000241CE01DF8040018B9002045F8A9
:102EC000240013E00D4845F8240006E055F82400DE
:102ED0000B4902F0A9FC45F824001DF80400401E2F
:102EE000C0B20DF804000028F0D100BF601CC4B2CD
:102EF000032CE0DB0020B7E73C0000207B14AE3E53
:102F00001D5A843F2DE9F04F87B005460C46914687
:102F100001208DF8100000208DF81100FE4A126883
:102F2000917CFD4A5268107804AB0222FEF770F8DB
:102F300020B14FF0FF3007B0BDE8F08FC820FFF799
:102F400037F900208DF81000F34A1268D17BF24A5D
:102F50005268107804AB0122FEF75AF810B14FF016
:102F6000FF30E8E7EC4A12685179EB4A5268107872
:102F700004AB0122FEF74CF810B14FF0FF30DAE756
:102F8000E54A1268917CE44A5268107804AB012249
:102F9000FEF73EF810B14FF0FF30CCE7DE4A126882
:102FA000D17DDD4A5268107804AB0122FEF730F87B
:102FB00010B14FF0FF30BEE7D74A12681179D64AF8
:102FC0005268107804AB0122FEF722F810B14FF0DE
:102FD000FF30B0E70C208DF81000CF4A126811794D
:102FE000CD4A5268107804AB0122FEF711F810B1F7
:102FF0004FF0FF309FE70F20FFF7DAF8C648806AEE
:10300000407A8DF81000C44A12689178C24A52681A
:10301000107804AB0122FDF7FBFF10B14FF0FF3039
:1030200089E7BD48806A007A8DF81000BA4A1268B4
:103030005178B94A5268107804AB0122FDF7E8FFD5
:1030400010B14FF0FF3076E7B9F1000F07D0B2486A
:10305000806A807A40F0E0008DF8100004E0AE480D
:10306000806A807A8DF81000AB4A12689179AA4A7A
:103070005268107804AB0122FDF7CAFF10B14FF07F
:10308000FF3058E7B9F1000F07D0A348806AC07A33
:1030900040F0E0008DF8100003E0A048C07A8DF801
:1030A00010009D4A1268D1799B4A5268107804AB8F
:1030B0000122FDF7ADFF10B14FF0FF303BE7B9F152
:1030C000000F02D0C820FFF773F840208DF81000E1
:1030D000914A12681179904A5268107804AB012223
:1030E000FDF796FF10B14FF0FF3024E778208DF800
:1030F0001000894A12685179874A5268107804ABE7
:103100000122FDF785FF10B14FF0FF3013E783492F
:103110008889FFF74DF800208DF810007E4A12686C
:1031200051797D4A5268107804AB0122FDF770FF97
:1031300010B14FF0FF30FEE6774A1268917A764A76
:103140005268107804AB0222FDF7BCFE10B14FF0BC
:10315000FF30F0E69DF811009DF8101040EA012BB9
:103160000C209BFBF0F0C6B20020A86068602860CD
:10317000A06060602060824665E0674A1268D17A8C
:10318000654A5268107804AB0C22FDF79BFE10B123
:103190004FF0FF30CFE69DF811009DF8101040EA87
:1031A000012000B2ADF808009DF813009DF8121040
:1031B00040EA012000B2ADF80A009DF815009DF824
:1031C000141040EA012000B2ADF80C00BDF908105F
:1031D000206808442060BDF90A10606808446060F7
:1031E000BDF90C10A0680844A0609DF817009DF878
:1031F000161040EA012000B2ADF800009DF8190059
:103200009DF8181040EA012000B2ADF802009DF8C8
:103210001B009DF81A1040EA012000B2ADF804002E
:10322000BDF90010286808442860BDF902106868DC
:1032300008446860BDF90410A8680844A8600AF151
:10324000010000F0FF0AB24597DB3448D0F800C017
:103250002868C117090441EA1041070462460023A7
:103260003846FCF7BAFF32460023CDE90201FCF7ED
:10327000B4FF28602948D0F800C06868C117090465
:1032800041EA10410704624600233846FCF7A5FFD7
:1032900032460023CDE90201FCF79FFF68601F481A
:1032A000D0F800C0A868C117090441EA104107041A
:1032B000624600233846FCF790FF32460023CDE9F2
:1032C0000201FCF78AFFA8601448D0F804C0216806
:1032D000C817000440EA11480F046246002338462C
:1032E0004146FCF77AFF32460023CDE90201FCF7A4
:1032F00074FF20600948D0F804C06068C117090451
:1033000041EA10410704624600233846FCF765FF96
:103310003246002304E000003C000020285C000846
:10332000CDE90201FCF759FF60601148D0F804C0F4
:10333000A068C117090441EA10410704624600234E
:103340003846FCF74AFF32460023CDE90201FCF77C
:1033500044FFA060A068002804DDA068A0F58030CC
:10336000A06003E0A06800F58030A0600020E2E5E6
:10337000285C00082DE9FC5F06460F4600253D4904
:103380004968087801AB03220D21FDF79BFD10B1C0
:103390000720BDE8FC9F9DF8040000F01F008DF899
:1033A00004009DF8050000F01F008DF805009DF851
:1033B000060000F01F008DF80600002456E056F8C5
:1033C000240057F82410A0EB010BBBF1000F01DB28
:1033D000594601E0CBF10001084602F0C5F94FF073
:1033E0008F41009002F08EF8814601A8005D68B31D
:1033F0002149086802F0D0F9834659461F4802F077
:1034000081F8804604E01E49404602F00DFA8046ED
:1034100001A8005D401EC0B201A908550028F2D1E4
:103420004146484602F06EF883464FF07E5102F066
:10343000F9FA82462AF0004B0F488169584602F09B
:10344000BFFA12D20120A04005430EE00A480169EC
:10345000484602F0B5F905D307484169484602F0ED
:10346000AFFA02D20120A0400543641C032CA6DB66
:1034700028468EE73C000020285C000800B04C4540
:1034800054E3853F10B50446204600F00FF803468C
:10349000E01C00F00BF843EAC00083B2A01D00F06E
:1034A00005F843EA801083B2184610BD014691F931
:1034B0000020002A01DD00201EE091F90020002AF2
:1034C00001DA042018E091F90120002A01DD012031
:1034D00012E091F90120002A01DA05200CE091F9AF
:1034E0000220002A01DD022006E091F90220002AD4
:1034F00001DA062000E00720704700000024FEF7F4
:1035000035FE4FF4FA70FEF753FEFEF7EDF8FDF7C7
:103510007FFC18B113A0FCF785FE02E016A0FCF7B3
:1035200081FE03E0214618A0FCF77CFE00F0A2F922
:10353000041EF7D16420FEF73BFEFDF79CFDFEF76D
:10354000C9F91A4800784FF4966191FBF0F085B202
:1035500029464EF66020FEF71FF815A0FCF762FE24
:1035600000BFFEE74D50555F496E697420466169A2
:103570006C6564210D0A00004D50555F496E6974F9
:10358000204F4B210D0A00006D70755F646D705FF8
:10359000696E6974204661696C65642065726F723A
:1035A00072206E756D3A25640D0A00003800002007
:1035B000B3F5CABCBBAFBDE1CAF8A3ACD6F7D1AD79
:1035C000BBB7C6F4B6AF0D0A00000000704700009C
:1035D00070B50446002624F00104184890F8240031
:1035E00008B1002070BD1548807A10B94FF0FF3047
:1035F000F8E71248057C807A204010490874084694
:10360000007CA04202D04FF0FF3600E0002614B943
:103610000A48007D18B1012001F058F902E00020AD
:1036200001F054F93CB100F0B3FC20B1034805743B
:103630004FF0FF30D6E73046D4E700003C000020D2
:103640002DE9F04F9BB081468A4693461C464FF0C9
:103650007E55002600274FF0000814A815A91AABC4
:1036600010AACDE9001016A918A8FEF76FFF18B12F
:1036700001201BB0BDE8F08FBDF8540000F480704D
:1036800000287DD0109802F06FF84FF09D410F9008
:1036900001F038FF0546119802F066F84FF09D41A1
:1036A0000F9001F02FFF0646129802F05DF84FF0E0
:1036B0009D410F9001F026FF0746139802F054F841
:1036C0004FF09D410F9001F01DFF804629464FF0BD
:1036D000804002F0A9F83946069002F0A5F831467C
:1036E00008904FF0404002F09FF84146069002F0EB
:1036F0009BF80790089901F097FE099001F068FE89
:10370000CDE90A01FEF7F8F94FF06632584BCDE9E2
:103710000C0101F083FBCDE90E0101F045F9C9F878
:10372000000039464FF0804002F07EF839460390A1
:1037300002F07AF8314605904FF0404002F074F8FC
:103740003146039002F070F80490059902F06AF98E
:103750004FF07E51069001F067FE079001F038FEB1
:10376000CDE90A0129464FF0804002F05DF831466C
:10377000049002F059F8394606904FF0804000E07E
:1037800071E002F051F84146049002F04DF80590C6
:10379000069901F049FE079001F01AFECDE90801F3
:1037A000DDE90A23FEF7F0FB4FF06632304BCDE93E
:1037B0000C0101F033FBCDE90E0101F0F5F8CAF878
:1037C00000004146404602F02FF839460690384640
:1037D00002F02AF831460490304602F025F82946D6
:1037E0000290284602F020F80190029901F01CFE98
:1037F0000390049902F016F90590069902F012F967
:10380000079001F0E5FDCDE90A014146284602F0A6
:103810000BF839460590304602F006F804900599F9
:1038200001F002FE4FF08041069001F0FDFF07908D
:1038300001F0CEFDCDE90801DDE90A23FEF7A4FB86
:103840004FF066320A4BCDE90C0101F0E7FACDE901
:103850000E0101F0A9F8CBF8000025606660A760B2
:10386000C4F80C8001E0022003E7002001E700001B
:1038700066A64C4070B50024FDF7ACF900F024F9C1
:10388000002840D1782000F02FFFC4B20CB10120F5
:1038900070BD7820FFF79CFEC4B20CB10220F7E7A0
:1038A000642000F0D3FEC4B20CB10320F0E7FEF7B1
:1038B00041FEC4B20CB10420EAE71548FFF7E2FD6F
:1038C0000546FFF791F8C4B20CB10520E0E740F2DD
:1038D0007310FEF7D7FCC4B20CB10620D8E7642001
:1038E000FEF7B2FFC4B20CB10720D1E700F0A4FF8D
:1038F00004460CB10820CBE7012000F0A3FDC4B2C0
:103900001CB10920C4E70A20C2E70020C0E700007C
:103910006800002001461148407A30B1012807D0E4
:10392000022808D003280CD108E0022008700BE020
:103930000420087008E00820087005E010200870D6
:1039400002E04FF0FF30704700BF0448C07C18B160
:1039500008784006000E08700020F4E73C000020C4
:1039600001461348407A30B1012808D002280AD015
:10397000032810D10BE04FF4804008800EE041F6A0
:103980009C7008800AE04FF48050088006E04FF4F5
:103990000060088002E04FF0FF30704700BF04482D
:1039A000C07C10B10888401008800020F5E70000B6
:1039B0003C00002001460248007C0870002070474F
:1039C0003C00002001460F48007A30B1012807D0A2
:1039D000022809D003280FD10AE0FA2008800EE05F
:1039E0004FF4FA7008800AE04FF47A70088006E01D
:1039F0004FF4FA60088002E00020088000BF00BF9A
:103A0000002070473C00002001460E48007A30B18B
:103A1000012807D0022808D003280CD108E00A4862
:103A200008600BE00948086008E00948086005E004
:103A30000848086002E04FF0FF30704700BF0020E8
:103A4000FBE700003C00002000000343000083422D
:103A5000333303423333834101461248C07A082886
:103A600017D2DFE800F01704070A0D101318BC2066
:103A7000088013E06220088010E02A2008800DE012
:103A8000142008800AE00A20088007E0052008804A
:103A900004E000BF00BF0020088000BF00BF00207E
:103AA000704700003C0000200146064890F82400C2
:103AB00010B14FF0FF3070470248C08908800020E5
:103AC000F9E700003C0000201CB580208DF80000C4
:103AD000654A1268917C644A526810786B460122EC
:103AE000FDF796FA10B14FF0FF301CBD6420FEF7D1
:103AF0005FFB00208DF800005B4A1268917C5A4AF7
:103B0000526810786B460122FDF782FA10B14FF02F
:103B1000FF30EAE7544A1268917D534A52681078A0
:103B20006B460622FDF7CEF910B14FF0FF30DCE70F
:103B30009DF80500C007400F9DF8031001F001013A
:103B400040EA41009DF8011001F0010140EA010442
:103B500094B1012C03D101214348C17431E0022CFE
:103B600003D100214048C1742BE021463FA0FCF75F
:103B700059FB4FF0FF30B8E73B4A1268D1783A4A18
:103B8000526810786B460122FDF79CF910B14FF096
:103B9000FF30AAE79DF8000000F00F042CB93D4863
:103BA000FCF740FB4FF0FF309FE7042C06D13AA012
:103BB000FCF738FB01212C48C17402E000212A489F
:103BC000C174FF2128488172FF2027490872FF2114
:103BD00025484172C1724FF6FF71C181FF21017406
:103BE00081740121017380F82210002180F82310D4
:103BF000417501751630016041608160163880F8AA
:103C0000241080F82510C1844FF4FA6000F062FCA3
:103C100010B14FF0FF3068E7022000F02BFB10B12D
:103C20004FF0FF3061E72A2000F0CEFC10B14FF0DA
:103C3000FF305AE7322000F009FD10B14FF0FF309D
:103C400053E70020FFF7C4FC10B14FF0FF304CE702
:103C5000002000F051FB10B14FF0FF3045E700208D
:103C600000F042FD002040E73C000020556E7375D7
:103C700070706F7274656420736F667477617265BB
:103C80002070726F64756374207265762025642ECF
:103C90000A0000004869000848616C662073656E80
:103CA0007369746976697479207061727420666FC3
:103CB000756E642E0A0000002DE9F04385B00546BC
:103CC0000E4690469946294890F8250020B14FF0BD
:103CD000FF3005B0BDE8F08316B94FF0FF30F8E7CC
:103CE000002423E0281B102801DD102000E0281B01
:103CF00087B232193946204600F05EFD10B14FF010
:103D0000FF30E6E701AA3946204600F001F910B17C
:103D10004FF0FF30DDE730193A4601A9FCF7B8FB58
:103D200010B16FF00100D4E7E01984B2AC42D9DBE6
:103D30004FEA28208DF8000008F0FF008DF8010000
:103D40000A4A1268917E094A526810786B4602222C
:103D5000FDF75EF910B14FF0FF30BAE701210348DB
:103D600080F82510A0F826900020B2E73C00002043
:103D700038B50446282C02DD4FF0FF3038BDDCB9E1
:103D8000002000F0EBFB00208DF8000007208DF8EC
:103D900001002E4A1268917C2C4A526810786B46BA
:103DA0000222FDF735F910B14FF0FF30E6E70021B0
:103DB000264801750020E1E7012000F0CFFB20201C
:103DC0008DF80000012C06D100208DF8010005209F
:103DD00000F0FAFB17E0052C06DC01208DF801004D
:103DE000052000F0F1FB0EE0142C06DC02208DF81B
:103DF00001000A2000F0E8FB05E003208DF8010037
:103E0000142000F0E1FB9DF80100072101EB801078
:103E1000C0B28DF801000D4A1268917C0B4A5268BD
:103E200010786B460222FDF7F3F810B14FF0FF3027
:103E3000A4E7082105488172002101730121017561
:103E40000020FFF7C5FB002098E700003C000020A1
:103E5000F8B504460F4616462C4890F8240010B9D1
:103E60004FF0FF30F8BD2948807A10B94FF0FF308D
:103E7000F8E7264A1268917A244A526810786B460D
:103E80000222FDF71FF810B14FF0FF30EAE79DF86E
:103E900001009DF8001040EA0125A54203DA002048
:103EA0003070401EDEE7194840684088B5EB600F6F
:103EB00017DD164A1268517C144A526810786B4616
:103EC0000122FCF7FFFF10B14FF0FF30CAE79DF869
:103ED000000000F0100020B100F05AF86FF001006F
:103EE000C0E7E2B2094B1B68D97A084B5B681878C7
:103EF0003B46FCF7E7FF10B14FF0FF30B2E795FB10
:103F0000F4F0401E30700020ACE700003C000020C0
:103F1000F8B504460D46164616B94FF0FF30F8BD09
:103F20001A48807A10B94FF0FF30F8E720128DF868
:103F30000000E0B28DF801009DF80100284413490B
:103F400049684989884202DD4FF0FF30E7E70F4AB0
:103F50001268117E0D4A526810786B460222FDF7F6
:103F600057F810B14FF0FF30D9E7EAB2074B1B68A2
:103F7000597D064B5B6818783346FCF7A3FF10B1F8
:103F80004FF0FF30CBE70020C9E700003C000020E5
:103F900008B57048807A10B94FF0FF3008BD002096
:103FA00000906C4A1268D17B6A4A526810786B465E
:103FB0000122FDF72DF810B14FF0FF30EEE7654A12
:103FC00012685179634A526810786B460122FDF7F6
:103FD0001FF810B14FF0FF30E0E75E4A1268117928
:103FE0005C4A526810786B460122FDF711F810B157
:103FF0004FF0FF30D2E7574890F82400002853D004
:104000000C200090534A12681179524A5268107875
:104010006B460122FCF7FCFF10B14FF0FF30BDE70B
:104020003220FEF7C5F8C02000904A48807A00F0A0
:10403000010020B19DF8000040F020000090454AAA
:1040400012681179434A526810786B460122FCF7D6
:10405000DFFF10B14FF0FF30A0E73E48407C10B1C9
:104060000220009001E0002000903A4A1268D17BC3
:10407000384A526810786B460122FCF7C9FF10B12C
:104080004FF0FF308AE700200090324A12685179E1
:10409000304A526810786B460122FCF7B9FF0028BD
:1040A00055D04FF0FF3079E704200090294A12687C
:1040B0001179284A526810786B460122FCF7A8FF54
:1040C00010B14FF0FF3069E72248807C20B92148C9
:1040D000807A00F0010010B94020009001E06020DB
:1040E00000901C4A126811791A4A526810786B467F
:1040F0000122FCF78DFF10B14FF0FF304EE7322068
:10410000FEF756F81348407C10B10120009001E002
:10411000002000900F4A1268D17B0E4A5268107836
:104120006B460122FCF774FF10B14FF0FF3035E70A
:10413000084A12685179074A52681078054B1033C3
:104140000122FCF765FF10B14FF0FF3026E7002099
:1041500024E700003C0000202DE9F04F8DB083469D
:104160000F4602200C90424890F8240020B1002015
:1041700000F068F9012600E0002603A8FFF722FC02
:1041800005A8FFF7C7FB01A8FFF766FC02A8FFF729
:104190008BFC374890F80AA004A8FFF70BFC00241A
:1041A00007E0002239465846FEF7ACFE00B902E0AF
:1041B000641C022CF5DB00BF022C01D1002528E095
:1041C000002407E0012206A909A8FEF79BFE00B91A
:1041D00002E0641C022CF5DB00BF022C01D100259B
:1041E00017E006A93846FDF733FC00F0FF0809A9DF
:1041F0005846FFF7BFF800F0FF090025B9F1000F9E
:1042000001D145F00105B8F1000F01D145F00205DB
:1042100000BFFF2016490872FF2115484172C17284
:104220004FF6FF71C181FF21817201740121017379
:10423000BDF80C0000F04EF99DF8140000F01AF8DB
:10424000BDF8040000F0C0F9BDF8080000F0FEF968
:10425000504600F049FA9DF81000FFF7B9F916B181
:10426000012000F0EFF828460DB0BDE8F08F000007
:104270003C00002038B504461E48807A10B94FF043
:10428000FF3038BD022C06D0042C07D0082C08D0F3
:10429000102C0CD108E0002000900BE008200090CA
:1042A00008E01020009005E01820009002E04FF098
:1042B000FF30E6E700BF0F48407A9DF80010B0EBF2
:1042C000E10F01D10020DCE70A4A1268D179094ADE
:1042D000526810786B460122FCF79AFE10B14FF03D
:1042E000FF30CEE79DF80000C11002484172002067
:1042F000C7E700003C00002038B504465048807CE9
:10430000A04201D1002038BD002C46D04C4A126892
:1043100011794B4A526810786B460122FCF7D2FDA6
:1043200010B14FF0FF30EEE79DF8000020F02000C4
:104330000090434A12681179414A526810786B46DE
:104340000122FCF765FE10B14FF0FF30DBE70320E0
:10435000FDF72EFF02200090394890F8220020B18E
:104360009DF8000040F080000090354890F8230050
:1043700020B19DF8000040F030000090304A1268F3
:10438000117D2F4A526810786B460122FCF740FEDF
:10439000002851D04FF0FF30B5E7294A1268117953
:1043A000274A526810786B460122FCF78BFD10B14A
:1043B0004FF0FF30A7E72248807A00F0010028B1D3
:1043C0009DF8000040F02000009004E09DF80000FF
:1043D00020F0200000901A4A12681179184A526899
:1043E00010786B460122FCF713FE10B14FF0FF303E
:1043F00089E70320FDF7DCFE114890F8220010B198
:104400008020009001E0002000900D4890F82300EB
:1044100020B19DF8000040F030000090084A12687A
:10442000117D074A526810786B460122FCF7F0FDB7
:1044300010B14FF0FF3066E701488474002062E756
:104440003C00002038B50446214890F82400A042E2
:1044500001D1002038BD24B31D4890F8250010B9C3
:104460004FF0FF30F6E7002000F030FA0020FFF7B1
:1044700043FF1749C88C00F0E9F800200090144968
:10448000496808786B4601222321FCF7C1FD012110
:104490000F4880F82410012000F018FAFFF778FD8B
:1044A00013E0002000F012FA0948007C009008494F
:1044B000496808786B4601222321FCF7A9FD0021F9
:1044C000034880F82410FFF763FD0020C2E70000D6
:1044D0003C00002038B504461F48807A10B94FF0E0
:1044E000FF3038BDFA2C09D0B4F5FA7F09D0B4F505
:1044F0007A7F09D0B4F5FA6F0CD108E00020009063
:104500000BE00820009008E01020009005E0182043
:10451000009002E04FF0FF30E3E700BF0E48007A62
:104520009DF80010B0EBE10F01D10020D9E70A4A55
:1045300012689179084A526810786B460122FCF79C
:1045400067FD10B14FF0FF30CBE79DF80000C010C1
:10455000014908720020C4E73C00002038B5044639
:10456000184890F82300A04201D1002038BD14B1B2
:104570003020009001E0002000901248807C20B1A3
:104580009DF8000040F0020000900E4890F82200D4
:1045900020B19DF8000040F080000090094A1268A8
:1045A000117D084A526810786B460122FCF730FDF5
:1045B00010B14FF0FF30D9E7024880F823400020C7
:1045C000D4E700003C00002038B504461E48807A3D
:1045D00010B94FF0FF3038BDBC2C02DB0120009039
:1045E00015E0622C02DB0220009010E02A2C02DB96
:1045F000032000900BE0142C02DB0420009006E066
:104600000A2C02DB0520009001E0062000900E48F5
:10461000C07A9DF80010884201D10020DBE70A4AE9
:1046200012689178084A526810786B460122FCF7AC
:10463000EFFC10B14FF0FF30CDE79DF800100248BD
:10464000C1720020C7E700003C00002038B50446D6
:104650002448807A10B94FF0FF3038BD214890F8D7
:10466000240010B14FF0FF30F7E71E48007D50B135
:1046700034B1282C04DCE0B2FFF77AFB0020ECE731
:104680000020FFF775FB042C01DA042404E0B4F5E4
:104690007A7F01DD4FF47A744FF47A7090FBF4F076
:1046A000401EC0B200900F4A126851780D4A5268FD
:1046B00010786B460122FCF7ABFC10B14FF0FF30D5
:1046C000CBE79DF80000401C4FF47A7191FBF0F0AD
:1046D00081B20448C1810146C9894810FFF774FFBF
:1046E0000020BAE73C00002038B5044604F0700012
:1046F00010B10120009005E014B10020009001E00D
:10470000402000902B4A1268917C2A4A5268107807
:104710006B460122FCF77CFC20B100212548817208
:10472000481E38BD9DF8000020F04001214801736B
:104730000020009004F0400020B99DF8000040F0F7
:104740000400009004F0200020B99DF8000040F023
:104750000200009004F0100020B99DF8000040F025
:104760000100009004F0080020B99DF8000040F01E
:10477000380000900F4A1268D17C0E4A52681078B7
:104780006B460122FCF744FC20B1002109488172EC
:10479000481EC6E724B1082C02D00020FFF7DEFE39
:1047A00004488472002101753220FDF701FD0020CC
:1047B000B7E700003C000020F8B504460D46164659
:1047C00016B94FF0FF30F8BD1A48807A10B94FF093
:1047D000FF30F8E720128DF80000E0B28DF80100FC
:1047E0009DF801002844134949684989884202DD3F
:1047F0004FF0FF30E7E70F4A1268117E0D4A52680A
:1048000010786B460222FCF703FC10B14FF0FF302A
:10481000D9E7EAB2074B1B68597D064B5B681878ED
:104820003346FCF7F5FB10B14FF0FF30CBE700202B
:10483000C9E700003C00002070B588B002A905A8B7
:10484000FFF78AFC0446032C3ED101A8FFF7DCF8F1
:10485000059800F089FF0646019900F0E5FF05463E
:1048600000F046FF0590069800F07EFF064601998D
:1048700000F0DAFF054600F03BFF0690079800F0D5
:1048800073FF0646019900F0CFFF054600F030FFA8
:10489000079005A8FEF710F86846FFF761F8BDF825
:1048A0000010029848430290BDF800100398484356
:1048B0000390BDF8001004984843049002A8FDF747
:1048C0002BFF002008B070BD0120FBE738B504467F
:1048D000214890F82400C0B114B10220009001E0FA
:1048E000002000901C4A1268D17B1B4A5268107845
:1048F0006B460122FCF78CFB10B14FF0FF3038BD46
:104900009DF800101448417423E01348807A10B9D0
:104910004FF0FF30F3E724B10F48407C08B100208E
:10492000EDE714B10120009001E0002000900A4A58
:104930001268D17B084A526810786B460122FCF756
:1049400067FB10B14FF0FF30D9E79DF80010024827
:1049500041740020D3E700003C0000202DE9F04125
:1049600006460F4600F064FB041E0D4618BF0120EA
:10497000284320F00040C0F17F6000F1E040C00F0C
:104980000ED0301C18BF0120384320F00040C0F189
:104990007F6000F1E040C00F04BF0120FBF72CFE58
:1049A00020462946BDE8F08121F00042A2F1605284
:1049B000B2F5801F01F0004328BFD2F17F6C0BD904
:1049C0005FEA001C43EAC20242EB507018BF704716
:1049D00028BF20F001007047B2F5801FBCBF184609
:1049E00070474FEA410C1CF5001F02D2084600F048
:1049F000E2BF70B500F0BCFA00000089FFF7F6BF17
:104A00004FF00040A0F580007047000010B591EA1B
:104A1000030F48BF83F0004300F1F883841A71EB61
:104A2000030C05D2121943EB0C03001B61EB0C01C4
:104A3000DFF824E14FEA1154A4EB135C1EEA430FA4
:104A400018BF9EEA445F73D023EA0E03DCF1200E08
:104A500021EA045143F4801332D322FA0CFE10EB06
:104A60000E0023FA0CFE41EB0E01CCF1200E03FAEE
:104A70000EFE10EB0E0051F10001B1F5801FCCF1DC
:104A8000200E32D201EB045112FA0EF2BDE81040B2
:104A900058BF7047401C38BF5FEA420218BF7047DA
:104AA000002814BF20F0010041F100014FEA41034A
:104AB00013F5001F38BF7047A1F1C04100F0A6BA3E
:104AC000012A43EB0302ACF1200CDCF11F0E32BFD4
:104AD0004FF0000E23FA0CF310EB030041EB0451EE
:104AE000B4EB115FD0D0A1EB045101F5801149085E
:104AF0005FEA300001EB04510ED350F1000038BFE3
:104B000012FA0EFE08D1BDE81040C9E7401C38BFBC
:104B10005FEA4202CAD1C3E7BDE810404FEA410351
:104B200013F5001F38BF7047A1F1C04100F06EBA05
:104B30009EEA445F08D011EA5E0FBDE8104004BF52
:104B400001F0004100207047BDE8104070B500F052
:104B50000FFA00BF64FBBE3E0000E0FF02494FF0C9
:104B6000000000F0D4BF00BF0000F87F2DE9C04175
:104B700030B4DFF8A0C23CEA111418BF3CEA1314A9
:104B800000F0EC8081EA03051CEA111444EAD574B4
:104B900018BF1CEA131500F0C780A4EB05044FF002
:104BA000004545EAC12145EAC32341EA505143EAA1
:104BB000525304F17F74994204F500344FEAC02047
:104BC0004FEAC22208BF904200F09C804FEA136572
:104BD0000FF24016765D4FEA134506FB05F7C7F165
:104BE000807706FB07F74FEAD737A7FB03687642C3
:104BF000C8F58038A7FB06CE38BFA8F1010807FB2F
:104C000008E64FF0000EA6FB028CE6FB03CEDCF1BB
:104C1000000CCEF1004E38BFAEF1010EA6FB0C58D1
:104C20004FF000074FF00005E6FB0E87A1FB08C61A
:104C3000A0FB07CE16EB0E0645F10005E1FB07656C
:104C400015F1E04E7EBFA4F580345FEA46066D4163
:104C500016F1800745F100054FEA17274FEA06666F
:104C600047EA0567A6F1DE46B6F1805F4FEA1525F3
:104C70001FD9384624F0010C05EBC471BCF1FE6F5E
:104C800001EB0C1102D8F0BCBDE8008124425CBFEE
:104C900001F5801E9EEAC47F02D4F0BCBDE800810D
:104CA000244238D4F0BCA1F1C041BDE8004100F07D
:104CB000ADB94FEAD22242EA43524FEAD323A7FBCF
:104CC00002864FEAD02040EA415007FB03661EEA05
:104CD0000E0F4FEAD12105FB026658BFA6EB005626
:104CE000B6EB00564FEA520E4EEAC37E18EB0E0E9C
:104CF00056EB530EBDD518EB02085E417F1C55F1F3
:104D00000005B6E74FF480154FF000074FF000069E
:104D10004FF00008ADE7F0BC4FF0000001F1C041DA
:104D200001F00041BDE8008111EA0C1F0CEA1315E7
:104D300000D00CE013EA0C1F00F025804FF00000BB
:104D4000F0BC81EA030101F00041BDE80081F0BC44
:104D5000BDE8004181EA030100F058B9F0BCBDE8AC
:104D6000004170B500F004F9097EFC3E00F007B880
:104D700081EA03014FF0000001F00041704781EA31
:104D8000030100F043B9F0BCBDE800414FF0000062
:104D900021497047FFFDFBF9F7F5F4F2F0EEEDEB7A
:104DA000E9E8E6E4E3E1E0DEDDDBDAD8D7D5D4D329
:104DB000D1D0CFCDCCCBCAC8C7C6C5C4C2C1C0BF75
:104DC000BEBDBCBBBAB9B8B7B6B5B4B3B2B1B0AF7B
:104DD000AEADACABAAA9A8A8A7A6A5A4A3A3A2A15F
:104DE000A09F9F9E9D9C9C9B9A999998979796951A
:104DF00095949393929191908F8F8E8E8D8C8C8BB6
:104E00008B8A89898888878786858584848383823D
:104E1000828181800000FF070000F87FDFF848C131
:104E200070B51CEA111E1EBF1CEA13159EEA0C0F7A
:104E300095EA0C0F00F06F8081EA030423EA4C131B
:104E40004EEAD47E21EA4C1141F4801143F48013E0
:104E5000AE44A1FB024CA0FB0365AEF17F7E361988
:104E600055EB0C05A1FB034C4CF10003A0FB021C0D
:104E700016EB0C06654153F10003094218BF46F0DA
:104E8000010613F4007F0BD14FEA03314FEA0530DE
:104E9000340341EA155140EA16506FF003020AE06C
:104EA0004FEAC3214FEAC520F40241EA555140EAD6
:104EB00056506FF0020202EB2E4201EB025585EADA
:104EC000CE710AD05FEA440C18BF24F0004450F1C0
:104ED000000041F1000120EAD47040F2FE7C6245FE
:104EE00000D270BDA84214BF4FF080444FF0404440
:104EF000002E08BF0024BEF1806FA8BFA1F1C04101
:104F0000BDE8704080F282804FF0000001F1C041A6
:104F100001F0004170479EEA0C0F0CEA131518BF10
:104F200095EA0C0F06D04FF0000081EA030E0EF058
:104F3000004170BD00F01CF88900013E00F007B888
:104F400000F009B84FEA430C5FEA5C5C08D081EAE4
:104F5000030100F05BB84FEA410C5FEA5C5CF6D1FC
:104F60004FF00000014970470000FF070000F87F84
:104F70000EF1020E2EF0030E5EF8046B364205D4DD
:104F8000012A43EB030515F5001F12D8012841EB58
:104F9000010C1CF5001F0CD80ED14FEAD17C15F581
:104FA000001F0CEB4C0C0CF1020C08BF4CEBD37C3B
:104FB00004E04FF0080C01E04FEAD37C0CEB4C0509
:104FC00026FA05F606F00706B6F1040C06D20EEB3B
:104FD000860CBDE870404CF0010C6047DFE80CF037
:104FE000090B02024FF000414FF00000A1F5002133
:104FF00070BD19461046012851EB010418BFD4F5C5
:10500000001484BF002001F0004170BD0808A0F525
:1050100000114FEA3101704791EA030F10B581F09A
:1050200000413FF5FBAC83F0004300F0EFB8000017
:105030002DE9F04101F5801CBCF5001FC0F2C380D2
:105040004FEA115C21EA0C510CF1FD0C41F4801186
:105050005FEA5C0C0CF5C07C01D3400049413DA4E3
:10506000890241EA905187028E0E0A0CA45D04FB6E
:1050700004F602FB06F6C6F14046A4FB0662F60DF6
:1050800046EA422606FB06F4A4FB01235242C3F182
:10509000404338BF5B1EA6FB02420024E6FB03240C
:1050A000D20B42EA4446A6FB0623A1FB02E2A3FB85
:1050B00007E4A4184FF0000252F10002E3FB0142A2
:1050C0006442C2F1404E38BFAEF1010EA6FB04238C
:1050D0004FF00002E6FB0E32A2FB03464FF0000445
:1050E000B61954F10004E2FB0264A1FB06E6A4FB3E
:1050F00007E816EB08064FF0000858F10008E4FB3B
:1051000001687642C8F1405838BFA8F10108A2FBF7
:1051100006E4A3FB08E52D194FF0000454F1000448
:10512000E2FB0854A1FB05E6A7FB04E818EB060820
:105130004FF0000656F10006E1FB048618F1200549
:1051400056F10006A809A8F11B08B10908F03F08AC
:10515000B8F10A0F40EA86601CD901EB0C51BDE89A
:10516000F08100BFFCF5EEE8E2DDD8D3CFCBC7C3BA
:10517000C0BDB9B6B4B1AEACA9A7A5A3A19F9D9B74
:105180009A9896959392908F8D8C8B898887868537
:1051900084838281A0FB006800FB01F208EB4208D7
:1051A000B8EB872807D5341858EB0104D5D5401C37
:1051B00051F10001D1E7341A78EB0104CDD4401E3F
:1051C00071F10001C9E75FEA4C0C5FEA9C5C0DD10C
:1051D00005D34FF0000001F00041BDE8F081BDE8CB
:1051E000F04170B5FFF7C4FE6DDBFFBEBDE8F041D6
:1051F0004FF00000004970470000F87F10B591EAB9
:10520000030F48BF83F000433FF508AC841A71EBED
:10521000030C07D212198CF0004C43EB0C03001B5B
:1052200061EB0C01DFF8A4E14FEA1154A4EB135C2D
:105230001EEA430F18BF9EEA445F00F0B08023EAE5
:105240006E03524221EA0451C3EB6E0338BF5B1E6A
:10525000DCF1200E25D322FA0CFE10EB0E0043FAEF
:105260000CFE41EB0E01CCF1200E03FA0EFE10EB0A
:105270000E0051F10001CCF1200E29D412FA0EF2E9
:1052800001EB0451BDE8104058BF7047401C1CBFE3
:10529000B2F1004F704700280CBF491C20F00100FC
:1052A000704712EB020E43EB030218BF4FF0010EE2
:1052B0004EEA4202ACF1200CDCF11E0E54D943FA46
:1052C0000CFE10EB0E0051F1FF31CCF11E0ED5D5C6
:1052D0000EF1010E12FA0EFE404141EB010101EB0D
:1052E000445C5FEA5C5C10D910EBDE7001EB0451AA
:1052F00038BFBEF1004FBDE8104018BF704700280E
:105300000CBF491C20F00100704730D24FEAD42C6A
:1053100011F5001124F400641BD0B1FA81F20B3AAC
:10532000A41AA41ED2F12003914030FA03F31943CA
:10533000904001EBCC71002C01EB0451BDE8104012
:10534000A8BF704701F1C0414FF0000001F00041DB
:105350007047B0FA80F310FA03F100D110BDE41ADF
:10536000173C4805C90AE4E701EB045110BD491098
:1053700001EB0451BDE810404FEA300002E04FF06D
:10538000000170474A0008BF0042F8D0B2F5001F84
:1053900028BF704701F000414FF0000070479EEABF
:1053A000445F07D011EA5E0FBDE8104004BF002142
:1053B00000207047BDE8104070B5FFF7D9FD00BF71
:1053C00040DFF63E83F00041104670470000E0FFEA
:1053D00043004FEAD30C4FEA3C0C43401FBF400749
:1053E0000CF1605113F0FE4F70471CF0006F03D1B9
:1053F00000200CF0004170470CF0004343EA50706D
:1054000010B540EACC0000F090FA00BF0000009216
:105410004FEA0001FFF7FABD4FF000414FF00000E6
:10542000A1F500217047000090EA010F48BF81F00C
:10543000004100F1FE82421A3CBF801A89184FEAEF
:10544000D0524FF07F4C1CEA410FA2EBD15318BF52
:105450009CEA026F00F03B804FF0004C4CEA0020C9
:105460004CEA012121FA03FC10EB0C0C1ED202F1D4
:10547000FF325FEA1C2040EBC25038BF70471CF07F
:105480007F0F4FEA400C18BFBCF17F4F38BF704709
:10549000C3F12003994008BF20F00100BCF17F4F09
:1054A00038BF7047A0F1C04000F085BA4FEA3C0019
:1054B000000A40EBC25028BF1CF0FF0F4FEA400C1F
:1054C000E6D018BFBCF17F4F38BF7047EAE79CEACF
:1054D000026F05D010EA5C0F08BF00F00040704773
:1054E00010B500F022FA00BF64FBBE3E401058BF6A
:1054F000C0F14040491058BFC1F140418142EFF333
:10550000008070474FF47F0C1CEAD0121EBF1CEACB
:10551000D11392EA0C0F93EA0C0F00F0858090EA09
:10552000010F48BF42F4807240F4000C41F40000C7
:105530002CF07F4120F07F4000B58142A2EB0302B6
:105540000FF2081CACEB504EC0F100009EF800E0DA
:105550004FEA4E0E00FB0EFC38BF49004FEA2C1CF0
:1055600002F5FA020CFB0EF34FEACE1E4FEA112CA5
:105570004FEAC1210EEB635E42EB22420EFB0CFCB4
:105580004FEA1C5300FB03114FEA112C4FEA013183
:105590000EFB0CFC4FEADC4C00FB0C11C14228BF97
:1055A00009184CEB03335DF804EB10EB410143EBBE
:1055B000C250B2F57C0F38BF704729D512F0F00FFA
:1055C0001CBF00F1C04000F00040704700818283A2
:1055D0008485868788898B8C8D8E8F919293959602
:1055E00097999A9C9D9FA0A2A3A5A7A8AAACAEB08C
:1055F000B2B3B5B7B9BCBEC0C2C5C7C9CCCED1D491
:10560000D7D9DCDFE2E6E9ECF0F3F7FAFE000000C0
:105610004FEA400C0CF1807CBCF17E4F28BF7047F4
:10562000B0F1C04000F0C7B990EA010F0CEAD11305
:1056300048BF42F48072624538BF634507D213F415
:105640007F0F16D080EA010000F00040704710B5CF
:1056500000F06BF9097EFC3E00F005B880EA01001D
:1056600000F00040704780EA010000F0004000F0C8
:10567000A2B912F47F0F04BF0248704780EA01000C
:1056800000F099B90000C07F50EA010C00F11380CE
:105690001CF5000F58BFBCF5000F01D488427047BD
:1056A00007D710F5000F58BF11F5000F15D4884229
:1056B0007047894270471CF5000F04D5BCF5000FF8
:1056C000F7D5814270474FF0807C1CEB400F38BF0C
:1056D0001CEB410F01D28142704710B500F025F953
:1056E000922449004FF000504FF08051FFF7FEBE6A
:1056F00041000B0ED3F19E0208D950F400034FEA8B
:10570000032323FA02F048BF4042704710B500F06F
:105710000CF900BF49922480002070476FF00042CE
:1057200082EA200070470000C10DD1F19E0206DB25
:105730004FEA002343F0004323FA02F0704700428F
:1057400007D54FEA4001B1F1FE4F02D24FF0000001
:10575000704710B500F0E9F84992248000207047A6
:105760006FEA20007047000010F0004148BF40423F
:10577000B0FA80F310FA03F2C3F19D030BD051EAA3
:10578000C35101EB1220530638BF704700F10100EE
:1057900008BF20F001007047B0FA80F310FA03F25E
:1057A000C3F19D030AD0D90501EB1220530638BF7F
:1057B000704700F1010008BF20F0010070470000B1
:1057C00050EA010C00F113801CF5000F58BFBCF526
:1057D000000F01D48842704707D710F5000F58BF5B
:1057E00011F5000F15D488427047894270471CF5A7
:1057F000000F04D5BCF5000FF7D5814270474FF07C
:10580000807C1CEB400F38BF1CEB410F01D2814262
:10581000704710B500F089F8922449004FF000500D
:105820004FF08051FFF762BE4FF47F0C1CEAD0129C
:105830001EBF1CEAD11392EA0C0F93EA0C0F00F082
:10584000478090EA010F48BF42F480724FF0004C4D
:105850004CEA00204CEA012102EB0302A0FB0113F9
:10586000A2F50002002918BF43F001035B0028BF26
:105870004FEA330342EB22425FEA132C4CEBC25057
:105880002EBFBCEB436FB2F57C0F70474FEA036C41
:10589000BCF1004F08BF20F00100B2F57C0F38BF0B
:1058A00070470BD582F0FF0212F5803FC8BF7047EA
:1058B00000F1C040D8BF00F00040704700F5000C78
:1058C0005FEA4C0C48BF7047B0F1C04000F073B8BD
:1058D00090EA010F0CEAD11348BF42F4807262458E
:1058E00038BF634504D280EA010000F000407047F1
:1058F00010B500F01AF800BF8900013E00F007B8AB
:1059000000F009B85FEA410C5FEA1C6C08D080EA3D
:10591000010000F050B85FEA400C5FEA1C6CF6D161
:105920004FF00040A0F5800070470EF1020E2EF0FF
:10593000030E5EF8044B244204D44FEA4102B2F154
:105940007F4F11D84FEA4003B3F17F4F0CD80ED1EF
:105950004FEAD07CB2F17F4F0CEB4C0C0CF1020CF7
:1059600008BF4CEBD17C04E04FF0080C01E04FEA9B
:10597000D17C0CEB4C0324FA03F404F00704B4F1DB
:10598000040C06D20EEB840CBDE810404CF0010C68
:105990006047DFE80CF0070802024FF00040A0F576
:1059A000800010BD0846420018BFD2F1807288BF47
:1059B00000F0004010BDFF2141EAD050C005704703
:1059C00051EA000C00F113801CF5000F58BFBCF524
:1059D000000F01D48142704707D711F5000F58BF5F
:1059E00010F5000F15D481427047894270471CF5AD
:1059F000000F04D5BCF5000FF7D5884270474FF073
:105A0000807C1CEB410F38BF1CEB400F01D2884259
:105A1000704780EA010081EA000180EA0100FFF797
:105A2000F8BE000090EA010F48BF81F000413FF549
:105A300002AD421A04D882F00042A0EB02001144E9
:105A40004FEAD0524FF07F4C1CEA410FA2EBD153EA
:105A500018BF9CEA026F4AD04FF0004C4CEA00207D
:105A60004CEA012121FA03FCB0EB0C0C0FD412F02C
:105A7000FE0F36D05FEA4C001DD5001240EBC2503D
:105A800038BF70471CF03F0F18BF70470BE0A2F102
:105A900001025FEA1C2040EBC25038BF70471CF087
:105AA0007F0F18BF7047C3F12003994014BF401EF9
:105AB00020F00100704780084FEA122308BF7047AA
:105AC000B0FA80FCA2EB0C02CCF1280C60FA0CF0CE
:105AD00093EA122F04BF00EBC25070474FEAC37025
