:020000040800F2
:10000000A8080020AD010008E11D0008E318000861
:10001000DD1D0008531600080F2400080000000032
:10002000000000000000000000000000BF01000808
:100030005716000800000000C3010008C5010008B1
:10004000C7010008C7010008C7010008C701000870
:10005000C7010008C701000859160008C7010008B9
:10006000C7010008C7010008C7010008C701000850
:10007000C7010008C7010008C7010008C701000840
:10008000C7010008C7010008C7010008C701000830
:10009000C7010008C7010008C7010008C701000820
:1000A000C7010008C7010008C7010008C701000810
:1000B000C7010008C7010008C7010008C701000800
:1000C000C7010008C7010008C7010008C7010008F0
:1000D000C701000809210008C70100083D220008E7
:1000E000C7010008C7010008C701000800F002F8B6
:1000F00000F04DF80AA090E8000C82448344AAF175
:100100000107DA4501D100F042F8AFF2090EBAE872
:100110000F0013F0010F18BFFB1A43F0010318473B
:10012000FC7300001C740000103A24BF78C878C12A
:10013000FAD8520724BF30C830C144BF04680C60ED
:10014000704700000023002400250026103A28BF35
:1001500078C1FBD8520728BF30C148BF0B60704739
:10016000662906F04882642900F09C80632900F02B
:10017000DB84002070471FB500F016FD040000204E
:10018000002105F06FF9E0601FBD10B510BD00F053
:1001900037FE1146FFF7EFFF03F0FCFE00F055FEBF
:1001A00003B4FFF7F2FF03BC02F0B7F90948804738
:1001B00009480047FEE7FEE7FEE7FEE7FEE7FEE749
:1001C000FEE7FEE7FEE7FEE704480549054A064B61
:1001D00070470000A9200008ED000008A8020020D8
:1001E000A8080020A8040020A8040020704710B52B
:1001F0004C1084EA530404D54042C1F1000138BFD9
:10020000491E1B4204D55242C3F1000338BF5B1E96
:1002100000F080F914F0804F04D04042C1F1000199
:1002200038BF491E14F0004F04D05242C3F10003FE
:1002300038BF5B1E10BD00000FB4044910B503AAFF
:10024000029800F07DFC10BC5DF814FB0400002057
:1002500070B50C460546012A05D02878800600D5E1
:10026000EA69002302E0012305E05B1C934202D20D
:10027000E05C0028F9D1A869E618C01AA861286ACC
:10028000184428622846AFF3008004E0D5E9012134
:1002900014F8010B9047B442F8D32846AFF300801E
:1002A00070BD00002DE9F041064600241068752954
:1002B000314616A510D0AFF30080002802DA404284
:1002C00013A507E031688A0701D512A502E04907A6
:1002D00004D511A5012401E0AFF3008000210A221A
:1002E00006F1240709E0B0FBF2FCB0FBF2F302FBDD
:1002F0001C00303078541846491C0028F3D123469E
:100300002A463046BDE8F04100F086B90000000002
:100310002D0000002B000000200000002DE9F05F00
:10032000894604464FF0000ADFF874B1FB44C0F878
:1003300020A02046E1688847002874D0252806D0F0
:10034000D4E901219047206A401C2062F1E7002691
:100350005F462046E16888472028054607DB312DA7
:1003600005D2781910F8200C08B10643F1E7B00760
:1003700001D526F00406C4F81CA00027C4F818A074
:100380002A2D09D0284602F0C1F838B304EB8708BB
:10039000303DC8F8185019E059F8041B204604EB0A
:1003A00087029161E1688847012F054618D1E0690D
:1003B000002820DA26F020061DE0D8F8180000EB0F
:1003C000800005EB40003038C8F818002046E1688E
:1003D0008847054602F09AF80028EED1012F0AD08E
:1003E0002E2D08D12046E16888477F1C0546022F44
:1003F00046F02006C4DBA069002803DA404246F03C
:100400000106A061F00701D026F010066C2D0BD07C
:10041000682D09D04C2D39D06A2D35D0742D35D0AA
:100420007A2D33D016E038E0E1682F462046884721
:10043000B842054609D16C2F26D04FF48060E168A0
:10044000064320468847054604E06C2F1AD04FF437
:10045000807006430DB3A5F14100192802D820355C
:1004600046F400664A462946204626604E46FFF777
:1004700077FE80B101280BD0F61D26F0070000F1B1
:10048000080956E74020E4E78020D8E70020D6E7B7
:1004900006F104094DE7284652E7206ABDE8F09FBF
:1004A0000270000040EA010310B59B070FD1042A37
:1004B0000DD310C808C9121F9C42F8D020BA19BA2F
:1004C000884201D9012010BD4FF0FF3010BD1AB194
:1004D000D30703D0521C07E0002010BD10F8013BE9
:1004E00011F8014B1B1B07D110F8013B11F8014B10
:1004F0001B1B01D1921EF1D1184610BD02F0FF0363
:1005000043EA032242EA024200F02EBB70477047E2
:100510007047704753EA020C00F069802DE9F04BF8
:100520004FF00006002B1FBFB3FA83F503FA05F462
:1005300024FA05F65E4012BF1643B2FA82F502FABB
:1005400005F4C5F120051EBF22FA05FC44EA0C049F
:10055000203556EA044C4FEA144418BF641C4FF08F
:1005600000084FF00009904271EB030C39D30029C9
:1005700019BFB1FA81F701FA07F6B0FA80F700FA6D
:1005800007F6C7F120071EBF20FA07FC46EA0C0653
:100590002037B6FBF4FCA7EB0507103F07F01F0B55
:1005A000CBF120060CFA0BFB2CFA06F644BFB3463F
:1005B0000026202FA4BF5E464FF0000B5BEA060C1E
:1005C00008BF4FF0010B19EB0B09ABFB027C48EBAA
:1005D0000608C01B06FB02CC0BFB03CC71EB0C0125
:1005E000C1E70B46024641464846BDE8F08B13B5CD
:1005F0004FF000004FF00001AFF30080BDE81C4059
:10060000704710B500F0D4FA006810BD10B504466C
:1006100000F0CEFA046010BD2DE9F0470D46994672
:100620009246044600F124080168880604D5E06972
:1006300021F01001216000E00120A84201DD471BEC
:1006400000E00027A1697A1902EB0900081AA061ED
:100650002078C00602D42046AFF30080002608E0D0
:10066000D4E901211AF806009047206A401C761C44
:1006700020624E45F4DB2078C0060AD52046AFF351
:10068000008006E0D4E9012130209047206A401C18
:100690002062381EA7F10107F4DC07E0D4E901214C
:1006A00018F805009047206A401C2062281EA5F11A
:1006B0000105F3DC2046AFF300802078000602D568
:1006C0000220BDE8F0870120FBE770472DE9FF4FCE
:1006D0000C461E464FF0FF378BB0D2E90001DDF823
:1006E00060800A908A46C1F30A5505B93D4600214B
:1006F00008464FF00000BAF1000F00F4400005DAA0
:1007000000EB80004FF4400101EA50004FEA90599D
:10071000B9F1010F00DDB9460A9850EA4A000ED03F
:1007200044F61050A5F2FF3545432F14B8F1000FE1
:100730001ED07542291E1EDDC9F100021CE0B8F171
:10074000010F4FF0000001D0302103E0F24305E03B
:100750002154401CB042FBDB3046002200212154D2
:100760000B99C1F80880C1E900200FB0BDE8F08FF7
:10077000BD1B6D1CDEE74A4600DA694206A800F0A0
:10078000A1FA06AB93E8070003AB83E807005046E5
:100790000A9900F0A3FB8DE80700A0F500501F3870
:1007A00000900398002D09DD42F21F014A460844DB
:1007B00003A90390684600F002FE08E0A0F500508F
:1007C0004A461F3803A90390684600F00CFE8DE8E6
:1007D00007000004000C03D04FF0FF30410800E098
:1007E0001046B8F1000F03D00022009215461EE01B
:1007F000751E05D400F0E0F9303262556D1EF9D552
:10080000B3460122084302D000227F1C04E0207876
:10081000302801D100227F1E002A099786D01DE0D2
:10082000112D07DA00F0C8F9303262556D1C50EA1C
:100830000102F5D1084302D00098C8B10EE00021B2
:10084000681E05E0235C625C63542254401E491C10
:100850008142F7DBAB46A81B401E0990002004F83C
:100860000B000B98099AC0F80880C0E9002B7CE7C0
:1008700011264FF0000859E72DE9F04F884604464D
:10088000D21D22F0070191B0D1E90001CDE90A01A2
:1008900001F0BFFD02460B98C00F01D02D2007E0EC
:1008A0002068810701D52B2002E0202101EAC00049
:1008B000032A099001D0072A05DB0346414620465A
:1008C00000F0C0F90BE12078800601D5E06900E076
:1008D0000620B8F1650F814606D0B8F1660F18D032
:1008E000B8F1670F70D131E00020B9F1110F00901D
:1008F00001DB112301E009F101030AAA01A90CA8F7
:10090000FFF7E4FEDDE90C70002609F101058346DE
:1009100047E001204B4600904FF000470AAA01A98A
:100920000CA8FFF7D3FEDDE90DB00C995D4600265B
:1009300010B909F101000D18B9EB050003D4C0F19D
:10094000FF3609F10105A5EB09002BE0B9F1010F14
:1009500001DA4FF001090020B9F1110F009048466B
:1009600001DD112300E003460AAA01A90CA8FFF744
:10097000ADFEDDE90C704D46002683462078000769
:100980000AD4AB4500DA5D4601A8012D04DD41190A
:1009900011F8011C302907D04F4502DA17F1040F76
:1009A00004DA012082460FE06D1EEEE7002F02DC24
:1009B000ED1B3E4403E0781CA84200DD7D1CB81B03
:1009C00000F1010A4FF000472078000703D4AA4540
:1009D00001DB4FF0FF3A0021B7F1004F0DF1430862
:1009E0008DF8431024D002202B23002F01DA7F4200
:1009F0002D230A21021EA0F1010000DC5FB197FB4C
:100A0000F1FC97FBF1F201FB1C7C17460CF1300C5A
:100A100008F801CDEEE7A8F101000370218809056F
:100A200001D5452100E06521A0F1010800F8011C75
:100A300009980FA9A1EB0807FF1D00B1012041197A
:100A400001EBEA70A1693844081A401EA0612078C1
:100A5000C00602D42046AFF30080099828B1D4E93B
:100A600001219047206A401C20622078C00622D5D0
:100A70002046AFF300801EE0002E04DBB34502DD0C
:100A800001A8805D00E03020D4E901219047206A70
:100A9000401C2062761CAAF101005FEA000A0AD11C
:100AA00000F082F8C0680168405CD4E901219047F9
:100AB000206A401C2062281EA5F10105DCDC07E04D
:100AC000D4E9012118F8010B9047206A401C2062EC
:100AD000381EA7F10107F3DC2046AFF300800320A6
:100AE00011B043E601694A1C02610878704700B5FD
:100AF0008FB0CDE901310021059105497944CDE957
:100B0000031011466846FFF709FC0FB000BD000056
:100B1000E5FFFFFF10B5436913B1AFF3008001E0BB
:100B2000FFF796FB012010BD127800F124010A7036
:100B300000224A700122EDE711684FF0FF32E9E729
:100B4000074B70B50D467B44FFF7D1FF044628469E
:100B500000F026F910B14FF0FF3070BD204670BD97
:100B6000832D00004FF000020429C0F0128010F025
:100B7000030C00F01B81CCF1040CBCF1020F18BF78
:100B800000F8012BA8BF20F8022BA1EB0C0100F00C
:100B90000DB95FEAC17C24BF00F8012B00F8012BDE
:100BA00048BF00F8012B70470048704764020020DE
:100BB000004870474402002030B5B0F10A024FEA05
:100BC000900E71F100034EEA817EB0EB0E0061EBF6
:100BD00091014FEA101E4EEA017E10EB0E0041EB30
:100BE00011114FEA102E4EEA016E10EB0E0041EB90
:100BF00011214FEA104E4EEA014E10EB0E0041EB70
:100C00001141401841F100014FEAD00040EA417023
:100C10004FEAD10110EB80054FEA810444EA907459
:100C200044EB01046D1944EB0404521BA3414FF043
:100C3000000348BF0A3200D530BD401C41F100011D
:100C400030BD00002DE9F0411F460446032601682F
:100C5000072A01F4006004DB08B116A505E016A51B
:100C600003E008B115A500E015A521F010002060F3
:100C7000A069C01EA0610FB1401EA0612046AFF365
:100C800000804FB1D4E9012138469047206A401CCA
:100C90002062C01C206206E0206AFAE7D4E9012144
:100CA00015F8010B9047761EF8D22046AFF300806E
:100CB000BDE8F0814E414E006E616E00494E460027
:100CC000696E66002DE9F047814616468AB03348C2
:100CD00078440DC88DE80D0030487844801C03AC82
:100CE0000DC884E80D0041F69B300844372190FB85
:100CF000F1F290FBF1F5A5F1800501FB12041B3C1C
:100D000002D56442012000E00020DFF890A0804678
:100D10000027FA44AAF1BE0A0DE0E00709D03246E6
:100D2000684607EB47010AEB810100F05CFB8DE8A8
:100D3000070064107F1C002CEFD1184F7F44AC3F9C
:100D400018E0E80714D007EB04100DF1180A90E83A
:100D50000E008AE80E00C068F04201D19819089090
:100D6000324606A903A800F03EFB03AB83E8070068
:100D70006D10641C002DE4D132466946B8F1000FB5
:100D800003A802D000F01BFB01E000F02CFBC9E936
:100D90000001C9F808200AB0BDE8F087E06700004C
:100DA000007B00F0800070474FF0000200B5134652
:100DB00094469646203922BFA0E80C50A0E80C507B
:100DC000B1F12001BFF4F7AF090728BFA0E80C502C
:100DD00048BF0CC05DF804EB890028BF40F8042B25
:100DE00008BF704748BF20F8022B11F0804F18BF92
:100DF00000F8012B704700000048704744020020B3
:100E00007546FFF7F9FFAE4605006946534620F0E8
:100E10000700854618B020B5FFF7D6F9BDE8204099
:100E20004FF000064FF000074FF000084FF0000BA6
:100E300021F00701AC46ACE8C009ACE8C009ACE859
:100E4000C009ACE8C0098D46704710B50446AFF341
:100E500000802046BDE81040FFF7A2B94FF0013CEA
:100E600050F8042B51F8043B9A4221D1A2EB0C0319
:100E7000934313EACC1317D150F8042B51F8043BD9
:100E80009A4215D1A2EB0C03934313EACC130BD176
:100E900050F8042B51F8043B9A4209D1A2EB0C0301
:100EA000934313EACC13DBD04FF00000704700BF30
:100EB000D01A01BAB1FA81F101F0180122FA01F059
:100EC000CB40C1F12001DBB2C0B2C01A2CFA01F351
:100ED000D11A914311EAC311E6D170475FEA400C81
:100EE00008BF91F0000F4FEA8C234FEAC12243EA7A
:100EF00051514FEA1C5018BF00F5F0404FEA300046
:100F000018BF41F000415FEA6C5C00F02980BCF141
:100F1000FF3F08BF40F080407047130C06BF12042B
:100F20004FF0100C4FF0000C130E04BF12020CF126
:100F3000080C130F04BF12010CF1040C930F04BF33
:100F400092000CF1020CD30F04BF52000CF1010C03
:100F500011464FF00002A0F11F00A0EB0C007047FB
:100F600011F0004F08BF704731F000413FF4D5AF9A
:100F70000B0C06BF09044FF0100C4FF0000C0B0EC9
:100F800004BF09020CF1080C0B0F04BF09010CF19E
:100F9000040C8B0F04BF89000CF1020CCB0F04BFB3
:100FA00049000CF1010CCCF12003A0EB0C0022FA5B
:100FB00003F302FA0CF241EA030100F10100704769
:100FC00020F07F4C80EA030023F07F47ACEB07035F
:100FD00003F57C5300F0004003F1FF032DE9804945
:100FE0004FEA154B09B44FEA144325EA0B4E24EAA5
:100FF00003480FF2042606EB132749083E785FEA00
:10100000320203FB0667C7F5000707FB06F64FEA47
:1010100054374FEAD64606F1020607FB066CCCF1C0
:10102000005C4FEA1C472CEA074C07FB06F40CFB5C
:1010300006F504EB15464FEA961634BF00204FF034
:1010400000404FEAD13706FB07FC4FEA1C4C0CFB73
:101050000BF7D21B03FB0CF761EB07010CFB0EF740
:10106000B0EB074072EB17420CFB08F734BFA2EB62
:101070000742B2EB074261EB17414FEA0C444FEADB
:10108000910706FB07FC4FEA1C4C0CFB0BF7B0EB7F
:10109000C74072EB573203FB0CF734BFA2EBC742D9
:1010A000B2EBC74261EB57310CFB0EF7B0EBC70058
:1010B00072EB57720CFB08F734BFA2EBC702B2EB1E
:1010C000C70261EB5771039F4FEA816141EA9211B8
:1010D00004EBCC044FEAD1374FEA826206FB07FCEF
:1010E00042EA90124FEA80604FEA1C4C0CFB0BF76F
:1010F000D21B03FB0CF761EB07010CFB0EF7B0EB07
:10110000074072EB17420CFB08F734BFA2EB074213
:10111000B2EB074261EB17414FEA8C554FEA91075A
:1011200004EB9C2406FB07FC4FEA1C4C0CFB0BF762
:10113000B0EBC74072EB573203FB0CF734BFA2EBA6
:10114000C742B2EBC74261EB57310CFB0EF7B0EB75
:10115000C70072EB57720CFB08F734BFA2EBC70253
:10116000B2EBC70261EB577115EB4C254FEA816179
:1011700041EA92114FEA82624FEAD13742EA901275
:1011800006FB07FC44F100044FEA80604FEA1C4C68
:101190000CFB0BF7D21B03FB0CF761EB07010CFBFD
:1011A0000EF7B0EB074072EB17420CFB08F734BFA9
:1011B000A2EB0742B2EB074261EB174115EB1C159E
:1011C0004FEA813141EA92414FEA823242EA90424B
:1011D0004FEA80304FEA0C7644F1000448EA0343BA
:1011E0004EEA0B484FF0000EB2EB080C71EB030710
:1011F00024BF624639464EEB0E0E4FF0000B00182E
:10120000524149414BEB0B0BB2EB080C71EB03075E
:101210007BF1000B24BF624639464EEB0E0E4FF0B9
:10122000000B0018524149414BEB0B0BB2EB080C81
:1012300071EB03077BF1000B24BF624639464EEB8E
:101240000E0E51EA020718BF46F0010616EB0E76A5
:1012500055F1000254F1000103D5BDE88901BDE854
:101260000088BDE88901BDE80048B619524141EB4C
:101270000101A3F10103704780807F7E7D7C7B7A32
:101280007978777676757473727171706F6E6E6D32
:101290006C6C6B6A6A6968686766666564646363D8
:1012A00062616160605F5F5E5E5D5D5C5C5B5B5A5E
:1012B0005A595958585757565655555554545353CB
:1012C00052525251515050504F4F4F4E4E4D4D4D26
:1012D0004C4C4C4B4B4B4A4A4A4949494848484771
:1012E00047474746464645454544444444434343AF
:1012F0004342424242414141002B26D4770021D053
:101300001CB54FEA370703B44FF010004FF010013F
:101310004FF000000FBCBDE810400BF1010BBBF11A
:10132000010F08BF5FEA170722BF12F1010211F196
:1013300001014FF0004143F1000300F0004043EA97
:1013400000007047F9D35708DAE746EA064613F17A
:10135000400F4FEA16461FDD13F1200FDFBF164383
:101360000A46002120335B42C8D0C3F1200746EA79
:10137000064602FA07F74FEA164646EA0706C3F1A1
:10138000200722FA03F201FA07F721FA03F14FF0DE
:10139000000342EA0702B1E746EA020646EA0646C9
:1013A0004FEA164646EA0106BCBF46EA0646360C38
:1013B0004FF000034FF000024FF000019EE72DE9CF
:1013C000C048934630B491E8380007C831EA400C71
:1013D00048BF34EA430C03D5FFF7F2FDFFF78CFF5B
:1013E000F0BCBDE800882DE9C048934630B491E8D0
:1013F000380007C810F0804F08BF13F0804F03D1AA
:1014000000F005F8FFF778FFF0BCBDE8008820F099
:101410007F4780EA030023F07F4C07EB0C03A3F522
:101420007C5300F00040A3F1FE0392F0000F00F0A7
:10143000B38095F0000F00F077802DE901494FEA65
:1014400011404FEA144621EA004800FB06FC24EA5A
:10145000064708FB06F607FB08F800FB07F718EB42
:1014600006484CEB164C4FEA124B18EB07484FEA74
:1014700015464CEB174022EA0B4E0BFB06FC25EA07
:1014800006470EFB06F607FB0EFE0BFB07F71EEBEF
:10149000064E4CEB164C4FF000061EEB074E4CEB85
:1014A000174B18EB0B0840F1000018EB0E0B58EB34
:1014B000000840F100008F1A4FF000013CBFC94303
:1014C000661B14BFB5EB040C00213CBFC943F61BDF
:1014D0004FEA17444EEA8E0E27EA04454FEA1C47AE
:1014E00004FB07622CEA074C05FB07F70CFB05F62B
:1014F00004FB0CFC16EB074642EB174216EB0C46BE
:1015000042EB1C421BEB060658EB0202414146EA45
:101510009E0601D5BDE80189B619524141EB010192
:10152000A3F10103BDE801894FEA14454FEA1147D1
:1015300024EA054621EA074C05FB07F406FB07F7FA
:101540000CFB06F105FB0CFC11EB074144EB1744C7
:101550004FEA124711EB0C4144EB1C4422EA074CC2
:1015600005FB07F206FB07F70CFB06F605FB0CFC78
:1015700016EB074642EB174216EB0C4642EB1C45B6
:101580006A1854F1000148BF7047B619524141EB47
:101590000101A3F10103704795F0000F37D04FEA26
:1015A00011424FEA144721EA024624EA074C02FBA3
:1015B00007F106FB07F70CFB06F402FB0CFC14EB2F
:1015C000074441EB17414FEA154714EB0C4441EB3C
:1015D0001C4125EA074C02FB07F506FB07F70CFB4D
:1015E00006F602FB0CFC16EB074645EB174516EB1F
:1015F0000C4645EB1C42121951F1000148BF7047DF
:10160000B619524141EB0101A3F1010370474FEAC2
:1016100014454FEA114724EA054621EA074C05FB29
:1016200007F106FB07F70CFB06F24FF0000605FB7F
:101630000CFC12EB074241EB174112EB0C4251EB51
:101640001C4148BF7047921841EB0101A3F101030F
:10165000704700BFFEE7704710B5012000F036F874
:1016600090B10A4B0A4A111F081F02F047FD0949B1
:10167000087020B10846017807A0FEF7DDFD0120C3
:101680000449087000F01CF810BD0000240200207E
:1016900020020020340000206D70755F646D705F63
:1016A0006765745F64617461204661696C6564207C
:1016B00065726F7272206E756D3A25640A0D0000B6
:1016C00001490860704700001404014001460020F1
:1016D0000022074B1B6803EA0102054B14331B6809
:1016E0000B4013B10AB1012000E000207047000058
:1016F00000040140002123498279002A3AD00A4699
:10170000126803689A430B461A600A1D1268036840
:101710009A430B1D1A60027911440A6803681A4340
:101720000A60184A0832126803689A43154B083356
:101730001A601A1D126803689A43124B0C331A6020
:101740004279102A0ED11A1F126803681A430D4BF2
:1017500008331A601A1D126803681A43094B0C33C8
:101760001A600DE00749427911440A6803681A4378
:101770000A6005E0027911440A6803689A430A6026
:10178000704700000004014030B500228B071C0F99
:101790000F2303FA04F20B4B8C1053F824309343BD
:1017A000084C8D1044F8253023468C1053F8243013
:1017B0008C07240F00FA04F42343024C8D1044F8E4
:1017C000253030BD080001402DE9F04102460025DA
:1017D0000026002000230024002791F803C00CF00D
:1017E0000F0591F803C00CF0100CBCF1000F03D0F2
:1017F00091F802C04CEA050591F800C0BCF1000F59
:1018000031D0146800202BE04FF0010C0CFA00F3EB
:10181000B1F800C00CEA03069E4220D183004FF0CD
:101820000F0C0CFA03F7BC4305FA03FC4CEA040462
:1018300091F803C0BCF1280F06D14FF0010C0CFA4F
:1018400000FCC2F814C00AE091F803C0BCF1480FD4
:1018500005D14FF0010C0CFA00FCC2F810C0401C7E
:101860000828D1D31460B1F800C0BCF1FF0F34DDFB
:10187000546800202EE000F1080C4FF0010808FA2F
:101880000CF3B1F800C00CEA03069E4221D183009C
:101890004FF00F0C0CFA03F7BC4305FA03FC4CEABB
:1018A000040491F803C0BCF1280F05D100F1080C25
:1018B00008FA0CF8C2F8148091F803C0BCF1480F84
:1018C00007D100F1080C4FF0010808FA0CF8C2F833
:1018D0001080401C0828CED35460BDE8F08101611F
:1018E000704700BFFEE7000010B500200E490860F9
:1018F0000E48006820F070400C49086008460068F7
:1019000040F04050086000200949C1F89C0100F0F7
:1019100011F801200449086000F00CF80020044987
:10192000C1F8980110BD000098812142000C0140CF
:101930000080214210B5022001F0C8F910BD00005E
:1019400008B50121082000F0ADFAC020ADF8000074
:1019500010208DF8030003208DF80200694604482A
:10196000FFF732FFC0210248FFF7B9FF08BD0000B2
:10197000000C014010B500200E4908600E480068B8
:1019800020F070400C4908600846006840F0405064
:10199000086001200949C1F89C01FFF7CBFF012035
:1019A00004490860FFF7C6FF00200449C1F8980108
:1019B00010BD000098812142000C014000802142AE
:1019C00070B5054600241648006820F070401449A0
:1019D00008600846006840F000400860002614E0F7
:1019E000002010490860FFF7A5FF01200E49C1F84B
:1019F00098016006040E0B487C38006808B1601C32
:101A0000C4B2FFF797FF701CC6B2082EE8DB15B909
:101A1000FFF7B0FF01E0FFF767FF204670BD000051
:101A2000000C0140988121420080214270B504469B
:101A30001248006820F070401049086008460068AD
:101A400040F04050086000200D490860002512E079
:101A5000E0090B49091D08606006040E01200949D0
:101A6000C1F89801FFF766FF002005490860FFF7FD
:101A700061FF681CC5B2082DEADB70BD000C014097
:101A8000988121420080214210B50E48006820F064
:101A900070400C4908600846006840F040500860FB
:101AA0000120094908600949C1F89801FFF742FF80
:101AB000002005490860FFF73DFF00200349C1F8F9
:101AC000980110BD000C01409C8121420080214200
:101AD00010B50E48006820F070400C4908600846B8
:101AE000006840F04050086000200949086009493A
:101AF000C1F89C01FFF71EFF012005490860054958
:101B0000C1F89C01FFF716FF10BD0000000C01405A
:101B1000988121420080214210B5002414480068B9
:101B200020F07040124908600846006840F000400C
:101B3000086001200F490860FFF7FCFE01200E49F4
:101B4000C1F89801FFF7F6FE07E0601CC4B2FA2C5A
:101B500003DDFFF7BDFF012010BD06488038006897
:101B60000028F2D10349091F086000BFF4E7000014
:101B7000000C01409C8121420080214210B5FFF7FA
:101B8000DFFE80216B2000F0D7F8642001F078F8A8
:101B900000216B2000F0D0F8032000F08BF800202B
:101BA00000F080F8642000F0AAF80021382000F04E
:101BB000C3F800216A2000F0BFF80021232000F0C4
:101BC000BBF88021372000F0B7F8752000F013F83B
:101BD0000446682C0BD101216B2000F0ADF80021E8
:101BE0006C2000F0A9F8322000F089F801E0012013
:101BF00010BD0020FCE770B50446FFF745FFD0207C
:101C0000FFF714FFFFF788FF2046FFF70FFFFFF7EE
:101C100083FFFFF739FFD120FFF708FFFFF77CFFB5
:101C20000020FFF7CDFE0546FFF752FF284670BDA6
:101C30002DE9F04106460F4614461D46FFF724FFE6
:101C4000002141EA4601C8B2FFF7F0FEFFF764FF4A
:101C500020B1FFF73DFF0120BDE8F0813846FFF7D6
:101C6000E5FEFFF759FFFFF70FFF012101EB4601EA
:101C7000C8B2FFF7DBFEFFF74FFF0DE0012C04D1E8
:101C80000020FFF79DFE287003E00120FFF798FE7B
:101C90002870601EC4B26D1C002CEFD1FFF718FF36
:101CA0000020D9E710B50446E006010E1C2000F024
:101CB00043F810BD10B50446E006010E1B2000F0ED
:101CC0003BF810BD70B504460025BC2C01DB012596
:101CD00010E0622C01DB02250CE02A2C01DB03253D
:101CE00008E0142C01DB042504E00A2C01DB0525A7
:101CF00000E0062529461A2000F01EF870BD70B5D8
:101D00000446B4F57A7F01DD4FF47A74042C00DACE
:101D100004244FF47A7090FBF4F0401EC5B22946BB
:101D2000192000F009F80546264604EBD671C1F3E8
:101D30004F00FFF7C7FF70BD70B505460C46FFF7B3
:101D4000A3FED020FFF772FEFFF7E6FE18B1FFF703
:101D5000BFFE012070BD2846FFF768FEFFF7DCFEDE
:101D60002046FFF763FEFFF7D7FE18B1FFF7B0FE7E
:101D70000120EFE7FFF7ACFE0020EBE72DE9F04193
:101D800005460E4617469846FFF77EFE002141EABB
:101D90004501C8B2FFF74AFEFFF7BEFE20B1FFF7CC
:101DA00097FE0120BDE8F0813046FFF73FFEFFF7C8
:101DB000B3FE00240CE018F80400FFF737FEFFF72D
:101DC000ABFE18B1FFF784FE0120EBE7601CC4B244
:101DD000BC42F0DBFFF77CFE0020E3E700BFFEE73C
:101DE00070470EB50121042000F05CF8012108467F
:101DF00000F058F800210846FFF7C6FC01200090CB
:101E00008DF8060000208DF8040008208DF80500EC
:101E10006846FFF76FFC06208DF8080001208DF85A
:101E20000B0002208DF809008DF80A0002A800F0CE
:101E300001F80EBD70B5002100230F22C47804B351
:101E4000154C246804F4E064C4F5E064210AC1F18F
:101E50000403CA40447804FA03F18478144021430F
:101E600009010E4C0678A155047804F01F050124E1
:101E7000AC4005786D11AD0005F1E025C5F80041D5
:101E800009E0047804F01F050124AC40044D0678F5
:101E9000761145F8264070BD0CED00E000E400E04E
:101EA00080E100E029B1064A92690243044B9A613D
:101EB00004E0034A92698243014B9A617047000033
:101EC0000010024030B500210022002400232D4DD7
:101ED0006D6805F00C0121B1042905D0082923D132
:101EE00005E0294D056022E0274D05601FE0254DE6
:101EF0006D6805F47012234D6D6805F48034022579
:101F000005EB92421CB9214D554305600BE01D4D78
:101F10006D6805F400351DB11C4D5543056002E0A8
:101F2000194D5543056002E0174D056000BF00BF25
:101F3000144D6D6805F0F0010909154D6B5C0568DD
:101F4000DD4045600F4D6D6805F4E061090A104DF4
:101F50006B5C4568DD4085600A4D6D6805F4605135
:101F6000C90A0B4D6B5C4568DD40C560054D6D6869
:101F700005F44041890B074D6B5CC568B5FBF3F573
:101F8000056130BD0010024000127A0000093D00DA
:101F9000200000203000002010B500F001F810BD36
:101FA0000CB50020019000903348006840F4803068
:101FB0003149086000BF3048006800F400300090EC
:101FC0000198401C0190009818B90198B0F5A06FD5
:101FD000F1D12948006800F4003010B101200090D0
:101FE00001E0002000900098012843D123480068B8
:101FF00040F01000214908600846006820F0030006
:1020000008600846006840F0020008601A4840680E
:10201000194948600846406848600846406840F4EE
:10202000806048600846406820F47C10486008469C
:10203000406840F4E81048600846006840F080704E
:10204000086000BF0C48006800F000700028F9D05C
:102050000948406820F00300074948600846406886
:1020600040F00200486000BF0348406800F00C00E8
:102070000828F9D10CBD00000010024000200240E9
:10208000042808D14FF0E021096941F004014FF024
:10209000E022116107E04FF0E021096921F004011D
:1020A0004FF0E0221161704710B51348006840F00E
:1020B00001001149086008464068104908400E496F
:1020C0004860084600680E4908400B490860084609
:1020D000006820F4802008600846406820F4FE0074
:1020E00048604FF41F008860FFF756FF4FF0006014
:1020F0000449086010BD0000001002400000FFF815
:10210000FFFFF6FE08ED00E010B540F225511F4834
:1021100000F0BCF8002838D01C4800F073F9C4B2B5
:1021200021461BA0FEF788F81A48008800F40040FA
:1021300058BB1848008800F4804060B10A2C03D0D6
:1021400000201449088020E01248008840F4004034
:102150001049088019E00D2C06D10E48008840F483
:1021600080400C49088010E00A480088C0F30D0048
:1021700009490C5407480088401C06490880084655
:102180000088C72801DD0020088010BD003801400C
:1021900025630000080000207000002010B586B004
:1021A0000446012144F20400FFF77CFE4FF4007066
:1021B000ADF8140003208DF8160018208DF81700D4
:1021C00005A91C48FFF700FB4FF48060ADF8140030
:1021D00004208DF8170005A91648FFF7F5FA252009
:1021E0008DF8000003208DF801008DF80200012019
:1021F0008DF803006846FFF71DFE01940020ADF83E
:102200000800ADF80A00ADF80C00ADF810000C2085
:10221000ADF80E0001A9084800F088F8002240F24D
:102220002551054800F05CF80121034800F022F830
:1022300006B010BD000801400038014010B540F262
:1022400025510A4800F022F870B1084800F0DAF889
:10225000C4B2532C03D101200549088004E04B2C63
:1022600002D102200249088010BD00000048004051
:102270000A00002021B1828942F40052828104E0E8
:1022800082894DF6FF731A408281704770B502460D
:10229000002400230025002040F66A16B14200D138
:1022A00000BFC1F3421501F01F03012606FA03F334
:1022B000012D02D19689334006E0022D02D1168A03
:1022C000334001E0968A33400C12012606FA04F4EA
:1022D0001688344013B10CB1012000E0002070BD1D
:1022E000F0B50346002400260025002040F66A17BA
:1022F000B94200D100BF1846C1F3421401F01F06D5
:10230000012707FA06F5012C01D10C3004E0022C5C
:1023100001D1103000E014301AB107682F43076074
:1023200002E00768AF430760F0BD00002DE9F04709
:1023300086B005460E460024A24600BFA1460027EF
:10234000B08900B100BF2F462C8A4CF6FF700440C4
:10235000F08804432C82AC894EF6F3100440B08818
:1023600031890843718908430443AC81AC8A4FF634
:10237000FF400440B0890443AC8201A8FFF7A2FDEE
:102380001F48874202D1DDF810A001E0DDF80CA063
:10239000A88900F4004040B10AEBCA0000EB0A1023
:1023A00031684900B0FBF1F807E00AEBCA0000EB26
:1023B0000A1031688900B0FBF1F86420B8FBF0F036
:1023C00004012009642101FB1089A88900F4004060
:1023D00040B1322000EBC900B0FBF1F000F0070083
:1023E000044308E0322000EB09106421B0FBF1F057
:1023F00000F00F0004432C8106B0BDE8F087000018
:102400000038014001468888C0F30800704700BFCB
:10241000FEE7490050EAC12018BF04204A0D18BF4A
:1024200040F0010040F2FF72B2EB515F08BF40F094
:102430000200012808BF052070472DE9F0414F1E1A
:1024400000EBC7010446D1E9000115461E4637F0EE
:1024500006020DD02A46334603F054FA7F1E04EBE1
:10246000C703D3E9002303F045F837F00602F1D1A2
:10247000022F25D0042F13D0062F18BFBDE8F081FE
:102480002A46334603F03EFAD4E90A2303F032F831
:102490002A46334603F036FAD4E9082303F02AF833
:1024A0002A46334603F02EFAD4E9062303F022F835
:1024B0002A46334603F026FAD4E9042303F01AF837
:1024C0002A46334603F01EFAD4E9022303F012F839
:1024D0002A46334603F016FAD4E90023BDE8F0415A
:1024E00003F008B8012204F0BAB803F003B80022E0
:1024F00013461046114603F0ADB80000024A002012
:10250000110704F0ACB8000001FDFFFF30380A28C5
:1025100001D20120704700207047014600BF70477C
:102520002DE9FE4F06460F460025684601F0DCF90E
:10253000002442E056F8240057F82410A0EB010ACA
:10254000BAF1000F01DB514601E0CAF10001084673
:1025500003F07EFE83464FF08F4103F047FD804637
:102560005DF82400002103F003FE16D05DF824106E
:10257000404603F03BFD82464FF07E5103F0C6FF1C
:10258000814629F0004A0F48416A504603F08CFF0B
:1025900012D20120A04005430EE00A48C16940461E
:1025A00003F082FE05D30748016A404603F07CFF32
:1025B00002D20120A0400543641C032CBADB28464C
:1025C000BDE8FE8F146700082DE9F04D8D4F21F016
:1025D000004A86B005460C46BA452ADBAAEB07003E
:1025E00028430AD08848824501DC1AD1CDB106B013
:1025F0002846BDE8F04DFFF775BF844A844B284656
:1026000003F080F907460E46824A834B284621464E
:1026100003F078F906B03A463346BDE8F04D02F0D3
:1026200069BF0120FDF7F2FF06B0BDE8F04DFFF7EE
:102630005EBF7A48824542DABAF1795F0BDA284602
:10264000FFF7E7FE042808BFFFF758FF284606B04B
:102650002146BDE8F08D2A460B46104603F052F99C
:10266000834602466E480E460B4606217844FFF725
:10267000E4FE5A46334603F045F9804669488A46E7
:102680005A46334604217844FFF7D7FE5A4633466C
:1026900003F038F900223B4602F02CFF02460B46BD
:1026A0004046514602F0D6FF2A46234603F02AF957
:1026B00006B02A462346BDE8F04D02F01BBF28466F
:1026C00024F0004100223D463B4603F019FA4FF04A
:1026D000FF3203F0C4FF0646024653480F460B463E
:1026E00006217844FFF7A9FE32463B4603F00AF97B
:1026F000CDE900014D4832463B4604217844FFF7BE
:102700009CFE32463B4603F0FDF800222B4602F0C9
:10271000F1FE834602913046394602F07DFE804646
:1027200043480D46504517DCDDE900015A46029B3F
:1027300002F090FF42462B4603F0E4F842462B4657
:1027400002F0D8FE012203F08AFF304A304B03F03A
:10275000C9FA304A304B4CE04FF0000A52460B4663
:10276000404602F0C7FECDE9031052462B46104604
:10277000194603F0C7F832463B4603F0C1F9DDE9DC
:10278000033202F067FF06460F46DDE900015A46B4
:10279000029B02F05FFF83460091012230463946DA
:1027A00003F05DFF194A1A4B03F0AAF906460F46DB
:1027B00001224046294603F052FF5A46009B03F08F
:1027C000A1F832463B4603F08DFA06460F46012239
:1027D0005046294603F043FF0E4DDFF858802A4645
:1027E000434603F08DF932463B4603F089F92A4609
:1027F000434603F085F9002CD8BF81F0004106B0B4
:10280000BDE8F08D0000F03F0000F07F075C14335E
:1028100026A6913C182D4454FB21F93F0000E03FCF
:10282000D84C0000EE4C0000624C0000784C0000D8
:102830003333EF3FFB21E93F2DE9F84F04460D46C6
:1028400021F0004000917349814211DC72498842B5
:1028500001DC06D12CB120462946BDE8F84FFFF730
:1028600041BE6E48002DCCBF6D496E49BDE8F88F62
:102870006D49814211DD6D498142D8BF4FF0FF366D
:102880006DDD20462946FFF7C4FD042808BFFFF789
:1028900035FE20462946BDE8F88F6549654F25F08D
:1028A0000045814233DD6449814219DD002632460C
:1028B0004FF080432046294602F01CFE80468A469F
:1028C00001222046294603F0CAFE00223B4603F0BF
:1028D00009FA4246534602F0BDFE04460D463EE06C
:1028E00001260022BA463B462046294602F002FE57
:1028F00080460F46002253462046294603F0F2F94F
:1029000042463B4602F0A6FE04460D4627E04B49F0
:1029100081421BDDDFF828A1022600225346204613
:10292000294602F0EFFF00223B4602F0E3FD80461D
:102930000F46002253462046294603F0D3F942466B
:102940003B4602F087FE04460D4608E00326224679
:102950002B4600203B4902F07DFE04460D462246F0
:102960002B461046194602F0CDFF8B4682460246A2
:102970000B4602F0C7FF07460246334888460B461F
:1029800006217844FFF759FD52465B4602F0BAFF34
:1029900082462E488B463A46434605217844FFF747
:1029A0004CFD3A46434602F0ADFF02460B46002E70
:1029B000504659460CDA02F09DFD22462B4602F0A5
:1029C000A1FF01B022462B46BDE8F04F03F098B8B6
:1029D00002F090FD22462B4602F094FF1C4A7A44F6
:1029E00002EBC603D3E9002303F07CF922462B4611
:1029F00003F078F9174A7A4402EBC603D3E90023BF
:102A000003F07EF8009A002AB8BF81F00041BDE8CB
:102A1000F88F0000000010440000F07F182D44548F
:102A2000FB21F93FFB21F9BF0000DC3F0000203E05
:102A30000000F33F0000F03F0000E63F008003404D
:102A40000000F83F0000F0BF7A4A0000384A00005A
:102A5000D64900009E4900002DE9F04D9446CCF186
:102A6000000423F000464CEA0404524F46EAD474B2
:102A70009A46884621F00042BC4206D8454240EAC8
:102A8000050442EAD474BC4204D9BDE8F04D624664
:102A9000FFF72BBDAAF14055A5F17F6555EA0C045F
:102AA0000BD0022404EAAA74434DDFF810E144EA93
:102AB000D87452EA000B04D00CE0BDE8F04DFFF7EB
:102AC000BBBE002C14BF012CBDE8F08D022C30D011
:102AD000032C32D056EA0C0B0AD0BE4220D1BA42A7
:102AE00009D126F0804622F080423346114617E095
:102AF00000291ADB25E0DFF8C8B0FB44002C04BF36
:102B0000DBE90001BDE8F08D012C02BFDBE900012B
:102B100081F00041BDE8F08D022C0AD0032C0CD0CE
:102B2000BA4212D1B8F1000F0BDA23482549BDE8AB
:102B3000F08D28462449BDE8F08D28467146BDE851
:102B4000F08D1D482149BDE8F08D921B12153C2ADD
:102B5000C4BF19481D490EDCBAF1000FBEBF12F107
:102B60003C0F0020014606DB624602F073FD21F0B7
:102B70000041FFF761FE002C08BFBDE8F08D012C7D
:102B800004BF81F00041BDE8F08D114A114B022CC9
:102B900007D003F0A7F82A46BDE8F04D0A4B03F032
:102BA000A1B803F09FF82A46BDE8F04D064B02F0AD
:102BB000A7BF00000000F07F182D4454FB2109C07E
:102BC00032490000FB21F9BFFB210940FB21F93FFD
:102BD000075C143326A6A13C2DE9F0410446E078B9
:102BE00000F0C006E07800F03F05607800F00100DA
:102BF00098B1EF102846E91705EB5171C910A5EB04
:102C0000C101491C01F0FF080B48006820B10A48C7
:102C1000414602683846904700BF607800F00800DF
:102C200030B10548406818B1B011034A516888476F
:102C30000020BDE8F08100003402002010B56FF0E4
:102C40000400FFF71DFA0A4800680A49B0FBF1F0DA
:102C5000094908700846007800EB4001C1EBC0103C
:102C60004FF6FF7101EAC0000449088010BD000062
:102C70000C00002000127A0000000020020000205A
:102C80000146114A12884A434FF0E0235A6100225C
:102C90009A611A46126942F001021A6100BF4FF0B0
:102CA000E022106900F001021AB100F48032002A1B
:102CB000F5D04FF0E022126922F001024FF0E0233C
:102CC0001A6100229A617047020000200146114AF1
:102CD00012784A434FF0E0235A6100229A611A4663
:102CE000126942F001021A6100BF4FF0E022106940
:102CF00000F001021AB100F48032002AF5D04FF042
:102D0000E022126922F001024FF0E0231A61002252
:102D10009A6170470000002038B5044664B1202055
:102D20008DF8000028208DF8010030208DF8020079
:102D300038208DF8030004E0A32204216846FDF743
:102D4000DDFB6A46042140F69E2002F093FA01F072
:102D50007DFE38BD3EB5044602208DF80000CA2035
:102D60008DF80100E3208DF8020009208DF80300A2
:102D70006A460421682002F07DFAA3208DF8000045
:102D800004F0400048B1C0208DF80100C8208DF843
:102D90000200C2208DF8030006E0A3208DF8010098
:102DA0008DF802008DF8030004F4C07048B1C4200F
:102DB0008DF80400CC208DF80500C6208DF80600A3
:102DC00006E0A3208DF804008DF805008DF80600BC
:102DD000A3208DF807008DF808008DF809006A46D9
:102DE0000A2140F6A72002F045FA04F0030018B1CA
:102DF00020208DF8000002E0D8208DF800006A46FF
:102E0000012140F6B62002F035FA04F0200018B196
:102E1000012000F0ADF802E0002000F0A9F804F471
:102E2000C07008B304F4807060B1B2208DF8000067
:102E30008B208DF80100B6208DF802009B208DF8C4
:102E400003000BE0B0208DF8000080208DF8010019
:102E5000B4208DF8020090208DF803006A4604210A
:102E600040F6A22002F006FA04F0010020B3F82098
:102E70008DF800006A4601214FF40B6002F0FAF968
:102E8000FA21072000F02CFC072000F0F3FB0120C2
:102E900000F013FC642000F0F3FC4FF4FA7000F033
:102EA00002FDC821304800F0A3FB282000F0BCFB45
:102EB0000A2000F0CCFB08E0D8208DF800006A461C
:102EC00001214FF40B6002F0D5F904F0020018B1B3
:102ED000D9208DF8000002E0D8208DF800006A4665
:102EE000012140F23D7002F0C5F904F0040018B170
:102EF000012000F069F802E0002000F065F804F01D
:102F0000100018B10120FFF707FF02E00020FFF7D3
:102F100003FF44F008001549488101F097FD0020A7
:102F20001249887304F0400018B10846807B801D68
:102F3000887304F4C07020B10C48807B801D0B495D
:102F4000887304F0140020B10848807B10300749D2
:102F5000887304F0030020B10448807B001D0349FE
:102F6000887300203EBD000009E3CA02340200203D
:102F70003EB504466CB10EA1D1E900208968CDE9C7
:102F8000002002916A4609214FF4976002F072F91D
:102F90003EBD0AA2D2E900109268CDE9010200917B
:102FA0006A4609214FF4976002F064F9F0E70000E7
:102FB000B8AAB38DB4980D355D000000B8AAAAAACE
:102FC000B088C3C5C700000038B5044664B1C0204E
:102FD0008DF80000C2208DF80100C4208DF8020099
:102FE000C6208DF8030004E08B2204216846FDF71B
:102FF00085FA6A46042140F6982002F03BF901F078
:1030000025FD38BD10B5C8234FF48062024940F653
:10301000F63001F0AFFB10BD3C6700082DE9F04F22
:103020008DB00746884615469946DDE9166B0024A3
:10303000002030806B49887B5A4605A901F066FC68
:1030400018B1601E0DB0BDE8F08F6648807A00F0C0
:103050001400002867D09DF8140000069DF8151094
:1030600040EA01409DF8161040EA01209DF8171033
:10307000084328609DF8180000069DF8191040EAE2
:1030800001409DF81A1040EA01209DF81B100843EA
:1030900068609DF81C0000069DF81D1040EA014084
:1030A0009DF81E1040EA01209DF81F100843A860FB
:1030B0009DF8200000069DF8211040EA01409DF88F
:1030C000221040EA01209DF823100843E86004F133
:1030D0001000C4B2286800140190686800140290BF
:1030E000A86800140390E868001404900198404315
:1030F000029901FB0100039901FB0100049901FB06
:10310000010ABAF1706F02DBBAF1885F05DD01F0E8
:103110009DFC00203080401E94E7B6F9000040F48A
:103120008070308000BF2F48807A00F0400020B3CC
:1031300005A9601C085C095D40EA012000B2A8F8FE
:10314000000005A9E01C095C05AAA01C105C41EA6E
:10315000002000B2A8F8020005A9601D095C201D2E
:10316000105C41EA002000B2A8F80400A01DC4B21F
:10317000B6F9000040F0080030801A48408900F499
:10318000C07008B305A9601C085C095D40EA012015
:1031900000B2388005A9E01C095C05AAA01C105CDF
:1031A00041EA002000B2788005A9601D095C201D5D
:1031B000105C41EA002000B2B880A01DC4B2B6F98C
:1031C000000040F0700030800648807A00F0030074
:1031D00018B105A90819FFF7FFFC484600F054FF95
:1031E00000202FE73402002070B588B0064601A801
:1031F00001F014F9BDF804000021C90341EA50456B
:10320000C4034448007A00F0030056F820000590FB
:103210004048007A00F0040010B105984042059043
:103220003C48007AC0F3C10056F8200006903948A7
:10323000007A00F0200010B1069840420690354810
:10324000007AC0F3811056F82000079031480089B9
:1032500000F4807010B10798404207900598C1179C
:10326000A0FB042301FB043100FB0510810041EAAF
:10327000927005900698C117A0FB042301FB04314E
:1032800000FB0510810041EA927006900798C11773
:10329000A0FB042301FB043100FB0510810041EA7F
:1032A000927007900598000E8DF808000598000CA4
:1032B0008DF809000598000A8DF80A000598C0B23B
:1032C0008DF80B000698000E8DF80C000698000C87
:1032D0008DF80D000698000A8DF80E000698C0B211
:1032E0008DF80F000798000E8DF810000798000C5D
:1032F0008DF811000798000A8DF812000798C0B2E7
:103300008DF8130002AA0C214FF4257001F0B2FFD2
:1033100008B070BD3402002030B585B0044616A256
:1033200007CA02AB07C3C82C03DD4FF0FF3005B05E
:1033300030BDC82090FBF4F0401E85B2280A8DF8FD
:103340000000E8B28DF801006A46022140F2162022
:1033500001F090FF10B14FF0FF30E8E702AA0C2116
:1033600040F6C12001F086FF10B14FF0FF30DEE7DC
:10337000044884810020DAE7FEF2ABC4AAF1DFDF63
:10338000BBAFDFDF340200201FB504464848007A97
:1033900000F0030054F8200001904548007A00F046
:1033A000040010B10198404201904148007AC0F3F6
:1033B000C10054F8200002903D48007A00F020003F
:1033C00010B10298404202903948007AC0F381104F
:1033D00054F8200003903648008900F4807010B142
:1033E0000398404203903349019880FB0101800F0C
:1033F00040EA810001902F49029880FB0110820071
:1034000042EA917002902B49039880FB01108200E0
:1034100042EA917003900198000E8DF80000019827
:10342000000C8DF801000198000A8DF80200019847
:10343000C0B28DF803006A4604214FF4747001F0A5
:1034400019FF18B14FF0FF3004B010BD0298000E04
:103450008DF800000298000C8DF801000298000A17
:103460008DF802000298C0B28DF803006A4604216C
:103470004FF4757001F0FEFE10B14FF0FF30E3E73E
:103480000398000E8DF800000398000C8DF80100E1
:103490000398000A8DF802000398C0B28DF803006B
:1034A0006A4604214FF4767001F0E4FECCE7000098
:1034B0003402002009E3CA0210B586B0044647A0D2
:1034C0000068039046A00068029046A00068019042
:1034D00045A00068009004F0030003A9085C8DF883
:1034E000140003A8C4F3C101405C8DF8150003A8C3
:1034F000C4F38111405C8DF8160004F0030002A9AA
:10350000085C8DF8100002A8C4F3C101405C8DF87E
:10351000110002A8C4F38111405C8DF8120005AAC5
:10352000032140F2264001F0A5FE18B14FF0FF3014
:1035300006B010BD04AA032140F22A4001F09AFE11
:1035400010B14FF0FF30F3E7019805900098049018
:1035500004F0040058B19DF8140040F001008DF80B
:1035600014009DF8100040F001008DF8100004F0E8
:10357000200058B19DF8150040F001008DF81500AD
:103580009DF8110040F001008DF8110004F48070E6
:1035900058B19DF8160040F001008DF816009DF816
:1035A000120040F001008DF8120005AA03214FF42B
:1035B000886001F05FFE10B14FF0FF30B8E704AA59
:1035C000032140F2314001F055FE10B14FF0FF30C1
:1035D000AEE7064804810020AAE700004CCD6C004D
:1035E0000CC92C00365676002646660034020020B0
:1035F000F8B505460E464FF47A7095FBF0F000FBE7
:1036000006F4200E8DF80000200C8DF80100200A31
:103610008DF80200E0B28DF803006A4604214FF4F1
:10362000AE7001F027FEF8BD38B50446052094FBC6
:10363000F0F084B220128DF80000E0B28DF80100A5
:103640006A4602214FF4AD7001F014FE38BD38B562
:103650000446052094FBF0F084B220128DF800009F
:10366000E0B28DF801006A4602214FF4AC7001F01F
:1036700001FE38BD38B504460020009004F001007A
:1036800020B19DF8000040F03000009004F00200EE
:1036900020B19DF8000040F00C00009004F0040000
:1036A00020B19DF8000040F0030000906A4601211F
:1036B0004FF4A47001F0DEFD38BD38B50446012C8E
:1036C00001DA012402E0042C00DD0424601EC0B2F3
:1036D00000906A46012140F24F1001F0CBFD38BD49
:1036E0002DE9FC4706460F4606F0070010B1B7F576
:1036F000C86F03DD4FF0FF30BDE8FC87384602F0AD
:10370000BFFD8146594902F071FC8046684600F0D1
:103710005FFE9DF80000022806D0042816D0082875
:1037200026D0102848D135E04FF08D41404602F0B8
:10373000EFFD814602F06CFD84B24D49404602F037
:10374000E7FD814602F064FD85B238E04FF08C4120
:10375000404602F0DDFD814602F05AFD84B2454943
:10376000404602F0D5FD814602F052FD85B226E0CA
:103770004FF08B41404602F0CBFD814602F048FD00
:1037800084B23D49404602F0C3FD814602F040FD4F
:1037900085B214E04FF08A41404602F0B9FD8146FF
:1037A00002F036FD84B23549404602F0B1FD814653
:1037B00002F02EFD85B202E04FF0FF309CE700BF23
:1037C00020128DF80400E0B28DF8050028128DF863
:1037D0000600E8B28DF8070006F00100A0B101AACA
:1037E00002214FF4EA7001F045FD10B14FF0FF30B7
:1037F00082E70DF1060202214FF4927001F03AFDCA
:1038000010B14FF0FF3077E706F00200A0B101AA37
:1038100002214FF4EC7001F02DFD10B14FF0FF309C
:103820006AE70DF1060202214FF4947001F022FDC7
:1038300010B14FF0FF305FE706F00400A0B101AA1D
:1038400002214FF4EE7001F015FD10B14FF0FF3082
:1038500052E70DF1060202214FF4967001F00AFDC5
:1038600010B14FF0FF3047E7002045E70000484324
:10387000000040460000C045000040450000C04434
:1038800038B50446052094FBF0F085B228128DF877
:103890000000E8B28DF801006A4602214FF4EF7093
:1038A00001F0E8FC38BD38B50446052094FBF0F083
:1038B00085B228128DF80000E8B28DF801006A4642
:1038C00002214FF4ED7001F0D5FC38BD00BF054A70
:1038D000128802F04002002AF9D0C2B2014B1B1D2F
:1038E0001A807047003801407CB505462849496870
:1038F000087801AB04220D21FEF79AF908B10720E0
:103900007CBD9DF80700C0F301109DF8041001F084
:10391000E00140EAE1008DF800009DF80700C0F3E7
:1039200081009DF8051001F0E00140EAE1008DF80A
:1039300001009DF8070000F003009DF8061001F05B
:10394000E00140EAE1008DF8020000241CE01DF8CF
:10395000040018B9002045F8240013E00D4845F88C
:10396000240006E055F824000B4902F0D1FC45F88C
:1039700024001DF80400401EC0B20DF80400002809
:10398000F0D100BF601CC4B2032CE0DB0020B7E71D
:10399000380000207B14AE3E1D5A843F2DE9F04FC5
:1039A00087B005460C46914601208DF81000002096
:1039B0008DF81100FE4A1268917CFD4A5268107819
:1039C00004AB0222FEF7DAF920B14FF0FF3007B066
:1039D000BDE8F08FC820FFF753F900208DF81000E4
:1039E000F34A1268D17BF24A5268107804AB012284
:1039F000FEF7C4F910B14FF0FF30E8E7EC4A126867
:103A00005179EB4A5268107804AB0122FEF7B6F9FF
:103A100010B14FF0FF30DAE7E54A1268917CE44AD2
:103A20005268107804AB0122FEF7A8F910B14FF0EC
:103A3000FF30CCE7DE4A1268D17DDD4A526810784B
:103A400004AB0122FEF79AF910B14FF0FF30BEE748
:103A5000D74A12681179D64A5268107804AB01220D
:103A6000FEF78CF910B14FF0FF30B0E70C208DF865
:103A70001000CF4A12681179CD4A5268107804AB11
:103A80000122FEF77BF910B14FF0FF309FE70F20C6
:103A9000FFF7F6F8C648806A407A8DF81000C44AED
:103AA00012689178C24A5268107804AB0122FEF77E
:103AB00065F910B14FF0FF3089E7BD48806A007AA0
:103AC0008DF81000BA4A12685178B94A52681078D5
:103AD00004AB0122FEF752F910B14FF0FF3076E748
:103AE000B9F1000F07D0B248806A807A40F0E00058
:103AF0008DF8100004E0AE48806A807A8DF81000DE
:103B0000AB4A12689179AA4A5268107804AB012234
:103B1000FEF734F910B14FF0FF3058E7B9F1000F5C
:103B200007D0A348806AC07A40F0E0008DF810000A
:103B300003E0A048C07A8DF810009D4A1268D17940
:103B40009B4A5268107804AB0122FEF717F910B1B6
:103B50004FF0FF303BE7B9F1000F02D0C820FFF76C
:103B60008FF840208DF81000914A12681179904A20
:103B70005268107804AB0122FEF700F910B14FF043
:103B8000FF3024E778208DF81000894A12685179B7
:103B9000874A5268107804AB0122FEF7EFF810B1A3
:103BA0004FF0FF3013E783498889FFF769F8002059
:103BB0008DF810007E4A126851797D4A526810785B
:103BC00004AB0122FEF7DAF810B14FF0FF30FEE649
:103BD000774A1268917A764A5268107804AB0222CA
:103BE000FEF726F810B14FF0FF30F0E69DF8110017
:103BF0009DF8101040EA012B0C209BFBF0F0C6B2A0
:103C00000020A86068602860A06060602060824634
:103C100065E0674A1268D17A654A5268107804AB49
:103C20000C22FEF705F810B14FF0FF30CFE69DF8FB
:103C300011009DF8101040EA012000B2ADF8080014
:103C40009DF813009DF8121040EA012000B2ADF873
:103C50000A009DF815009DF8141040EA012000B2FA
:103C6000ADF80C00BDF90810206808442060BDF9CB
:103C70000A10606808446060BDF90C10A068084430
:103C8000A0609DF817009DF8161040EA012000B2D0
:103C9000ADF800009DF819009DF8181040EA0120C9
:103CA00000B2ADF802009DF81B009DF81A1040EA22
:103CB000012000B2ADF80400BDF9001028680844E6
:103CC0002860BDF90210686808446860BDF90410F6
:103CD000A8680844A8600AF1010000F0FF0AB24594
:103CE00097DB3448D0F800C02868C117090441EABE
:103CF00010410704624600233846FCF778FA324642
:103D00000023CDE90201FCF772FA28602948D0F8B7
:103D100000C06868C117090441EA104107046246FF
:103D200000233846FCF763FA32460023CDE902014E
:103D3000FCF75DFA68601F48D0F800C0A868C1179A
:103D4000090441EA10410704624600233846FCF7A3
:103D50004EFA32460023CDE90201FCF748FAA8608A
:103D60001448D0F804C02168C817000440EA11487C
:103D70000F046246002338464146FCF738FA3246C3
:103D80000023CDE90201FCF732FA20600948D0F89F
:103D900004C06068C117090441EA10410704624683
:103DA00000233846FCF723FA3246002304E00000E3
:103DB0003800002014670008CDE90201FCF717FA6B
:103DC00060601148D0F804C0A068C117090441EA36
:103DD00010410704624600233846FCF708FA3246D1
:103DE0000023CDE90201FCF702FAA060A0680028D8
:103DF00004DDA068A0F58030A06003E0A06800F5B5
:103E00008030A0600020E2E5146700082DE9FC5F27
:103E100006460F4600253D494968087801AB032254
:103E20000D21FDF705FF10B10720BDE8FC9F9DF8AF
:103E3000040000F01F008DF804009DF8050000F05C
:103E40001F008DF805009DF8060000F01F008DF89A
:103E50000600002456E056F8240057F82410A0EB82
:103E6000010BBBF1000F01DB594601E0CBF1000172
:103E7000084602F0EDF94FF08F41009002F0B6F8DD
:103E8000814601A8005D68B32149086802F0F8F98D
:103E9000834659461F4802F0A9F8804604E01E49AF
:103EA000404602F035FA804601A8005D401EC0B2CF
:103EB00001A908550028F2D14146484602F096F87B
:103EC00083464FF07E5102F021FB82462AF0004BE0
:103ED0000F488169584602F0E7FA12D20120A0404B
:103EE00005430EE00A480169484602F0DDF905D3B2
:103EF00007484169484602F0D7FA02D20120A040A3
:103F00000543641C032CA6DB28468EE738000020FE
:103F10001467000800B04C4554E3853F10B50446D3
:103F2000204600F00FF80346E01C00F00BF843EACF
:103F3000C00083B2A01D00F005F843EA801083B2F0
:103F4000184610BD014691F90020002A01DD00202D
:103F50001EE091F90020002A01DA042018E091F90E
:103F60000120002A01DD012012E091F90120002A40
:103F700001DA05200CE091F90220002A01DD02207F
:103F800006E091F90220002A01DA062000E007206D
:103F9000704700001FB5FEF751FE4FF4FA70FEF7B0
:103FA0006FFE4FF41650FEF7F9F8FDF7E7FD18B174
:103FB0001AA0FCF741F902E01DA0FCF73DF905E06D
:103FC0001F48B0F900101FA0FCF736F900F0B0F957
:103FD0001B4908800028F3D16420FEF751FEFDF74D
:103FE00000FF19E02049886801F066FF04460D468D
:103FF0001D49486801F060FF06460F461A490868E7
:1040000001F05AFF804642460B4618A0CDE90067F2
:10401000CDE90245FCF710F9E4E700004D50555F8B
:10402000496E6974204661696C6564210D0A00005F
:104030004D50555F496E6974204F4B210D0A0000A9
:10404000360000206D70755F646D705F696E697415
:10405000204661696C65642065726F7272206E75AE
:104060006D3A25640D0A000018020020C5B7C0ADE6
:10407000BDC7A3BA252E326620252E326620252EF6
:1040800032660A0D000000007047000070B504465B
:10409000002624F00104184890F8240008B10020FC
:1040A00070BD1548807A10B94FF0FF30F8E712481C
:1040B000057C807A2040104908740846007CA042A4
:1040C00002D04FF0FF3600E0002614B90A48007D08
:1040D00018B1012001F058F902E0002001F054F974
:1040E0003CB100F0B3FC20B1034805744FF0FF3041
:1040F000D6E73046D4E70000380000202DE9F04F25
:104100009BB081468A4693461C464FF07E5500265A
:1041100000274FF0000814A815A91AAB10AACDE982
:10412000001016A918A8FEF779FF18B101201BB0DE
:10413000BDE8F08FBDF8540000F4807000287DD0F9
:10414000109802F085F84FF09D410F9001F04EFF5E
:104150000546119802F07CF84FF09D410F9001F058
:1041600045FF0646129802F073F84FF09D410F90FC
:1041700001F03CFF0746139802F06AF84FF09D41AA
:104180000F9001F033FF804629464FF0804002F047
:10419000BFF83946069002F0BBF8314608904FF060
:1041A000404002F0B5F84146069002F0B1F80790A1
:1041B000089901F0ADFE099001F07EFECDE90A01FB
:1041C000FEF702FA4FF06632584BCDE90C0101F0D0
:1041D00099FBCDE90E0101F05BF9C9F80000394601
:1041E0004FF0804002F094F83946039002F090F8C6
:1041F000314605904FF0404002F08AF83146039076
:1042000002F086F80490059902F080F94FF07E5193
:10421000069001F07DFE079001F04EFECDE90A0107
:1042200029464FF0804002F073F83146049002F0C6
:104230006FF8394606904FF0804000E071E002F0E0
:1042400067F84146049002F063F80590069901F082
:104250005FFE079001F030FECDE90801DDE90A2399
:10426000FEF7FAFB4FF06632304BCDE90C0101F05E
:1042700049FBCDE90E0101F00BF9CAF800004146F7
:10428000404602F045F839460690384602F040F8BC
:1042900031460490304602F03BF829460290284609
:1042A00002F036F80190029901F032FE0390049971
:1042B00002F02CF90590069902F028F9079001F018
:1042C000FBFDCDE90A014146284602F021F83946B6
:1042D0000590304602F01CF80490059901F018FE94
:1042E0004FF08041069002F013F8079001F0E4FDD2
:1042F000CDE90801DDE90A23FEF7AEFB4FF0663297
:104300000A4BCDE90C0101F0FDFACDE90E0101F0F7
:10431000BFF8CBF8000025606660A760C4F80C8089
:1043200001E0022003E7002001E7000066A64C4000
:1043300070B50024FDF704FB00F024F9002840D1FB
:10434000782000F02FFFC4B20CB1012070BD78209E
:10435000FFF79CFEC4B20CB10220F7E7642000F026
:10436000D3FEC4B20CB10320F0E7FEF74BFEC4B29B
:104370000CB10420EAE71548FFF7D0FD0546FFF72A
:104380009BF8C4B20CB10520E0E740F27310FEF7D1
:10439000E1FCC4B20CB10620D8E76420FEF7BCFFF4
:1043A000C4B20CB10720D1E700F0A4FF04460CB161
:1043B0000820CBE7012000F0A3FDC4B21CB1092006
:1043C000C4E70A20C2E70020C0E700006400002024
:1043D00001461148407A30B1012807D0022808D0A0
:1043E00003280CD108E0022008700BE004200870BC
:1043F00008E00820087005E01020087002E04FF087
:10440000FF30704700BF0448C07C18B108784006F0
:10441000000E08700020F4E7380000200146134821
:10442000407A30B1012808D002280AD0032810D1E0
:104430000BE04FF4804008800EE041F69C7008804D
:104440000AE04FF48050088006E04FF400600880D6
:1044500002E04FF0FF30704700BF0448C07C10B14D
:104460000888401008800020F5E700003800002090
:1044700001460248007C0870002070473800002088
:1044800001460F48007A30B1012807D0022809D030
:1044900003280FD10AE0FA2008800EE04FF4FA70EA
:1044A00008800AE04FF47A70088006E04FF4FA6062
:1044B000088002E00020088000BF00BF0020704795
:1044C0003800002001460E48007A30B1012807D09C
:1044D000022808D003280CD108E00A4808600BE045
:1044E0000948086008E00948086005E008480860D5
:1044F00002E04FF0FF30704700BF0020FBE70000F4
:10450000380000200000034300008342333303429D
:104510003333834101461248C07A082817D2DFE8B6
:1045200000F01704070A0D101318BC20088013E0D0
:104530006220088010E02A2008800DE01420088006
:104540000AE00A20088007E00520088004E000BF98
:1045500000BF0020088000BF00BF0020704700009F
:10456000380000200146064890F8240010B14FF0B2
:10457000FF3070470248C08908800020F9E700003A
:10458000380000201CB580208DF80000654A1268B4
:10459000917C644A526810786B460122FDF7EEFB6D
:1045A00010B14FF0FF301CBD6420FEF769FB002006
:1045B0008DF800005B4A1268917C5A4A5268107864
:1045C0006B460122FDF7DAFB10B14FF0FF30EAE74E
:1045D000544A1268917D534A526810786B460622FD
:1045E000FDF726FB10B14FF0FF30DCE79DF805002A
:1045F000C007400F9DF8031001F0010140EA41009F
:104600009DF8011001F0010140EA010494B1012C70
:1046100003D101214348C17431E0022C03D10021B0
:104620004048C1742BE021463FA0FBF705FE4FF048
:10463000FF30B8E73B4A1268D1783A4A526810789E
:104640006B460122FDF7F4FA10B14FF0FF30AAE7F4
:104650009DF8000000F00F042CB93D48FBF7ECFD7D
:104660004FF0FF309FE7042C06D13AA0FBF7E4FDA2
:1046700001212C48C17402E000212A48C174FF21A5
:1046800028488172FF2027490872FF21254841727E
:10469000C1724FF6FF71C181FF2101748174012144
:1046A000017380F82210002180F8231041750175F4
:1046B0001630016041608160163880F8241080F85F
:1046C0002510C1844FF4FA6000F062FC10B14FF085
:1046D000FF3068E7022000F02BFB10B14FF0FF30F5
:1046E00061E72A2000F0CEFC10B14FF0FF305AE70E
:1046F000322000F009FD10B14FF0FF3053E70020E9
:10470000FFF7C4FC10B14FF0FF304CE7002000F081
:1047100051FB10B14FF0FF3045E7002000F042FDA3
:10472000002040E738000020556E737570706F727E
:1047300074656420736F6674776172652070726F40
:1047400064756374207265762025642E0A0000006B
:10475000CC74000848616C662073656E7369746977
:1047600076697479207061727420666F756E642E3C
:104770000A0000002DE9F04385B005460E4690463C
:104780009946294890F8250020B14FF0FF3005B038
:10479000BDE8F08316B94FF0FF30F8E7002423E0BE
:1047A000281B102801DD102000E0281B87B23219D9
:1047B0003946204600F05EFD10B14FF0FF30E6E7CD
:1047C00001AA3946204600F001F910B14FF0FF3040
:1047D000DDE730193A4601A9FBF764FE10B16FF02E
:1047E0000100D4E7E01984B2AC42D9DB4FEA2820BB
:1047F0008DF8000008F0FF008DF801000A4A1268E9
:10480000917E094A526810786B460222FDF7B6FA8B
:1048100010B14FF0FF30BAE70121034880F82510AE
:10482000A0F826900020B2E73800002038B50446F2
:10483000282C02DD4FF0FF3038BDDCB9002000F03D
:10484000EBFB00208DF8000007208DF801002E4AB8
:104850001268917C2C4A526810786B460222FDF750
:104860008DFA10B14FF0FF30E6E7002126480175C0
:104870000020E1E7012000F0CFFB20208DF80000B0
:10488000012C06D100208DF80100052000F0FAFB74
:1048900017E0052C06DC01208DF80100052000F052
:1048A000F1FB0EE0142C06DC02208DF801000A203A
:1048B00000F0E8FB05E003208DF80100142000F073
:1048C000E1FB9DF80100072101EB8010C0B28DF8DB
:1048D00001000D4A1268917C0B4A526810786B46B1
:1048E0000222FDF74BFA10B14FF0FF30A4E7082188
:1048F0000548817200210173012101750020FFF735
:10490000C5FB002098E7000038000020F8B50446F9
:104910000F4616462C4890F8240010B94FF0FF308F
:10492000F8BD2948807A10B94FF0FF30F8E7264AE1
:104930001268917A244A526810786B460222FDF779
:1049400077F910B14FF0FF30EAE79DF801009DF8CC
:10495000001040EA0125A54203DA00203070401E15
:10496000DEE7194840684088B5EB600F17DD164A4E
:104970001268517C144A526810786B460122FDF788
:1049800057F910B14FF0FF30CAE79DF8000000F072
:10499000100020B100F05AF86FF00100C0E7E2B259
:1049A000094B1B68D97A084B5B6818783B46FDF7C2
:1049B0003FF910B14FF0FF30B2E795FBF4F0401E25
:1049C00030700020ACE7000038000020F8B5044645
:1049D0000D46164616B94FF0FF30F8BD1A48807ADA
:1049E00010B94FF0FF30F8E720128DF80000E0B268
:1049F0008DF801009DF80100284413494968498950
:104A0000884202DD4FF0FF30E7E70F4A1268117E5F
:104A10000D4A526810786B460222FDF7AFF910B1CB
:104A20004FF0FF30D9E7EAB2074B1B68597D064BC0
:104A30005B6818783346FDF7FBF810B14FF0FF3094
:104A4000CBE70020C9E700003800002008B5704817
:104A5000807A10B94FF0FF3008BD002000906C4AFA
:104A60001268D17B6A4A526810786B460122FDF7C2
:104A700085F910B14FF0FF30EEE7654A12685179C1
:104A8000634A526810786B460122FDF777F910B13E
:104A90004FF0FF30E0E75E4A126811795C4A5268D5
:104AA00010786B460122FDF769F910B14FF0FF3025
:104AB000D2E7574890F82400002853D00C200090EB
:104AC000534A12681179524A526810786B46012293
:104AD000FDF754F910B14FF0FF30BDE73220FEF77B
:104AE000CFF8C02000904A48807A00F0010020B141
:104AF0009DF8000040F020000090454A12681179AE
:104B0000434A526810786B460122FDF737F910B11D
:104B10004FF0FF30A0E73E48407C10B102200090EB
:104B200001E0002000903A4A1268D17B384A52686E
:104B300010786B460122FDF721F910B14FF0FF30DC
:104B40008AE700200090324A12685179304A526850
:104B500010786B460122FDF711F9002855D04FF06F
:104B6000FF3079E704200090294A12681179284A19
:104B7000526810786B460122FDF700F910B14FF032
:104B8000FF3069E72248807C20B92148807A00F014
:104B9000010010B94020009001E0602000901C4A04
:104BA000126811791A4A526810786B460122FDF793
:104BB000E5F810B14FF0FF304EE73220FEF760F815
:104BC0001348407C10B10120009001E000200090CB
:104BD0000F4A1268D17B0E4A526810786B46012248
:104BE000FDF7CCF810B14FF0FF3035E7084A1268F6
:104BF0005179074A52681078054B10330122FDF7AE
:104C0000BDF810B14FF0FF3026E7002024E7000088
:104C1000380000202DE9F04F8DB083460F4602206A
:104C20000C90424890F8240020B1002000F068F970
:104C3000012600E0002603A8FFF722FC05A8FFF7E5
:104C4000C7FB01A8FFF766FC02A8FFF78BFC3748FB
:104C500090F80AA004A8FFF70BFC002407E000224C
:104C600039465846FEF79AFE00B902E0641C022C51
:104C7000F5DB00BF022C01D1002528E0002407E06D
:104C8000012206A909A8FEF789FE00B902E0641C0A
:104C9000022CF5DB00BF022C01D1002517E006A98C
:104CA0003846FDF73DFC00F0FF0809A95846FFF71C
:104CB000ADF800F0FF090025B9F1000F01D145F072
:104CC0000105B8F1000F01D145F0020500BFFF203A
:104CD00016490872FF2115484172C1724FF6FF71E3
:104CE000C181FF218172017401210173BDF80C00A3
:104CF00000F04EF99DF8140000F01AF8BDF8040019
:104D000000F0C0F9BDF8080000F0FEF9504600F0D0
:104D100049FA9DF81000FFF7B9F916B1012000F02B
:104D2000EFF828460DB0BDE8F08F000038000020F5
:104D300038B504461E48807A10B94FF0FF3038BDB0
:104D4000022C06D0042C07D0082C08D0102C0CD133
:104D500008E0002000900BE00820009008E0102000
:104D6000009005E01820009002E04FF0FF30E6E7E9
:104D700000BF0F48407A9DF80010B0EBE10F01D161
:104D80000020DCE70A4A1268D179094A5268107893
:104D90006B460122FCF7F2FF10B14FF0FF30CEE777
:104DA0009DF80000C110024841720020C7E70000D2
:104DB0003800002038B504465048807CA04201D11C
:104DC000002038BD002C46D04C4A126811794B4A5D
:104DD000526810786B460122FCF72AFF10B14FF0A1
:104DE000FF30EEE79DF8000020F020000090434ADD
:104DF00012681179414A526810786B460122FCF71B
:104E0000BDFF10B14FF0FF30DBE70320FDF738FFA7
:104E100002200090394890F8220020B19DF800004F
:104E200040F080000090354890F8230020B19DF8B4
:104E3000000040F030000090304A1268117D2F4A87
:104E4000526810786B460122FCF798FF002851D079
:104E50004FF0FF30B5E7294A12681179274A5268A6
:104E600010786B460122FCF7E3FE10B14FF0FF30E3
:104E7000A7E72248807A00F0010028B19DF80000E1
:104E800040F02000009004E09DF8000020F0200099
:104E900000901A4A12681179184A526810786B46C5
:104EA0000122FCF76BFF10B14FF0FF3089E70320C0
:104EB000FDF7E6FE114890F8220010B18020009026
:104EC00001E0002000900D4890F8230020B19DF8EB
:104ED000000040F030000090084A1268117D074A37
:104EE000526810786B460122FCF748FF10B14FF072
:104EF000FF3066E701488474002062E73800002034
:104F000038B50446214890F82400A04201D1002081
:104F100038BD24B31D4890F8250010B94FF0FF307C
:104F2000F6E7002000F030FA0020FFF743FF1749B2
:104F3000C88C00F0E9F8002000901449496808780E
:104F40006B4601222321FCF719FF01210F4880F84D
:104F50002410012000F018FAFFF778FD13E000207C
:104F600000F012FA0948007C009008494968087866
:104F70006B4601222321FCF701FF0021034880F842
:104F80002410FFF763FD0020C2E700003800002076
:104F900038B504461F48807A10B94FF0FF3038BD4D
:104FA000FA2C09D0B4F5FA7F09D0B4F57A7F09D08C
:104FB000B4F5FA6F0CD108E0002000900BE0082057
:104FC000009008E01020009005E01820009002E01A
:104FD0004FF0FF30E3E700BF0E48007A9DF8001065
:104FE000B0EBE10F01D10020D9E70A4A12689179AC
:104FF000084A526810786B460122FCF7BFFE10B1D8
:105000004FF0FF30CBE79DF80000C0100149087257
:105010000020C4E73800002038B50446184890F84E
:105020002300A04201D1002038BD14B130200090EF
:1050300001E0002000901248807C20B19DF8000023
:1050400040F0020000900E4890F8220020B19DF838
:10505000000040F080000090094A1268117D084A63
:10506000526810786B460122FCF788FE10B14FF0B1
:10507000FF30D9E7024880F823400020D4E7000041
:105080003800002038B504461E48807A10B94FF029
:10509000FF3038BDBC2C02DB0120009015E0622CF3
:1050A00002DB0220009010E02A2C02DB032000909B
:1050B0000BE0142C02DB0420009006E00A2C02DB3B
:1050C0000520009001E0062000900E48C07A9DF86F
:1050D0000010884201D10020DBE70A4A126891786B
:1050E000084A526810786B460122FCF747FE10B15F
:1050F0004FF0FF30CDE79DF800100248C17200204C
:10510000C7E700003800002038B504462448807AFC
:1051100010B94FF0FF3038BD214890F8240010B18D
:105120004FF0FF30F7E71E48007D50B134B1282C16
:1051300004DCE0B2FFF77AFB0020ECE70020FFF789
:1051400075FB042C01DA042404E0B4F57A7F01DD58
:105150004FF47A744FF47A7090FBF4F0401EC0B2B2
:1051600000900F4A126851780D4A526810786B46C9
:105170000122FCF703FE10B14FF0FF30CBE79DF8A2
:105180000000401C4FF47A7191FBF0F081B20448AA
:10519000C1810146C9894810FFF774FF0020BAE7B2
:1051A0003800002038B5044604F0700010B101202A
:1051B000009005E014B10020009001E04020009034
:1051C0002B4A1268917C2A4A526810786B46012259
:1051D000FCF7D4FD20B1002125488172481E38BD5E
:1051E0009DF8000020F0400121480173002000904C
:1051F00004F0400020B99DF8000040F00400009049
:1052000004F0200020B99DF8000040F0020000905A
:1052100004F0100020B99DF8000040F0010000905B
:1052200004F0080020B99DF8000040F0380000901C
:105230000F4A1268D17C0E4A526810786B460122E0
:10524000FCF79CFD20B1002109488172481EC6E789
:1052500024B1082C02D00020FFF7DEFE044884723F
:10526000002101753220FDF70BFD0020B7E700009B
:1052700038000020F8B504460D46164616B94FF022
:10528000FF30F8BD1A48807A10B94FF0FF30F8E7C8
:1052900020128DF80000E0B28DF801009DF80100A9
:1052A0002844134949684989884202DD4FF0FF309C
:1052B000E7E70F4A1268117E0D4A526810786B4674
:1052C0000222FCF75BFD10B14FF0FF30D9E7EAB2E4
:1052D000074B1B68597D064B5B6818783346FCF713
:1052E0004DFD10B14FF0FF30CBE70020C9E70000C3
:1052F0003800002070B588B002A905A8FFF78AFC25
:105300000446032C3ED101A8FFF7DCF8059800F015
:105310009FFF0646019900F0FBFF054600F05CFF89
:105320000590069800F094FF0646019900F0F0FF02
:10533000054600F051FF0690079800F089FF0646E9
:10534000019900F0E5FF054600F046FF079005A82B
:10535000FEF71AF86846FFF761F8BDF800100298EA
:1053600048430290BDF80010039848430390BDF8ED
:10537000001004984843049002A8FDF735FF002070
:1053800008B070BD0120FBE738B50446214890F80D
:105390002400C0B114B10220009001E00020009070
:1053A0001C4A1268D17B1B4A526810786B46012256
:1053B000FCF7E4FC10B14FF0FF3038BD9DF8001051
:1053C0001448417423E01348807A10B94FF0FF303D
:1053D000F3E724B10F48407C08B10020EDE714B199
:1053E0000120009001E0002000900A4A1268D17B61
:1053F000084A526810786B460122FCF7BFFC10B1D6
:105400004FF0FF30D9E79DF80010024841740020AA
:10541000D3E70000380000202DE9F04106460F4692
:1054200000F07AFB041E0D4618BF0120284320F02F
:105430000040C0F17F6000F1E040C00F0ED0301C92
:1054400018BF0120384320F00040C0F17F6000F118
:10545000E040C00F04BF0120FBF7D8F820462946E2
:10546000BDE8F08110B500290AD00878002807D0DF
:1054700005487844FBF7F2FC002801D0002010BD5D
:105480000248784410BD0000CA200000C22000007D
:1054900021F00042A2F16052B2F5801F01F00043FA
:1054A00028BFD2F17F6C0BD95FEA001C43EAC2022D
:1054B00042EB507018BF704728BF20F001007047C2
:1054C000B2F5801FBCBF184670474FEA410C1CF56F
:1054D000001F02D2084600F0E2BF70B500F0BCFA2F
:1054E00000000089FFF7F6BF4FF00040A0F58000F4
:1054F0007047000010B591EA030F48BF83F00043E6
:1055000000F1F883841A71EB030C05D2121943EBF6
:105510000C03001B61EB0C01DFF824E14FEA11548E
:10552000A4EB135C1EEA430F18BF9EEA445F73D0DE
:1055300023EA0E03DCF1200E21EA045143F4801328
:1055400032D322FA0CFE10EB0E0023FA0CFE41EBD4
:105550000E01CCF1200E03FA0EFE10EB0E0051F1FD
:105560000001B1F5801FCCF1200E32D201EB0451C5
:1055700012FA0EF2BDE8104058BF7047401C38BF09
:105580005FEA420218BF7047002814BF20F00100F4
:1055900041F100014FEA410313F5001F38BF704786
:1055A000A1F1C04100F0A6BA012A43EB0302ACF11D
:1055B000200CDCF11F0E32BF4FF0000E23FA0CF36B
:1055C00010EB030041EB0451B4EB115FD0D0A1EB21
:1055D000045101F5801149085FEA300001EB0451E4
:1055E0000ED350F1000038BF12FA0EFE08D1BDE80C
:1055F0001040C9E7401C38BF5FEA4202CAD1C3E786
:10560000BDE810404FEA410313F5001F38BF704753
:10561000A1F1C04100F06EBA9EEA445F08D011EAE1
:105620005E0FBDE8104004BF01F00041002070474C
:10563000BDE8104070B500F00FFA00BF64FBBE3E3D
:105640000000E0FF02494FF0000000F0D6BF00BFAD
:105650000000F87F2DE9C04130B4DFF8A0C23CEA79
:10566000111418BF3CEA131400F0EC8081EA030522
:105670001CEA111444EAD57418BF1CEA131500F093
:10568000C780A4EB05044FF0004545EAC12145EA77
:10569000C32341EA505143EA525304F17F749942C3
:1056A00004F500344FEAC0204FEAC22208BF9042FE
:1056B00000F09C804FEA13650FF24016765D4FEACA
:1056C000134506FB05F7C7F1807706FB07F74FEA9E
:1056D000D737A7FB03687642C8F58038A7FB06CE0C
:1056E00038BFA8F1010807FB08E64FF0000EA6FB43
:1056F000028CE6FB03CEDCF1000CCEF1004E38BF8D
:10570000AEF1010EA6FB0C584FF000074FF000055C
:10571000E6FB0E87A1FB08C6A0FB07CE16EB0E0624
:1057200045F10005E1FB076515F1E04E7EBFA4F5EC
:1057300080345FEA46066D4116F1800745F10005A9
:105740004FEA17274FEA066647EA0567A6F1DE46E5
:10575000B6F1805F4FEA15251FD9384624F0010CB9
:1057600005EBC471BCF1FE6F01EB0C1102D8F0BC6B
:10577000BDE8008124425CBF01F5801E9EEAC47F23
:1057800002D4F0BCBDE80081244238D4F0BCA1F1C1
:10579000C041BDE8004100F0ADB94FEAD22242EA73
:1057A00043524FEAD323A7FB02864FEAD02040EAB8
:1057B000415007FB03661EEA0E0F4FEAD12105FB9D
:1057C000026658BFA6EB0056B6EB00564FEA520EE3
:1057D0004EEAC37E18EB0E0E56EB530EBDD518EBFA
:1057E00002085E417F1C55F10005B6E74FF48015B5
:1057F0004FF000074FF000064FF00008ADE7F0BC97
:105800004FF0000001F1C04101F00041BDE800810E
:1058100011EA0C1F0CEA131500D00CE013EA0C1F60
:1058200000F025804FF00000F0BC81EA030101F098
:105830000041BDE80081F0BCBDE8004181EA030100
:1058400000F058B9F0BCBDE8004170B500F004F9B3
:10585000097EFC3E00F007B881EA03014FF000002A
:1058600001F00041704781EA030100F043B9F0BC48
:10587000BDE800414FF0000021497047FFFDFBF9F2
:10588000F7F5F4F2F0EEEDEBE9E8E6E4E3E1E0DE73
:10589000DDDBDAD8D7D5D4D3D1D0CFCDCCCBCAC8E5
:1058A000C7C6C5C4C2C1C0BFBEBDBCBBBAB9B8B70C
:1058B000B6B5B4B3B2B1B0AFAEADACABAAA9A8A8FF
:1058C000A7A6A5A4A3A3A2A1A09F9F9E9D9C9C9BCD
:1058D0009A99999897979695959493939291919078
:1058E0008F8F8E8E8D8C8C8B8B8A89898888878709
:1058F0008685858484838382828181800000FF077E
:105900000000F87FDFF848C170B51CEA111E1EBF09
:105910001CEA13159EEA0C0F95EA0C0F00F06F803D
:1059200081EA030423EA4C134EEAD47E21EA4C11A7
:1059300041F4801143F48013AE44A1FB024CA0FB60
:105940000365AEF17F7E361955EB0C05A1FB034CC8
:105950004CF10003A0FB021C16EB0C06654153F151
:105960000003094218BF46F0010613F4007F0BD173
:105970004FEA03314FEA0530340341EA155140EA5A
:1059800016506FF003020AE04FEAC3214FEAC52028
:10599000F40241EA555140EA56506FF0020202EB20
:1059A0002E4201EB025585EACE710AD05FEA440C23
:1059B00018BF24F0004450F1000041F1000120EA3A
:1059C000D47040F2FE7C624500D270BDA84214BF84
:1059D0004FF080444FF04044002E08BF0024BEF139
:1059E000806FA8BFA1F1C041BDE8704080F2828005
:1059F0004FF0000001F1C04101F0004170479EEA04
:105A00000C0F0CEA131518BF95EA0C0F06D04FF0D7
:105A1000000081EA030E0EF0004170BD00F01CF89A
:105A20008900013E00F007B800F009B84FEA430CC6
:105A30005FEA5C5C08D081EA030100F05BB84FEAE2
:105A4000410C5FEA5C5CF6D14FF000000149704701
:105A50000000FF070000F87F0EF1020E2EF0030E8B
:105A60005EF8046B364205D4012A43EB030515F5B5
:105A7000001F12D8012841EB010C1CF5001F0CD8A7
:105A80000ED14FEAD17C15F5001F0CEB4C0C0CF13C
:105A9000020C08BF4CEBD37C04E04FF0080C01E093
:105AA0004FEAD37C0CEB4C0526FA05F606F0070608
:105AB000B6F1040C06D20EEB860CBDE870404CF03B
:105AC000010C6047DFE80CF0090B02024FF00041C7
:105AD0004FF00000A1F5002170BD194610460128C5
