:020000040800F2
:10000000684F002085020008F5230008C51E00087F
:10001000F12300081B1800085935000800000000F3
:10002000000000000000000000000000ED010008DA
:10003000891900080000000031020008552B000853
:100040009F0200089F0200089F0200089F0200080C
:100050009F0200089F0200088D1900089F020008F7
:100060009F0200089F0200089F0200089F020008EC
:100070009F0200089F0200089F0200089F020008DC
:100080009F0200089F0200089F0200089F020008CC
:100090009F0200089F0200089F0200089F020008BC
:1000A0009F0200089F0200089F0200089F020008AC
:1000B000C52B00089F0200089F0200089F0200084D
:1000C0009F0200089F0200089F0200089F0200088C
:1000D0009F0200084D3100084132000845320008F7
:1000E0009F0200089F0200089F02000800F002F82B
:1000F00000F06DF80AA090E8000C82448344AAF155
:100100000107DA4501D100F062F8AFF2090EBAE852
:100110000F0013F0010F18BFFB1A43F0010318473B
:100120002CAB00004CAB00000A444FF0000C10F860
:10013000013B13F0070408BF10F8014B1D1108BF65
:1001400010F8015B641E05D010F8016B641E01F805
:10015000016BF9D113F0080F1EBF10F8014BAD1C55
:100160000C1B09D16D1E58BF01F801CBFAD505E073
:1001700014F8016B01F8016B6D1EF9D59142D6D3CD
:10018000704700000023002400250026103A28BFF5
:1001900078C1FBD8520728BF30C148BF0B607047F9
:1001A000662909F0C285642900F0E880732900F00F
:1001B0007585002070471FB500F0DAFD04000020AF
:1001C000002108F067FCE0601FBD10B510BD00F015
:1001D000FBFE1146FFF7EFFF04F0ADFF00F019FF43
:1001E00003B4FFF7F2FF03BC03F03BFA224B19689C
:1001F0000868B0E8F00F80F30988BFF36F8F4FF005
:10020000000080F311884EF00D0E704700000000D2
:1002100006480068006880F3088862B661B6BFF3DC
:100220004F8FBFF36F8F00DF00BF00BF08ED00E00E
:10023000EFF30980BFF36F8F0F4B1A6820E9F00FBF
:10024000106008B54FF0300080F31188BFF34F8F76
:10025000BFF36F8F07F05CFD4FF0000080F3118853
:10026000BDE8084019680868B0E8F00F80F3098815
:10027000BFF36F8F704700BFD8000020EFF30580F9
:10028000704700000948804709480047FEE7FEE73D
:10029000FEE7FEE7FEE7FEE7FEE7FEE7FEE7FEE736
:1002A00004480549054A064B70470000652B0008C5
:1002B000ED00000868490020684F0020684B0020CE
:1002C000684B0020704710B54C1084EA530404D5E5
:1002D0004042C1F1000138BF491E1B4204D55242C1
:1002E000C3F1000338BF5B1E00F0C5F914F0804F66
:1002F00004D04042C1F1000138BF491E14F0004F44
:1003000004D05242C3F1000338BF5B1E10BD000091
:100310000FB4044910B503AA029800F0C3FC10BC46
:100320005DF814FB0400002070B50C460546012A58
:1003300005D02878800600D5EA69002302E0012371
:1003400005E05B1C934202D2E05C0028F9D1A86969
:10035000E618C01AA861286A184428622846AFF334
:10036000008004E0D5E9012114F8010B9047B44264
:10037000F8D32846AFF3008070BD00002DE9F041AE
:100380000646002410687529314616A510D0AFF333
:100390000080002802DA404213A507E031688A078E
:1003A00001D512A502E0490704D511A5012401E0F9
:1003B000AFF3008000210A2206F1240709E0B0FB18
:1003C000F2FCB0FBF2F302FB1C003030785418460C
:1003D000491C0028F3D123462A463046BDE8F041A7
:1003E00000F0CBB9000000002D0000002B00000041
:1003F000200000002DE9F05F894604464FF0000A16
:10040000DFF874B1FB44C0F820A02046E1688847BB
:10041000002874D0252806D0D4E901219047206A0D
:10042000401C2062F1E700265F462046E1688847CD
:100430002028054607DB312D05D2781910F8200C4D
:1004400008B10643F1E7B00701D526F00406C4F869
:100450001CA00027C4F818A02A2D09D0284603F0B4
:10046000F9F838B304EB8708303DC8F8185019E0A4
:1004700059F8041B204604EB87029161E168884724
:10048000012F054618D1E069002820DA26F0200661
:100490001DE0D8F8180000EB800005EB4000303874
:1004A000C8F818002046E1688847054603F0D2F8EE
:1004B0000028EED1012F0AD02E2D08D12046E16868
:1004C00088477F1C0546022F46F02006C4DBA06942
:1004D000002803DA404246F00106A061F00701D08F
:1004E00026F010066C2D0BD0682D09D04C2D39D07C
:1004F0006A2D35D0742D35D07A2D33D016E038E002
:10050000E1682F4620468847B842054609D16C2F3E
:1005100026D04FF48060E1680643204688470546B0
:1005200004E06C2F1AD04FF4807006430DB3A5F190
:100530004100192802D8203546F400664A4629466B
:10054000204626604E46FFF72BFE80B101280BD0D7
:10055000F61D26F0070000F1080956E74020E4E701
:100560008020D8E70020D6E706F104094DE72846A9
:1005700052E7206ABDE8F09F5EA6000040EA010352
:1005800010B59B070FD1042A0DD310C808C9121F3C
:100590009C42F8D020BA19BA884201D9012010BD76
:1005A0004FF0FF3010BD1AB1D30703D0521C07E043
:1005B000002010BD10F8013B11F8014B1B1B07D1A7
:1005C00010F8013B11F8014B1B1B01D1921EF1D118
:1005D000184610BD032A40F2308010F0030C00F0E2
:1005E000158011F8013BBCF1020F624498BF11F86D
:1005F00001CB00F8013B38BF11F8013BA2F1040226
:1006000098BF00F801CB38BF00F8013B11F003039D
:1006100000F05A83083AC0F0088051F8043B083AC9
:1006200051F804CBA0E80810F5E7121D5CBF51F8A3
:10063000043B40F8043BAFF30080D20724BF11F81D
:10064000013B11F801CB48BF11F8012B24BF00F882
:10065000013B00F801CB48BF00F8012B704702F0C6
:10066000FF0343EA032242EA024200F061BB704703
:1006700070477047704753EA020C00F069802DE91B
:10068000F04B4FF00006002B1FBFB3FA83F503FABF
:1006900005F424FA05F65E4012BF1643B2FA82F55D
:1006A00002FA05F4C5F120051EBF22FA05FC44EA52
:1006B0000C04203556EA044C4FEA144418BF641C5D
:1006C0004FF000084FF00009904271EB030C39D352
:1006D000002919BFB1FA81F701FA07F6B0FA80F7DD
:1006E00000FA07F6C7F120071EBF20FA07FC46EA0A
:1006F0000C062037B6FBF4FCA7EB0507103F07F00C
:100700001F0BCBF120060CFA0BFB2CFA06F644BFAC
:10071000B3460026202FA4BF5E464FF0000B5BEAD5
:10072000060C08BF4FF0010B19EB0B09ABFB027C69
:1007300048EB0608C01B06FB02CC0BFB03CC71EB9D
:100740000C01C1E70B46024641464846BDE8F08B26
:1007500013B54FF000004FF00001AFF30080BDE88B
:100760001C40704710B500F007FB006810BD10B5C5
:10077000044600F001FB046010BD2DE9F0470D4672
:1007800099469246044600F124080168880604D57B
:10079000E06921F01001216000E00120A84201DDA4
:1007A000471B00E00027A1697A1902EB0900081A2B
:1007B000A0612078C00602D42046AFF30080002656
:1007C00008E0D4E901211AF806009047206A401C8D
:1007D000761C20624E45F4DB2078C0060AD5204600
:1007E000AFF3008006E0D4E9012130209047206A71
:1007F000401C2062381EA7F10107F4DC07E0D4E9B1
:10080000012118F805009047206A401C2062281E2C
:10081000A5F10105F3DC2046AFF300802078000647
:1008200002D50220BDE8F0870120FBE770472DE9E3
:10083000FF4F0C461E464FF0FF378BB0D2E9000148
:10084000DDF860800A908A46C1F30A5505B93D4635
:10085000002108464FF00000BAF1000F00F44000FC
:1008600005DA00EB80004FF4400101EA50004FEA46
:100870009059B9F1010F00DDB9460A9850EA4A00D3
:100880000ED044F61050A5F2FF3545432F14B8F1B1
:10089000000F1ED07542291E1EDDC9F100021CE0AA
:1008A000B8F1010F4FF0000001D0302103E0F24316
:1008B00005E02154401CB042FBDB30460022002101
:1008C00021540B99C1F80880C1E900200FB0BDE8A0
:1008D000F08FBD1B6D1CDEE74A4600DA694206A8B0
:1008E00000F0D4FA06AB93E8070003AB83E80700F7
:1008F00050460A9900F0D6FB8DE80700A0F500509D
:100900001F3800900398002D09DD42F21F014A466E
:10091000084403A90390684600F035FE08E0A0F5FE
:1009200000504A461F3803A90390684600F03FFE76
:100930008DE807000004000C03D04FF0FF304108A1
:1009400000E01046B8F1000F03D0002200921546D7
:100950001EE0751E05D400F013FA303262556D1E8C
:10096000F9D5B3460122084302D000227F1C04E0DF
:100970002078302801D100227F1E002A099786D0D6
:100980001DE0112D07DA00F0FBF9303262556D1CC5
:1009900050EA0102F5D1084302D00098C8B10EE038
:1009A0000021681E05E0235C625C63542254401EF3
:1009B000491C8142F7DBAB46A81B401E0990002072
:1009C00004F80B000B98099AC0F80880C0E9002BC6
:1009D0007CE711264FF0000859E72DE9F04F8846D3
:1009E0000446D21D22F0070191B0D1E90001CDE902
:1009F0000A0102F0B3FD02460B98C00F01D02D2072
:100A000007E02068810701D52B2002E0202101EAC0
:100A1000C000032A099001D0072A05DB034641469E
:100A2000204600F0F3F90BE12078800601D5E0695B
:100A300000E00620B8F1650F814606D0B8F1660FD8
:100A400018D0B8F1670F70D131E00020B9F1110F63
:100A5000009001DB112301E009F101030AAA01A9B9
:100A60000CA8FFF7E4FEDDE90C70002609F1010592
:100A7000834647E001204B4600904FF000470AAA0A
:100A800001A90CA8FFF7D3FEDDE90DB00C995D4676
:100A9000002610B909F101000D18B9EB050003D4C7
:100AA000C0F1FF3609F10105A5EB09002BE0B9F112
:100AB000010F01DA4FF001090020B9F1110F009088
:100AC000484601DD112300E003460AAA01A90CA84B
:100AD000FFF7ADFEDDE90C704D4600268346207819
:100AE00000070AD4AB4500DA5D4601A8012D04DDFC
:100AF000411911F8011C302907D04F4502DA17F1CE
:100B0000040F04DA012082460FE06D1EEEE7002F8D
:100B100002DCED1B3E4403E0781CA84200DD7D1C96
:100B2000B81B00F1010A4FF000472078000703D4FA
:100B3000AA4501DB4FF0FF3A0021B7F1004F0DF15C
:100B400043088DF8431024D002202B23002F01DA14
:100B50007F422D230A21021EA0F1010000DC5FB1BB
:100B600097FBF1FC97FBF1F201FB1C7C17460CF1A3
:100B7000300C08F801CDEEE7A8F1010003702188E0
:100B8000090501D5452100E06521A0F1010800F823
:100B9000011C09980FA9A1EB0807FF1D00B1012056
:100BA000411901EBEA70A1693844081A401EA0619E
:100BB0002078C00602D42046AFF30080099828B1FF
:100BC000D4E901219047206A401C20622078C006A9
:100BD00022D52046AFF300801EE0002E04DBB34593
:100BE00002DD01A8805D00E03020D4E901219047BA
:100BF000206A401C2062761CAAF101005FEA000A0C
:100C00000AD100F0B5F8C0680168405CD4E9012160
:100C10009047206A401C2062281EA5F10105DCDCFB
:100C200007E0D4E9012118F8010B9047206A401C25
:100C30002062381EA7F10107F3DC2046AFF30080E5
:100C4000032011B043E6000001694A1C02610878E4
:100C5000704700B58FB0CDE90131002105910549FC
:100C60007944CDE9031011466846FFF7C3FB0FB086
:100C700000BD0000E5FFFFFF10B5436913B1AFF3FE
:100C8000008001E0FFF750FB012010BD127800F159
:100C900024010A7000224A700122EDE711684FF02A
:100CA000FF32E9E7074B70B50D467B44FFF7D1FFF4
:100CB0000446284600F058F910B14FF0FF3070BDDF
:100CC000204670BDBB3D000010B5203AC0F00B803F
:100CD000B1E81850203AA0E81850B1E81850A0E840
:100CE0001850BFF4F5AF5FEA027C24BFB1E818509A
:100CF000A0E8185044BF18C918C0BDE810405FEA0A
:100D0000827C24BF51F8043B40F8043B08BF704785
:100D1000D20728BF31F8023B48BF11F8012B28BF8A
:100D200020F8023B48BF00F8012B70474FF000024B
:100D30000429C0F0128010F0030C00F01B81CCF1EC
:100D4000040CBCF1020F18BF00F8012BA8BF20F85B
:100D5000022BA1EB0C0100F00DB95FEAC17C24BFAE
:100D600000F8012B00F8012B48BF00F8012B704759
:100D7000004870472449002000487047044900207B
:100D800030B5B0F10A024FEA900E71F100034EEA5D
:100D9000817EB0EB0E0061EB91014FEA101E4EEA2E
:100DA000017E10EB0E0041EB11114FEA102E4EEABE
:100DB000016E10EB0E0041EB11214FEA104E4EEA8E
:100DC000014E10EB0E0041EB1141401841F10001C2
:100DD0004FEAD00040EA41704FEAD10110EB8005A4
:100DE0004FEA810444EA907444EB01046D1944EB2A
:100DF0000404521BA3414FF0000348BF0A3200D540
:100E000030BD401C41F1000130BD00002DE9F04132
:100E10001F46044603260168072A01F4006004DB2C
:100E200008B116A505E016A503E008B115A500E078
:100E300015A521F010002060A069C01EA0610FB1AF
:100E4000401EA0612046AFF300804FB1D4E90121DC
:100E500038469047206A401C2062C01C206206E091
:100E6000206AFAE7D4E9012115F8010B9047761EB4
:100E7000F8D22046AFF30080BDE8F0814E414E002D
:100E80006E616E00494E4600696E66002DE9F047BE
:100E9000814616468AB0334878440DC88DE80D0067
:100EA00030487844801C03AC0DC884E80D0041F63E
:100EB0009B300844372190FBF1F290FBF1F5A5F14E
:100EC000800501FB12041B3C02D56442012000E0B6
:100ED0000020DFF890A080460027FA44AAF1BE0A5D
:100EE0000DE0E00709D03246684607EB47010AEB00
:100EF000810100F05CFB8DE8070064107F1C002C72
:100F0000EFD1184F7F44AC3F18E0E80714D007EB4F
:100F100004100DF1180A90E80E008AE80E00C0686F
:100F2000F04201D198190890324606A903A800F0B2
:100F30003EFB03AB83E807006D10641C002DE4D179
:100F400032466946B8F1000F03A802D000F01BFB3F
:100F500001E000F02CFBC9E90001C9F808200AB043
:100F6000BDE8F087489D0000007B00F080007047DE
:100F70004FF0000200B5134694469646203922BF32
:100F8000A0E80C50A0E80C50B1F12001BFF4F7AF7D
:100F9000090728BFA0E80C5048BF0CC05DF804EB5F
:100FA000890028BF40F8042B08BF704748BF20F8CD
:100FB000022B11F0804F18BF00F8012B7047000082
:100FC00000487047044900207546FFF7F9FFAE4618
:100FD00005006946534620F00700854618B020B545
:100FE000FFF75EF9BDE820404FF000064FF0000724
:100FF0004FF000084FF0000B21F00701AC46ACE8C1
:10100000C009ACE8C009ACE8C009ACE8C0098D462D
:10101000704710B50446AFF300802046BDE810408D
:10102000FFF7DEB84FF0013C50F8042B51F8043BB9
:101030009A4221D1A2EB0C03934313EACC1317D1AC
:1010400050F8042B51F8043B9A4215D1A2EB0C0343
:10105000934313EACC130BD150F8042B51F8043B03
:101060009A4209D1A2EB0C03934313EACC13DBD0D1
:101070004FF00000704700BFD01A01BAB1FA81F1F9
:1010800001F0180122FA01F0CB40C1F12001DBB2DE
:10109000C0B2C01A2CFA01F3D11A914311EAC3115C
:1010A000E6D170475FEA400C08BF91F0000F4FEAAD
:1010B0008C234FEAC12243EA51514FEA1C5018BF1A
:1010C00000F5F0404FEA300018BF41F000415FEA00
:1010D0006C5C00F02980BCF1FF3F08BF40F080400D
:1010E0007047130C06BF12044FF0100C4FF0000CA9
:1010F000130E04BF12020CF1080C130F04BF1201EF
:101100000CF1040C930F04BF92000CF1020CD30FEE
:1011100004BF52000CF1010C11464FF00002A0F187
:101120001F00A0EB0C00704711F0004F08BF704784
:1011300031F000413FF4D5AF0B0C06BF09044FF06E
:10114000100C4FF0000C0B0E04BF09020CF1080C40
:101150000B0F04BF09010CF1040C8B0F04BF8900B5
:101160000CF1020CCB0F04BF49000CF1010CCCF1C7
:101170002003A0EB0C0022FA03F302FA0CF241EA7E
:10118000030100F10100704720F07F4C80EA03006A
:1011900023F07F47ACEB070303F57C5300F00040DE
:1011A00003F1FF032DE980494FEA154B09B44FEADB
:1011B000144325EA0B4E24EA03480FF2042606EBFB
:1011C000132749083E785FEA320203FB0667C7F53A
:1011D000000707FB06F64FEA54374FEAD64606F1FA
:1011E000020607FB066CCCF1005C4FEA1C472CEAB8
:1011F000074C07FB06F40CFB06F504EB15464FEA1B
:10120000961634BF00204FF000404FEAD13706FB5E
:1012100007FC4FEA1C4C0CFB0BF7D21B03FB0CF733
:1012200061EB07010CFB0EF7B0EB074072EB1742C6
:101230000CFB08F734BFA2EB0742B2EB074261EBAD
:1012400017414FEA0C444FEA910706FB07FC4FEAAF
:101250001C4C0CFB0BF7B0EBC74072EB573203FB97
:101260000CF734BFA2EBC742B2EBC74261EB573178
:101270000CFB0EF7B0EBC70072EB57720CFB08F7D4
:1012800034BFA2EBC702B2EBC70261EB5771039FF9
:101290004FEA816141EA921104EBCC044FEAD13765
:1012A0004FEA826206FB07FC42EA90124FEA806036
:1012B0004FEA1C4C0CFB0BF7D21B03FB0CF761EB4A
:1012C00007010CFB0EF7B0EB074072EB17420CFB6B
:1012D00008F734BFA2EB0742B2EB074261EB1741BC
:1012E0004FEA8C554FEA910704EB9C2406FB07FC60
:1012F0004FEA1C4C0CFB0BF7B0EBC74072EB5732BC
:1013000003FB0CF734BFA2EBC742B2EBC74261EB61
:1013100057310CFB0EF7B0EBC70072EB57720CFBAA
:1013200008F734BFA2EBC702B2EBC70261EB5771FB
:1013300015EB4C254FEA816141EA92114FEA826236
:101340004FEAD13742EA901206FB07FC44F1000451
:101350004FEA80604FEA1C4C0CFB0BF7D21B03FBDF
:101360000CF761EB07010CFB0EF7B0EB074072EBDB
:1013700017420CFB08F734BFA2EB0742B2EB07425F
:1013800061EB174115EB1C154FEA813141EA92419F
:101390004FEA823242EA90424FEA80304FEA0C76BE
:1013A00044F1000448EA03434EEA0B484FF0000EB4
:1013B000B2EB080C71EB030724BF624639464EEBD3
:1013C0000E0E4FF0000B0018524149414BEB0B0B36
:1013D000B2EB080C71EB03077BF1000B24BF6246F4
:1013E00039464EEB0E0E4FF0000B001852414941AA
:1013F0004BEB0B0BB2EB080C71EB03077BF1000B13
:1014000024BF624639464EEB0E0E51EA020718BF62
:1014100046F0010616EB0E7655F1000254F100017C
:1014200003D5BDE88901BDE80088BDE88901BDE8B4
:101430000048B619524141EB0101A3F10103704785
:1014400080807F7E7D7C7B7A797877767675747301
:10145000727171706F6E6E6D6C6C6B6A6A696868C0
:10146000676666656464636362616160605F5F5E56
:101470005E5D5D5C5C5B5B5A5A59595858575756CC
:101480005655555554545353525252515150505031
:101490004F4F4F4E4E4D4D4D4C4C4C4B4B4B4A4A83
:1014A0004A494949484848474747474646464545C7
:1014B0004544444444434343434242424241414100
:1014C000002B26D4770021D01CB54FEA370703B490
:1014D0004FF010004FF010014FF000000FBCBDE8BE
:1014E00010400BF1010BBBF1010F08BF5FEA1707BA
:1014F00022BF12F1010211F101014FF0004143F14D
:10150000000300F0004043EA00007047F9D3570899
:10151000DAE746EA064613F1400F4FEA16461FDDAA
:1015200013F1200FDFBF16430A46002120335B4230
:10153000C8D0C3F1200746EA064602FA07F74FEA89
:10154000164646EA0706C3F1200722FA03F201FA1B
:1015500007F721FA03F14FF0000342EA0702B1E76F
:1015600046EA020646EA06464FEA164646EA0106FB
:10157000BCBF46EA0646360C4FF000034FF00002AF
:101580004FF000019EE72DE9C048934630B491E842
:10159000380007C831EA400C48BF34EA430C03D591
:1015A000FFF7F2FDFFF78CFFF0BCBDE800882DE9E6
:1015B000C048934630B491E8380007C810F0804F17
:1015C00008BF13F0804F03D100F005F8FFF778FF54
:1015D000F0BCBDE8008820F07F4780EA030023F0DC
:1015E0007F4C07EB0C03A3F57C5300F00040A3F104
:1015F000FE0392F0000F00F0B38095F0000F00F0B2
:1016000077802DE901494FEA11404FEA144621EA5B
:10161000004800FB06FC24EA064708FB06F607FB29
:1016200008F800FB07F718EB06484CEB164C4FEA9E
:10163000124B18EB07484FEA15464CEB174022EACD
:101640000B4E0BFB06FC25EA06470EFB06F607FBD6
:101650000EFE0BFB07F71EEB064E4CEB164C4FF045
:1016600000061EEB074E4CEB174B18EB0B0840F136
:10167000000018EB0E0B58EB000840F100008F1A29
:101680004FF000013CBFC943661B14BFB5EB040C0F
:1016900000213CBFC943F61B4FEA17444EEA8E0EA9
:1016A00027EA04454FEA1C4704FB07622CEA074C73
:1016B00005FB07F70CFB05F604FB0CFC16EB0746D5
:1016C00042EB174216EB0C4642EB1C421BEB0606A4
:1016D00058EB0202414146EA9E0601D5BDE8018968
:1016E000B619524141EB0101A3F10103BDE80189A3
:1016F0004FEA14454FEA114724EA054621EA074C10
:1017000005FB07F406FB07F70CFB06F105FB0CFCD9
:1017100011EB074144EB17444FEA124711EB0C4120
:1017200044EB1C4422EA074C05FB07F206FB07F7D3
:101730000CFB06F605FB0CFC16EB074642EB1742CA
:1017400016EB0C4642EB1C456A1854F1000148BFE9
:101750007047B619524141EB0101A3F101037047F3
:1017600095F0000F37D04FEA11424FEA144721EAB3
:10177000024624EA074C02FB07F106FB07F70CFBC5
:1017800006F402FB0CFC14EB074441EB17414FEA53
:10179000154714EB0C4441EB1C4125EA074C02FBB6
:1017A00007F506FB07F70CFB06F602FB0CFC16EB35
:1017B000074645EB174516EB0C4645EB1C42121944
:1017C00051F1000148BF7047B619524141EB010188
:1017D000A3F1010370474FEA14454FEA114724EA89
:1017E000054621EA074C05FB07F106FB07F70CFB52
:1017F00006F24FF0000605FB0CFC12EB074241EB32
:10180000174112EB0C4251EB1C4148BF7047921834
:1018100041EB0101A3F10103704700BFFEE70000A7
:1018200008B50220ADF8000010208DF8030002205A
:101830008DF802006946164800F076FA0221144835
:1018400000F0FDFA2020ADF8000010208DF8030014
:1018500002208DF8020069460E4800F065FA20214A
:101860000C4800F0ECFA4FF44050ADF800001020A6
:101870008DF8030002208DF802006946054800F04B
:1018800053FA4FF44051034800F0D9FA08BD000064
:1018900000080140000C014010B50221054800F08D
:1018A000D0FA4FF47A7002F0E1FA0221014800F018
:1018B000C6FA10BD0008014010B50221054800F02D
:1018C000C0FA4FF4FA7002F0D1FA0221014800F098
:1018D000B6FA10BD0008014010B502210D4800F015
:1018E000B0FA4FF4FA7002F0C1FA0221094800F090
:1018F000A6FAC82002F0BAFA0221064800F0A1FABE
:101900004FF4FA7002F0B2FA0221024800F097FA9E
:1019100010BD00000008014000F0805111B10349E2
:10192000086001E00249486070470000040402407A
:101930000000024021B1026842F00102026004E0AE
:1019400002684FF6FE731A400260704710B500221D
:10195000026847F6F0739A430C6A8B6823430C695C
:1019600023434C6923438C692343CC6923434C6A4A
:1019700023438C6A23431A430260CB6843600B689D
:1019800083604B68C36010BD7047000010B5012034
:1019900000F016F840B1054B054A111F081F03F06F
:1019A0002BFC012000F006F810BD0000981D00205F
:1019B000941D002001490860704700001404014094
:1019C000014600200022074B1B6803EA0102054B79
:1019D00014331B680B4013B10AB1012000E0002052
:1019E0007047000000040140002123498279002A49
:1019F0003AD00A46126803689A430B461A600A1DD9
:101A0000126803689A430B1D1A60027911440A6830
:101A100003681A430A60184A0832126803689A4336
:101A2000154B08331A601A1D126803689A43124B4B
:101A30000C331A604279102A0ED11A1F12680368FB
:101A40001A430D4B08331A601A1D126803681A43B3
:101A5000094B0C331A600DE00749427911440A68BA
:101A600003681A430A6005E0027911440A680368B2
:101A70009A430A6070470000000401400AE0022116
:101A8000054800F0DEF9022000F01EFA4FF4FA607B
:101A900002F0ECF9F3E70000000801400AE002213F
:101AA000054800F0CEF9012000F00EFA4FF4FA607C
:101AB00002F0DCF9F3E70000000801400149C860CA
:101AC000704700000020024030B5044604254FF462
:101AD000302000F0B9F80546042D17D10C480069F4
:101AE00040F002000A49086108464461006940F07C
:101AF000400008614FF4302000F0A6F80546044885
:101B0000006941F6FD71084001490861284630BD71
:101B10000020024004200B49C96801F0010109B10D
:101B200001200EE00749C96801F0040109B1022053
:101B300007E00449C96801F0100109B1032000E081
:101B400004207047002002400348006940F08000F4
:101B500001490861704700000020024078B5064640
:101B60000C46042500200090E80200F06DF80546C0
:101B7000042D24D11348006940F001001149086187
:101B80003480E80200F060F80546042D10D1B01C46
:101B90000090200C00990880E80200F055F80546F6
:101BA0000848006941F6FE7108400649086106E0F0
:101BB0000448006941F6FE71084002490861284660
:101BC00078BD0000002002402DE9F84F04468A4607
:101BD0004FF0010920E0D4F800B0584607F0C8FEE5
:101BE000009007F0F9FC074600220D4B07F056F86D
:101BF00005462A460B460BA0FEF78AFB032099FBFD
:101C0000F0F100FB119010B908A0FEF781FB241D34
:101C100009F101001FFA80F9D145DCDDBDE8F88F3C
:101C200000005940252E3266200000000D0A0000F9
:101C300002480349486003484860704723016745EC
:101C400000200240AB89EFCD00B502460423FFF728
:101C500061FF034603E0FFF75DFF0346521E012BC1
:101C600001D1002AF7D102B90523184600BD0000B2
:101C70002DE9F04705460C46032600274FF00009E2
:101C80004FF00408FFF7D4FFA000C11700EB9151FB
:101C9000891201F101093420FFF710FF002607E047
:101CA00010494A1402FB0610FFF70EFF8046761C0F
:101CB0004E4502D2B8F1040FF2D00A4F05E0384683
:101CC0002968FFF74BFF3F1D2D1D064800EB8400E0
:101CD000B84202D3B8F1040FF1D0FFF735FF00206E
:101CE000BDE8F08700C0000830B500228B071C0F4C
:101CF0000F2303FA04F20B4B8C1053F82430934358
:101D0000084C8D1044F8253023468C1053F82430AD
:101D10008C07240F00FA04F42343024C8D1044F87E
:101D2000253030BD080001402DE9F0410246002574
:101D30000026002000230024002791F803C00CF0A7
:101D40000F0591F803C00CF0100CBCF1000F03D08C
:101D500091F802C04CEA050591F800C0BCF1000FF3
:101D600031D0146800202BE04FF0010C0CFA00F386
:101D7000B1F800C00CEA03069E4220D183004FF068
:101D80000F0C0CFA03F7BC4305FA03FC4CEA0404FD
:101D900091F803C0BCF1280F06D14FF0010C0CFAEA
:101DA00000FCC2F814C00AE091F803C0BCF1480F6F
:101DB00005D14FF0010C0CFA00FCC2F810C0401C19
:101DC0000828D1D31460B1F800C0BCF1FF0F34DD96
:101DD000546800202EE000F1080C4FF0010808FACA
:101DE0000CF3B1F800C00CEA03069E4221D1830037
:101DF0004FF00F0C0CFA03F7BC4305FA03FC4CEA56
:101E0000040491F803C0BCF1280F05D100F1080CBF
:101E100008FA0CF8C2F8148091F803C0BCF1480F1E
:101E200007D100F1080C4FF0010808FA0CF8C2F8CD
:101E30001080401C0828CED35460BDE8F081416179
:101E4000704701617047000010B500F0A1F9044629
:101E500024B109A0FEF75CFAFFF710FE03F0E6FAE2
:101E600004462CB121460EA0FEF752FAFFF706FEFB
:101E700000F0C1FA10BD00004D5055E5889DE5A762
:101E80008BE58C96E5A4B1E8B4A5EFBC81EFBC81ED
:101E9000EFBC81EFBC81EFBC81EFBC815C720A00BA
:101EA0004D50555F444D50E5889DE5A78BE58C96D8
:101EB000E5A4B1E8B4A53A65726F72722025640D8D
:101EC0000A00000000BFFEE770B5044600250FE0E1
:101ED00020210948FFF7B5FF962001F0C7FF202118
:101EE0000548FFF7ACFF962001F0C0FF681CC5B2A3
:101EF000A542EDDB70BD0000000C014010B50020D4
:101F00000E4908600E48006820F070400C490860D7
:101F10000846006840F04050086000200949C1F8B8
:101F20009C0100F011F801200449086000F00CF851
:101F300000200449C1F8980110BD00009881214299
:101F4000000C01400080214210B5022001F06AFF20
:101F500010BD000008B50121082000F039FCC020A8
:101F6000ADF8000010208DF8030003208DF802006A
:101F700069460448FFF7D8FEC0210248FFF761FF19
:101F800008BD0000000C014010B500200E4908609B
:101F90000E48006820F070400C4908600846006850
:101FA00040F04050086001200949C1F89C01FFF74A
:101FB000CBFF012004490860FFF7C6FF0020044959
:101FC000C1F8980110BD000098812142000C014029
:101FD0000080214270B5054600241648006820F0B4
:101FE0007040144908600846006840F000400860EE
:101FF000002614E0002010490860FFF7A5FF01202B
:102000000E49C1F898016006040E0B487C38006840
:1020100008B1601CC4B2FFF797FF701CC6B2082E4F
:10202000E8DB15B9FFF7B0FF01E0FFF767FF2046D7
:1020300070BD0000000C01409881214200802142C7
:1020400070B504461248006820F0704010490860DE
:102050000846006840F04050086000200D490860C4
:10206000002512E0E0090B49091D08606006040E16
:1020700001200949C1F89801FFF766FF00200549D2
:102080000860FFF761FF681CC5B2082DEADB70BD70
:10209000000C0140988121420080214210B50E4879
:1020A000006820F070400C4908600846006840F065
:1020B000405008600120094908600949C1F89801A9
:1020C000FFF742FF002005490860FFF73DFF0020B1
:1020D0000349C1F8980110BD000C01409C812142C8
:1020E0000080214210B50E48006820F070400C4975
:1020F00008600846006840F0405008600020094928
:1021000008600949C1F89C01FFF71EFF012005493D
:1021100008600549C1F89C01FFF716FF10BD0000DB
:10212000000C0140988121420080214210B500241A
:102130001448006820F070401249086008460068A2
:1021400040F00040086001200F490860FFF7FCFEE6
:1021500001200E49C1F89801FFF7F6FE07E0601C68
:10216000C4B2FA2C03DDFFF7BDFF012010BD064805
:10217000803800680028F2D10349091F086000BFB9
:10218000F4E70000000C01409C81214200802142C4
:1021900010B5FFF7DFFE80216B2000F0D7F8642038
:1021A00001F01EFE00216B2000F0D0F8032000F0AB
:1021B0008BF8002000F080F8642000F0AAF80021DD
:1021C000382000F0C3F800216A2000F0BFF8002199
:1021D000232000F0BBF88021372000F0B7F87520ED
:1021E00000F013F80446682C0BD101216B2000F09D
:1021F000ADF800216C2000F0A9F8642000F089F807
:1022000001E0012010BD0020FCE770B50446FFF797
:1022100045FFD020FFF714FFFFF788FF2046FFF7A8
:102220000FFFFFF783FFFFF739FFD120FFF708FF0C
:10223000FFF77CFF0020FFF7CDFE0546FFF752FFBA
:10224000284670BD2DE9F04106460F4614461D464E
:10225000FFF724FF002141EA4601C8B2FFF7F0FE74
:10226000FFF764FF20B1FFF73DFF0120BDE8F081DB
:102270003846FFF7E5FEFFF759FFFFF70FFF012193
:1022800001EB4601C8B2FFF7DBFEFFF74FFF0DE0A1
:10229000012C04D10020FFF79DFE287003E00120EF
:1022A000FFF798FE2870601EC4B26D1C002CEFD1A1
:1022B000FFF718FF0020D9E710B50446E006010E2D
:1022C0001C2000F043F810BD10B50446E006010ED6
:1022D0001B2000F03BF810BD70B504460025BC2C57
:1022E00001DB012510E0622C01DB02250CE02A2C29
:1022F00001DB032508E0142C01DB042504E00A2C93
:1023000001DB052500E0062529461A2000F01EF80D
:1023100070BD70B50446B4F57A7F01DD4FF47A7470
:10232000042C00DA04244FF47A7090FBF4F0401E81
:10233000C5B22946192000F009F80546264604EBE7
:10234000D671C1F34F00FFF7C7FF70BD70B50546EA
:102350000C46FFF7A3FED020FFF772FEFFF7E6FE64
:1023600018B1FFF7BFFE012070BD2846FFF768FED9
:10237000FFF7DCFE2046FFF763FEFFF7D7FE18B13C
:10238000FFF7B0FE0120EFE7FFF7ACFE0020EBE720
:102390002DE9F04105460E4617469846FFF77EFEAA
:1023A000002141EA4501C8B2FFF74AFEFFF7BEFE31
:1023B00020B1FFF797FE0120BDE8F0813046FFF71E
:1023C0003FFEFFF7B3FE00240CE018F80400FFF70F
:1023D00037FEFFF7ABFE18B1FFF784FE0120EBE7F5
:1023E000601CC4B2BC42F0DBFFF77CFE0020E3E7D8
:1023F00000BFFEE770470EB50121042000F0E8F9A8
:102400000121084600F0E4F900210846FFF76CFCC2
:10241000012000908DF8060000208DF804000820AF
:102420008DF805006846FFF7DFFA06208DF80800F2
:1024300001208DF80B0003208DF809008DF80A00AB
:1024400002A800F001F80EBD70B5002100230F2294
:10245000C47804B3154C246804F4E064C4F5E06463
:10246000210AC1F10403CA40447804FA03F18478D4
:102470001440214309010E4C0678A155047804F05C
:102480001F050124AC4005786D11AD0005F1E02574
:10249000C5F8004109E0047804F01F050124AC40B0
:1024A000044D0678761145F8264070BD0CED00E02D
:1024B00000E400E080E100E002490143024A1160CB
:1024C000704700000000FA050CED00E02DE9F04730
:1024D00086B0824643480168504607F0A6FB424951
:1024E00008600846006807F077F800223F4BCDE906
:1024F000020106F097FD00223D4BCDE9040106F0F4
:10250000CDFB06460F463B48006807F065F880465D
:1025100032463B4606F006FB044606F0D1FA354942
:10252000086035493348006807F04EFB03D2324853
:102530003049086008E031492E48006807F044FA45
:1025400002D22E482B4908602D480168504607F0FA
:102550006CFB2C4908602A48C0F800A008460168B6
:10256000002007F065FA044607F036F880468946F1
:102570002048006807F030F80646234A234B06F04F
:1025800051FDCDE900011848006807F025F806461E
:1025900000221F4B06F046FD0446DDE9002306F04D
:1025A000C1FA42464B46CDE9020106F0BBFACDE93D
:1025B000040106F085FA17490860174915480068B4
:1025C00007F002FB03D2144806B0BDE8F0871349B8
:1025D0001048006807F0F8F901D21048F4E70D48F8
:1025E0000068F1E78C000020980000200000F03F18
:1025F00000004440A400002000004842000048C2FF
:10260000B0000020BC0000209A9999999999A93F9F
:102610000000E03FC80000200000F0410000F0C1D1
:102620002DE9F04786B0824643480168504607F0DE
:10263000FCFA424908600846006806F0CDFF002217
:102640003F4BCDE9020106F0EDFC00223D4BCDE908
:10265000040106F023FB06460F463B48006806F0DF
:10266000BBFF804632463B4606F05CFA044606F065
:1026700027FA3549086035493348006807F0A4FA5D
:1026800003D232483049086008E031492E480068DA
:1026900007F09AF902D22E482B4908602D480168AC
:1026A000504607F0C2FA2C4908602A48C0F800A03A
:1026B00008460168002007F0BBF9044606F08CFFCD
:1026C000804689462048006806F086FF0646234A71
:1026D000234B06F0A7FCCDE900011848006806F07E
:1026E0007BFF064600221F4B06F09CFC0446DDE9FA
:1026F000002306F017FA42464B46CDE9020106F0E8
:1027000011FACDE9040106F0DBF917490860174911
:102710001548006807F058FA03D2144806B0BDE81F
:10272000F08713491048006807F04EF901D21048AD
:10273000F4E70D480068F1E7900000209C000020BD
:102740000000F03F00004440A80000200000484284
:10275000000048C2B4000020C00000209A99999956
:102760009999A93F0000E03FC80000200000F04117
:102770000000F0C1034B1860034B1960034B1A6053
:10278000704700008C000020900000209400002082
:1027900029B1064A52690243044B5A6104E0034AD4
:1027A00052698243014B5A61704700000010024099
:1027B00029B1064AD2690243044BDA6104E0034AB4
:1027C000D2698243014BDA61704700000010024079
:1027D00029B1064A92690243044B9A6104E0034A14
:1027E00092698243014B9A617047000000100240D9
:1027F00030B500210022002400232D4D6D6805F026
:102800000C0121B1042905D0082923D105E0294D67
:10281000056022E0274D05601FE0254D6D6805F439
:102820007012234D6D6805F48034022505EB924249
:102830001CB9214D554305600BE01D4D6D6805F435
:1028400000351DB11C4D5543056002E0194D55433F
:10285000056002E0174D056000BF00BF144D6D68B4
:1028600005F0F0010909154D6B5C0568DD40456018
:102870000F4D6D6805F4E061090A104D6B5C456809
:10288000DD4085600A4D6D6805F46051C90A0B4D45
:102890006B5C4568DD40C560054D6D6805F44041E1
:1028A000890B074D6B5CC568B5FBF3F5056130BD61
:1028B0000010024000127A0000093D0024000020B0
:1028C000340000202DE9F04F85B004468946012CE4
:1028D00006D0022C27D0032C48D0042C22D168E04B
:1028E000484606F079FE0022454BCDE9000106F08E
:1028F000D5F90022434BCDE9020106F013F98246D7
:102900000022414B06F08EFB074600223F4B06F0AB
:10291000C5F9054606F01AFB80B2014604903C4812
:1029200000F082FB68E0484606F056FE07460022AB
:10293000334B06F0B3F905460022324B06F0F2F8AD
:102940000022314BCDE9000106F06CFB00222F4B39
:10295000CDE9020106F0A2F9824606F0F7FA80B24C
:10296000014604902A4800F061FB45E0484606F025
:1029700033FE0022224BCDE9000106F08FF982469A
:102980000022204B06F0CEF8054600221E4B06F032
:1029900049FB074600221D4B06F080F9CDE90201F4
:1029A00006F0D4FA80B201460490194800F040FBCA
:1029B00022E0484606F010FE0022114BCDE900014E
:1029C00006F06CF9074600220E4B06F0ABF8824683
:1029D00000220D4B06F026FB054600220B4B06F0AD
:1029E0005DF9CDE9020106F0B1FA80B2014604902A
:1029F000074800F01FFB00BF00BF05B0BDE8F08F27
:102A0000008056400000F83F004CED40000034408C
:102A10000004004010B500F001F810BD0CB5002016
:102A2000019000903348006840F4803031490860DC
:102A300000BF3048006800F4003000900198401C4E
:102A40000190009818B90198B0F5A06FF1D129480C
:102A5000006800F4003010B10120009001E0002077
:102A600000900098012843D12348006840F01000EE
:102A7000214908600846006820F003000860084605
:102A8000006840F0020008601A4840681949486030
:102A90000846406848600846406840F480604860E6
:102AA0000846406820F47C1048600846406840F4BE
:102AB000E81048600846006840F08070086000BF79
:102AC0000C48006800F000700028F9D00948406800
:102AD00020F00300074948600846406840F00200C3
:102AE000486000BF0348406800F00C000828F9D196
:102AF0000CBD000000100240002002401CB506483A
:102B0000012100238022CDE9001004A1064805F030
:102B1000EDFC05F09FF81CBD380000207374617255
:102B2000745F7461736B0000D9710008042808D1C8
:102B30004FF0E021096941F004014FF0E0221161FA
:102B400007E04FF0E021096921F004014FF0E02295
:102B50001161704710B505F0F9FC012801D005F0AE
:102B60007BF910BD10B51348006840F00100114911
:102B7000086008464068104908400E494860084609
:102B800000680E4908400B4908600846006820F4B8
:102B9000802008600846406820F4FE0048604FF43A
:102BA0001F008860FFF736FF4FF00060044908609F
:102BB00010BD0000001002400000FFF8FFFFF6FE0D
:102BC00008ED00E010B50121880700F015F818B1F4
:102BD0000121880700F001F810BDCA430282704746
:102BE00021B1028842F00102028004E002884FF61F
:102BF000FE731A400280704730B502460020002361
:102C00000024158A05EA0103958905EA010413B138
:102C10000CB1012000E0002030BD1AB183890B43C4
:102C2000838102E083898B438381704770B50024E0
:102C300000220023058C4FF6FE7635400584028C79
:102C40008388048B4FF68F752C40B51E2C400D8861
:102C50002C43751E2A400D892A434D882A43144D62
:102C6000A8420BD0134DA84208D0134DA84205D05E
:102C7000124DA84202D0124DA84213D14FF6F7755B
:102C80002A404D892A434FF6FB752A408D882A43F6
:102C90004FF6FF652B404FF6FF552B408D892B4398
:102CA000CD892B4383800483CD888586028470BDC3
:102CB000002C01400034014000400140004401402C
:102CC000004801400A460021018B4FF6F773194076
:102CD000114301837047000070B5002400220023D7
:102CE000058C4FF6EF7635400584028C8388048B83
:102CF00048F6FF752C404FF6FF452C400D884FF6E7
:102D0000FF7606EA05252C434FF6DF752A400D892C
:102D100006EA05152A434D8806EA05152A43154D8E
:102D2000A84202D0144DA8421DD14FF67F752A400B
:102D30004D894FF6FF7606EA05152A434FF6BF7513
:102D40002A408D8806EA05152A434FF6FF352B40A9
:102D50004FF2FF752B408D8906EA85052B43CD89FF
:102D600006EA85052B4383800483CD88058702848A
:102D700070BD0000002C0140003401400A460021D3
:102D8000018B4FF2FF7319404FF6FF7303EA0223E2
:102D9000194301837047000070B50024002200230E
:102DA000058C4FF6FF6635400584028C8388848B42
:102DB0004FF68F752C404FF6FC752C400D882C4338
:102DC0004FF6FF552A400D894FF6FF7606EA052596
:102DD0002A434D8806EA05252A43154DA84202D00C
:102DE000144DA8421DD14FF2FF752A404D894FF670
:102DF000FF7606EA05252A434FF6FF352A408D88DF
:102E000006EA05252A434EF6FF752B404DF6FF7561
:102E10002B408D8906EA05152B43CD8906EA051559
:102E20002B4383808483CD888587028470BD000016
:102E3000002C0140003401400A460021818B4FF6EE
:102E4000F7731940114381837047000070B5002269
:102E500000230024058C4EF6FF7635400584038C54
:102E60008488828B48F6FF752A404FF6FF452A403A
:102E70000D884FF6FF7606EA05252A434DF6FF75C5
:102E80002B400D8906EA05352B434D8806EA0535AA
:102E90002B430B4DA84202D00A4DA84208D14BF655
:102EA000FF752C408D894FF6FF7606EA85152C4379
:102EB00084808283CD88A0F84050038470BD0000D8
:102EC000002C0140003401400A460021818B4FF262
:102ED000FF7319404FF6FF7303EA022319438183FE
:102EE0007047000000B589B001210220FFF760FCA7
:102EF00001210420FFF76CFC01210820FFF768FC8A
:102F00004020ADF8200018208DF8230003208DF814
:102F1000220008A94148FEF707FF8020ADF82000F5
:102F200018208DF8230003208DF8220008A93B48C3
:102F3000FEF7FAFE0120ADF8200018208DF82300DE
:102F400003208DF8220008A93548FEF7EDFE022087
:102F5000ADF8200018208DF8230003208DF8220002
:102F600008A92F48FEF7E0FE4EF65F20ADF80800F6
:102F70001720ADF804000020ADF80600ADF80A00F7
:102F800001A9284800F05AF86020ADF81000002090
:102F9000ADF818000120ADF8120004A92148FFF790
:102FA00045FE6020ADF810000020ADF818000120AB
:102FB000ADF8120004A91B48FFF78EFE6020ADF8A3
:102FC00010000020ADF818000120ADF8120004A98F
:102FD0001448FFF7E1FE6020ADF810000020ADF8C6
:102FE00018000120ADF8120004A90E48FFF72EFFCB
:102FF00008210C48FFF766FE08210A48FFF7BEFECD
:1030000008210848FFF718FF08210648FFF75CFF72
:1030100001210448FFF7E4FD09B000BD00080140AC
:10302000000C014000040040818670470187704712
:1030300081877047A0F84010704700000022028886
:103040001D4B98420ED01D4B98420BD0B0F1804FD3
:1030500008D01B4B984205D01A4B984202D01A4B0D
:10306000984204D14FF68F731A404B881A43174B7E
:10307000984207D0164B984204D04FF6FF431A40AF
:10308000CB881A4302808B8883850B8803850A4B83
:1030900098420BD0094B984208D00E4B984205D06D
:1030A0000D4B984202D00D4B984201D10B7A03860A
:1030B0000123838270470000002C0140003401404E
:1030C0000004004000080040000C004000100040D8
:1030D000001400400040014000440140004801400D
:1030E0003EB505460C4601210846FFF761FB00F09E
:1030F0001CF8681E80B2ADF80400601E80B2ADF806
:1031000000000020ADF80200ADF8060069464FF05F
:103110008040FFF793FF012211469007FFF77DFDE6
:1031200001218807FFF75CFD3EBD08B51C208DF826
:10313000000004208DF8010000208DF8020001201D
:103140008DF803006846FFF77FF908BD10B540F21F
:1031500025510E4800F004F9B8B10C4800F0BCF954
:10316000C4B2662C02D1012009490870642C02D136
:10317000012008490870442C02D10120064908703A
:1031800040F22551014800F079F810BD00380140A7
:103190004A0000204B0000204E00002010B586B0F1
:1031A0000446012144F20400FFF712FB4FF40070C3
:1031B000ADF8140003208DF8160018208DF81700C4
:1031C00005A91D48FEF7B0FD4FF48060ADF814006E
:1031D00004208DF8170005A91748FEF7A5FD252046
:1031E0008DF8000004208DF8010000208DF8020009
:1031F00001208DF803006846FFF726F901940020AE
:10320000ADF80800ADF80A00ADF80C00ADF81000FC
:103210000C20ADF80E0001A9084800F0F1F80122D9
:1032200040F22551054800F0C5F80121034800F09F
:1032300034F806B010BD000000080140003801401D
:103240007047000010B540F225510A4800F088F898
:1032500070B1084800F040F9C4B2532C03D10120EA
:103260000549088004E04B2C02D102200249088065
:1032700010BD0000004800400C00002010B50022E6
:10328000002340F66A14A14200D100BF0A120124B3
:103290009440A3B2DC43048010BD21B1828942F482
:1032A0000052828104E082894DF6FF731A408281C8
:1032B0007047000000B585B001210420FFF788FAAF
:1032C00001218803FFF784FA4FF40070ADF8100075
:1032D00018208DF8130003208DF8120004A913485C
:1032E000FEF722FD4FF48060ADF8100004208DF849
:1032F000130004A90D48FEF717FD4FF41650009077
:103300000020ADF80400ADF80600ADF80800ADF8F7
:103310000C000C20ADF80A006946054800F070F872
:1033200001210348FFF7B9FF05B000BD00080140C7
:10333000003801401AB1838A0B43838202E0838AFA
:103340008B438382704702460020B1F5007F00D195
:1033500000BF13880B400BB1012000E00020704734
:1033600070B50246002400230025002040F66A16AE
:10337000B14200D100BFC1F3421501F01F03012685
:1033800006FA03F3012D02D19689334006E0022D9F
:1033900002D1168A334001E0968A33400C1201268E
:1033A00006FA04F41688344013B10CB1012000E091
:1033B000002070BDF0B50346002400260025002043
:1033C00040F66A17B94200D100BF1846C1F3421453
:1033D00001F01F06012707FA06F5012C01D10C3078
:1033E00004E0022C01D1103000E014301AB107685B
:1033F0002F43076002E00768AF430760F0BD00009D
:103400002DE9F04786B005460E460024A24600BFCF
:10341000A1460027B08900B100BF2F462C8A4CF688
:10342000FF700440F08804432C82AC894EF6F31000
:103430000440B08831890843718908430443AC8152
:10344000AC8A4FF6FF400440B0890443AC8201A827
:10345000FFF7CEF91F48874202D1DDF810A001E046
:10346000DDF80CA0A88900F4004040B10AEBCA00C6
:1034700000EB0A1031684900B0FBF1F807E00AEBF5
:10348000CA0000EB0A1031688900B0FBF1F8642033
:10349000B8FBF0F004012009642101FB1089A88920
:1034A00000F4004040B1322000EBC900B0FBF1F065
:1034B00000F00700044308E0322000EB091064210B
:1034C000B0FBF1F000F00F0004432C8106B0BDE822
:1034D000F08700000038014001468888C0F30800EA
:1034E0007047C1F3080282807047000000B58BB0BE
:1034F00001210846FFF74CF90F4800900F48019052
:103500001020029040F2A1500390002004908020EF
:10351000059000200690079008904FF48050099085
:1035200000200A9069460648FEF710FA0121044877
:10353000FEF700FA0BB000BD043801404C0100203A
:103540004400024010B500210248FEF7F3F9FFF7EE
:10355000CDFF10BD4400024000BFFEE7490050EA25
:10356000C12018BF04204A0D18BF40F0010040F2EE
:10357000FF72B2EB515F08BF40F00200012808BFA4
:10358000052070472DE9F0414F1E00EBC7010446AE
:10359000D1E9000115461E4637F006020DD02A4635
:1035A000334605F03FFD7F1E04EBC703D3E900233C
:1035B00005F0B8FA37F00602F1D1022F25D0042F1A
:1035C00013D0062F18BFBDE8F0812A46334605F018
:1035D00029FDD4E90A2305F0A5FA2A46334605F069
:1035E00021FDD4E9082305F09DFA2A46334605F06B
:1035F00019FDD4E9062305F095FA2A46334605F06D
:1036000011FDD4E9042305F08DFA2A46334605F06E
:1036100009FDD4E9022305F085FA2A46334605F070
:1036200001FDD4E90023BDE8F04105F07BBA012299
:1036300006F0AFBB05F076BA0022134610461146DD
:1036400005F02CBB024A0020110706F0A2BB0000C7
:1036500001FDFFFF30380A2801D201207047002009
:103660007047014600BF70472DE9FE4F06460F46E2
:103670000025684601F00AFA002442E056F82400CA
:1036800057F82410A0EB010ABAF1000F01DB5146F4
:1036900001E0CAF10001084606F06AF983464FF0DE
:1036A0008F4106F033F880465DF82400002106F0D3
:1036B000EFF816D05DF82410404606F027F8824651
:1036C0004FF07E5106F0BCFA814629F0004A0F48BF
:1036D000416A504606F078FA12D20120A040054314
:1036E0000EE00A48C169404606F06EF905D3074866
:1036F000016A404606F068FA02D20120A040054364
:10370000641C032CBADB2846BDE8FE8F489E0008E7
:103710002DE9F04D8D4F21F0004A86B005460C464C
:10372000BA452ADBAAEB070028430AD0884882451D
:1037300001DC1AD1CDB106B02846BDE8F04DFFF747
:1037400076BF844A844B284605F06CFC07460E463B
:10375000824A834B2846214605F064FC06B03A466F
:103760003346BDE8F04D05F0DDB90120FCF7FFFF61
:1037700006B0BDE8F04DFFF75FBF7A48824542DAF8
:10378000BAF1795F0BDA2846FFF7E8FE042808BF94
:10379000FFF758FF284606B02146BDE8F08D2A46BF
:1037A0000B46104605F03EFC834602466E480E4628
:1037B0000B4606217844FFF7E5FE5A46334605F0EE
:1037C00031FC804669488A465A463346042178448B
:1037D000FFF7D8FE5A46334605F024FC00223B464C
:1037E00005F0A0F902460B464046514605F056FA50
:1037F0002A46234605F016FC06B02A462346BDE8B5
:10380000F04D05F08FB9284624F0004100223D46D6
:103810003B4605F005FD4FF0FF3206F0BAFA0646CA
:10382000024653480F460B4606217844FFF7AAFE8E
:1038300032463B4605F0F6FBCDE900014D483246E5
:103840003B4604217844FFF79DFE32463B4605F097
:10385000E9FB00222B4605F065F9834602913046CC
:10386000394603F093FC804643480D46504517DC2B
:10387000DDE900015A46029B05F010FA42462B464C
:1038800005F0D0FB42462B4605F04CF9012206F02C
:1038900080FA304A304B05F0B5FD304A304B4CE0F1
:1038A0004FF0000A52460B46404605F03BF9CDE981
:1038B000031052462B461046194605F0B3FB32461C
:1038C0003B4605F0ADFCDDE9033205F0E7F90646BD
:1038D0000F46DDE900015A46029B05F0DFF98346F9
:1038E000009101223046394606F053FA194A1A4B24
:1038F00005F096FC06460F4601224046294606F092
:1039000048FA5A46009B05F08DFB32463B4605F0CF
:1039100079FD06460F4601225046294606F039FA3F
:103920000E4DDFF858802A46434605F079FC3246B2
:103930003B4605F075FC2A46434605F071FC002C19
:10394000D8BF81F0004106B0BDE8F08D0000F03F27
:103950000000F07F075C143326A6913C182D4454D8
:10396000FB21F93F0000E03FC0720000D67200006A
:103970004A720000607200003333EF3FFB21E93FE1
:103980002DE9F84F04460D4621F00040009173499F
:10399000814211DC7249884201DC06D12CB12046FB
:1039A0002946BDE8F84FFFF742BE6E48002DCCBF58
:1039B0006D496E49BDE8F88F6D49814211DD6D4951
:1039C0008142D8BF4FF0FF366DDD20462946FFF714
:1039D000C5FD042808BFFFF735FE20462946BDE88F
:1039E000F88F6549654F25F00045814233DD644914
:1039F000814219DD002632464FF080432046294699
:103A000005F090F880468A4601222046294606F0B5
:103A1000C0F900223B4605F0F5FC4246534605F04E
:103A20003DF904460D463EE001260022BA463B46DB
:103A30002046294605F076F880460F460022534678
:103A40002046294605F0DEFC42463B4605F026F9B5
:103A500004460D4627E04B4981421BDDDFF828A1D3
:103A60000226002253462046294605F0DBFA0022B2
:103A70003B4605F057F880460F4600225346204645
:103A8000294605F0BFFC42463B4605F007F90446CF
:103A90000D4608E0032622462B4600203B4905F050
:103AA000FDF804460D4622462B461046194605F001
:103AB000B9FA8B46824602460B4605F0B3FA074632
:103AC0000246334888460B4606217844FFF75AFDE4
:103AD00052465B4605F0A6FA82462E488B463A4689
:103AE000434605217844FFF74DFD3A46434605F02D
:103AF00099FA02460B46002E504659460CDA05F05C
:103B000011F822462B4605F08DFA01B022462B46CD
:103B1000BDE8F04F05F084BB05F004F822462B46C3
:103B200005F080FA1C4A7A4402EBC603D3E900236D
:103B300005F068FC22462B4605F064FC174A7A44DF
:103B400002EBC603D3E9002305F06AFB009A002AC2
:103B5000B8BF81F00041BDE8F88F000000001044BC
:103B60000000F07F182D4454FB21F93FFB21F9BFE1
:103B70000000DC3F0000203E0000F33F0000F03F6B
:103B80000000E63F008003400000F83F0000F0BF67
:103B90006270000020700000BE6F0000866F0000A1
:103BA0002DE9F04D9446CCF1000423F000464CEA98
:103BB0000404524F46EAD4749A46884621F00042E3
:103BC000BC4206D8454240EA050442EAD474BC42ED
:103BD00004D9BDE8F04D6246FFF72CBDAAF140556F
:103BE000A5F17F6555EA0C040BD0022404EAAA74FF
:103BF000434DDFF810E144EAD87452EA000B04D0D8
:103C00000CE0BDE8F04DFFF7BBBE002C14BF012C4B
:103C1000BDE8F08D022C30D0032C32D056EA0C0BCC
:103C20000AD0BE4220D1BA4209D126F0804622F005
:103C300080423346114617E000291ADB25E0DFF801
:103C4000C8B0FB44002C04BFDBE90001BDE8F08DE7
:103C5000012C02BFDBE9000181F00041BDE8F08DDD
:103C6000022C0AD0032C0CD0BA4212D1B8F1000FAA
:103C70000BDA23482549BDE8F08D28462449BDE8E4
:103C8000F08D28467146BDE8F08D1D482149BDE8FC
:103C9000F08D921B12153C2AC4BF19481D490EDC39
:103CA000BAF1000FBEBF12F13C0F0020014606DB47
:103CB000624604F0F3FF21F00041FFF761FE002CA3
:103CC00008BFBDE8F08D012C04BF81F00041BDE8C4
:103CD000F08D114A114B022C07D005F093FB2A46B8
:103CE000BDE8F04D0A4B05F08DBB05F08BFB2A4675
:103CF000BDE8F04D064B05F093BA00000000F07FE0
:103D0000182D4454FB2109C01A6F0000FB21F9BF94
:103D1000FB210940FB21F93F075C143326A6A13C97
:103D20002DE9F0410446E07800F0C006E07800F0AC
:103D30003F05607800F0010098B1EF102846E917C0
:103D400005EB5171C910A5EBC101491C01F0FF0839
:103D50000B48006820B10A4841460268384690473F
:103D600000BF607800F0080030B10548406818B125
:103D7000B011034A516888470020BDE8F081000077
:103D8000A81D002010B50420FEF7D0FE10480068E2
:103D90001049B0FBF1F0104908700D4800680D495A
:103DA000B0FBF1F44FF47A70444301200B490880D2
:103DB0004FF0E020006940F002004FF0E021086180
:103DC00008464461006940F00100086110BD000030
:103DD0001000002040420F000000002002000020E0
:103DE00070B5044604F0B2FB012811D00C480088DD
:103DF000844206DB0A48008894FBF0F5284603F06D
:103E00008DFD0748008894FBF0F100FB114084B25F
:103E10004FF47A7104FB01F000F004F870BD00006B
:103E20000200002070B5034600224FF0E0267569BD
:103E30000D4E367803FB06F44FF0E026B16910E032
:103E40004FF0E026B06988420BD0884202D20E1AA9
:103E5000324402E02E1A0E4432440146A24200D3FC
:103E600000E0EDE700BF70BD0000002030B5044663
:103E7000002504E04FF47A70FFF7D4FF6D1CA542D3
:103E8000F8D330BD38B5044664B120208DF8000069
:103E900028208DF8010030208DF8020038208DF8A0
:103EA000030004E0A32204216846FCF7D8FB6A461D
:103EB000042140F69E2002F05BFA01F045FE38BD79
:103EC0003EB5044602208DF80000CA208DF801009E
:103ED000E3208DF8020009208DF803006A460421D2
:103EE000682002F045FAA3208DF8000004F040009D
:103EF00048B1C0208DF80100C8208DF80200C22012
:103F00008DF8030006E0A3208DF801008DF8020073
:103F10008DF8030004F4C07048B1C4208DF804008B
:103F2000CC208DF80500C6208DF8060006E0A32001
:103F30008DF804008DF805008DF80600A3208DF89B
:103F400007008DF808008DF809006A460A2140F63E
:103F5000A72002F00DFA04F0030018B120208DF81C
:103F6000000002E0D8208DF800006A46012140F6EA
:103F7000B62002F0FDF904F0200018B1012000F095
:103F8000ADF802E0002000F0A9F804F4C07008B316
:103F900004F4807060B1B2208DF800008B208DF8A1
:103FA0000100B6208DF802009B208DF803000BE085
:103FB000B0208DF8000080208DF80100B4208DF82D
:103FC000020090208DF803006A46042140F6A220EA
:103FD00002F0CEF904F0010020B3F8208DF80000C3
:103FE0006A4601214FF40B6002F0C2F9FA21072062
:103FF00000F02CFC072000F0F3FB012000F013FC84
:10400000642000F0F3FC4FF4FA7000F002FDC821C8
:10401000304800F0A3FB282000F0BCFB0A2000F091
:10402000CCFB08E0D8208DF800006A4601214FF44F
:104030000B6002F09DF904F0020018B1D9208DF850
:10404000000002E0D8208DF800006A46012140F20D
:104050003D7002F08DF904F0040018B1012000F069
:1040600069F802E0002000F065F804F0100018B1D3
:104070000120FFF707FF02E00020FFF703FF44F0F5
:1040800008001549488101F05FFD0020124988733E
:1040900004F0400018B10846807B801D887304F44A
:1040A000C07020B10C48807B801D0B49887304F0E0
:1040B000140020B10848807B10300749887304F051
:1040C000030020B10448807B001D03498873002051
:1040D0003EBD000009E3CA02A81D00203EB504460B
:1040E0006CB10EA1D1E900208968CDE900200291D0
:1040F0006A4609214FF4976002F03AF93EBD0AA2E0
:10410000D2E900109268CDE9010200916A460921C6
:104110004FF4976002F02CF9F0E70000B8AAB38DD5
:10412000B4980D355D000000B8AAAAAAB088C3C52E
:10413000C700000038B5044664B1C0208DF8000007
:10414000C2208DF80100C4208DF80200C6208DF831
:10415000030004E08B2204216846FCF780FA6A46DB
:10416000042140F6982002F003F901F0EDFC38BD7F
:1041700010B5C8234FF48062024940F6F63001F0D2
:1041800077FB10BD709E00082DE9F04F8DB00746FB
:10419000884615469946DDE9166B002400203080DC
:1041A0006B49887B5A4605A901F02EFC18B1601EA8
:1041B0000DB0BDE8F08F6648807A00F0140000284A
:1041C00067D09DF8140000069DF8151040EA0140E4
:1041D0009DF8161040EA01209DF81710084328604A
:1041E0009DF8180000069DF8191040EA01409DF85E
:1041F0001A1040EA01209DF81B10084368609DF8E2
:104200001C0000069DF81D1040EA01409DF81E109C
:1042100040EA01209DF81F100843A8609DF8200087
:1042200000069DF8211040EA01409DF8221040EA66
:1042300001209DF823100843E86004F11000C4B287
:10424000286800140190686800140290A86800149F
:104250000390E8680014049001984043029901FB20
:104260000100039901FB0100049901FB010ABAF165
:10427000706F02DBBAF1885F05DD01F065FC00209C
:104280003080401E94E7B6F9000040F48070308022
:1042900000BF2F48807A00F0400020B305A9601CC1
:1042A000085C095D40EA012000B2A8F8000005A9F9
:1042B000E01C095C05AAA01C105C41EA002000B2C9
:1042C000A8F8020005A9601D095C201D105C41EAE8
:1042D000002000B2A8F80400A01DC4B2B6F9000086
:1042E00040F0080030801A48408900F4C07008B3DC
:1042F00005A9601C085C095D40EA012000B2388015
:1043000005A9E01C095C05AAA01C105C41EA00207C
:1043100000B2788005A9601D095C201D105C41EA8F
:10432000002000B2B880A01DC4B2B6F9000040F071
:10433000700030800648807A00F0030018B105A9AB
:104340000819FFF7EDFC484600F01DFF00202FE79D
:10435000A81D002070B588B0064601A801F0DCF861
:10436000BDF804000021C90341EA5045C403444894
:10437000007A00F0030056F8200005904048007ACB
:1043800000F0040010B10598404205903C48007AC6
:10439000C0F3C10056F8200006903948007A00F0BA
:1043A000200010B10698404206903548007AC0F3CC
:1043B000811056F8200007903148008900F4807081
:1043C00010B10798404207900598C117A0FB04233D
:1043D00001FB043100FB0510810041EA9270059059
:1043E0000698C117A0FB042301FB043100FB051054
:1043F000810041EA927006900798C117A0FB042340
:1044000001FB043100FB0510810041EA9270079026
:104410000598000E8DF808000598000C8DF809002D
:104420000598000A8DF80A000598C0B28DF80B00B7
:104430000698000E8DF80C000698000C8DF80D0003
:104440000698000A8DF80E000698C0B28DF80F008D
:104450000798000E8DF810000798000C8DF81100D9
:104460000798000A8DF812000798C0B28DF8130063
:1044700002AA0C214FF4257001F07AFF08B070BD3C
:10448000A81D002030B585B0044616A207CA02ABAD
:1044900007C3C82C03DD4FF0FF3005B030BDC82086
:1044A00090FBF4F0401E85B2280A8DF80000E8B2B7
:1044B0008DF801006A46022140F2162001F058FFF3
:1044C00010B14FF0FF30E8E702AA0C2140F6C120FE
:1044D00001F04EFF10B14FF0FF30DEE70448848159
:1044E0000020DAE7FEF2ABC4AAF1DFDFBBAFDFDF0B
:1044F000A81D00201FB504464848007A00F00300BC
:1045000054F8200001904548007A00F0040010B1F2
:104510000198404201904148007AC0F3C10054F82C
:10452000200002903D48007A00F0200010B102986F
:10453000404202903948007AC0F3811054F82000BC
:1045400003903648008900F4807010B1039840420F
:1045500003903349019880FB0101800F40EA8100FC
:1045600001902F49029880FB0110820042EA91706D
:1045700002902B49039880FB0110820042EA91705F
:1045800003900198000E8DF800000198000C8DF842
:1045900001000198000A8DF802000198C0B28DF860
:1045A00003006A4604214FF4747001F0E1FE18B173
:1045B0004FF0FF3004B010BD0298000E8DF80000DF
:1045C0000298000C8DF801000298000A8DF8020094
:1045D0000298C0B28DF803006A4604214FF475704A
:1045E00001F0C6FE10B14FF0FF30E3E70398000E74
:1045F0008DF800000398000C8DF801000398000A64
:104600008DF802000398C0B28DF803006A460421B9
:104610004FF4767001F0ACFECCE70000A81D00203E
:1046200009E3CA0210B586B0044647A000680390AB
:1046300046A00068029046A00068019045A000686E
:10464000009004F0030003A9085C8DF8140003A88F
:10465000C4F3C101405C8DF8150003A8C4F38111B7
:10466000405C8DF8160004F0030002A9085C8DF888
:10467000100002A8C4F3C101405C8DF8110002A82B
:10468000C4F38111405C8DF8120005AA032140F2A9
:10469000264001F06DFE18B14FF0FF3006B010BD9E
:1046A00004AA032140F22A4001F062FE10B14FF04B
:1046B000FF30F3E7019805900098049004F004009F
:1046C00058B19DF8140040F001008DF814009DF8D9
:1046D000100040F001008DF8100004F0200058B1E7
:1046E0009DF8150040F001008DF815009DF81100AF
:1046F00040F001008DF8110004F4807058B19DF86D
:10470000160040F001008DF816009DF8120040F0F0
:1047100001008DF8120005AA03214FF4886001F012
:1047200027FE10B14FF0FF30B8E704AA032140F292
:10473000314001F01DFE10B14FF0FF30AEE70648EA
:1047400004810020AAE700004CCD6C000CC92C00AD
:104750003656760026466600A81D0020F8B50546A8
:104760000E464FF47A7095FBF0F000FB06F4200E35
:104770008DF80000200C8DF80100200A8DF8020051
:10478000E0B28DF803006A4604214FF4AE7001F0E8
:10479000EFFDF8BD38B50446052094FBF0F084B277
:1047A00020128DF80000E0B28DF801006A46022167
:1047B0004FF4AD7001F0DCFD38BD38B5044605207E
:1047C00094FBF0F084B220128DF80000E0B28DF876
:1047D00001006A4602214FF4AC7001F0C9FD38BDFA
:1047E00038B504460020009004F0010020B19DF887
:1047F000000040F03000009004F0020020B19DF86D
:10480000000040F00C00009004F0040020B19DF87E
:10481000000040F0030000906A4601214FF4A470AC
:1048200001F0A6FD38BD38B50446012C01DA01249B
:1048300002E0042C00DD0424601EC0B200906A4631
:10484000012140F24F1001F093FD38BD2DE9FC47E6
:1048500006460F4606F0070010B1B7F5C86F03DD36
:104860004FF0FF30BDE8FC87384605F099F88146E7
:10487000594904F04BFF8046684600F027FE9DF83A
:104880000000022806D0042816D0082826D01028B8
:1048900048D135E04FF08D41404605F0C9F88146DA
:1048A00005F046F884B24D49404605F0C1F881460E
:1048B00005F03EF885B238E04FF08C41404605F0F7
:1048C000B7F8814605F034F884B24549404605F012
:1048D000AFF8814605F02CF885B226E04FF08B4109
:1048E000404605F0A5F8814605F022F884B23D491E
:1048F000404605F09DF8814605F01AF885B214E0AF
:104900004FF08A41404605F093F8814605F010F8D3
:1049100084B23549404605F08BF8814605F008F829
:1049200085B202E04FF0FF309CE700BF20128DF807
:104930000400E0B28DF8050028128DF80600E8B2F8
:104940008DF8070006F00100A0B101AA02214FF482
:10495000EA7001F00DFD10B14FF0FF3082E70DF16C
:10496000060202214FF4927001F002FD10B14FF0E7
:10497000FF3077E706F00200A0B101AA02214FF450
:10498000EC7001F0F5FC10B14FF0FF306AE70DF16B
:10499000060202214FF4947001F0EAFC10B14FF0CE
:1049A000FF305FE706F00400A0B101AA02214FF436
:1049B000EE7001F0DDFC10B14FF0FF3052E70DF169
:1049C000060202214FF4967001F0D2FC10B14FF0B4
:1049D000FF3047E7002045E700004843000040461D
:1049E0000000C045000040450000C04438B5044602
:1049F000052094FBF0F085B228128DF80000E8B293
:104A00008DF801006A4602214FF4EF7001F0B0FC0E
:104A100038BD38B50446052094FBF0F085B2281265
:104A20008DF80000E8B28DF801006A4602214FF4CB
:104A3000ED7001F09DFC38BD10B504464FF0864185
:104A4000204605F0C1F801D8FF2010BD4FF04341CA
:104A5000204604F0B9FF01D80020F6E7204604F014
:104A60004BFF8030C0B2F0E770B504460D46E1B2AE
:104A70000548FEF736FD00BF80210348FEF763FCC2
:104A80000028F9D0204670BD003801407CB50546AD
:104A900028494968087801AB04220D21FDF7D2FBB3
:104AA00008B107207CBD9DF80700C0F301109DF8F8
:104AB000041001F0E00140EAE1008DF800009DF8EB
:104AC0000700C0F381009DF8051001F0E00140EA05
:104AD000E1008DF801009DF8070000F003009DF84B
:104AE000061001F0E00140EAE1008DF80200002428
:104AF0001CE01DF8040018B9002045F8240013E05C
:104B00000D4845F8240006E055F824000B4904F050
:104B10008FFF45F824001DF80400401EC0B20DF8B8
:104B200004000028F0D100BF601CC4B2032CE0DBFD
:104B30000020B7E7540000207B14AE3E1D5A843F8E
:104B40002DE9F04F87B005460C46914601208DF8BF
:104B5000100000208DF81100FE4A1268917CFD4A79
:104B60005268107804AB0222FDF712FC20B14FF01E
:104B7000FF3007B0BDE8F08FC820FFF731F9002003
:104B80008DF81000F34A1268D17BF24A526810780F
:104B900004AB0122FDF7FCFB10B14FF0FF30E8E75A
:104BA000EC4A12685179EB4A5268107804AB012242
:104BB000FDF7EEFB10B14FF0FF30DAE7E54A12687F
:104BC000917CE44A5268107804AB0122FDF7E0FBC7
:104BD00010B14FF0FF30CCE7DE4A1268D17DDD4ADC
:104BE0005268107804AB0122FDF7D2FB10B14FF0F0
:104BF000FF30BEE7D74A12681179D64A526810785A
:104C000004AB0122FDF7C4FB10B14FF0FF30B0E759
:104C10000C208DF81000CF4A12681179CD4A5268E5
:104C2000107804AB0122FDF7B3FB10B14FF0FF3059
:104C30009FE70F20FFF7D4F8C648806A407A8DF8C6
:104C40001000C44A12689178C24A5268107804ABC6
:104C50000122FDF79DFB10B14FF0FF3089E7BD4801
:104C6000806A007A8DF81000BA4A12685178B94A01
:104C70005268107804AB0122FDF78AFB10B14FF0A7
:104C8000FF3076E7B9F1000F07D0B248806A807A2A
:104C900040F0E0008DF8100004E0AE48806A807AB1
:104CA0008DF81000AB4A12689179AA4A52681078C0
:104CB00004AB0122FDF76CFB10B14FF0FF3058E759
:104CC000B9F1000F07D0A348806AC07A40F0E00035
:104CD0008DF8100003E0A048C07A8DF810009D4ABE
:104CE0001268D1799B4A5268107804AB0122FDF713
:104CF0004FFB10B14FF0FF303BE7B9F1000F02D08E
:104D0000C820FFF76DF840208DF81000914A126816
:104D10001179904A5268107804AB0122FDF738FBF4
:104D200010B14FF0FF3024E778208DF81000894A49
:104D300012685179874A5268107804AB0122FDF756
:104D400027FB10B14FF0FF3013E783498889FFF745
:104D500047F800208DF810007E4A126851797D4A8C
:104D60005268107804AB0122FDF712FB10B14FF02E
:104D7000FF30FEE6774A1268917A764A52681078D8
:104D800004AB0222FDF75EFA10B14FF0FF30F0E6FF
:104D90009DF811009DF8101040EA012B0C209BFBA0
:104DA000F0F0C6B20020A86068602860A060606073
:104DB0002060824665E0674A1268D17A654A526887
:104DC000107804AB0C22FDF73DFA10B14FF0FF3024
:104DD000CFE69DF811009DF8101040EA012000B2C6
:104DE000ADF808009DF813009DF8121040EA01206C
:104DF00000B2ADF80A009DF815009DF8141040EAC5
:104E0000012000B2ADF80C00BDF90810206808447C
:104E10002060BDF90A10606808446060BDF90C109C
:104E2000A0680844A0609DF817009DF8161040EA9D
:104E3000012000B2ADF800009DF819009DF818108F
:104E400040EA012000B2ADF802009DF81B009DF879
:104E50001A1040EA012000B2ADF80400BDF90010BC
:104E6000286808442860BDF9021068680844686032
:104E7000BDF90410A8680844A8600AF1010000F018
:104E8000FF0AB24597DB3448D0F800C02868C11744
:104E9000090441EA10410704624600233846FBF743
:104EA00012FA32460023CDE90201FBF70CFA286022
:104EB0002948D0F800C06868C117090441EA1041C8
:104EC0000704624600233846FBF7FDF9324600230B
:104ED000CDE90201FBF7F7F968601F48D0F800C080
:104EE000A868C117090441EA10410704624600237B
:104EF0003846FBF7E8F932460023CDE90201FBF71B
:104F0000E2F9A8601448D0F804C02168C81700046A
:104F100040EA11480F046246002338464146FBF739
:104F2000D2F932460023CDE90201FBF7CCF920602B
:104F30000948D0F804C06068C117090441EA10416B
:104F40000704624600233846FBF7BDF932460023CA
:104F500004E0000054000020489E0008CDE9020152
:104F6000FBF7B1F960601148D0F804C0A068C11720
:104F7000090441EA10410704624600233846FBF762
:104F8000A2F932460023CDE90201FBF79CF9A060AB
:104F9000A068002804DDA068A0F58030A06003E0D0
:104FA000A06800F58030A0600020E2E5489E00087F
:104FB0002DE9FC5F06460F4600253D494968087803
:104FC00001AB03220D21FDF73DF910B10720BDE82B
:104FD000FC9F9DF8040000F01F008DF804009DF870
:104FE000050000F01F008DF805009DF8060000F098
:104FF0001F008DF80600002456E056F8240057F8EC
:105000002410A0EB010BBBF1000F01DB594601E0BE
:10501000CBF10001084604F0ABFC4FF08F4100904B
:1050200004F074FB814601A8005D68B3214908685B
:1050300004F0B6FC834659461F4804F067FB8046DF
:1050400004E01E49404604F0F3FC804601A8005DE0
:10505000401EC0B201A908550028F2D14146484679
:1050600004F054FB83464FF07E5104F0E9FD824684
:105070002AF0004B0F488169584604F0A5FD12D272
:105080000120A04005430EE00A480169484604F0AB
:105090009BFC05D307484169484604F095FD02D2C0
:1050A0000120A0400543641C032CA6DB28468EE7A4
:1050B00054000020489E000800B04C4554E3853F52
:1050C00010B50446204600F00FF80346E01C00F03F
:1050D0000BF843EAC00083B2A01D00F005F843EAD4
:1050E000801083B2184610BD014691F90020002AB5
:1050F00001DD00201EE091F90020002A01DA0420E1
:1051000018E091F90120002A01DD012012E091F957
:105110000120002A01DA05200CE091F90220002A82
:1051200001DD022006E091F90220002A01DA0620C2
:1051300000E00720704710B5FDF714FDFEF722FED2
:105140004FF44070FDF7B8F94FF4FA70FEF78EFE99
:10515000FEF7B0F84FF41650FEF720F8FDF7C2FE48
:10516000002211461046FDF705FBFCF759FBFCF742
:10517000B3FBFEF7BBF94FF4FA70FEF777FEFDF7CD
:10518000BDFC002010BD704770B50446002624F019
:105190000104184890F8240008B1002070BD15489B
:1051A000807A10B94FF0FF30F8E71248057C807A1A
:1051B0002040104908740846007CA04202D04FF0FD
:1051C000FF3600E0002614B90A48007D18B101201E
:1051D00001F094FF02E0002001F090FF3CB100F0EC
:1051E000B3FC20B1034805744FF0FF30D6E73046DA
:1051F000D4E70000540000202DE9F04F9BB0814619
:105200008A4693461C464FF07E55002600274FF0F5
:10521000000814A815A91AAB10AACDE9001016A908
:1052200018A8FEF7B1FF18B101201BB0BDE8F08F40
:10523000BDF8540000F4807000287DD0109804F070
:1052400097FB4FF09D410F9004F060FA05461198CE
:1052500004F08EFB4FF09D410F9004F057FA064684
:10526000129804F085FB4FF09D410F9004F04EFA28
:105270000746139804F07CFB4FF09D410F9004F01B
:1052800045FA804629464FF0804004F0D1FB39466C
:10529000069004F0CDFB314608904FF0404004F0FA
:1052A000C7FB4146069004F0C3FB0790089904F041
:1052B000BFF9099004F090F9CDE90A01FEF728FA48
:1052C0004FF06632584BCDE90C0103F0ABFECDE94F
:1052D0000E0103F0F5FBC9F8000039464FF080409D
:1052E00004F0A6FB3946039004F0A2FB314605907A
:1052F0004FF0404004F09CFB3146039004F098FBD3
:105300000490059904F09CFC4FF07E51069004F047
:105310008FF9079004F060F9CDE90A0129464FF0B2
:10532000804004F085FB3146049004F081FB39464F
:1053300006904FF0804000E071E004F079FB4146B8
:10534000049004F075FB0590069904F071F907903C
:1053500004F042F9CDE90801DDE90A23FEF720FC5B
:105360004FF06632304BCDE90C0103F05BFECDE926
:105370000E0103F0A5FBCAF800004146404604F0C8
:1053800057FB39460690384604F052FB31460490EC
:10539000304604F04DFB29460290284604F048FBB5
:1053A0000190029904F044F90390049904F048FC38
:1053B0000590069904F044FC079004F00DF9CDE93E
:1053C0000A014146284604F033FB39460590304631
:1053D00004F02EFB0490059904F02AF94FF0804167
:1053E000069004F025FB079004F0F6F8CDE90801DB
:1053F000DDE90A23FEF7D4FB4FF066320A4BCDE914
:105400000C0103F00FFECDE90E0103F059FBCBF8C0
:10541000000025606660A760C4F80C8001E00220EF
:1054200003E7002001E7000066A64C4070B50024A9
:10543000FCF790FD00F024F9002840D1782000F01E
:105440002FFFC4B20CB1012070BD7820FFF79CFE85
:10545000C4B20CB10220F7E7642000F0D3FEC4B25E
:105460000CB10320F0E7FEF783FEC4B20CB10420B8
:10547000EAE71548FFF724FE0546FFF7D3F8C4B264
:105480000CB10520E0E740F27310FEF719FDC4B23D
:105490000CB10620D8E76420FEF7F4FFC4B20CB1CB
:1054A0000720D1E701F0E0FD04460CB10820CBE76E
:1054B000012000F0A3FDC4B21CB10920C4E70A20FA
:1054C000C2E70020C0E7000080000020014611482C
:1054D000407A30B1012807D0022808D003280CD127
:1054E00008E0022008700BE00420087008E00820A3
:1054F000087005E01020087002E04FF0FF307047A0
:1055000000BF0448C07C18B108784006000E08703F
:105510000020F4E75400002001461348407A30B1DF
:10552000012808D002280AD0032810D10BE04FF43C
:10553000804008800EE041F69C7008800AE04FF43D
:105540008050088006E04FF40060088002E04FF0D1
:10555000FF30704700BF0448C07C10B1088840107D
:1055600008800020F5E700005400002001460248B2
:10557000007C0870002070475400002001460F484E
:10558000007A30B1012807D0022809D003280FD1B2
:105590000AE0FA2008800EE04FF4FA7008800AE072
:1055A0004FF47A70088006E04FF4FA60088002E059
:1055B0000020088000BF00BF00207047540000207A
:1055C00001460E48007A30B1012807D0022808D0E1
:1055D00003280CD108E00A4808600BE0094808607D
:1055E00008E00948086005E00848086002E04FF05C
:1055F000FF30704700BF0020FBE700005400002090
:1056000000000343000083423333034233338341BA
:1056100001461248C07A082817D2DFE800F01704C4
:10562000070A0D101318BC20088013E062200880C0
:1056300010E02A2008800DE0142008800AE00A20EB
:10564000088007E00520088004E000BF00BF0020BC
:10565000088000BF00BF00207047000054000020F9
:105660000146064890F8240010B14FF0FF30704713
:105670000248C08908800020F9E70000540000209B
:105680001CB580208DF80000654A1268917C644A40
:10569000526810786B460122FCF77AFE10B14FF089
:1056A000FF301CBD6420FEF79BFB00208DF800003E
:1056B0005B4A1268917C5A4A526810786B46012204
:1056C000FCF766FE10B14FF0FF30EAE7544A12686B
:1056D000917D534A526810786B460622FCF7B2FD62
:1056E00010B14FF0FF30DCE79DF80500C007400F18
:1056F0009DF8031001F0010140EA41009DF80110FE
:1057000001F0010140EA010494B1012C03D101210F
:105710004348C17431E0022C03D100214048C174D8
:105720002BE021463FA0FAF7F3FD4FF0FF30B8E73A
:105730003B4A1268D1783A4A526810786B46012287
:10574000FCF780FD10B14FF0FF30AAE79DF8000094
:1057500000F00F042CB93D48FAF7DAFD4FF0FF30A6
:105760009FE7042C06D13AA0FAF7D2FD01212C487C
:10577000C17402E000212A48C174FF2128488172C7
:10578000FF2027490872FF2125484172C1724FF658
:10579000FF71C181FF21017481740121017380F8BF
:1057A0002210002180F82310417501751630016028
:1057B00041608160163880F8241080F82510C1847B
:1057C0004FF4FA6000F062FC10B14FF0FF3068E770
:1057D000022000F02BFB10B14FF0FF3061E72A20D0
:1057E00000F0CEFC10B14FF0FF305AE7322000F04D
:1057F00009FD10B14FF0FF3053E70020FFF7C4FC64
:1058000010B14FF0FF304CE7002000F051FB10B119
:105810004FF0FF3045E7002000F042FD002040E758
:1058200054000020556E737570706F72746564203B
:10583000736F6674776172652070726F64756374DC
:10584000207265762025642E0A000000FCAB00085B
:1058500048616C662073656E7369746976697479E2
:10586000207061727420666F756E642E0A000000ED
:105870002DE9F04385B005460E46904699462948E5
:1058800090F8250020B14FF0FF3005B0BDE8F0835F
:1058900016B94FF0FF30F8E7002423E0281B10284A
:1058A00001DD102000E0281B87B23219394620465E
:1058B00000F05EFD10B14FF0FF30E6E701AA394677
:1058C000204600F001F910B14FF0FF30DDE730194C
:1058D0003A4601A9FAF752FE10B16FF00100D4E781
:1058E000E01984B2AC42D9DB4FEA28208DF80000E1
:1058F00008F0FF008DF801000A4A1268917E094AFB
:10590000526810786B460222FCF742FD10B14FF04E
:10591000FF30BAE70121034880F82510A0F826904F
:105920000020B2E75400002038B50446282C02DDE0
:105930004FF0FF3038BDDCB9002000F0EBFB002059
:105940008DF8000007208DF801002E4A1268917C26
:105950002C4A526810786B460222FCF719FD10B1F0
:105960004FF0FF30E6E70021264801750020E1E70F
:10597000012000F0CFFB20208DF80000012C06D183
:1059800000208DF80100052000F0FAFB17E0052C3F
:1059900006DC01208DF80100052000F0F1FB0EE08F
:1059A000142C06DC02208DF801000A2000F0E8FB30
:1059B00005E003208DF80100142000F0E1FB9DF8C4
:1059C0000100072101EB8010C0B28DF801000D4AE3
:1059D0001268917C0B4A526810786B460222FCF7E1
:1059E000D7FC10B14FF0FF30A4E7082105488172C1
:1059F00000210173012101750020FFF7C5FB002084
:105A000098E7000054000020F8B504460F461646FB
:105A10002C4890F8240010B94FF0FF30F8BD294809
:105A2000807A10B94FF0FF30F8E7264A1268917A71
:105A3000244A526810786B460222FCF703FC10B12E
:105A40004FF0FF30EAE79DF801009DF8001040EAB2
:105A50000125A54203DA00203070401EDEE7194818
:105A600040684088B5EB600F17DD164A1268517C1C
:105A7000144A526810786B460122FCF7E3FB10B120
:105A80004FF0FF30CAE79DF8000000F0100020B191
:105A900000F05AF86FF00100C0E7E2B2094B1B6852
:105AA000D97A084B5B6818783B46FCF7CBFB10B102
:105AB0004FF0FF30B2E795FBF4F0401E307000204D
:105AC000ACE7000054000020F8B504460D46164629
:105AD00016B94FF0FF30F8BD1A48807A10B94FF070
