:020000040800F2
:10000000804F002085020008092500087D1F000898
:10001000052500081B18000895390008000000009D
:10002000000000000000000000000000ED010008DA
:100030007D1900080000000031020008FD2F0008B3
:100040009F0200089F0200089F0200089F0200080C
:100050009F0200089F020008811900089F02000803
:100060009F0200089F0200089F0200089F020008EC
:100070009F0200089F0200089F0200089F020008DC
:100080009F0200089F0200089F0200089F020008CC
:100090009F0200089F0200089F0200089F020008BC
:1000A0009F0200089F0200089F0200089F020008AC
:1000B0006D3000089F0200089F0200089F020008A0
:1000C0009F0200089F0200089F0200089F0200088C
:1000D0009F020008793500087D3600088136000847
:1000E0009F0200089F0200089F02000800F002F82B
:1000F00000F06DF80AA090E8000C82448344AAF155
:100100000107DA4501D100F062F8AFF2090EBAE852
:100110000F0013F0010F18BFFB1A43F0010318473B
:10012000ECAC00000CAD00000A444FF0000C10F8DD
:10013000013B13F0070408BF10F8014B1D1108BF65
:1001400010F8015B641E05D010F8016B641E01F805
:10015000016BF9D113F0080F1EBF10F8014BAD1C55
:100160000C1B09D16D1E58BF01F801CBFAD505E073
:1001700014F8016B01F8016B6D1EF9D59142D6D3CD
:10018000704700000023002400250026103A28BFF5
:1001900078C1FBD8520728BF30C148BF0B607047F9
:1001A000662909F0A086642900F0E880732900F030
:1001B0007585002070471FB500F0DAFD04000020AF
:1001C000002108F045FDE0601FBD10B510BD00F036
:1001D000FBFE1146FFF7EFFF05F0CCF900F019FF29
:1001E00003B4FFF7F2FF03BC03F059FC224B19687C
:1001F0000868B0E8F00F80F30988BFF36F8F4FF005
:10020000000080F311884EF00D0E704700000000D2
:1002100006480068006880F3088862B661B6BFF3DC
:100220004F8FBFF36F8F00DF00BF00BF08ED00E00E
:10023000EFF30980BFF36F8F0F4B1A6820E9F00FBF
:10024000106008B54FF0300080F31188BFF34F8F76
:10025000BFF36F8F07F03AFE4FF0000080F3118874
:10026000BDE8084019680868B0E8F00F80F3098815
:10027000BFF36F8F704700BF38000020EFF3058099
:10028000704700000948804709480047FEE7FEE73D
:10029000FEE7FEE7FEE7FEE7FEE7FEE7FEE7FEE736
:1002A00004480549054A064B704700000D30000818
:1002B000ED00000880490020804F0020804B002086
:1002C000804B0020704710B54C1084EA530404D5CD
:1002D0004042C1F1000138BF491E1B4204D55242C1
:1002E000C3F1000338BF5B1E00F0C5F914F0804F66
:1002F00004D04042C1F1000138BF491E14F0004F44
:1003000004D05242C3F1000338BF5B1E10BD000091
:100310000FB4044910B503AA029800F0C3FC10BC46
:100320005DF814FB0400002070B50C460546012A58
:1003300005D02878800600D5EA69002302E0012371
:1003400005E05B1C934202D2E05C0028F9D1A86969
:10035000E618C01AA861286A184428622846AFF334
:10036000008004E0D5E9012114F8010B9047B44264
:10037000F8D32846AFF3008070BD00002DE9F041AE
:100380000646002410687529314616A510D0AFF333
:100390000080002802DA404213A507E031688A078E
:1003A00001D512A502E0490704D511A5012401E0F9
:1003B000AFF3008000210A2206F1240709E0B0FB18
:1003C000F2FCB0FBF2F302FB1C003030785418460C
:1003D000491C0028F3D123462A463046BDE8F041A7
:1003E00000F0CBB9000000002D0000002B00000041
:1003F000200000002DE9F05F894604464FF0000A16
:10040000DFF874B1FB44C0F820A02046E1688847BB
:10041000002874D0252806D0D4E901219047206A0D
:10042000401C2062F1E700265F462046E1688847CD
:100430002028054607DB312D05D2781910F8200C4D
:1004400008B10643F1E7B00701D526F00406C4F869
:100450001CA00027C4F818A02A2D09D0284603F0B4
:1004600017FB38B304EB8708303DC8F8185019E083
:1004700059F8041B204604EB87029161E168884724
:10048000012F054618D1E069002820DA26F0200661
:100490001DE0D8F8180000EB800005EB4000303874
:1004A000C8F818002046E1688847054603F0F0FACE
:1004B0000028EED1012F0AD02E2D08D12046E16868
:1004C00088477F1C0546022F46F02006C4DBA06942
:1004D000002803DA404246F00106A061F00701D08F
:1004E00026F010066C2D0BD0682D09D04C2D39D07C
:1004F0006A2D35D0742D35D07A2D33D016E038E002
:10050000E1682F4620468847B842054609D16C2F3E
:1005100026D04FF48060E1680643204688470546B0
:1005200004E06C2F1AD04FF4807006430DB3A5F190
:100530004100192802D8203546F400664A4629466B
:10054000204626604E46FFF72BFE80B101280BD0D7
:10055000F61D26F0070000F1080956E74020E4E701
:100560008020D8E70020D6E706F104094DE72846A9
:1005700052E7206ABDE8F09F1AA8000040EA010394
:1005800010B59B070FD1042A0DD310C808C9121F3C
:100590009C42F8D020BA19BA884201D9012010BD76
:1005A0004FF0FF3010BD1AB1D30703D0521C07E043
:1005B000002010BD10F8013B11F8014B1B1B07D1A7
:1005C00010F8013B11F8014B1B1B01D1921EF1D118
:1005D000184610BD032A40F2308010F0030C00F0E2
:1005E000158011F8013BBCF1020F624498BF11F86D
:1005F00001CB00F8013B38BF11F8013BA2F1040226
:1006000098BF00F801CB38BF00F8013B11F003039D
:1006100000F05A83083AC0F0088051F8043B083AC9
:1006200051F804CBA0E80810F5E7121D5CBF51F8A3
:10063000043B40F8043BAFF30080D20724BF11F81D
:10064000013B11F801CB48BF11F8012B24BF00F882
:10065000013B00F801CB48BF00F8012B704702F0C6
:10066000FF0343EA032242EA024200F061BB704703
:1006700070477047704753EA020C00F069802DE91B
:10068000F04B4FF00006002B1FBFB3FA83F503FABF
:1006900005F424FA05F65E4012BF1643B2FA82F55D
:1006A00002FA05F4C5F120051EBF22FA05FC44EA52
:1006B0000C04203556EA044C4FEA144418BF641C5D
:1006C0004FF000084FF00009904271EB030C39D352
:1006D000002919BFB1FA81F701FA07F6B0FA80F7DD
:1006E00000FA07F6C7F120071EBF20FA07FC46EA0A
:1006F0000C062037B6FBF4FCA7EB0507103F07F00C
:100700001F0BCBF120060CFA0BFB2CFA06F644BFAC
:10071000B3460026202FA4BF5E464FF0000B5BEAD5
:10072000060C08BF4FF0010B19EB0B09ABFB027C69
:1007300048EB0608C01B06FB02CC0BFB03CC71EB9D
:100740000C01C1E70B46024641464846BDE8F08B26
:1007500013B54FF000004FF00001AFF30080BDE88B
:100760001C40704710B500F007FB006810BD10B5C5
:10077000044600F001FB046010BD2DE9F0470D4672
:1007800099469246044600F124080168880604D57B
:10079000E06921F01001216000E00120A84201DDA4
:1007A000471B00E00027A1697A1902EB0900081A2B
:1007B000A0612078C00602D42046AFF30080002656
:1007C00008E0D4E901211AF806009047206A401C8D
:1007D000761C20624E45F4DB2078C0060AD5204600
:1007E000AFF3008006E0D4E9012130209047206A71
:1007F000401C2062381EA7F10107F4DC07E0D4E9B1
:10080000012118F805009047206A401C2062281E2C
:10081000A5F10105F3DC2046AFF300802078000647
:1008200002D50220BDE8F0870120FBE770472DE9E3
:10083000FF4F0C461E464FF0FF378BB0D2E9000148
:10084000DDF860800A908A46C1F30A5505B93D4635
:10085000002108464FF00000BAF1000F00F44000FC
:1008600005DA00EB80004FF4400101EA50004FEA46
:100870009059B9F1010F00DDB9460A9850EA4A00D3
:100880000ED044F61050A5F2FF3545432F14B8F1B1
:10089000000F1ED07542291E1EDDC9F100021CE0AA
:1008A000B8F1010F4FF0000001D0302103E0F24316
:1008B00005E02154401CB042FBDB30460022002101
:1008C00021540B99C1F80880C1E900200FB0BDE8A0
:1008D000F08FBD1B6D1CDEE74A4600DA694206A8B0
:1008E00000F0D4FA06AB93E8070003AB83E80700F7
:1008F00050460A9900F0D6FB8DE80700A0F500509D
:100900001F3800900398002D09DD42F21F014A466E
:10091000084403A90390684600F035FE08E0A0F5FE
:1009200000504A461F3803A90390684600F03FFE76
:100930008DE807000004000C03D04FF0FF304108A1
:1009400000E01046B8F1000F03D0002200921546D7
:100950001EE0751E05D400F013FA303262556D1E8C
:10096000F9D5B3460122084302D000227F1C04E0DF
:100970002078302801D100227F1E002A099786D0D6
:100980001DE0112D07DA00F0FBF9303262556D1CC5
:1009900050EA0102F5D1084302D00098C8B10EE038
:1009A0000021681E05E0235C625C63542254401EF3
:1009B000491C8142F7DBAB46A81B401E0990002072
:1009C00004F80B000B98099AC0F80880C0E9002BC6
:1009D0007CE711264FF0000859E72DE9F04F8846D3
:1009E0000446D21D22F0070191B0D1E90001CDE902
:1009F0000A0102F0D1FF02460B98C00F01D02D2052
:100A000007E02068810701D52B2002E0202101EAC0
:100A1000C000032A099001D0072A05DB034641469E
:100A2000204600F0F3F90BE12078800601D5E0695B
:100A300000E00620B8F1650F814606D0B8F1660FD8
:100A400018D0B8F1670F70D131E00020B9F1110F63
:100A5000009001DB112301E009F101030AAA01A9B9
:100A60000CA8FFF7E4FEDDE90C70002609F1010592
:100A7000834647E001204B4600904FF000470AAA0A
:100A800001A90CA8FFF7D3FEDDE90DB00C995D4676
:100A9000002610B909F101000D18B9EB050003D4C7
:100AA000C0F1FF3609F10105A5EB09002BE0B9F112
:100AB000010F01DA4FF001090020B9F1110F009088
:100AC000484601DD112300E003460AAA01A90CA84B
:100AD000FFF7ADFEDDE90C704D4600268346207819
:100AE00000070AD4AB4500DA5D4601A8012D04DDFC
:100AF000411911F8011C302907D04F4502DA17F1CE
:100B0000040F04DA012082460FE06D1EEEE7002F8D
:100B100002DCED1B3E4403E0781CA84200DD7D1C96
:100B2000B81B00F1010A4FF000472078000703D4FA
:100B3000AA4501DB4FF0FF3A0021B7F1004F0DF15C
:100B400043088DF8431024D002202B23002F01DA14
:100B50007F422D230A21021EA0F1010000DC5FB1BB
:100B600097FBF1FC97FBF1F201FB1C7C17460CF1A3
:100B7000300C08F801CDEEE7A8F1010003702188E0
:100B8000090501D5452100E06521A0F1010800F823
:100B9000011C09980FA9A1EB0807FF1D00B1012056
:100BA000411901EBEA70A1693844081A401EA0619E
:100BB0002078C00602D42046AFF30080099828B1FF
:100BC000D4E901219047206A401C20622078C006A9
:100BD00022D52046AFF300801EE0002E04DBB34593
:100BE00002DD01A8805D00E03020D4E901219047BA
:100BF000206A401C2062761CAAF101005FEA000A0C
:100C00000AD100F0B5F8C0680168405CD4E9012160
:100C10009047206A401C2062281EA5F10105DCDCFB
:100C200007E0D4E9012118F8010B9047206A401C25
:100C30002062381EA7F10107F3DC2046AFF30080E5
:100C4000032011B043E6000001694A1C02610878E4
:100C5000704700B58FB0CDE90131002105910549FC
:100C60007944CDE9031011466846FFF7C3FB0FB086
:100C700000BD0000E5FFFFFF10B5436913B1AFF3FE
:100C8000008001E0FFF750FB012010BD127800F159
:100C900024010A7000224A700122EDE711684FF02A
:100CA000FF32E9E7074B70B50D467B44FFF7D1FFF4
:100CB0000446284600F058F910B14FF0FF3070BDDF
:100CC000204670BDF741000010B5203AC0F00B80FF
:100CD000B1E81850203AA0E81850B1E81850A0E840
:100CE0001850BFF4F5AF5FEA027C24BFB1E818509A
:100CF000A0E8185044BF18C918C0BDE810405FEA0A
:100D0000827C24BF51F8043B40F8043B08BF704785
:100D1000D20728BF31F8023B48BF11F8012B28BF8A
:100D200020F8023B48BF00F8012B70474FF000024B
:100D30000429C0F0128010F0030C00F01B81CCF1EC
:100D4000040CBCF1020F18BF00F8012BA8BF20F85B
:100D5000022BA1EB0C0100F00DB95FEAC17C24BFAE
:100D600000F8012B00F8012B48BF00F8012B704759
:100D70000048704740490020004870472049002043
:100D800030B5B0F10A024FEA900E71F100034EEA5D
:100D9000817EB0EB0E0061EB91014FEA101E4EEA2E
:100DA000017E10EB0E0041EB11114FEA102E4EEABE
:100DB000016E10EB0E0041EB11214FEA104E4EEA8E
:100DC000014E10EB0E0041EB1141401841F10001C2
:100DD0004FEAD00040EA41704FEAD10110EB8005A4
:100DE0004FEA810444EA907444EB01046D1944EB2A
:100DF0000404521BA3414FF0000348BF0A3200D540
:100E000030BD401C41F1000130BD00002DE9F04132
:100E10001F46044603260168072A01F4006004DB2C
:100E200008B116A505E016A503E008B115A500E078
:100E300015A521F010002060A069C01EA0610FB1AF
:100E4000401EA0612046AFF300804FB1D4E90121DC
:100E500038469047206A401C2062C01C206206E091
:100E6000206AFAE7D4E9012115F8010B9047761EB4
:100E7000F8D22046AFF30080BDE8F0814E414E002D
:100E80006E616E00494E4600696E66002DE9F047BE
:100E9000814616468AB0334878440DC88DE80D0067
:100EA00030487844801C03AC0DC884E80D0041F63E
:100EB0009B300844372190FBF1F290FBF1F5A5F14E
:100EC000800501FB12041B3C02D56442012000E0B6
:100ED0000020DFF890A080460027FA44AAF1BE0A5D
:100EE0000DE0E00709D03246684607EB47010AEB00
:100EF000810100F05CFB8DE8070064107F1C002C72
:100F0000EFD1184F7F44AC3F18E0E80714D007EB4F
:100F100004100DF1180A90E80E008AE80E00C0686F
:100F2000F04201D198190890324606A903A800F0B2
:100F30003EFB03AB83E807006D10641C002DE4D179
:100F400032466946B8F1000F03A802D000F01BFB3F
:100F500001E000F02CFBC9E90001C9F808200AB043
:100F6000BDE8F087089F0000007B00F0800070471C
:100F70004FF0000200B5134694469646203922BF32
:100F8000A0E80C50A0E80C50B1F12001BFF4F7AF7D
:100F9000090728BFA0E80C5048BF0CC05DF804EB5F
:100FA000890028BF40F8042B08BF704748BF20F8CD
:100FB000022B11F0804F18BF00F8012B7047000082
:100FC00000487047204900207546FFF7F9FFAE46FC
:100FD00005006946534620F00700854618B020B545
:100FE000FFF75EF9BDE820404FF000064FF0000724
:100FF0004FF000084FF0000B21F00701AC46ACE8C1
:10100000C009ACE8C009ACE8C009ACE8C0098D462D
:10101000704710B50446AFF300802046BDE810408D
:10102000FFF7DEB84FF0013C50F8042B51F8043BB9
:101030009A4221D1A2EB0C03934313EACC1317D1AC
:1010400050F8042B51F8043B9A4215D1A2EB0C0343
:10105000934313EACC130BD150F8042B51F8043B03
:101060009A4209D1A2EB0C03934313EACC13DBD0D1
:101070004FF00000704700BFD01A01BAB1FA81F1F9
:1010800001F0180122FA01F0CB40C1F12001DBB2DE
:10109000C0B2C01A2CFA01F3D11A914311EAC3115C
:1010A000E6D170475FEA400C08BF91F0000F4FEAAD
:1010B0008C234FEAC12243EA51514FEA1C5018BF1A
:1010C00000F5F0404FEA300018BF41F000415FEA00
:1010D0006C5C00F02980BCF1FF3F08BF40F080400D
:1010E0007047130C06BF12044FF0100C4FF0000CA9
:1010F000130E04BF12020CF1080C130F04BF1201EF
:101100000CF1040C930F04BF92000CF1020CD30FEE
:1011100004BF52000CF1010C11464FF00002A0F187
:101120001F00A0EB0C00704711F0004F08BF704784
:1011300031F000413FF4D5AF0B0C06BF09044FF06E
:10114000100C4FF0000C0B0E04BF09020CF1080C40
:101150000B0F04BF09010CF1040C8B0F04BF8900B5
:101160000CF1020CCB0F04BF49000CF1010CCCF1C7
:101170002003A0EB0C0022FA03F302FA0CF241EA7E
:10118000030100F10100704720F07F4C80EA03006A
:1011900023F07F47ACEB070303F57C5300F00040DE
:1011A00003F1FF032DE980494FEA154B09B44FEADB
:1011B000144325EA0B4E24EA03480FF2042606EBFB
:1011C000132749083E785FEA320203FB0667C7F53A
:1011D000000707FB06F64FEA54374FEAD64606F1FA
:1011E000020607FB066CCCF1005C4FEA1C472CEAB8
:1011F000074C07FB06F40CFB06F504EB15464FEA1B
:10120000961634BF00204FF000404FEAD13706FB5E
:1012100007FC4FEA1C4C0CFB0BF7D21B03FB0CF733
:1012200061EB07010CFB0EF7B0EB074072EB1742C6
:101230000CFB08F734BFA2EB0742B2EB074261EBAD
:1012400017414FEA0C444FEA910706FB07FC4FEAAF
:101250001C4C0CFB0BF7B0EBC74072EB573203FB97
:101260000CF734BFA2EBC742B2EBC74261EB573178
:101270000CFB0EF7B0EBC70072EB57720CFB08F7D4
:1012800034BFA2EBC702B2EBC70261EB5771039FF9
:101290004FEA816141EA921104EBCC044FEAD13765
:1012A0004FEA826206FB07FC42EA90124FEA806036
:1012B0004FEA1C4C0CFB0BF7D21B03FB0CF761EB4A
:1012C00007010CFB0EF7B0EB074072EB17420CFB6B
:1012D00008F734BFA2EB0742B2EB074261EB1741BC
:1012E0004FEA8C554FEA910704EB9C2406FB07FC60
:1012F0004FEA1C4C0CFB0BF7B0EBC74072EB5732BC
:1013000003FB0CF734BFA2EBC742B2EBC74261EB61
:1013100057310CFB0EF7B0EBC70072EB57720CFBAA
:1013200008F734BFA2EBC702B2EBC70261EB5771FB
:1013300015EB4C254FEA816141EA92114FEA826236
:101340004FEAD13742EA901206FB07FC44F1000451
:101350004FEA80604FEA1C4C0CFB0BF7D21B03FBDF
:101360000CF761EB07010CFB0EF7B0EB074072EBDB
:1013700017420CFB08F734BFA2EB0742B2EB07425F
:1013800061EB174115EB1C154FEA813141EA92419F
:101390004FEA823242EA90424FEA80304FEA0C76BE
:1013A00044F1000448EA03434EEA0B484FF0000EB4
:1013B000B2EB080C71EB030724BF624639464EEBD3
:1013C0000E0E4FF0000B0018524149414BEB0B0B36
:1013D000B2EB080C71EB03077BF1000B24BF6246F4
:1013E00039464EEB0E0E4FF0000B001852414941AA
:1013F0004BEB0B0BB2EB080C71EB03077BF1000B13
:1014000024BF624639464EEB0E0E51EA020718BF62
:1014100046F0010616EB0E7655F1000254F100017C
:1014200003D5BDE88901BDE80088BDE88901BDE8B4
:101430000048B619524141EB0101A3F10103704785
:1014400080807F7E7D7C7B7A797877767675747301
:10145000727171706F6E6E6D6C6C6B6A6A696868C0
:10146000676666656464636362616160605F5F5E56
:101470005E5D5D5C5C5B5B5A5A59595858575756CC
:101480005655555554545353525252515150505031
:101490004F4F4F4E4E4D4D4D4C4C4C4B4B4B4A4A83
:1014A0004A494949484848474747474646464545C7
:1014B0004544444444434343434242424241414100
:1014C000002B26D4770021D01CB54FEA370703B490
:1014D0004FF010004FF010014FF000000FBCBDE8BE
:1014E00010400BF1010BBBF1010F08BF5FEA1707BA
:1014F00022BF12F1010211F101014FF0004143F14D
:10150000000300F0004043EA00007047F9D3570899
:10151000DAE746EA064613F1400F4FEA16461FDDAA
:1015200013F1200FDFBF16430A46002120335B4230
:10153000C8D0C3F1200746EA064602FA07F74FEA89
:10154000164646EA0706C3F1200722FA03F201FA1B
:1015500007F721FA03F14FF0000342EA0702B1E76F
:1015600046EA020646EA06464FEA164646EA0106FB
:10157000BCBF46EA0646360C4FF000034FF00002AF
:101580004FF000019EE72DE9C048934630B491E842
:10159000380007C831EA400C48BF34EA430C03D591
:1015A000FFF7F2FDFFF78CFFF0BCBDE800882DE9E6
:1015B000C048934630B491E8380007C810F0804F17
:1015C00008BF13F0804F03D100F005F8FFF778FF54
:1015D000F0BCBDE8008820F07F4780EA030023F0DC
:1015E0007F4C07EB0C03A3F57C5300F00040A3F104
:1015F000FE0392F0000F00F0B38095F0000F00F0B2
:1016000077802DE901494FEA11404FEA144621EA5B
:10161000004800FB06FC24EA064708FB06F607FB29
:1016200008F800FB07F718EB06484CEB164C4FEA9E
:10163000124B18EB07484FEA15464CEB174022EACD
:101640000B4E0BFB06FC25EA06470EFB06F607FBD6
:101650000EFE0BFB07F71EEB064E4CEB164C4FF045
:1016600000061EEB074E4CEB174B18EB0B0840F136
:10167000000018EB0E0B58EB000840F100008F1A29
:101680004FF000013CBFC943661B14BFB5EB040C0F
:1016900000213CBFC943F61B4FEA17444EEA8E0EA9
:1016A00027EA04454FEA1C4704FB07622CEA074C73
:1016B00005FB07F70CFB05F604FB0CFC16EB0746D5
:1016C00042EB174216EB0C4642EB1C421BEB0606A4
:1016D00058EB0202414146EA9E0601D5BDE8018968
:1016E000B619524141EB0101A3F10103BDE80189A3
:1016F0004FEA14454FEA114724EA054621EA074C10
:1017000005FB07F406FB07F70CFB06F105FB0CFCD9
:1017100011EB074144EB17444FEA124711EB0C4120
:1017200044EB1C4422EA074C05FB07F206FB07F7D3
:101730000CFB06F605FB0CFC16EB074642EB1742CA
:1017400016EB0C4642EB1C456A1854F1000148BFE9
:101750007047B619524141EB0101A3F101037047F3
:1017600095F0000F37D04FEA11424FEA144721EAB3
:10177000024624EA074C02FB07F106FB07F70CFBC5
:1017800006F402FB0CFC14EB074441EB17414FEA53
:10179000154714EB0C4441EB1C4125EA074C02FBB6
:1017A00007F506FB07F70CFB06F602FB0CFC16EB35
:1017B000074645EB174516EB0C4645EB1C42121944
:1017C00051F1000148BF7047B619524141EB010188
:1017D000A3F1010370474FEA14454FEA114724EA89
:1017E000054621EA074C05FB07F106FB07F70CFB52
:1017F00006F24FF0000605FB0CFC12EB074241EB32
:10180000174112EB0C4251EB1C4148BF7047921834
:1018100041EB0101A3F10103704700BFFEE70000A7
:1018200008B50220ADF8000010208DF8030002205A
:101830008DF8020069460C4800F0DAFA02210A48E5
:1018400000F061FB2020ADF8000010208DF80300AF
:1018500002208DF802006946044800F0C9FA2021F0
:10186000024800F050FB08BD00080140000C014098
:1018700010B50D480078052813D2DFE800F0030802
:10188000090C0F000221094800F03DFB09E008E0C7
:1018900000F01AF805E000F023F802E000F008F884
:1018A00000BF00BF10BD0000AD00002000080140D7
:1018B00010B54FF47A7002F0F7FC0221014800F0F5
:1018C00022FB10BD0008014010B5C82002F0ECFC5E
:1018D0000221024800F017FB10BD00000008014083
:1018E00010B5C82002F0E0FC0221074800F00BFB15
:1018F000C82002F0D9FCC82002F0D6FC0221024820
:1019000000F001FB10BD00000008014000F0805114
:1019100011B10349086001E00249486070470000C6
:10192000040402400000024021B1026842F00102BA
:10193000026004E002684FF6FE731A4002607047CE
:1019400010B50022026847F6F0739A430C6A8B6860
:1019500023430C6923434C6923438C692343CC699B
:1019600023434C6A23438C6A23431A430260CB68A7
:1019700043600B6883604B68C36010BD7047000014
:1019800010B5012000F016F840B1054B054A111FB3
:10199000081F03F057FE012000F006F810BD0000FC
:1019A000D82C0020D42C002001490860704700008A
:1019B00014040140014600200022074B1B6803EA83
:1019C0000102054B14331B680B4013B10AB101200F
:1019D00000E000207047000000040140002123497E
:1019E0008279002A3AD00A46126803689A430B4665
:1019F0001A600A1D126803689A430B1D1A60027967
:101A000011440A6803681A430A60184A08321268C7
:101A100003689A43154B08331A601A1D126803684D
:101A20009A43124B0C331A604279102A0ED11A1FB6
:101A3000126803681A430D4B08331A601A1D1268A6
:101A400003681A43094B0C331A600DE007494279C9
:101A500011440A6803681A430A6005E002791144D8
:101A60000A6803689A430A60704700000004014056
:101A700009E0012004490870022000F09DFA4FF4AB
:101A8000FA6002F011FCF4E7AD00002008E001204C
:101A90000449087000F090FA4FF4FA6002F004FC78
:101AA000F5E70000AD0000200149C8607047000064
:101AB0000020024030B5044604254FF4302000F0E9
:101AC000B9F80546042D17D10C48006940F0020012
:101AD0000A49086108464461006940F04000086115
:101AE0004FF4302000F0A6F805460448006941F69E
:101AF000FD71084001490861284630BD00200240C0
:101B000004200B49C96801F0010109B101200EE070
:101B10000749C96801F0040109B1022007E004493E
:101B2000C96801F0100109B1032000E004207047EA
:101B3000002002400348006940F08000014908612C
:101B4000704700000020024078B506460C46042588
:101B500000200090E80200F06DF80546042D24D125
:101B60001348006940F00100114908613480E8021F
:101B700000F060F80546042D10D1B01C0090200C38
:101B800000990880E80200F055F805460848006909
:101B900041F6FE7108400649086106E00448006904
:101BA00041F6FE71084002490861284678BD0000F0
:101BB000002002402DE9F84F04468A464FF0010903
:101BC00020E0D4F800B0584607F0B0FF009007F0CE
:101BD000E1FD074600220D4B07F03EF905462A4677
:101BE0000B460BA0FEF794FB032099FBF0F100FBE2
:101BF000119010B908A0FEF78BFB241D09F101001C
:101C00001FFA80F9D145DCDDBDE8F88F00005940AE
:101C1000252E3266200000000D0A0000024803490C
:101C20004860034848607047230167450020024030
:101C3000AB89EFCD00B502460423FFF761FF0346F1
:101C400003E0FFF75DFF0346521E012B01D1002A7E
:101C5000F7D102B90523184600BD000010B525488C
:101C6000008810B101280CD105E04FF40051224842
:101C700000F049F917E04FF400511F4800F045F912
:101C800011E04FF400511C4800F03FF9194800885A
:101C900005F022FF4FF40051174800F034F90020FE
:101CA0001449088000BF00BF1448008810B1012803
:101CB0000CD105E04FF480510F4800F024F917E0F3
:101CC0004FF480510C4800F020F911E04FF480519E
:101CD000094800F01AF90948008805F0FDFE4FF4A4
:101CE0008051054800F00FF900200449088000BF2A
:101CF00000BF10BDE6000020000C0140E8000020FD
:101D000008B50121082000F0EDFD4FF44050ADF87A
:101D1000000003208DF8020010208DF803006946B2
:101D2000044800F065F84FF44051024800F0EBF829
:101D300008BD0000000C01402DE9F04705460C46A7
:101D4000032600274FF000094FF00408FFF766FF55
:101D5000A000C11700EB9151891201F10109342053
:101D6000FFF7A2FE002607E010494A1402FB061006
:101D7000FFF7A0FE8046761C4E4502D2B8F1040F54
:101D8000F2D00A4F05E038462968FFF7DDFE3F1D17
:101D90002D1D064800EB8400B84202D3B8F1040FB1
:101DA000F1D0FFF7C7FE0020BDE8F08700C00008B3
:101DB00030B500228B071C0F0F2303FA04F20B4BE4
:101DC0008C1053F824309343084C8D1044F8253080
:101DD00023468C1053F824308C07240F00FA04F4A7
:101DE0002343024C8D1044F8253030BD08000140DB
:101DF0002DE9F041024600250026002000230024A2
:101E0000002791F803C00CF00F0591F803C00CF007
:101E1000100CBCF1000F03D091F802C04CEA05058C
:101E200091F800C0BCF1000F31D0146800202BE005
:101E30004FF0010C0CFA00F3B1F800C00CEA0306F5
:101E40009E4220D183004FF00F0C0CFA03F7BC43E5
:101E500005FA03FC4CEA040491F803C0BCF1280F16
:101E600006D14FF0010C0CFA00FCC2F814C00AE0D5
:101E700091F803C0BCF1480F05D14FF0010C0CFAEA
:101E800000FCC2F810C0401C0828D1D31460B1F87F
:101E900000C0BCF1FF0F34DD546800202EE000F1DB
:101EA000080C4FF0010808FA0CF3B1F800C00CEA76
:101EB00003069E4221D183004FF00F0C0CFA03F76A
:101EC000BC4305FA03FC4CEA040491F803C0BCF1DE
:101ED000280F05D100F1080C08FA0CF8C2F814809C
:101EE00091F803C0BCF1480F07D100F1080C4FF086
:101EF000010808FA0CF8C2F81080401C0828CED35C
:101F00005460BDE8F0814161704701617047000095
:101F100010B500F0C7F9044624B109A0FEF7F8F99E
:101F2000FFF7A6FD03F0A8FC04462CB121460BA048
:101F3000FEF7EEF9FFF79CFD00F0E7FA10BD000098
:101F40004D5055B3F5CABCBBAFCAA7B0DCA3A1A323
:101F5000A1A3A1A3A1A3A1A3A10D0A004D50555F68
:101F6000444D50B3F5CABCBBAFCAA7B0DC3A6572EA
:101F70006F72722564200D0A0000000000BFFEE7AA
:101F800010B50B48007820B1012807D00A280DD1E0
:101F900009E020210748FFF7B6FF07E020210548A8
:101FA000FFF7B3FF02E000F01FF800BF00BF10BD55
:101FB000AC000020000C014070B5044600250DE087
:101FC000012008490870962002F06EF900200549AA
:101FD0000870962002F068F9681CC5B2A542EFDBD4
:101FE00070BD0000AC00002010B520210748FFF7AD
:101FF0008CFF4FF47A7002F057F920210348FFF765
:1020000082FF4FF47A7002F04FF910BD000C0140CE
:1020100010B500200E4908600E48006820F070409E
:102020000C4908600846006840F0405008600020F5
:102030000949C1F89C0100F011F801200449086029
:1020400000F00CF800200449C1F8980110BD000010
:1020500098812142000C01400080214210B50220ED
:1020600002F0FEF810BD000008B50121082000F0C4
:1020700039FCC020ADF8000010208DF803000320CB
:102080008DF8020069460448FFF7B2FEC0210248FD
:10209000FFF73BFF08BD0000000C014010B5002019
:1020A0000E4908600E48006820F070400C49086036
:1020B0000846006840F04050086001200949C1F816
:1020C0009C01FFF7CBFF012004490860FFF7C6FF22
:1020D00000200449C1F8980110BD000098812142F8
:1020E000000C01400080214270B5054600241648CE
:1020F000006820F07040144908600846006840F00D
:1021000000400860002614E0002010490860FFF736
:10211000A5FF01200E49C1F898016006040E0B4886
:102120007C38006808B1601CC4B2FFF797FF701CD0
:10213000C6B2082EE8DB15B9FFF7B0FF01E0FFF7E4
:1021400067FF204670BD0000000C014098812142CD
:102150000080214270B504461248006820F07040AB
:10216000104908600846006840F0405008600020B0
:102170000D490860002512E0E0090B49091D0860BF
:102180006006040E01200949C1F89801FFF766FFB7
:10219000002005490860FFF761FF681CC5B2082DE3
:1021A000EADB70BD000C0140988121420080214291
:1021B00010B50E48006820F070400C4908600846D1
:1021C000006840F040500860012009490860094952
:1021D000C1F89801FFF742FF002005490860FFF7AA
:1021E0003DFF00200349C1F8980110BD000C0140DB
:1021F0009C8121420080214210B50E48006820F0E9
:1022000070400C4908600846006840F04050086083
:102210000020094908600949C1F89C01FFF71EFF29
:102220000120054908600549C1F89C01FFF716FF28
:1022300010BD0000000C0140988121420080214225
:1022400010B500241448006820F07040124908605E
:102250000846006840F00040086001200F4908600F
:10226000FFF7FCFE01200E49C1F89801FFF7F6FECA
:1022700007E0601CC4B2FA2C03DDFFF7BDFF0120AC
:1022800010BD0648803800680028F2D10349091FB4
:10229000086000BFF4E70000000C01409C8121426F
:1022A0000080214210B5FFF7DFFE80216B2000F097
:1022B000D7F8642001F0B2FF00216B2000F0D0F8C5
:1022C000032000F08BF8002000F080F8642000F07C
:1022D000AAF80021382000F0C3F800216A2000F09D
:1022E000BFF80021232000F0BBF88021372000F048
:1022F000B7F8752000F013F80446682C0BD10121C3
:102300006B2000F0ADF800216C2000F0A9F86420EB
:1023100000F089F801E0012010BD0020FCE770B555
:102320000446FFF745FFD020FFF714FFFFF788FFB3
:102330002046FFF70FFFFFF783FFFFF739FFD1209C
:10234000FFF708FFFFF77CFF0020FFF7CDFE0546F3
:10235000FFF752FF284670BD2DE9F04106460F46B3
:1023600014461D46FFF724FF002141EA4601C8B28A
:10237000FFF7F0FEFFF764FF20B1FFF73DFF0120FC
:10238000BDE8F0813846FFF7E5FEFFF759FFFFF79C
:102390000FFF012101EB4601C8B2FFF7DBFEFFF79B
:1023A0004FFF0DE0012C04D10020FFF79DFE2870A7
:1023B00003E00120FFF798FE2870601EC4B26D1C78
:1023C000002CEFD1FFF718FF0020D9E710B5044625
:1023D000E006010E1C2000F043F810BD10B50446C5
:1023E000E006010E1B2000F03BF810BD70B504465E
:1023F0000025BC2C01DB012510E0622C01DB02254D
:102400000CE02A2C01DB032508E0142C01DB042559
:1024100004E00A2C01DB052500E0062529461A20E8
:1024200000F01EF870BD70B50446B4F57A7F01DD8A
:102430004FF47A74042C00DA04244FF47A7090FB81
:10244000F4F0401EC5B22946192000F009F80546EF
:10245000264604EBD671C1F34F00FFF7C7FF70BDEE
:1024600070B505460C46FFF7A3FED020FFF772FEBD
:10247000FFF7E6FE18B1FFF7BFFE012070BD28464A
:10248000FFF768FEFFF7DCFE2046FFF763FEFFF76D
:10249000D7FE18B1FFF7B0FE0120EFE7FFF7ACFE63
:1024A0000020EBE72DE9F04105460E461746984619
:1024B000FFF77EFE002141EA4501C8B2FFF74AFE60
:1024C000FFF7BEFE20B1FFF797FE0120BDE8F081C7
:1024D0003046FFF73FFEFFF7B3FE00240CE018F88C
:1024E0000400FFF737FEFFF7ABFE18B1FFF784FEDD
:1024F0000120EBE7601CC4B2BC42F0DBFFF77CFEBE
:102500000020E3E700BFFEE770470EB5012104207D
:1025100000F0E8F90121084600F0E4F9002108463E
:10252000FFF746FC012000908DF8060000208DF892
:10253000040008208DF805006846FFF74FFA0620D2
:102540008DF8080001208DF80B0003208DF809009C
:102550008DF80A0002A800F001F80EBD70B5002148
:1025600000230F22C47804B3154C246804F4E064FB
:10257000C4F5E064210AC1F10403CA40447804FAB6
:1025800003F184781440214309010E4C0678A155CB
:10259000047804F01F050124AC4005786D11AD00EE
:1025A00005F1E025C5F8004109E0047804F01F05B5
:1025B0000124AC40044D0678761145F8264070BDE4
:1025C0000CED00E000E400E080E100E0024901439E
:1025D000024A1160704700000000FA050CED00E0AF
:1025E0002DE9F04786B0824643480168504607F01F
:1025F000FAFB424908600846006807F0CBF8002261
:102600003F4BCDE9020106F0EBFD00223D4BCDE949
:10261000040106F021FC06460F463B48006807F01F
:10262000B9F8804632463B4606F05AFB044606F0AF
:1026300025FB3549086035493348006807F0A2FB9F
:1026400003D232483049086008E031492E4800681A
:1026500007F098FA02D22E482B4908602D480168ED
:10266000504607F0C0FB2C4908602A48C0F800A07B
:1026700008460168002007F0B9FA044607F08AF816
:10268000804689462048006807F084F80646234AB9
:10269000234B06F0A5FDCDE900011848006807F0BE
:1026A00079F8064600221F4B06F09AFD0446DDE944
:1026B000002306F015FB42464B46CDE9020106F029
:1026C0000FFBCDE9040106F0D9FA17490860174954
:1026D0001548006807F056FB03D2144806B0BDE861
:1026E000F08713491048006807F04CFA01D21048EF
:1026F000F4E70D480068F1E71801002024010020EC
:102700000000F03F0000444030010020000048423B
:10271000000048C23C010020480100209A99999984
:102720009999A93F0000E03F540100200000F041CA
:102730000000F0C12DE9F04786B0824643480168A9
:10274000504607F050FB424908600846006807F011
:1027500021F800223F4BCDE9020106F041FD0022A5
:102760003D4BCDE9040106F077FB06460F463B489A
:10277000006807F00FF8804632463B4606F0B0FA94
:10278000044606F07BFA354908603549334800684D
:1027900007F0F8FA03D232483049086008E03149BE
:1027A0002E48006807F0EEF902D22E482B49086047
:1027B0002D480168504607F016FB2C4908602A484E
:1027C000C0F800A008460168002007F00FFA044690
:1027D00006F0E0FF804689462048006806F0DAFFF0
:1027E0000646234A234B06F0FBFCCDE900011848BE
:1027F000006806F0CFFF064600221F4B06F0F0FCF3
:102800000446DDE9002306F06BFA42464B46CDE96B
:10281000020106F065FACDE9040106F02FFA174926
:10282000086017491548006807F0ACFA03D214484D
:1028300006B0BDE8F08713491048006807F0A2F918
:1028400001D21048F4E70D480068F1E71C010020B0
:10285000280100200000F03F000044403401002027
:1028600000004842000048C2400100204C01002006
:102870009A9999999999A93F0000E03F5401002045
:102880000000F0410000F0C1034B1860034B1960D9
:10289000034B1A6070470000180100201C01002043
:1028A0002001002029B1064A52690243044B5A61B3
:1028B00004E0034A52698243014B5A6170470000A9
:1028C0000010024029B1064AD2690243044BDA6182
:1028D00004E0034AD2698243014BDA617047000089
:1028E0000010024029B1064A92690243044B9A61E2
:1028F00004E0034A92698243014B9A6170470000E9
:102900000010024030B500210022002400232D4D8C
:102910006D6805F00C0121B1042905D0082923D1E7
:1029200005E0294D056022E0274D05601FE0254D9B
:102930006D6805F47012234D6D6805F4803402252E
:1029400005EB92421CB9214D554305600BE01D4D2E
:102950006D6805F400351DB11C4D5543056002E05E
:10296000194D5543056002E0174D056000BF00BFDB
:10297000144D6D6805F0F0010909154D6B5C056893
:10298000DD4045600F4D6D6805F4E061090A104DAA
:102990006B5C4568DD4085600A4D6D6805F46051EB
:1029A000C90A0B4D6B5C4568DD40C560054D6D681F
:1029B00005F44041890B074D6B5CC568B5FBF3F529
:1029C000056130BD0010024000127A0000093D0090
:1029D000240000203400002010B5002004490870B5
:1029E00002200449087004A0FDF792FC10BD00000D
:1029F00001010020AD000020B4AEBFDACDA8D1B6F1
:102A0000D5FDB3A3A3A1200D0A0000002DE9F041DC
:102A10006648006806F0BEFE0546654A654B06F04E
:102A2000A3FB21D264A0FDF773FC01206749087065
:102A300067490870052409E0214666A0FDF768FC97
:102A40004FF47A7005F048F8601EC4B2002CF3DC35
:102A50004FF4FA706549088000205C4908705C49B1
:102A6000087063A0FDF754FC66495048006807F001
:102A700089F853D86449086802F0FCF96349644A4C
:102A8000128888546049486802F0F4F95F4A604946
:102A90000988491C50545C49886802F0EBF95B4A8C
:102AA0005B490988891C50545749086806F072FE32
:102AB00007460022574B06F093FB054606F024FB21
:102AC0005549534A128841F822004F49486806F098
:102AD00061FE074600224F4B06F082FB054606F0DA
:102AE00013FB4D4A4A490988491C42F821004649CE
:102AF000886806F04FFE07460022464B06F070FB42
:102B0000054606F001FB444A41490988891C42F800
:102B100021003F480088C01C3D4908803F492348A8
:102B2000006807F02FF90ED23D48007858B9C82048
:102B30003C4908800220254908703BA0FDF7E8FBCE
:102B40000120374908703D491848006807F01AF914
:102B500010D23B48007868B940F2A1512E48FFF7E7
:102B6000EBF802201949087036A0FDF7D1FB0120CF
:102B7000334908703A490D48006807F003F80ED24F
:102B80000A48006806F006FE0546364A364B06F04F
:102B9000A7F8074606F072F80449086004E00A2026
:102BA0000A4908700A490870BDE8F0810401002054
:102BB000FCA9F1D24D62503FBDD3CAD5B5BDB7A275
:102BC000C9E4D0C5BAC5A3A1200D0A00AD000020FC
:102BD000AC000020B7A2C9E4B5B9BCC6CAB1202573
:102BE0006420C3EBA3A1200D0A000000E600002032
:102BF000BBF0BCFDD2D1BEADB7A2C9E4A3A1200DEC
:102C00000A00000000004041CC2C0020F82C0020DD
:102C100014010020000059409C3200200000A04018
:102C200016010020E8000020D2D1BEADB4A5B7A2A5
:102C3000BFAAC9A1A3A1200D0A00000000005041B5
:102C4000FF000020B7C9D0D0CAFDBEDDD2D1BEADD5
:102C5000D0B4C8EB464C415348A3A1200D0A000054
:102C6000000088419A9999999999993F10B514490A
:102C70000868FFF7B5FC1349086011494868FFF779
:102C800059FD114908600F480168104806F0AEFF71
:102C90000F4908600B4801680C4806F0A7FF0C4973
:102CA000086008480168094806F0A0FF0849086064
:102CB00004480168054806F099FF0549086010BD01
:102CC000CC2C0020080100200C0100200000404016
:102CD000E82C002010B500200349087040F2A151F3
:102CE0000248FEF767FF10BD0001002000C0000889
:102CF00010B50E48007850B100F042FE002280214D
:102D00000B4800F035FD4FF40050FEF7FFFD0122A7
:102D10008021074800F02CFD0220064908700120A0
:102D20000249087000200449087010BDFE00002010
:102D300000380140AD000020FD00002010B50A4819
:102D40000168012000F012F807484168022000F0F5
:102D50000DF805488168032000F008F80248C168B2
:102D6000042000F003F810BDE82C00202DE9F04FFE
:102D700085B004468946012C06D0022C27D0032CAE
:102D800048D0042C22D168E0484606F003FD00221A
:102D9000454BCDE9000106F05FF80022434BCDE939
:102DA000020105F09DFF82460022414B06F018FA11
:102DB000074600223F4B06F04FF8054606F0A4F9FF
:102DC00080B2014604903C4800F07AFB68E0484637
:102DD00006F0E0FC07460022334B06F03DF80546BE
:102DE0000022324B05F07CFF0022314BCDE900017F
:102DF00006F0F6F900222F4BCDE9020106F02CF87F
:102E0000824606F081F980B2014604902A4800F01B
:102E100059FB45E0484606F0BDFC0022224BCDE9B7
:102E2000000106F019F882460022204B05F058FFF9
:102E3000054600221E4B06F0D3F9074600221D4B23
:102E400006F00AF8CDE9020106F05EF980B201460B
:102E50000490194800F038FB22E0484606F09AFC3E
:102E60000022114BCDE9000105F0F6FF07460022D4
:102E70000E4B05F035FF824600220D4B06F0B0F9EF
:102E8000054600220B4B05F0E7FFCDE9020106F0F5
:102E90003BF980B201460490074800F017FB00BFE1
:102EA00000BF05B0BDE8F08F008056400000F83F3D
:102EB000004CED40000034400004004010B500F02C
:102EC00001F810BD0CB50020019000903348006857
:102ED00040F480303149086000BF3048006800F499
:102EE000003000900198401C0190009818B901989A
:102EF000B0F5A06FF1D12948006800F4003010B19E
:102F00000120009001E0002000900098012843D1AA
:102F10002348006840F01000214908600846006816
:102F200020F0030008600846006840F002000860D6
:102F30001A48406819494860084640684860084691
:102F4000406840F4806048600846406820F47C1087
:102F500048600846406840F4E81048600846006849
:102F600040F08070086000BF0C48006800F00070FE
:102F70000028F9D00948406820F00300074948605C
:102F80000846406840F00200486000BF03484068BF
:102F900000F00C000828F9D10CBD00000010024020
:102FA000002002401CB50648012100238022CDE903
:102FB000001004A1064805F077FB04F029FF1CBDB2
:102FC000EC00002073746172745F7461736B0000B5
:102FD00025760008042808D14FF0E021096941F066
:102FE00004014FF0E022116107E04FF0E021096990
:102FF00021F004014FF0E0221161704710B505F097
:1030000083FB012801D005F005F810BD10B5134869
:10301000006840F001001149086008464068104906
:1030200008400E494860084600680E4908400B49B0
:1030300008600846006820F4802008600846406860
:1030400020F4FE0048604FF41F008860FFF736FF51
:103050004FF000600449086010BD000000100240FD
:103060000000FFF8FFFFF6FE08ED00E010B50121BB
:10307000880700F015F818B10121880700F001F861
:1030800010BDCA430282704721B1028842F001029A
:10309000028004E002884FF6FE731A4002807047F7
:1030A00030B50246002000230024158A05EA0103FA
:1030B000958905EA010413B10CB1012000E000205C
:1030C00030BD000070B5002400220023058C4FF6AF
:1030D000FE7635400584028C8388048B4FF68F750D
:1030E0002C40B51E2C400D882C43751E2A400D899E
:1030F0002A434D882A43144DA8420BD0134DA842B1
:1031000008D0134DA84205D0124DA84202D0124D4E
:10311000A84213D14FF6F7752A404D892A434FF63E
:10312000FB752A408D882A434FF6FF652B404FF6EA
:10313000FF552B408D892B43CD892B4383800483FE
:10314000CD888586028470BD002C0140003401408A
:103150000040014000440140004801400A4600216F
:10316000018B4FF6F773194011430183704700003C
:1031700070B5002400220023058C4FF6EF76354011
:103180000584028C8388048B48F6FF752C404FF62B
:10319000FF452C400D884FF6FF7606EA05252C43A7
:1031A0004FF6DF752A400D8906EA05152A434D883A
:1031B00006EA05152A43154DA84202D0144DA8422F
:1031C0001DD14FF67F752A404D894FF6FF7606EAEE
:1031D00005152A434FF6BF752A408D8806EA051566
:1031E0002A434FF6FF352B404FF2FF752B408D8958
:1031F00006EA85052B43CD8906EA85052B438380A6
:103200000483CD880587028470BD0000002C014036
:10321000003401400A460021018B4FF2FF73194030
:103220004FF6FF7303EA022319430183704700003E
:1032300070B5002400220023058C4FF6FF66354050
:103240000584028C8388848B4FF68F752C404FF653
:10325000FC752C400D882C434FF6FF552A400D89F4
:103260004FF6FF7606EA05252A434D8806EA05252E
:103270002A43154DA84202D0144DA8421DD14FF249
:10328000FF752A404D894FF6FF7606EA05252A4349
:103290004FF6FF352A408D8806EA05252A434EF66B
:1032A000FF752B404DF6FF752B408D8906EA0515FD
:1032B0002B43CD8906EA05152B4383808483CD8873
:1032C0008587028470BD0000002C0140003401405D
:1032D0000A460021818B4FF6F77319401143818311
:1032E0007047000070B5002200230024058C4EF6C4
:1032F000FF7635400584038C8488828B48F6FF7501
:103300002A404FF6FF452A400D884FF6FF7606EA21
:1033100005252A434DF6FF752B400D8906EA053534
:103320002B434D8806EA05352B430B4DA84202D0AE
:103330000A4DA84208D14BF6FF752C408D894FF6F7
:10334000FF7606EA85152C4384808283CD88A0F819
:103350004050038470BD0000002C01400034014047
:103360000A460021818B4FF2FF7319404FF6FF731D
:1033700003EA0223194381837047000000B589B036
:1033800001210220FFF79EFA01210420FFF7AAFA8B
:1033900001210820FFF7A6FA4020ADF820001820F0
:1033A0008DF8230003208DF8220008A94148FEF77C
:1033B0001FFD8020ADF8200018208DF82300032089
:1033C0008DF8220008A93B48FEF712FD0120ADF858
:1033D000200018208DF8230003208DF8220008A972
:1033E0003548FEF705FD0220ADF8200018208DF8C5
:1033F000230003208DF8220008A92F48FEF7F8FCCF
:103400004EF65F20ADF808001720ADF8040000204C
:10341000ADF80600ADF80A0001A9284800F05AF8F6
:103420006020ADF810000020ADF818000120ADF8C4
:10343000120004A92148FFF745FE6020ADF81000F6
:103440000020ADF818000120ADF8120004A91B48B7
:10345000FFF78EFE6020ADF810000020ADF81800D8
:103460000120ADF8120004A91448FFF7E1FE602026
:10347000ADF810000020ADF818000120ADF81200E2
:1034800004A90E48FFF72EFF08210C48FFF766FE3F
:1034900008210A48FFF7BEFE08210848FFF718FF79
:1034A00008210648FFF75CFF01210448FFF7ECFD07
:1034B00009B000BD00080140000C014000040040BC
:1034C000818670470187704781877047A0F8401058
:1034D00070470000002202881D4B98420ED01D4B01
:1034E00098420BD0B0F1804F08D01B4B984205D0CA
:1034F0001A4B984202D01A4B984204D14FF68F7360
:103500001A404B881A43174B984207D0164B9842E3
:1035100004D04FF6FF431A40CB881A4302808B88B1
:1035200083850B8803850A4B98420BD0094B984240
:1035300008D00E4B984205D00D4B984202D00D4B4F
:10354000984201D10B7A03860123838270470000E1
:10355000002C0140003401400004004000080040FD
:10356000000C0040001000400014004000400140EA
:10357000004401400048014010B540F22551114877
:1035800000F00CF9E0B10F4800F0C4F9C4B2662CA9
:1035900002D101200C490870642C02D101200B4992
:1035A0000870442C02D1012009490870632C02D113
:1035B00001200849087040F22551024800F07CF8CB
:1035C00010BD000000380140FC000020FD0000207C
:1035D000000100200101002010B586B00446012141
:1035E00044F20400FFF77EF94FF40070ADF81400C8
:1035F00003208DF8160018208DF8170005A91D4826
:10360000FEF7F6FB4FF48060ADF8140004208DF84F
:10361000170005A91748FEF7EBFB25208DF80000E1
:1036200004208DF8010000208DF8020001208DF8A3
:1036300003006846FEF792FF01940020ADF80800F1
:10364000ADF80A00ADF80C00ADF810000C20ADF894
:103650000E0001A9084800F0F1F8012240F22551BE
:10366000054800F0C5F80121034800F034F806B021
:1036700010BD000000080140003801407047000004
:1036800010B540F225510A4800F088F870B108489A
:1036900000F040F9C4B2532C03D101200549088041
:1036A00004E04B2C02D102200249088010BD00002A
:1036B000004800400C00002010B50022002340F616
:1036C0006A14A14200D100BF0A1201249440A3B29F
:1036D000DC43048010BD21B1828942F40052828112
:1036E00004E082894DF6FF731A4082817047000022
:1036F00000B585B001210420FFF7F4F8012188030B
:10370000FFF7F0F84FF40070ADF8100018208DF8B6
:10371000130003208DF8120004A91348FEF768FB7C
:103720004FF48060ADF8100004208DF8130004A958
:103730000D48FEF75DFB4FF4165000900020ADF8E9
:103740000400ADF80600ADF80800ADF80C000C2040
:10375000ADF80A006946054800F070F801210348F9
:10376000FFF7B9FF05B000BD000801400038014077
:103770001AB1838A0B43838202E0838A8B4383825C
:10378000704702460020B1F5007F00D100BF1388CA
:103790000B400BB1012000E00020704770B50246DD
:1037A000002400230025002040F66A16B14200D113
:1037B00000BFC1F3421501F01F03012606FA03F30F
:1037C000012D02D19689334006E0022D02D1168ADE
:1037D000334001E0968A33400C12012606FA04F4C5
:1037E0001688344013B10CB1012000E0002070BDF8
:1037F000F0B50346002400260025002040F66A1795
:10380000B94200D100BF1846C1F3421401F01F06AF
:10381000012707FA06F5012C01D10C3004E0022C37
:1038200001D1103000E014301AB107682F4307604F
:1038300002E00768AF430760F0BD00002DE9F047E4
:1038400086B005460E460024A24600BFA1460027CA
:10385000B08900B100BF2F462C8A4CF6FF7004409F
:10386000F08804432C82AC894EF6F3100440B088F3
:1038700031890843718908430443AC81AC8A4FF60F
:10388000FF400440B0890443AC8201A8FFF73AF836
:103890001F48874202D1DDF810A001E0DDF80CA03E
:1038A000A88900F4004040B10AEBCA0000EB0A10FE
:1038B00031684900B0FBF1F807E00AEBCA0000EB01
:1038C0000A1031688900B0FBF1F86420B8FBF0F011
:1038D00004012009642101FB1089A88900F400403B
:1038E00040B1322000EBC900B0FBF1F000F007005E
:1038F000044308E0322000EB09106421B0FBF1F032
:1039000000F00F0004432C8106B0BDE8F0870000F2
:103910000038014001468888C0F308007047C1F3B1
:10392000080282807047000000B58BB00121084674
:10393000FEF7B8FF0F4800900F480190102002904A
:1039400040F2A150039000200490802005900020B8
:103950000690079008904FF48050099000200A903C
:1039600069460648FDF7ECFF01210448FDF7DCFF3E
:103970000BB000BD04380140F82C00204400024088
:1039800010B500210248FDF7CFFFFFF7CDFF10BDB6
:103990004400024000BFFEE7490050EAC12018BFC2
:1039A00004204A0D18BF40F0010040F2FF72B2EB54
:1039B000515F08BF40F00200012808BF0520704792
:1039C0002DE9F0414F1E00EBC7010446D1E900018B
:1039D00015461E4637F006020DD02A46334605F03E
:1039E000FFFB7F1E04EBC703D3E9002305F078F942
:1039F00037F00602F1D1022F25D0042F13D0062F65
:103A000018BFBDE8F0812A46334605F0E9FBD4E94A
:103A10000A2305F065F92A46334605F0E1FBD4E9AF
:103A2000082305F05DF92A46334605F0D9FBD4E9B1
:103A3000062305F055F92A46334605F0D1FBD4E9B3
:103A4000042305F04DF92A46334605F0C9FBD4E9B5
:103A5000022305F045F92A46334605F0C1FBD4E9B7
:103A60000023BDE8F04105F03BB9012206F06FBA32
:103A700005F036B9002213461046114605F0ECB9A0
:103A8000024A0020110706F062BA000001FDFFFFA4
:103A900030380A2801D201207047002070470146C3
:103AA00000BF70472DE9FE4F06460F4600256846C9
:103AB00001F00AFA002442E056F8240057F82410D6
:103AC000A0EB010ABAF1000F01DB514601E0CAF197
:103AD0000001084606F02AF883464FF08F4105F0B2
:103AE000F3FE80465DF82400002105F0AFFF16D0FC
:103AF0005DF82410404605F0E7FE82464FF07E5107
:103B000006F07CF9814629F0004A0F48416A504688
:103B100006F038F912D20120A04005430EE00A4811
:103B2000C169404606F02EF805D30748016A4046B1
:103B300006F028F902D20120A0400543641C032CA2
:103B4000BADB2846BDE8FE8F04A000082DE9F04D41
:103B50008D4F21F0004A86B005460C46BA452ADB57
:103B6000AAEB070028430AD08848824501DC1AD115
:103B7000CDB106B02846BDE8F04DFFF776BF844AC8
:103B8000844B284605F02CFB07460E46824A834BA1
:103B90002846214605F024FB06B03A463346BDE8E8
:103BA000F04D05F09DB80120FCF7E1FD06B0BDE841
:103BB000F04DFFF75FBF7A48824542DABAF1795F8C
:103BC0000BDA2846FFF7E8FE042808BFFFF758FF86
:103BD000284606B02146BDE8F08D2A460B46104621
:103BE00005F0FEFA834602466E480E460B46062155
:103BF0007844FFF7E5FE5A46334605F0F1FA804671
:103C000069488A465A46334604217844FFF7D8FE6D
:103C10005A46334605F0E4FA00223B4605F060F8C8
:103C200002460B464046514605F016F92A46234601
:103C300005F0D6FA06B02A462346BDE8F04D05F059
:103C40004FB8284624F0004100223D463B4605F08F
:103C5000C5FB4FF0FF3206F07AF90646024653489C
:103C60000F460B4606217844FFF7AAFE32463B4634
:103C700005F0B6FACDE900014D4832463B46042135
:103C80007844FFF79DFE32463B4605F0A9FA002234
:103C90002B4605F025F8834602913046394603F05D
:103CA0009BFC804643480D46504517DCDDE900018A
:103CB0005A46029B05F0D0F842462B4605F090FA92
:103CC00042462B4605F00CF8012206F040F9304A36
:103CD000304B05F075FC304A304B4CE04FF0000A99
:103CE00052460B46404604F0FBFFCDE90310524616
:103CF0002B461046194605F073FA32463B4605F04E
:103D00006DFBDDE9033205F0A7F806460F46DDE955
:103D100000015A46029B05F09FF88346009101225C
:103D20003046394606F013F9194A1A4B05F056FB8E
:103D300006460F4601224046294606F008F95A4633
:103D4000009B05F04DFA32463B4605F039FC06462D
:103D50000F4601225046294606F0F9F80E4DDFF8CD
:103D600058802A46434605F039FB32463B4605F06B
:103D700035FB2A46434605F031FB002CD8BF81F0C5
:103D8000004106B0BDE8F08D0000F03F0000F07F7C
:103D9000075C143326A6913C182D4454FB21F93FAF
:103DA0000000E03F447000005A700000CE6F000039
:103DB000E46F00003333EF3FFB21E93F2DE9F84F7B
:103DC00004460D4621F0004000917349814211DC08
:103DD0007249884201DC06D12CB120462946BDE853
:103DE000F84FFFF742BE6E48002DCCBF6D496E49BB
:103DF000BDE8F88F6D49814211DD6D498142D8BF20
:103E00004FF0FF366DDD20462946FFF7C5FD04283B
:103E100008BFFFF735FE20462946BDE8F88F654903
:103E2000654F25F00045814233DD6449814219DD4B
:103E3000002632464FF080432046294604F050FFCA
:103E400080468A4601222046294606F080F8002254
:103E50003B4605F0B5FB4246534604F0FDFF0446E1
:103E60000D463EE001260022BA463B462046294642
:103E700004F036FF80460F4600225346204629466E
:103E800005F09EFB42463B4604F0E6FF04460D4625
:103E900027E04B4981421BDDDFF828A102260022E2
:103EA00053462046294605F09BF900223B4604F084
:103EB00017FF80460F46002253462046294605F04C
:103EC0007FFB42463B4604F0C7FF04460D4608E030
:103ED000032622462B4600203B4904F0BDFF044642
:103EE0000D4622462B461046194605F079F98B46B9
:103EF000824602460B4605F073F9074602463348F0
:103F000088460B4606217844FFF75AFD52465B4629
:103F100005F066F982462E488B463A46434605210F
:103F20007844FFF74DFD3A46434605F059F90246FD
:103F30000B46002E504659460CDA04F0D1FE2246BC
:103F40002B4605F04DF901B022462B46BDE8F04F57
:103F500005F044BA04F0C4FE22462B4605F040F9B1
:103F60001C4A7A4402EBC603D3E9002305F028FB80
:103F700022462B4605F024FB174A7A4402EBC6037F
:103F8000D3E9002305F02AFA009A002AB8BF81F08D
:103F90000041BDE8F88F0000000010440000F07FF1
:103FA000182D4454FB21F93FFB21F9BF0000DC3FF1
:103FB0000000203E0000F33F0000F03F0000E63F1D
:103FC000008003400000F83F0000F0BFE66D0000F5
:103FD000A46D0000426D00000A6D00002DE9F04D57
:103FE0009446CCF1000423F000464CEA0404524FFE
:103FF00046EAD4749A46884621F00042BC4206D86C
:10400000454240EA050442EAD474BC4204D9BDE802
:10401000F04D6246FFF72CBDAAF14055A5F17F6532
:1040200055EA0C040BD0022404EAAA74434DDFF8CD
:1040300010E144EAD87452EA000B04D00CE0BDE869
:10404000F04DFFF7BBBE002C14BF012CBDE8F08D76
:10405000022C30D0032C32D056EA0C0B0AD0BE42D0
:1040600020D1BA4209D126F0804622F08042334660
:10407000114617E000291ADB25E0DFF8C8B0FB4441
:10408000002C04BFDBE90001BDE8F08D012C02BF6C
:10409000DBE9000181F00041BDE8F08D022C0AD07F
:1040A000032C0CD0BA4212D1B8F1000F0BDA23481E
:1040B0002549BDE8F08D28462449BDE8F08D284605
:1040C0007146BDE8F08D1D482149BDE8F08D921B79
:1040D00012153C2AC4BF19481D490EDCBAF1000F65
:1040E000BEBF12F13C0F0020014606DB624604F021
:1040F000B3FE21F00041FFF761FE002C08BFBDE8D0
:10410000F08D012C04BF81F00041BDE8F08D114A13
:10411000114B022C07D005F053FA2A46BDE8F04DAA
:104120000A4B05F04DBA05F04BFA2A46BDE8F04DB2
:10413000064B05F053B900000000F07F182D4454E1
:10414000FB2109C09E6C0000FB21F9BFFB21094047
:10415000FB21F93F075C143326A6A13C2DE9F04171
:104160000446E07800F0C006E07800F03F05607893
:1041700000F0010098B1EF102846E91705EB5171E6
:10418000C910A5EBC101491C01F0FF080B480068EC
:1041900020B10A48414602683846904700BF60781F
:1041A00000F0080030B10548406818B1B011034A6A
:1041B000516888470020BDE8F0810000A42C002051
:1041C00010B50420FEF706FF104800681049B0FB48
:1041D000F1F0104908700D4800680D49B0FBF1F48A
:1041E0004FF47A70444301200B4908804FF0E020DF
:1041F000006940F002004FF0E02108610846446188
:10420000006940F00100086110BD000010000020AE
:1042100040420F00000000200200002070B504465C
:1042200004F072FA012811D00C480088844206DBA1
:104230000A48008894FBF0F5284603F04DFC074837
:10424000008894FBF0F100FB114084B24FF47A71C6
:1042500004FB01F000F004F870BD00000200002033
:1042600070B5034600224FF0E02675690D4E367892
:1042700003FB06F44FF0E026B16910E04FF0E026B2
:10428000B06988420BD0884202D20E1A324402E052
:104290002E1A0E4432440146A24200D300E0EDE75C
:1042A00000BF70BD0000002030B50446002504E0CA
:1042B0004FF47A70FFF7D4FF6D1CA542F8D330BDE0
:1042C00038B5044664B120208DF8000028208DF810
:1042D000010030208DF8020038208DF8030004E042
:1042E000A32204216846FCF7BAF96A46042140F685
:1042F0009E2002F063FA01F04DFE38BD3EB5044643
:1043000002208DF80000CA208DF80100E3208DF80E
:10431000020009208DF803006A460421682002F09B
:104320004DFAA3208DF8000004F0400048B1C020F1
:104330008DF80100C8208DF80200C2208DF803001E
:1043400006E0A3208DF801008DF802008DF803002F
:1043500004F4C07048B1C4208DF80400CC208DF85E
:104360000500C6208DF8060006E0A3208DF80400A5
:104370008DF805008DF80600A3208DF807008DF854
:1043800008008DF809006A460A2140F6A72002F0CD
:1043900015FA04F0030018B120208DF8000002E0A7
:1043A000D8208DF800006A46012140F6B62002F0C0
:1043B00005FA04F0200018B1012000F0ADF802E089
:1043C000002000F0A9F804F4C07008B304F4807071
:1043D00060B1B2208DF800008B208DF80100B6206E
:1043E0008DF802009B208DF803000BE0B0208DF8C3
:1043F000000080208DF80100B4208DF8020090208C
:104400008DF803006A46042140F6A22002F0D6F996
:1044100004F0010020B3F8208DF800006A46012165
:104420004FF40B6002F0CAF9FA21072000F02CFCCF
:10443000072000F0F3FB012000F013FC642000F0E3
:10444000F3FC4FF4FA7000F002FDC821304800F090
:10445000A3FB282000F0BCFB0A2000F0CCFB08E006
:10446000D8208DF800006A4601214FF40B6002F05D
:10447000A5F904F0020018B1D9208DF8000002E07F
:10448000D8208DF800006A46012140F23D7002F00C
:1044900095F904F0040018B1012000F069F802E079
:1044A000002000F065F804F0100018B10120FFF7BB
:1044B00007FF02E00020FFF703FF44F00800154962
:1044C000488101F067FD00201249887304F0400024
:1044D00018B10846807B801D887304F4C07020B139
:1044E0000C48807B801D0B49887304F0140020B1B8
:1044F0000848807B10300749887304F0030020B11E
:104500000448807B001D0349887300203EBD0000E5
:1045100009E3CA02A42C00203EB504466CB10EA1EA
:10452000D1E900208968CDE9002002916A4609217D
:104530004FF4976002F042F93EBD0AA2D2E90010A2
:104540009268CDE9010200916A4609214FF4976013
:1045500002F034F9F0E70000B8AAB38DB4980D3535
:104560005D000000B8AAAAAAB088C3C5C7000000B1
:1045700038B5044664B1C0208DF80000C2208DF823
:104580000100C4208DF80200C6208DF8030004E06D
:104590008B2204216846FCF762F86A46042140F643
:1045A000982002F00BF901F0F5FC38BD10B5C823D6
:1045B0004FF48062024940F6F63001F07FFB10BDF7
:1045C0002CA000082DE9F04F8DB00746884615460F
:1045D0009946DDE9166B0024002030806B49887B0A
:1045E0005A4605A901F036FC18B1601E0DB0BDE8B1
:1045F000F08F6648807A00F01400002867D09DF89C
:10460000140000069DF8151040EA01409DF81610B0
:1046100040EA01209DF81710084328609DF8180013
:1046200000069DF8191040EA01409DF81A1040EA72
:1046300001209DF81B10084368609DF81C000006CF
:104640009DF81D1040EA01409DF81E1040EA01202F
:104650009DF81F100843A8609DF8200000069DF8F3
:10466000211040EA01409DF8221040EA01209DF807
:1046700023100843E86004F11000C4B22868001455
:104680000190686800140290A86800140390E8681C
:104690000014049001984043029901FB0100039922
:1046A00001FB0100049901FB010ABAF1706F02DB02
:1046B000BAF1885F05DD01F06DFC00203080401EFE
:1046C00094E7B6F9000040F48070308000BF2F48B6
:1046D000807A00F0400020B305A9601C085C095DE9
:1046E00040EA012000B2A8F8000005A9E01C095C1E
:1046F00005AAA01C105C41EA002000B2A8F8020044
:1047000005A9601D095C201D105C41EA002000B273
:10471000A8F80400A01DC4B2B6F9000040F00800DB
:1047200030801A48408900F4C07008B305A9601CA5
:10473000085C095D40EA012000B2388005A9E01C50
:10474000095C05AAA01C105C41EA002000B2788038
:1047500005A9601D095C201D105C41EA002000B223
:10476000B880A01DC4B2B6F9000040F070003080DF
:104770000648807A00F0030018B105A90819FFF770
:10478000EDFC484600F024FF00202FE7A42C002079
:1047900070B588B0064601A801F0E4F8BDF8040041
:1047A0000021C90341EA5045C4034448007A00F09F
:1047B000030056F8200005904048007A00F00400FD
:1047C00010B10598404205903C48007AC0F3C10002
:1047D00056F8200006903948007A00F0200010B109
:1047E0000698404206903548007AC0F3811056F88A
:1047F000200007903148008900F4807010B10798BC
:10480000404207900598C117A0FB042301FB043127
:1048100000FB0510810041EA927005900698C117CF
:10482000A0FB042301FB043100FB0510810041EAD9
:10483000927006900798C117A0FB042301FB043176
:1048400000FB0510810041EA927007900598000E68
:104850008DF808000598000C8DF809000598000AED
:104860008DF80A000598C0B28DF80B000698000E6E
:104870008DF80C000698000C8DF80D000698000AC3
:104880008DF80E000698C0B28DF80F000798000E44
:104890008DF810000798000C8DF811000798000A99
:1048A0008DF812000798C0B28DF8130002AA0C21EF
:1048B0004FF4257001F082FF08B070BDA42C0020D9
:1048C00030B585B0044616A207CA02AB07C3C82C90
:1048D00003DD4FF0FF3005B030BDC82090FBF4F091
:1048E000401E85B2280A8DF80000E8B28DF801005C
:1048F0006A46022140F2162001F060FF10B14FF02D
:10490000FF30E8E702AA0C2140F6C12001F056FF73
:1049100010B14FF0FF30DEE7044884810020DAE771
:10492000FEF2ABC4AAF1DFDFBBAFDFDFA42C0020B7
:104930001FB504464848007A00F0030054F82000F0
:1049400001904548007A00F0040010B101984042FF
:1049500001904148007AC0F3C10054F82000029051
:104960003D48007A00F0200010B1029840420290C9
:104970003948007AC0F3811054F82000039036487B
:10498000008900F4807010B10398404203903349CD
:10499000019880FB0101800F40EA810001902F49BE
:1049A000029880FB0110820042EA917002902B492C
:1049B000039880FB0110820042EA917003900198F5
:1049C000000E8DF800000198000C8DF80100019890
:1049D000000A8DF802000198C0B28DF803006A4603
:1049E00004214FF4747001F0E9FE18B14FF0FF306C
:1049F00004B010BD0298000E8DF800000298000C63
:104A00008DF801000298000A8DF802000298C0B2E9
:104A10008DF803006A4604214FF4757001F0CEFE54
:104A200010B14FF0FF30E3E70398000E8DF800005F
:104A30000398000C8DF801000398000A8DF802001D
:104A40000398C0B28DF803006A4604214FF47670D3
:104A500001F0B4FECCE70000A42C002009E3CA0258
:104A600010B586B0044647A00068039046A00068D1
:104A7000029046A00068019045A00068009004F0F4
:104A8000030003A9085C8DF8140003A8C4F3C10156
:104A9000405C8DF8150003A8C4F38111405C8DF8CB
:104AA000160004F0030002A9085C8DF8100002A8AB
:104AB000C4F3C101405C8DF8110002A8C4F3811158
:104AC000405C8DF8120005AA032140F2264001F057
:104AD00075FE18B14FF0FF3006B010BD04AA0321D7
:104AE00040F22A4001F06AFE10B14FF0FF30F3E7C8
:104AF000019805900098049004F0040058B19DF8C6
:104B0000140040F001008DF814009DF8100040F0F2
:104B100001008DF8100004F0200058B19DF8150038
:104B200040F001008DF815009DF8110040F00100E3
:104B30008DF8110004F4807058B19DF8160040F013
:104B400001008DF816009DF8120040F001008DF86C
:104B5000120005AA03214FF4886001F02FFE10B166
:104B60004FF0FF30B8E704AA032140F2314001F0D2
:104B700025FE10B14FF0FF30AEE70648048100205B
:104B8000AAE700004CCD6C000CC92C00365676000C
:104B900026466600A42C0020F8B505460E464FF4C4
:104BA0007A7095FBF0F000FB06F4200E8DF8000003
:104BB000200C8DF80100200A8DF80200E0B28DF87B
:104BC00003006A4604214FF4AE7001F0F7FDF8BD12
:104BD00038B50446052094FBF0F084B220128DF81D
:104BE0000000E0B28DF801006A4602214FF4AD707A
:104BF00001F0E4FD38BD38B50446052094FBF0F023
:104C000084B220128DF80000E0B28DF801006A46EF
:104C100002214FF4AC7001F0D1FD38BD38B5044627
:104C20000020009004F0010020B19DF8000040F049
:104C30003000009004F0020020B19DF8000040F028
:104C40000C00009004F0040020B19DF8000040F03A
:104C5000030000906A4601214FF4A47001F0AEFDFC
:104C600038BD38B50446012C01DA012402E0042CD9
:104C700000DD0424601EC0B200906A46012140F2AB
:104C80004F1001F09BFD38BD2DE9FC4706460F464D
:104C900006F0070010B1B7F5C86F03DD4FF0FF3025
:104CA000BDE8FC87384604F059FF8146594904F0B5
:104CB0000BFE8046684600F02FFE9DF8000002289B
:104CC00006D0042816D0082826D0102848D135E070
:104CD0004FF08D41404604F089FF814604F006FF05
:104CE00084B24D49404604F081FF814604F0FEFE47
:104CF00085B238E04FF08C41404604F077FF8146A2
:104D000004F0F4FE84B24549404604F06FFF81464A
:104D100004F0ECFE85B226E04FF08B41404604F0F3
:104D200065FF814604F0E2FE84B23D49404604F04E
:104D30005DFF814604F0DAFE85B214E04FF08A414F
:104D4000404604F053FF814604F0D0FE84B235495A
:104D5000404604F04BFF814604F0C8FE85B202E0F5
:104D60004FF0FF309CE700BF20128DF80400E0B246
:104D70008DF8050028128DF80600E8B28DF80700BE
:104D800006F00100A0B101AA02214FF4EA7001F07F
:104D900015FD10B14FF0FF3082E70DF10602022140
:104DA0004FF4927001F00AFD10B14FF0FF3077E739
:104DB00006F00200A0B101AA02214FF4EC7001F04C
:104DC000FDFC10B14FF0FF306AE70DF10602022141
:104DD0004FF4947001F0F2FC10B14FF0FF305FE738
:104DE00006F00400A0B101AA02214FF4EE7001F018
:104DF000E5FC10B14FF0FF3052E70DF10602022141
:104E00004FF4967001F0DAFC10B14FF0FF3047E735
:104E1000002045E700004843000040460000C04530
:104E2000000040450000C04438B50446052094FB0E
:104E3000F0F085B228128DF80000E8B28DF801007C
:104E40006A4602214FF4EF7001F0B8FC38BD38B566
:104E50000446052094FBF0F085B228128DF800007E
:104E6000E8B28DF801006A4602214FF4ED7001F0BE
:104E7000A5FC38BD10B504464FF08641204604F02D
:104E800081FF01D8FF2010BD4FF04341204604F0C0
:104E900079FE01D80020F6E7204604F00BFE8030B2
:104EA000C0B2F0E770B504460D46E1B20548FEF722
:104EB00036FD00BF80210348FEF763FC0028F9D0CF
:104EC000204670BD003801407CB505462849496838
:104ED000087801AB04220D21FDF73EFA08B1072046
:104EE0007CBD9DF80700C0F301109DF8041001F08F
:104EF000E00140EAE1008DF800009DF80700C0F3F2
:104F000081009DF8051001F0E00140EAE1008DF814
:104F100001009DF8070000F003009DF8061001F065
:104F2000E00140EAE1008DF8020000241CE01DF8D9
:104F3000040018B9002045F8240013E00D4845F896
:104F4000240006E055F824000B4904F04FFE45F814
:104F500024001DF80400401EC0B20DF80400002813
:104F6000F0D100BF601CC4B2032CE0DB0020B7E727
:104F7000B00000207B14AE3E1D5A843F2DE9F04F57
:104F800087B005460C46914601208DF810000020A0
:104F90008DF81100FE4A1268917CFD4A5268107823
:104FA00004AB0222FDF77EFA20B14FF0FF3007B0CC
:104FB000BDE8F08FC820FFF731F900208DF8100010
:104FC000F34A1268D17BF24A5268107804AB01228E
:104FD000FDF768FA10B14FF0FF30E8E7EC4A1268CD
:104FE0005179EB4A5268107804AB0122FDF75AFA66
:104FF00010B14FF0FF30DAE7E54A1268917CE44ADD
:105000005268107804AB0122FDF74CFA10B14FF052
:10501000FF30CCE7DE4A1268D17DDD4A5268107855
:1050200004AB0122FDF73EFA10B14FF0FF30BEE7AE
:10503000D74A12681179D64A5268107804AB012217
:10504000FDF730FA10B14FF0FF30B0E70C208DF8CB
:105050001000CF4A12681179CD4A5268107804AB1B
:105060000122FDF71FFA10B14FF0FF309FE70F202C
:10507000FFF7D4F8C648806A407A8DF81000C44A19
:1050800012689178C24A5268107804AB0122FDF789
:1050900009FA10B14FF0FF3089E7BD48806A007A05
:1050A0008DF81000BA4A12685178B94A52681078DF
:1050B00004AB0122FDF7F6F910B14FF0FF3076E7AF
:1050C000B9F1000F07D0B248806A807A40F0E00062
:1050D0008DF8100004E0AE48806A807A8DF81000E8
:1050E000AB4A12689179AA4A5268107804AB01223F
:1050F000FDF7D8F910B14FF0FF3058E7B9F1000FC4
:1051000007D0A348806AC07A40F0E0008DF8100014
:1051100003E0A048C07A8DF810009D4A1268D1794A
:105120009B4A5268107804AB0122FDF7BBF910B11D
:105130004FF0FF303BE7B9F1000F02D0C820FFF776
:105140006DF840208DF81000914A12681179904A4C
:105150005268107804AB0122FDF7A4F910B14FF0AA
:10516000FF3024E778208DF81000894A12685179C1
:10517000874A5268107804AB0122FDF793F910B109
:105180004FF0FF3013E783498889FFF747F8002085
:105190008DF810007E4A126851797D4A5268107865
:1051A00004AB0122FDF77EF910B14FF0FF30FEE6AF
:1051B000774A1268917A764A5268107804AB0222D4
:1051C000FDF7CAF810B14FF0FF30F0E69DF811007E
:1051D0009DF8101040EA012B0C209BFBF0F0C6B2AA
:1051E0000020A86068602860A0606060206082463F
:1051F00065E0674A1268D17A654A5268107804AB54
:105200000C22FDF7A9F810B14FF0FF30CFE69DF862
:1052100011009DF8101040EA012000B2ADF808001E
:105220009DF813009DF8121040EA012000B2ADF87D
:105230000A009DF815009DF8141040EA012000B204
:10524000ADF80C00BDF90810206808442060BDF9D5
:105250000A10606808446060BDF90C10A06808443A
:10526000A0609DF817009DF8161040EA012000B2DA
:10527000ADF800009DF819009DF8181040EA0120D3
:1052800000B2ADF802009DF81B009DF81A1040EA2C
:10529000012000B2ADF80400BDF9001028680844F0
:1052A0002860BDF90210686808446860BDF9041000
:1052B000A8680844A8600AF1010000F0FF0AB2459E
:1052C00097DB3448D0F800C02868C117090441EAC8
:1052D00010410704624600233846FAF7F4FF3246CD
:1052E0000023CDE90201FAF7EEFF28602948D0F843
:1052F00000C06868C117090441EA1041070462460A
:1053000000233846FAF7DFFF32460023CDE90201D9
:10531000FAF7D9FF68601F48D0F800C0A868C11725
:10532000090441EA10410704624600233846FAF7AF
:10533000CAFF32460023CDE90201FAF7C4FFA86094
:105340001448D0F804C02168C817000440EA114886
:105350000F046246002338464146FAF7B4FF32464E
:105360000023CDE90201FAF7AEFF20600948D0F82A
:1053700004C06068C117090441EA1041070462468D
:1053800000233846FAF79FFF3246002304E000006E
:10539000B000002004A00008CDE90201FAF793FF55
:1053A00060601148D0F804C0A068C117090441EA40
:1053B00010410704624600233846FAF784FF32465C
:1053C0000023CDE90201FAF77EFFA060A068002863
:1053D00004DDA068A0F58030A06003E0A06800F5BF
:1053E0008030A0600020E2E504A000082DE9FC5F09
:1053F00006460F4600253D494968087801AB03225F
:105400000D21FCF7A9FF10B10720BDE8FC9F9DF816
:10541000040000F01F008DF804009DF8050000F066
:105420001F008DF805009DF8060000F01F008DF8A4
:105430000600002456E056F8240057F82410A0EB8C
:10544000010BBBF1000F01DB594601E0CBF100017C
:10545000084604F06BFB4FF08F41009004F034FAE3
:10546000814601A8005D68B32149086804F076FB15
:10547000834659461F4804F027FA804604E01E4937
:10548000404604F0B3FB804601A8005D401EC0B258
:1054900001A908550028F2D14146484604F014FA03
:1054A00083464FF07E5104F0A9FC82462AF0004B5F
:1054B0000F488169584604F065FC12D20120A040D3
:1054C00005430EE00A480169484604F05BFB05D33A
:1054D00007484169484604F055FC02D20120A0402B
:1054E0000543641C032CA6DB28468EE7B000002091
:1054F00004A0000800B04C4554E3853F10B50446B5
:10550000204600F00FF80346E01C00F00BF843EAD9
:10551000C00083B2A01D00F005F843EA801083B2FA
:10552000184610BD014691F90020002A01DD002037
:105530001EE091F90020002A01DA042018E091F918
:105540000120002A01DD012012E091F90120002A4A
:1055500001DA05200CE091F90220002A01DD022089
:1055600006E091F90220002A01DA062000E0072077
:105570007047000010B5FDF749FDFEF721FE4FF41E
:105580004070FDF723F84FF4FA70FEF78DFEFEF73A
:10559000AFF84FF41650FEF71FF8FDF7EFFE0022AC
:1055A00011461046FDF770F9FCF73AF9FCF7A8FB35
:1055B000032006490870FEF7B7F94FF4FA70FEF7BA
:1055C00073FEFDF7EFFC002010BD0000AD000020D1
:1055D0007047000070B50446002624F00104184806
:1055E00090F8240008B1002070BD1548807A10B9E9
:1055F0004FF0FF30F8E71248057C807A20401049D0
:1056000008740846007CA04202D04FF0FF3600E04C
:10561000002614B90A48007D18B1012001F094FF5A
:1056200002E0002001F090FF3CB100F0B3FC20B19B
:10563000034805744FF0FF30D6E73046D4E700004A
:10564000B00000202DE9F04F9BB081468A4693467A
:105650001C464FF07E55002600274FF0000814A886
:1056600015A91AAB10AACDE9001016A918A8FEF7C3
:10567000A9FF18B101201BB0BDE8F08FBDF85400A0
:1056800000F4807000287DD0109804F04FFA4FF09D
:105690009D410F9004F018F90546119804F046FA60
:1056A0004FF09D410F9004F00FF90646129804F058
:1056B0003DFA4FF09D410F9004F006F9074613980C
:1056C00004F034FA4FF09D410F9004F0FDF880464D
:1056D00029464FF0804004F089FA3946069004F0DC
:1056E00085FA314608904FF0404004F07FFA414679
:1056F000069004F07BFA0790089904F077F8099077
:1057000004F048F8CDE90A01FEF720FA4FF06632BE
:10571000584BCDE90C0103F063FDCDE90E0103F018
:10572000ADFAC9F8000039464FF0804004F05EFA47
:105730003946039004F05AFA314605904FF0404044
:1057400004F054FA3146039004F050FA049005999D
:1057500004F054FB4FF07E51069004F047F8079098
:1057600004F018F8CDE90A0129464FF0804004F012
:105770003DFA3146049004F039FA394606904FF06C
:10578000804000E071E004F031FA4146049004F0FA
:105790002DFA0590069904F029F8079003F0FAFF16
:1057A000CDE90801DDE90A23FEF718FC4FF0663267
:1057B000304BCDE90C0103F013FDCDE90E0103F0F0
:1057C0005DFACAF800004146404604F00FFA394637
:1057D0000690384604F00AFA31460490304604F048
:1057E00005FA29460290284604F000FA0190029931
:1057F00003F0FCFF0390049904F000FB0590069968
:1058000004F0FCFA079003F0C5FFCDE90A01414618
:10581000284604F0EBF939460590304604F0E6F9E5
:105820000490059903F0E2FF4FF08041069004F0E8
:10583000DDF9079003F0AEFFCDE90801DDE90A23A9
:10584000FEF7CCFB4FF066320A4BCDE90C0103F0BA
:10585000C7FCCDE90E0103F011FACBF8000025607A
:105860006660A760C4F80C8001E0022003E7002016
:1058700001E7000066A64C4070B50024FCF7F4FB7D
:1058800000F024F9002840D1782000F02FFFC4B2A6
:105890000CB1012070BD7820FFF79CFEC4B20CB1A2
:1058A0000220F7E7642000F0D3FEC4B20CB103205D
:1058B000F0E7FEF77BFEC4B20CB10420EAE715481E
:1058C000FFF71CFE0546FFF7CBF8C4B20CB105206C
:1058D000E0E740F27310FEF711FDC4B20CB10620F0
:1058E000D8E76420FEF7ECFFC4B20CB10720D1E783
:1058F00001F0E0FD04460CB10820CBE7012000F0E8
:10590000A3FDC4B21CB10920C4E70A20C2E70020ED
:10591000C0E70000DC00002001461148407A30B1A9
:10592000012807D0022808D003280CD108E0022063
:1059300008700BE00420087008E00820087005E0FB
:105940001020087002E04FF0FF30704700BF04489D
:10595000C07C18B108784006000E08700020F4E7FB
:10596000B000002001461348407A30B1012808D029
:1059700002280AD0032810D10BE04FF480400880A1
:105980000EE041F69C7008800AE04FF480500880D9
:1059900006E04FF40060088002E04FF0FF307047EF
:1059A00000BF0448C07C10B1088840100880002067
:1059B000F5E70000B000002001460248007C0870B6
:1059C00000207047B000002001460F48007A30B137
:1059D000012807D0022809D003280FD10AE0FA20B5
:1059E00008800EE04FF4FA7008800AE04FF47A70F5
:1059F000088006E04FF4FA60088002E0002008808A
:105A000000BF00BF00207047B000002001460E48D4
:105A1000007A30B1012807D0022808D003280CD121
:105A200008E00A4808600BE00948086008E00948F7
:105A3000086005E00848086002E04FF0FF3070475A
:105A400000BF0020FBE70000B0000020000003437F
:105A5000000083423333034233338341014612480B
:105A6000C07A082817D2DFE800F01704070A0D10E3
:105A70001318BC20088013E06220088010E02A2060
:105A800008800DE0142008800AE00A20088007E062
:105A90000520088004E000BF00BF0020088000BF90
:105AA00000BF002070470000B000002001460648FB
:105AB00090F8240010B14FF0FF3070470248C089C1
:105AC00008800020F9E70000B00000201CB580200D
:105AD0008DF80000654A1268917C644A526810781B
