:020000040800F2
:10000000802E0020A9010008FD200008FF1B000829
:10001000F9200008CF15000809360008000000008C
:10002000000000000000000000000000BB0100080C
:10003000F116000800000000BF010008C10100081F
:10004000C3010008C3010008C3010008C301000880
:10005000C3010008C30100080D170008C301000810
:10006000C3010008C3010008C3010008C301000860
:10007000C3010008C3010008C3010008C301000850
:10008000C3010008C3010008C3010008C301000840
:10009000C3010008C3010008C3010008C301000830
:1000A000C3010008C3010008C3010008C301000820
:1000B000B12A0008C3010008C3010008C3010008F9
:1000C000C3010008C3010008C3010008C301000800
:1000D000C3010008E5310008C3010008F53200083B
:1000E000C3010008C3010008C301000800F002F8C2
:1000F00000F04AF80AA090E8000C82448344AAF178
:100100000107DA4501D100F03FF8AFF2090EBAE875
:100110000F0013F0010F18BFFB1A43F0010318473B
:1001200084860000A4860000103A24BF78C878C1F5
:10013000FAD8520724BF30C830C144BF04680C60ED
:10014000704700000023002400250026103A28BF35
:1001500078C1FBD8520728BF30C148BF0B60704739
:10016000662907F08E83642900F0708000207047B4
:100170001FB500F0D7FC04000020002106F07EFA35
:10018000E0601FBD10B510BD00F0F8FD1146FFF78F
:10019000EFFF05F015F800F016FE03B4FFF7F2FFCD
:1001A00003BC03F0B6FA000009488047094800473D
:1001B000FEE7FEE7FEE7FEE7FEE7FEE7FEE7FEE717
:1001C000FEE7FEE704480549054A064B7047000074
:1001D000512A0008ED00000880280020802E002011
:1001E000802A0020802A0020704710B54C1084EA35
:1001F000530404D54042C1F1000138BF491E1B42DF
:1002000004D55242C3F1000338BF5B1E00F056F91B
:1002100014F0804F04D04042C1F1000138BF491EA4
:1002200014F0004F04D05242C3F1000338BF5B1EEC
:1002300010BD00000FB4044910B503AA029800F0E5
:100240003DFC10BC5DF814FB040000202DE9F041DA
:100250000646002410687529314616A510D0AFF364
:100260000080002802DA404213A507E031688A07BF
:1002700001D512A502E0490704D511A5012401E02A
:10028000AFF3008000210A2206F1240709E0B0FB49
:10029000F2FCB0FBF2F302FB1C003030785418463D
:1002A000491C0028F3D123462A463046BDE8F041D8
:1002B00000F086B9000000002D0000002B000000B7
:1002C000200000002DE9F05F894604464FF0000A47
:1002D000DFF874B1FB44C0F820A02046E1688847ED
:1002E000002874D0252806D0D4E901219047206A3F
:1002F000401C2062F1E700265F462046E1688847FF
:100300002028054607DB312D05D2781910F8200C7E
:1003100008B10643F1E7B00701D526F00406C4F89A
:100320001CA00027C4F818A02A2D09D0284603F0E5
:10033000E9F938B304EB8708303DC8F8185019E0E4
:1003400059F8041B204604EB87029161E168884755
:10035000012F054618D1E069002820DA26F0200692
:100360001DE0D8F8180000EB800005EB40003038A5
:10037000C8F818002046E1688847054603F0C2F92E
:100380000028EED1012F0AD02E2D08D12046E16899
:1003900088477F1C0546022F46F02006C4DBA06973
:1003A000002803DA404246F00106A061F00701D0C0
:1003B00026F010066C2D0BD0682D09D04C2D39D0AD
:1003C0006A2D35D0742D35D07A2D33D016E038E033
:1003D000E1682F4620468847B842054609D16C2F70
:1003E00026D04FF48060E1680643204688470546E2
:1003F00004E06C2F1AD04FF4807006430DB3A5F1C2
:100400004100192802D8203546F400664A4629469C
:10041000204626604E46FFF7A3FE80B101280BD090
:10042000F61D26F0070000F1080956E74020E4E732
:100430008020D8E70020D6E706F104094DE72846DA
:1004400052E7206ABDE8F09FE682000040EA01031F
:1004500010B59B070FD1042A0DD310C808C9121F6D
:100460009C42F8D020BA19BA884201D9012010BDA7
:100470004FF0FF3010BD1AB1D30703D0521C07E074
:10048000002010BD10F8013B11F8014B1B1B07D1D8
:1004900010F8013B11F8014B1B1B01D1921EF1D149
:1004A000184610BD02F0FF0343EA032242EA02426B
:1004B00000F018BB704770477047704753EA020C52
:1004C00000F069802DE9F04B4FF00006002B1FBFB4
:1004D000B3FA83F503FA05F424FA05F65E4012BF79
:1004E0001643B2FA82F502FA05F4C5F120051EBFE3
:1004F00022FA05FC44EA0C04203556EA044C4FEA83
:10050000144418BF641C4FF000084FF000099042DB
:1005100071EB030C39D3002919BFB1FA81F701FA45
:1005200007F6B0FA80F700FA07F6C7F120071EBFFA
:1005300020FA07FC46EA0C062037B6FBF4FCA7EBD2
:100540000507103F07F01F0BCBF120060CFA0BFB41
:100550002CFA06F644BFB3460026202FA4BF5E4601
:100560004FF0000B5BEA060C08BF4FF0010B19EBD4
:100570000B09ABFB027C48EB0608C01B06FB02CC58
:100580000BFB03CC71EB0C01C1E70B460246414665
:100590004846BDE8F08B13B54FF000004FF0000166
:1005A000AFF30080BDE81C40704710B500F0BEFA04
:1005B000006810BD10B5044600F0B8FA046010BD24
:1005C0002DE9F0470D4699469246044600F124086D
:1005D0000168880604D5E06921F01001216000E07F
:1005E0000120A84201DD471B00E00027A1697A191C
:1005F00002EB0900081AA0612078C00602D4204648
:10060000AFF30080002608E0D4E901211AF80600C3
:100610009047206A401C761C20624E45F4DB20780F
:10062000C0060AD52046AFF3008006E0D4E90121D8
:1006300030209047206A401C2062381EA7F1010735
:10064000F4DC07E0D4E9012118F805009047206A9E
:10065000401C2062281EA5F10105F3DC2046AFF303
:1006600000802078000602D50220BDE8F087012036
:10067000FBE770472DE9FF4F0C461E464FF0FF3752
:100680008BB0D2E90001DDF860800A908A46C1F3A0
:100690000A5505B93D46002108464FF00000BAF161
:1006A000000F00F4400005DA00EB80004FF4400139
:1006B00001EA50004FEA9059B9F1010F00DDB94647
:1006C0000A9850EA4A000ED044F61050A5F2FF35C1
:1006D00045432F14B8F1000F1ED07542291E1EDDB0
:1006E000C9F100021CE0B8F1010F4FF0000001D089
:1006F000302103E0F24305E02154401CB042FBDB13
:1007000030460022002121540B99C1F80880C1E92C
:1007100000200FB0BDE8F08FBD1B6D1CDEE74A4620
:1007200000DA694206A800F08BFA06AB93E80700EE
:1007300003AB83E8070050460A9900F08DFB8DE873
:100740000700A0F500501F3800900398002D09DD28
:1007500042F21F014A46084403A90390684600F08C
:10076000ECFD08E0A0F500504A461F3803A90390AD
:10077000684600F0F6FD8DE807000004000C03D089
:100780004FF0FF30410800E01046B8F1000F03D0F1
:100790000022009215461EE0751E05D400F0CAF92D
:1007A000303262556D1EF9D5B3460122084302D09E
:1007B00000227F1C04E02078302801D100227F1E17
:1007C000002A099786D01DE0112D07DA00F0B2F952
:1007D000303262556D1C50EA0102F5D1084302D057
:1007E0000098C8B10EE00021681E05E0235C625C41
:1007F00063542254401E491C8142F7DBAB46A81BC0
:10080000401E0990002004F80B000B98099AC0F8CC
:100810000880C0E9002B7CE711264FF0000859E75B
:100820002DE9F04F88460446D21D22F0070191B011
:10083000D1E90001CDE90A0102F0E8FE02460B9879
:10084000C00F01D02D2007E02068810701D52B20A3
:1008500002E0202101EAC000032A099001D0072A02
:1008600005DB03464146204600F0AAF90BE120785B
:10087000800601D5E06900E00620B8F1650F8146E9
:1008800006D0B8F1660F18D0B8F1670F70D131E01B
:100890000020B9F1110F009001DB112301E009F1F3
:1008A00001030AAA01A90CA8FFF7E4FEDDE90C7018
:1008B000002609F10105834647E001204B460090E0
:1008C0004FF000470AAA01A90CA8FFF7D3FEDDE903
:1008D0000DB00C995D46002610B909F101000D1804
:1008E000B9EB050003D4C0F1FF3609F10105A5EB12
:1008F00009002BE0B9F1010F01DA4FF001090020E6
:10090000B9F1110F0090484601DD112300E00346C4
:100910000AAA01A90CA8FFF7ADFEDDE90C704D464F
:1009200000268346207800070AD4AB4500DA5D46EE
:1009300001A8012D04DD411911F8011C302907D04F
:100940004F4502DA17F1040F04DA012082460FE066
:100950006D1EEEE7002F02DCED1B3E4403E0781C29
:10096000A84200DD7D1CB81B00F1010A4FF00047D2
:100970002078000703D4AA4501DB4FF0FF3A00219D
:10098000B7F1004F0DF143088DF8431024D0022039
:100990002B23002F01DA7F422D230A21021EA0F112
:1009A000010000DC5FB197FBF1FC97FBF1F201FB6A
:1009B0001C7C17460CF1300C08F801CDEEE7A8F1CD
:1009C000010003702188090501D5452100E065215A
:1009D000A0F1010800F8011C09980FA9A1EB080774
:1009E000FF1D00B10120411901EBEA70A1693844F3
:1009F000081A401EA0612078C00602D42046AFF33A
:100A00000080099828B1D4E901219047206A401C50
:100A100020622078C00622D52046AFF300801EE079
:100A2000002E04DBB34502DD01A8805D00E030202C
:100A3000D4E901219047206A401C2062761CAAF16B
:100A400001005FEA000A0AD100F06CF8C068016892
:100A5000405CD4E901219047206A401C2062281E96
:100A6000A5F10105DCDC07E0D4E9012118F8010B50
:100A70009047206A401C2062381EA7F10107F3DC72
:100A80002046AFF30080032011B043E601694A1C01
:100A900002610878704700B58FB0CDE901310021BF
:100AA000059105497944CDE9031011466846FFF7E1
:100AB00009FC0FB000BD0000E5FFFFFF074B70B55C
:100AC0000D467B44FFF7E7FF0446284600F026F971
:100AD00010B14FF0FF3070BD204670BD2B400000BC
:100AE0004FF000020429C0F0128010F0030C00F057
:100AF0001B81CCF1040CBCF1020F18BF00F8012BD4
:100B0000A8BF20F8022BA1EB0C0100F00DB95FEAA1
:100B1000C17C24BF00F8012B00F8012B48BF00F86E
:100B2000012B70470048704740280020004870475C
:100B30002028002030B5B0F10A024FEA900E71F182
:100B400000034EEA817EB0EB0E0061EB91014FEAAB
:100B5000101E4EEA017E10EB0E0041EB11114FEA20
:100B6000102E4EEA016E10EB0E0041EB11214FEA00
:100B7000104E4EEA014E10EB0E0041EB11414018B1
:100B800041F100014FEAD00040EA41704FEAD10143
:100B900010EB80054FEA810444EA907444EB0104B1
:100BA0006D1944EB0404521BA3414FF0000348BFEE
:100BB0000A3200D530BD401C41F1000130BD0000BB
:100BC0002DE9F0411F46044603260168072A01F477
:100BD000006004DB08B116A505E016A503E008B126
:100BE00015A500E015A521F010002060A069C01E29
:100BF000A0610FB1401EA0612046AFF300804FB14D
:100C0000D4E9012138469047206A401C2062C01C6C
:100C1000206206E0206AFAE7D4E9012115F8010B09
:100C20009047761EF8D22046AFF30080BDE8F081F1
:100C30004E414E006E616E00494E4600696E660080
:100C40002DE9F047814616468AB0334878440DC8EE
:100C50008DE80D0030487844801C03AC0DC884E852
:100C60000D0041F69B300844372190FBF1F290FBD8
:100C7000F1F5A5F1800501FB12041B3C02D564428D
:100C8000012000E00020DFF890A080460027FA4411
:100C9000AAF1BE0A0DE0E00709D03246684607EB2C
:100CA00047010AEB810100F05CFB8DE8070064104E
:100CB0007F1C002CEFD1184F7F44AC3F18E0E807B1
:100CC00014D007EB04100DF1180A90E80E008AE822
:100CD0000E00C068F04201D198190890324606A96A
:100CE00003A800F03EFB03AB83E807006D10641C13
:100CF000002DE4D132466946B8F1000F03A802D0B6
:100D000000F01BFB01E000F02CFBC9E90001C9F871
:100D100008200AB0BDE8F087EC7A0000007B00F004
:100D2000800070474FF0000200B513469446964687
:100D3000203922BFA0E80C50A0E80C50B1F12001EE
:100D4000BFF4F7AF090728BFA0E80C5048BF0CC09C
:100D50005DF804EB890028BF40F8042B08BF7047FA
:100D600048BF20F8022B11F0804F18BF00F8012B6C
:100D70007047000000487047202800207546FFF7A4
:100D8000F9FFAE4605006946534620F00700854648
:100D900018B020B5FFF716FABDE820404FF0000666
:100DA0004FF000074FF000084FF0000B21F0070153
:100DB000AC46ACE8C009ACE8C009ACE8C009ACE896
:100DC000C0098D46704710B50446AFF30080204639
:100DD000BDE81040FFF7E1B94FF0013C50F8042B9B
:100DE00051F8043B9A4221D1A2EB0C03934313EA3E
:100DF000CC1317D150F8042B51F8043B9A4215D16B
:100E0000A2EB0C03934313EACC130BD150F8042B41
:100E100051F8043B9A4209D1A2EB0C03934313EA25
:100E2000CC13DBD04FF00000704700BFD01A01BADE
:100E3000B1FA81F101F0180122FA01F0CB40C1F1C1
:100E40002001DBB2C0B2C01A2CFA01F3D11A9143CF
:100E500011EAC311E6D170475FEA400C08BF91F078
:100E6000000F4FEA8C234FEAC12243EA51514FEA67
:100E70001C5018BF00F5F0404FEA300018BF41F099
:100E800000415FEA6C5C00F02980BCF1FF3F08BFC5
:100E900040F080407047130C06BF12044FF0100C56
:100EA0004FF0000C130E04BF12020CF1080C130FCC
:100EB00004BF12010CF1040C930F04BF92000CF15B
:100EC000020CD30F04BF52000CF1010C11464FF07D
:100ED0000002A0F11F00A0EB0C00704711F0004FC2
:100EE00008BF704731F000413FF4D5AF0B0C06BF8F
:100EF00009044FF0100C4FF0000C0B0E04BF090258
:100F00000CF1080C0B0F04BF09010CF1040C8B0F42
:100F100004BF89000CF1020CCB0F04BF49000CF197
:100F2000010CCCF12003A0EB0C0022FA03F302FA2F
:100F30000CF241EA030100F10100704720F07F4C00
:100F400080EA030023F07F47ACEB070303F57C53F3
:100F500000F0004003F1FF032DE980494FEA154BF3
:100F600009B44FEA144325EA0B4E24EA03480FF272
:100F7000042606EB132749083E785FEA320203FB9A
:100F80000667C7F5000707FB06F64FEA54374FEA36
:100F9000D64606F1020607FB066CCCF1005C4FEA70
:100FA0001C472CEA074C07FB06F40CFB06F504EB88
:100FB00015464FEA961634BF00204FF000404FEA26
:100FC000D13706FB07FC4FEA1C4C0CFB0BF7D21B7E
:100FD00003FB0CF761EB07010CFB0EF7B0EB0740CE
:100FE00072EB17420CFB08F734BFA2EB0742B2EBDF
:100FF000074261EB17414FEA0C444FEA910706FBA9
:1010000007FC4FEA1C4C0CFB0BF7B0EBC74072EB34
:10101000573203FB0CF734BFA2EBC742B2EBC74217
:1010200061EB57310CFB0EF7B0EBC70072EB577258
:101030000CFB08F734BFA2EBC702B2EBC70261EBAF
:101040005771039F4FEA816141EA921104EBCC048E
:101050004FEAD1374FEA826206FB07FC42EA901260
:101060004FEA80604FEA1C4C0CFB0BF7D21B03FBD2
:101070000CF761EB07010CFB0EF7B0EB074072EBCE
:1010800017420CFB08F734BFA2EB0742B2EB074252
:1010900061EB17414FEA8C554FEA910704EB9C2412
:1010A00006FB07FC4FEA1C4C0CFB0BF7B0EBC740F0
:1010B00072EB573203FB0CF734BFA2EBC742B2EB23
:1010C000C74261EB57310CFB0EF7B0EBC70072EB78
:1010D00057720CFB08F734BFA2EBC702B2EBC70292
:1010E00061EB577115EB4C254FEA816141EA921192
:1010F0004FEA82624FEAD13742EA901206FB07FCC0
:1011000044F100044FEA80604FEA1C4C0CFB0BF7E3
:10111000D21B03FB0CF761EB07010CFB0EF7B0EBE6
:10112000074072EB17420CFB08F734BFA2EB0742F3
:10113000B2EB074261EB174115EB1C154FEA813109
:1011400041EA92414FEA823242EA90424FEA8030CD
:101150004FEA0C7644F1000448EA03434EEA0B4898
:101160004FF0000EB2EB080C71EB030724BF624690
:1011700039464EEB0E0E4FF0000B0018524149411C
:101180004BEB0B0BB2EB080C71EB03077BF1000B85
:1011900024BF624639464EEB0E0E4FF0000B00188E
:1011A000524149414BEB0B0BB2EB080C71EB0307BF
:1011B0007BF1000B24BF624639464EEB0E0E51EA1E
:1011C000020718BF46F0010616EB0E7655F1000235
:1011D00054F1000103D5BDE88901BDE80088BDE8F0
:1011E0008901BDE80048B619524141EB0101A3F164
:1011F0000103704780807F7E7D7C7B7A797877766B
:1012000076757473727171706F6E6E6D6C6C6B6AE3
:101210006A69686867666665646463636261616081
:10122000605F5F5E5E5D5D5C5C5B5B5A5A595958FE
:101230005857575656555555545453535252525168
:10124000515050504F4F4F4E4E4D4D4D4C4C4C4BBE
:101250004B4B4A4A4A494949484848474747474605
:101260004646454545444444444343434342424241
:1012700042414141002B26D4770021D01CB54FEAD2
:10128000370703B44FF010004FF010014FF000008B
:101290000FBCBDE810400BF1010BBBF1010F08BF03
:1012A0005FEA170722BF12F1010211F101014FF0AD
:1012B000004143F1000300F0004043EA00007047A2
:1012C000F9D35708DAE746EA064613F1400F4FEA2A
:1012D00016461FDD13F1200FDFBF16430A4600211B
:1012E00020335B42C8D0C3F1200746EA064602FA23
:1012F00007F74FEA164646EA0706C3F1200722FA27
:1013000003F201FA07F721FA03F14FF0000342EA72
:101310000702B1E746EA020646EA06464FEA1646E3
:1013200046EA0106BCBF46EA0646360C4FF000030B
:101330004FF000024FF000019EE72DE9C0489346B0
:1013400030B491E8380007C831EA400C48BF34EAAD
:10135000430C03D5FFF7F2FDFFF78CFFF0BCBDE8AF
:1013600000882DE9C048934630B491E8380007C89A
:1013700010F0804F08BF13F0804F03D100F005F844
:10138000FFF778FFF0BCBDE8008820F07F4780EAD7
:10139000030023F07F4C07EB0C03A3F57C5300F014
:1013A0000040A3F1FE0392F0000F00F0B38095F02F
:1013B000000F00F077802DE901494FEA11404FEA14
:1013C000144621EA004800FB06FC24EA064708FB15
:1013D00006F607FB08F800FB07F718EB06484CEB8E
:1013E000164C4FEA124B18EB07484FEA15464CEBE8
:1013F000174022EA0B4E0BFB06FC25EA06470EFBC4
:1014000006F607FB0EFE0BFB07F71EEB064E4CEB3A
:10141000164C4FF000061EEB074E4CEB174B18EB2B
:101420000B0840F1000018EB0E0B58EB000840F1E0
:1014300000008F1A4FF000013CBFC943661B14BF68
:10144000B5EB040C00213CBFC943F61B4FEA17441F
:101450004EEA8E0E27EA04454FEA1C4704FB07625A
:101460002CEA074C05FB07F70CFB05F604FB0CFC0C
:1014700016EB074642EB174216EB0C4642EB1C42BA
:101480001BEB060658EB0202414146EA9E0601D5D7
:10149000BDE80189B619524141EB0101A3F10103F5
:1014A000BDE801894FEA14454FEA114724EA054691
:1014B00021EA074C05FB07F406FB07F70CFB06F1D6
:1014C00005FB0CFC11EB074144EB17444FEA1247B4
:1014D00011EB0C4144EB1C4422EA074C05FB07F2DC
:1014E00006FB07F70CFB06F605FB0CFC16EB0746A4
:1014F00042EB174216EB0C4642EB1C456A1854F1BE
:10150000000148BF7047B619524141EB0101A3F1F8
:101510000103704795F0000F37D04FEA11424FEAB0
:10152000144721EA024624EA074C02FB07F106FBB6
:1015300007F70CFB06F402FB0CFC14EB074441EB31
:1015400017414FEA154714EB0C4441EB1C4125EAC7
:10155000074C02FB07F506FB07F70CFB06F602FB40
:101560000CFC16EB074645EB174516EB0C4645EB16
:101570001C42121951F1000148BF7047B61952417F
:1015800041EB0101A3F1010370474FEA14454FEA13
:10159000114724EA054621EA074C05FB07F106FB43
:1015A00007F70CFB06F24FF0000605FB0CFC12EBF4
:1015B000074241EB174112EB0C4251EB1C4148BF73
:1015C0007047921841EB0101A3F10103704700BF7E
:1015D000FEE7000008B50220ADF8000010208DF8ED
:1015E000030002208DF802006946044800F078FAF2
:1015F0000221024800F0FFFA08BD00000008014087
:1016000010B50221054800F0F8FA4FF47A7000F0A6
:1016100070F80221014800F0EEFA10BD0008014008
:1016200010B50221054800F0E8FA4FF4FA7000F016
:1016300060F80221014800F0DEFA10BD0008014008
:1016400010B502210D4800F0D8FA4FF4FA7000F0FE
:1016500050F80221094800F0CEFAC82000F049F8FD
:101660000221064800F0C9FA4FF4FA7000F041F880
:101670000221024800F0BFFA10BD0000000801403E
:1016800000F0805111B10349086001E0024948604F
:1016900070470000040402400000024021B10268CB
:1016A00042F00102026004E002684FF6FE731A4045
:1016B0000260704710B50022026847F6F0739A4343
:1016C0000C6A8B6823430C6923434C6923438C6960
:1016D0002343CC6923434C6A23438C6A23431A4334
:1016E0000260CB6843600B6883604B68C36010BDC9
:1016F000704710B5044603E04FF47A7002F0E2FB45
:10170000201EA4F101018CB2F6D110BD10B501204C
:1017100000F034F868B1094B094A111F081F03F0A3
:10172000F9FD0849087020B10846017806A0FEF7C7
:1017300081FD012000F01CF810BD000000280020F1
:10174000FC2700200C0000206D70755F646D705FD9
:101750006765745F64617461204661696C656420CB
:1017600065726F7272206E756D3A25640A0D000005
:101770000149086070470000140401400146002040
:101780000022074B1B6803EA0102054B14331B6858
:101790000B4013B10AB1012000E0002070470000A7
:1017A00000040140002123498279002A3AD00A46E8
:1017B000126803689A430B461A600A1D1268036890
:1017C0009A430B1D1A60027911440A6803681A4390
:1017D0000A60184A0832126803689A43154B0833A6
:1017E0001A601A1D126803689A43124B0C331A6070
:1017F0004279102A0ED11A1F126803681A430D4B42
:1018000008331A601A1D126803681A43094B0C3317
:101810001A600DE00749427911440A6803681A43C7
:101820000A6005E0027911440A6803689A430A6075
:1018300070470000000401400149C8607047000083
:101840000020024030B5044604254FF4302000F05B
:10185000D3F80546042D17D10C48006940F002006A
:101860000A49086108464461006940F04000086187
:101870004FF4302000F0C0F805460448006941F6F6
:10188000FD71084001490861284630BD0020024032
:1018900004200B49C96801F0010109B101200EE0E3
:1018A0000749C96801F0040109B1022007E00449B1
:1018B000C96801F0100109B1032000E0042070475D
:1018C000002002400348006940F08000014908619F
:1018D00070470000002002400549096821F010010E
:1018E000034A116011460968014311607047000006
:1018F0000020024078B506460C46042500200090E2
:10190000E80200F079F80546042D24D11348006957
:1019100040F00100114908613480E80200F06CF8E1
:101920000546042D10D1B01C0090200C00990880B1
:10193000E80200F061F805460848006941F6FE71CA
:1019400008400649086106E00448006941F6FE7156
:10195000084002490861284678BD00000020024086
:101960002DE9F84F04468A464FF0010920E0D4F8EB
:1019700000B0584605F0A8FD009005F0D9FB0746D9
:1019800000220D4B04F072FF05462A460B460BA0C1
:10199000FEF750FC032099FBF0F100FB119010B909
:1019A00008A0FEF747FC241D09F101001FFA80F989
:1019B000D145DCDDBDE8F88F00005940252E3266A8
:1019C000200000000D0A000001460020034A1068B4
:1019D00000F038000843106070470000002002400B
:1019E000024803494860034848607047230167453F
:1019F00000200240AB89EFCD00B502460423FFF77B
:101A000047FF034603E0FFF743FF0346521E012B47
:101A100001D1002AF7D102B90523184600BD000004
:101A20002DE9F04705460C4603260027DFF868A09D
:101A30004FF000094FF00408FFF7D2FFA000C117D4
:101A400000EB9151891201F101093420FFF7F4FEF6
:101A5000002607E011494A1402FB0610FFF7F2FEC8
:101A60008046761C4E4502D2B8F1040FF2D00B4FDF
:101A700005E038462968FFF73DFF3F1D2D1D07484B
:101A800000EB8400B84202D3B8F1040FF1D0FFF7A5
:101A900019FF0020BDE8F087CDAB103200A0000890
:101AA00030B500228B071C0F0F2303FA04F20B4BF7
:101AB0008C1053F824309343084C8D1044F8253093
:101AC00023468C1053F824308C07240F00FA04F4BA
:101AD0002343024C8D1044F8253030BD08000140EE
:101AE0002DE9F041024600250026002000230024B5
:101AF000002791F803C00CF00F0591F803C00CF01B
:101B0000100CBCF1000F03D091F802C04CEA05059F
:101B100091F800C0BCF1000F31D0146800202BE018
:101B20004FF0010C0CFA00F3B1F800C00CEA030608
:101B30009E4220D183004FF00F0C0CFA03F7BC43F8
:101B400005FA03FC4CEA040491F803C0BCF1280F29
:101B500006D14FF0010C0CFA00FCC2F814C00AE0E8
:101B600091F803C0BCF1480F05D14FF0010C0CFAFD
:101B700000FCC2F810C0401C0828D1D31460B1F892
:101B800000C0BCF1FF0F34DD546800202EE000F1EE
:101B9000080C4FF0010808FA0CF3B1F800C00CEA89
:101BA00003069E4221D183004FF00F0C0CFA03F77D
:101BB000BC4305FA03FC4CEA040491F803C0BCF1F1
:101BC000280F05D100F1080C08FA0CF8C2F81480AF
:101BD00091F803C0BCF1480F07D100F1080C4FF099
:101BE000010808FA0CF8C2F81080401C0828CED36F
:101BF0005460BDE8F081416170470161704700BFEA
:101C0000FEE7000010B500200E4908600E4800688D
:101C100020F070400C4908600846006840F04050D1
:101C2000086000200949C1F89C0100F011F801206A
:101C30000449086000F00CF800200449C1F898013C
:101C400010BD000098812142000C0140008021421B
:101C500010B5022002F036F910BD000008B50121D0
:101C6000082000F047FCC020ADF8000010208DF8DF
:101C7000030003208DF8020069460448FFF730FF97
:101C8000C0210248FFF7B9FF08BD0000000C014069
:101C900010B500200E4908600E48006820F0704022
:101CA0000C4908600846006840F040500860012078
:101CB0000949C1F89C01FFF7CBFF012004490860E6
:101CC000FFF7C6FF00200449C1F8980110BD0000CD
:101CD00098812142000C01400080214270B50546E8
:101CE00000241648006820F0704014490860084637
:101CF000006840F000400860002614E00020104911
:101D00000860FFF7A5FF01200E49C1F898016006A1
:101D1000040E0B487C38006808B1601CC4B2FFF7A1
:101D200097FF701CC6B2082EE8DB15B9FFF7B0FFAD
:101D300001E0FFF767FF204670BD0000000C014086
:101D4000988121420080214270B504461248006803
:101D500020F07040104908600846006840F040508C
:101D6000086000200D490860002512E0E0090B49D9
:101D7000091D08606006040E01200949C1F8980198
:101D8000FFF766FF002005490860FFF761FF681C48
:101D9000C5B2082DEADB70BD000C014098812142DC
:101DA0000080214210B50E48006820F070400C49B8
:101DB00008600846006840F040500860012009496A
:101DC00008600949C1F89801FFF742FF0020054962
:101DD0000860FFF73DFF00200349C1F8980110BDDE
:101DE000000C01409C8121420080214210B50E4828
:101DF000006820F070400C4908600846006840F018
:101E0000405008600020094908600949C1F89C0158
:101E1000FFF71EFF0120054908600549C1F89C0134
:101E2000FFF716FF10BD0000000C01409881214211
:101E30000080214210B500241448006820F0704052
:101E4000124908600846006840F000400860012020
:101E50000F490860FFF7FCFE01200E49C1F8980108
:101E6000FFF7F6FE07E0601CC4B2FA2C03DDFFF7B3
:101E7000BDFF012010BD0648803800680028F2D15F
:101E80000349091F086000BFF4E70000000C01408F
:101E90009C8121420080214210B5FFF7DFFE8021A6
:101EA0006B2000F0D7F8642001F0E6FF00216B20E2
:101EB00000F0D0F8032000F08BF8002000F080F84C
:101EC000642000F0AAF80021382000F0C3F80021B7
:101ED0006A2000F0BFF80021232000F0BBF8802129
:101EE000372000F0B7F8752000F013F80446682C8E
:101EF0000BD101216B2000F0ADF800216C2000F027
:101F0000A9F8642000F089F801E0012010BD00204C
:101F1000FCE770B50446FFF745FFD020FFF714FF3C
:101F2000FFF788FF2046FFF70FFFFFF783FFFFF75C
:101F300039FFD120FFF708FFFFF77CFF0020FFF7F4
:101F4000CDFE0546FFF752FF284670BD2DE9F04152
:101F500006460F4614461D46FFF724FF002141EABE
:101F60004601C8B2FFF7F0FEFFF764FF20B1FFF7AC
:101F70003DFF0120BDE8F0813846FFF7E5FEFFF7A1
:101F800059FFFFF70FFF012101EB4601C8B2FFF730
:101F9000DBFEFFF74FFF0DE0012C04D10020FFF71F
:101FA0009DFE287003E00120FFF798FE2870601E58
:101FB000C4B26D1C002CEFD1FFF718FF0020D9E749
:101FC00010B50446E006010E1C2000F043F810BDD9
:101FD00010B50446E006010E1B2000F03BF810BDD2
:101FE00070B504460025BC2C01DB012510E0622CF5
:101FF00001DB02250CE02A2C01DB032508E0142C70
:1020000001DB042504E00A2C01DB052500E00625A0
:1020100029461A2000F01EF870BD70B50446B4F5CC
:102020007A7F01DD4FF47A74042C00DA04244FF433
:102030007A7090FBF4F0401EC5B22946192000F0DA
:1020400009F80546264604EBD671C1F34F00FFF7A9
:10205000C7FF70BD70B505460C46FFF7A3FED02044
:10206000FFF772FEFFF7E6FE18B1FFF7BFFE012093
:1020700070BD2846FFF768FEFFF7DCFE2046FFF73D
:1020800063FEFFF7D7FE18B1FFF7B0FE0120EFE7C0
:10209000FFF7ACFE0020EBE72DE9F04105460E46C8
:1020A00017469846FFF77EFE002141EA4501C8B277
:1020B000FFF74AFEFFF7BEFE20B1FFF797FE0120B3
:1020C000BDE8F0813046FFF73FFEFFF7B3FE002486
:1020D0000CE018F80400FFF737FEFFF7ABFE18B16D
:1020E000FFF784FE0120EBE7601CC4B2BC42F0DBCA
:1020F000FFF77CFE0020E3E700BFFEE770470EB568
:102100000121042000F0F6F90121084600F0F2F95F
:1021100000210846FFF7C4FC012000908DF806005E
:1021200000208DF8040008208DF805006846FFF7B0
:1021300039FB06208DF8080001208DF80B000020E7
:102140008DF809008DF80A0002A800F001F80EBD14
:1021500070B5002100230F22C47804B3154C246805
:1021600004F4E064C4F5E064210AC1F10403CA4048
:10217000447804FA03F184781440214309010E4C99
:102180000678A155047804F01F050124AC400578B9
:102190006D11AD0005F1E025C5F8004109E00478B6
:1021A00004F01F050124AC40044D0678761145F873
:1021B000264070BD0CED00E000E400E080E100E0AE
:1021C0002DE9F04F87B0824649480168504605F036
:1021D000D8FA484908604848007805F08DF98346E8
:1021E00004F0A6FF804689464248006804F0A0FF3C
:1021F0000022424BCDE9000104F0C0FC42464B46B0
:10220000CDE9020104F032FB04460D463C4800686B
:1022100004F08EFF064622462B4604F077FACDE9FD
:10222000040104F041FA3649086036493448006830
:1022300005F076FA03D233483149086008E03249A4
:102240002F48006805F06CF902D22F482C4908602D
:102250002E480168504605F094FA2D4908602B4835
:10226000C0F800A008460168002005F08DF904467A
:1022700004F05EFF804689462148006804F058FF5C
:102280000646244A244B04F079FC04460D461948BE
:10229000006804F04DFF06460022204B04F06EFC5F
:1022A00022462B46CDE9000104F030FA42464B4667
:1022B000CDE9020104F02AFACDE9040104F0F4F9B1
:1022C0001749086017491648006805F029FA03D233
:1022D000144807B0BDE8F08F13491148006805F0B5
:1022E0001FF901D21048F4E70D480068F1E700003B
:1022F000800000208C000020767900080000F03F6C
:102300009800002000004842000048C2A4000020BD
:10231000B00000209A9999999999A93F0000E03F4F
:10232000BC0000200000F0410000F0C12DE9F04F9A
:1023300087B0824649480168504605F022FA48496C
:1023400008604848007805F0D7F8834604F0F0FEAE
:10235000804689464248006804F0EAFE0022424B6B
:10236000CDE9000104F00AFC42464B46CDE90201EA
:1023700004F07CFA04460D463C48006804F0D8FEA0
:10238000064622462B4604F0C1F9CDE9040104F0CB
:102390008BF93649086036493448006805F0C0F9C1
:1023A00003D233483149086008E032492F480068B9
:1023B00005F0B6F802D22F482C4908602E48016873
:1023C000504605F0DEF92D4908602B48C0F800A002
:1023D00008460168002005F0D7F8044604F0A8FE7E
:1023E000804689462148006804F0A2FE0646244A39
:1023F000244B04F0C3FB04460D461948006804F062
:1024000097FE06460022204B04F0B8FB22462B46DE
:10241000CDE9000104F07AF942464B46CDE90201CC
:1024200004F074F9CDE9040104F03EF9174908609D
:1024300017491648006805F073F903D2144807B02D
:10244000BDE8F08F13491148006805F069F801D222
:102450001048F4E70D480068F1E700008400002010
:1024600090000020767900080000F03F9C000020DA
:1024700000004842000048C2A8000020B40000202C
:102480009A9999999999A93F0000E03FBC000020D2
:102490000000F0410000F0C1034B1860034B1960CD
:1024A000034B1A6070470000800000208400002069
:1024B0008800002029B1064A52690243044B5A6140
:1024C00004E0034A52698243014B5A61704700009D
:1024D0000010024029B1064AD2690243044BDA6176
:1024E00004E0034AD2698243014BDA61704700007D
:1024F0000010024029B1064A92690243044B9A61D6
:1025000004E0034A92698243014B9A6170470000DC
:102510000010024010B500F02FF84FF4803000F0AA
:10252000EDF800F049F90446012C24D14FF4E011F4
:10253000000400F027F9002000F0D4F8A00200F019
:1025400003F9002000F00CF90220FFF73DFA1020FB
:10255000FFF7C2F9012000F00FF900BF392000F0A9
:102560009BF80028FAD0022000F01AF900BF00F012
:10257000B1F80828FBD110BD0F48006840F00100F9
:102580000D490860084640680C4908400A494860FF
:10259000084600680A49084007490860084600687C
:1025A00020F4802008600846406820F4FE0048605F
:1025B0004FF41F0088607047001002400000FFF8D1
:1025C000FFFFF6FE30B500210022002400232D4D30
:1025D0006D6805F00C0121B1042905D0082923D12B
:1025E00005E0294D056022E0274D05601FE0254DDF
:1025F0006D6805F47012234D6D6805F48034022572
:1026000005EB92421CB9214D554305600BE01D4D71
:102610006D6805F400351DB11C4D5543056002E0A1
:10262000194D5543056002E0174D056000BF00BF1E
:10263000144D6D6805F0F0010909154D6B5C0568D6
:10264000DD4045600F4D6D6805F4E061090A104DED
:102650006B5C4568DD4085600A4D6D6805F460512E
:10266000C90A0B4D6B5C4568DD40C560054D6D6862
:1026700005F44041890B074D6B5CC568B5FBF3F56C
:10268000056130BD0010024000127A0000093D00D3
:10269000340000204400002010B501460022002331
:1026A00000204A11012A02D1094C236806E0022ABF
:1026B00002D1074C236A01E0054C636A01F01F0256
:1026C000012494401C400CB1012000E0002010BD0A
:1026D000001002400248406800F00C007047000003
:1026E0000010024001460020034A506820F0F0002C
:1026F000084350607047000000100240114909680B
:1027000021F480310F4A11601146096821F48021BB
:102710001160B0F5803F03D0B0F5802F0ED106E0F8
:102720000849096841F48031064A116007E005490B
:10273000096841F4A021034A116000E000BF00BF16
:10274000704700000010024001460020034A506814
:1027500020F4E06008435060704700000010024021
:1027600001460020034A506820F4605040EAC1004E
:102770005060704700100240014908667047000031
:102780000000424202460020044B586820F47C10AE
:1027900042EA01031843014B5860704700100240A1
:1027A00001460020034A506820F0030008435060AF
:1027B000704700000010024038B50020009000244F
:1027C000002500BF3120FFF767FF05460098401C39
:1027D00000900098B0F5A06F01D0002DF2D031200C
:1027E000FFF75AFF08B1012400E00024204638BD5D
:1027F0002DE9F04F85B004468946012C06D0022C05
:1028000027D0032C48D0042C22D168E0484604F09D
:102810008FFC0022454BCDE9000104F027F800228F
:10282000434BCDE9020103F071FF82460022414B88
:1028300004F0A4F9074600223F4B04F017F80546C0
:1028400004F06CF980B2014604903C4800F038FC7A
:1028500068E0484604F06CFC07460022334B04F065
:1028600005F805460022324B03F050FF0022314BA1
:10287000CDE9000104F082F900222F4BCDE90201DD
:1028800003F0F4FF824604F049F980B20146049057
:102890002A4800F017FC45E0484604F049FC0022B5
:1028A000224BCDE9000103F0E1FF82460022204BDC
:1028B00003F02CFF054600221E4B04F05FF907468B
:1028C00000221D4B03F0D2FFCDE9020104F026F9EE
:1028D00080B201460490194800F0F6FB22E0484619
:1028E00004F026FC0022114BCDE9000103F0BEFFED
:1028F000074600220E4B03F009FF824600220D4BD3
:1029000004F03CF9054600220B4B03F0AFFFCDE984
:10291000020104F003F980B201460490074800F078
:10292000D5FB00BF00BF05B0BDE8F08F008056406A
:102930000000F83F004CED4000003440000400402F
:1029400010B500F001F810BD0CB50020019000900A
:102950003348006840F480303149086000BF304897
:10296000006800F4003000900198401C019000982D
:1029700018B90198B0F5A06FF1D12948006800F4AA
:10298000003010B10120009001E00020009000987C
:10299000012843D12348006840F010002149086015
:1029A0000846006820F0030008600846006840F010
:1029B000020008601A4840681949486008464068A3
:1029C00048600846406840F48060486008464068B7
:1029D00020F47C1048600846406840F4E8104860E5
:1029E0000846006840F08070086000BF0C4800682E
:1029F00000F000700028F9D00948406820F003007A
:102A0000074948600846406840F00200486000BF3F
:102A10000348406800F00C000828F9D10CBD000004
:102A20000010024000200240042808D14FF0E021AD
:102A3000096941F004014FF0E022116107E04FF015
:102A4000E021096921F004014FF0E0221161704793
:102A500010B51348006840F00100114908600846AD
:102A60004068104908400E494860084600680E4911
:102A700008400B4908600846006820F48020086080
:102A80000846406820F4FE0048604FF41F0088604C
:102A9000FFF756FF4FF000600449086010BD0000CA
:102AA000001002400000FFF8FFFFF6FE08ED00E016
:102AB0002DE9F84F0121880700F035F900287CD076
:102AC0000121880700F020F971480078002875D0AE
:102AD00070497148006804F023FD53D86F490868B5
:102AE00001F0EEFF6E496F4A128888546B494868BE
:102AF00001F0E6FF6A4A6B490988491C505467494E
:102B0000886801F0DDFF664A66490988891C5054CF
:102B10006249086804F00CFB06460022624B04F090
:102B20002DF8044603F0FAFF60495E4A128841F826
:102B300022005A49486804F0FBFA064600225A4B24
:102B400004F01CF8044603F0E9FF584A5549098887
:102B5000491C42F821005149886804F0E9FA064608
:102B60000022514B04F00AF8044603F0D7FF4F4A05
:102B70004C490988891C42F821004A480088C01C39
:102B8000484908804A494448006804F0C9FD0AD20F
:102B90004848007838B9FEF743FD012045490870E0
:102BA00045A0FDF747FB48493B48006804F0B8FDE5
:102BB00012D24648007878B901E067E02AE04FF485
:102BC000FA613A48FEF72CFFFEF72AFD01203F4943
:102BD00008703FA0FDF72EFB4448007804F08CFC01
:102BE000009004F0A5FA824652460B460020404968
:102BF00003F03CFE06460F462748006804F098FAAA
:102C0000804632463B4603F081FD044603F04CFD0E
:102C10002149086037480078C0B13748007850B182
:102C200000F0E8FC00228021344800F0DBFB4FF488
:102C30000050FEF725FD01228021304800F0D2FB34
:102C400001202D49087000202A490870134908689E
:102C5000FFF7B6FA2A49086010494868FFF766FB93
:102C600028490860264801680120FFF7C1FD254872
:102C700001680220FFF7BCFD214801680320FFF72F
:102C8000B7FD204801680420FFF7B2FDBDE8F88FCA
:102C900014000020000040411C000020F427002008
:102CA000CC00002012000020000059409C080020A9
:102CB0000000A04017000020D2D1B4A5B7A2BFAA3F
:102CC000C9A1A3A10D0A0000000050411800002076
:102CD000D2D1BDABB7C9D0D0CAFDBEDDD0B4C8EB30
:102CE000464C415348A3A10D0A0000007679000824
:102CF0000000F03F150000201600002000380140C1
:102D0000C0000020C4000020CA430282704721B1E5
:102D1000028842F00102028004E002884FF6FE734E
:102D20001A400280704730B502460020002300247C
:102D3000158A05EA0103958905EA010413B10CB16E
:102D4000012000E0002030BD1AB183890B4383814C
:102D500002E083898B4383817047000070B50024B3
:102D600000220023058C4FF6FE7635400584028C48
:102D70008388048B4FF68F752C40B51E2C400D8830
:102D80002C43751E2A400D892A434D882A43144D31
:102D9000A8420BD0134DA84208D0134DA84205D02D
:102DA000124DA84202D0124DA84213D14FF6F7752A
:102DB0002A404D892A434FF6FB752A408D882A43C5
:102DC0004FF6FF652B404FF6FF552B408D892B4367
:102DD000CD892B4383800483CD888586028470BD92
:102DE000002C0140003401400040014000440140FB
:102DF0000048014070B5002400220023058C4FF6E6
:102E0000EF7635400584028C8388048B48F6FF7585
:102E10002C404FF6FF452C400D884FF6FF7606EA12
:102E200005252C434FF6DF752A400D8906EA051566
:102E30002A434D8806EA05152A43154DA84202D0BB
:102E4000144DA8421DD14FF67F752A404D894FF68B
:102E5000FF7606EA05152A434FF6BF752A408D888E
:102E600006EA05152A434FF6FF352B404FF2FF7552
:102E70002B408D8906EA85052B43CD8906EA850519
:102E80002B4383800483CD880587028470BD0000B6
:102E9000002C01400034014070B5002400220023C2
:102EA000058C4FF6FF6635400584028C8388848B41
:102EB0004FF68F752C404FF6FC752C400D882C4337
:102EC0004FF6FF552A400D894FF6FF7606EA052595
:102ED0002A434D8806EA05252A43154DA84202D00B
:102EE000144DA8421DD14FF2FF752A404D894FF66F
:102EF000FF7606EA05252A434FF6FF352A408D88DE
:102F000006EA05252A434EF6FF752B404DF6FF7560
:102F10002B408D8906EA05152B43CD8906EA051558
:102F20002B4383808483CD888587028470BD000015
:102F3000002C0140003401400A460021818B4FF6ED
:102F4000F7731940114381837047000070B5002268
:102F500000230024058C4EF6FF7635400584038C53
:102F60008488828B48F6FF752A404FF6FF452A4039
:102F70000D884FF6FF7606EA05252A434DF6FF75C4
:102F80002B400D8906EA05352B434D8806EA0535A9
:102F90002B430B4DA84202D00A4DA84208D14BF654
:102FA000FF752C408D894FF6FF7606EA85152C4378
:102FB00084808283CD88A0F84050038470BD0000D7
:102FC000002C01400034014000B589B001210220ED
:102FD000FFF780FA01210420FFF78CFA0121082075
:102FE000FFF788FA4020ADF8200018208DF8230064
:102FF00003208DF8220008A92E48FEF771FD8020DD
:10300000ADF8200018208DF8230003208DF8220051
:1030100008A92848FEF764FD0120ADF8200018201B
:103020008DF8230003208DF8220008A92248FEF71E
:1030300057FD0220ADF8200018208DF82300032052
:103040008DF8220008A91C48FEF74AFD4EF65F20C5
:10305000ADF808001720ADF804000020ADF8060018
:10306000ADF80A0001A9154800F034F86020ADF869
:1030700010000020ADF818000120ADF8120004A9DE
:103080000E48FFF76BFE04A90C48FFF7B3FE04A936
:103090000A48FFF701FF04A90848FFF757FF082176
:1030A0000648FFF749FF01210448FFF730FE09B049
:1030B00000BD000000080140000C01400004004079
:1030C000818670470187704781877047A0F840105C
:1030D00070470000002202881D4B98420ED01D4B05
:1030E00098420BD0B0F1804F08D01B4B984205D0CE
:1030F0001A4B984202D01A4B984204D14FF68F7364
:103100001A404B881A43174B984207D0164B9842E7
:1031100004D04FF6FF431A40CB881A4302808B88B5
:1031200083850B8803850A4B98420BD0094B984244
:1031300008D00E4B984205D00D4B984202D00D4B53
:10314000984201D10B7A03860123838270470000E5
:10315000002C014000340140000400400008004001
:10316000000C0040001000400014004000400140EE
:1031700000440140004801403EB505460C4601218F
:103180000846FFF7A7F900F01CF8681E80B2ADF8FA
:103190000400601E80B2ADF800000020ADF802000F
:1031A000ADF8060069464FF08040FFF793FF01221B
:1031B00011469007FFF7C8FD01218807FFF7A7FD1B
:1031C0003EBD08B51C208DF8000003208DF80100DD
:1031D0008DF8020001208DF803006846FEF7B8FF65
:1031E00008BD000010B540F22551124800F010F95A
:1031F000F0B1104800F0C8F9C4B2662C07D10EA097
:10320000FDF718F8FEF7FCF901200F490870642C4F
:1032100002D101200D490870442C04D14FF4FA6109
:103220000B48FEF79DFB40F22551024800F07EF866
:1032300010BD000000380140BFAACABCB7A2C9E453
:10324000B3CCD0F2210D0A0014000020150000209C
:1032500000A0000810B586B00446012144F2040025
:10326000FFF748F94FF40070ADF8140003208DF813
:10327000160018208DF8170005A91C48FEF730FC31
:103280004FF48060ADF8140004208DF8170005A9F4
:103290001648FEF725FC25208DF8000001208DF84A
:1032A00001008DF802008DF803006846FEF750FF1C
:1032B00001940020ADF80800ADF80A00ADF80C004C
:1032C000ADF810000C20ADF80E0001A9084800F080
:1032D000EFF8012240F22551054800F0C3F8012122
:1032E000034800F032F806B010BD000000080140AD
:1032F0000038014010B540F225510A4800F088F826
:1033000070B1084800F040F9C4B2532C03D1012039
:103310000549088004E04B2C02D1022002490880B4
:1033200010BD0000004800400A00002010B5002237
:10333000002340F66A14A14200D100BF0A12012402
:103340009440A3B2DC43048010BD21B1828942F4D1
:103350000052828104E082894DF6FF731A40828117
:103360007047000000B585B001210420FFF7C2F8C6
:1033700001218803FFF7BEF84FF40070ADF810008C
:1033800018208DF8130003208DF8120004A91348AB
:10339000FEF7A6FB4FF48060ADF8100004208DF816
:1033A000130004A90D48FEF79BFB4FF41650009044
:1033B0000020ADF80400ADF80600ADF80800ADF847
:1033C0000C000C20ADF80A006946054800F070F8C2
:1033D00001210348FFF7B9FF05B000BD0008014017
:1033E000003801401AB1838A0B43838202E0838A4A
:1033F0008B438382704702460020B1F5007F00D1E5
:1034000000BF13880B400BB1012000E00020704783
:1034100070B50246002400230025002040F66A16FD
:10342000B14200D100BFC1F3421501F01F030126D4
:1034300006FA03F3012D02D19689334006E0022DEE
:1034400002D1168A334001E0968A33400C120126DD
:1034500006FA04F41688344013B10CB1012000E0E0
:10346000002070BDF0B50346002400260025002092
:1034700040F66A17B94200D100BF1846C1F34214A2
:1034800001F01F06012707FA06F5012C01D10C30C7
:1034900004E0022C01D1103000E014301AB10768AA
:1034A0002F43076002E00768AF430760F0BD0000EC
:1034B0002DE9F04786B005460E460024A24600BF1F
:1034C000A1460027B08900B100BF2F462C8A4CF6D8
:1034D000FF700440F08804432C82AC894EF6F31050
:1034E0000440B08831890843718908430443AC81A2
:1034F000AC8A4FF6FF400440B0890443AC8201A877
:10350000FFF760F81F48874202D1DDF810A001E004
:10351000DDF80CA0A88900F4004040B10AEBCA0015
:1035200000EB0A1031684900B0FBF1F807E00AEB44
:10353000CA0000EB0A1031688900B0FBF1F8642082
:10354000B8FBF0F004012009642101FB1089A8896F
:1035500000F4004040B1322000EBC900B0FBF1F0B4
:1035600000F00700044308E0322000EB091064215A
:10357000B0FBF1F000F00F0004432C8106B0BDE871
:10358000F08700000038014001468888C0F3080039
:103590007047C1F3080282807047000000B58BB00D
:1035A00001210846FEF786FF0F4800900F48019062
:1035B000102002904FF4FA600390002004908020C5
:1035C000059000200690079008904FF480500990D5
:1035D00000200A9069460648FEF76CF8012104486D
:1035E000FEF75CF80BB000BD04380140CC000020B1
:1035F0004400024010B500210248FEF74FF8FFF7E3
:10360000CDFF10BD4400024000BFFEE7490050EA74
:10361000C12018BF04204A0D18BF40F0010040F23D
:10362000FF72B2EB515F08BF40F00200012808BFF3
:10363000052070472DE9F0414F1E00EBC7010446FD
:10364000D1E9000115461E4637F006020DD02A4684
:10365000334603F093FA7F1E04EBC703D3E900233C
:1036600003F054F837F00602F1D1022F25D0042FD1
:1036700013D0062F18BFBDE8F0812A46334603F069
:103680007DFAD4E90A2303F041F82A46334603F0D1
:1036900075FAD4E9082303F039F82A46334603F0D3
:1036A0006DFAD4E9062303F031F82A46334603F0D5
:1036B00065FAD4E9042303F029F82A46334603F0D7
:1036C0005DFAD4E9022303F021F82A46334603F0D9
:1036D00055FAD4E90023BDE8F04103F017B8012200
:1036E00004F003B903F012B8002213461046114645
:1036F00003F0BCB8024A0020110704F0F6B800003D
:1037000001FDFFFF30380A2801D201207047002058
:103710007047014600BF70472DE9FE4F06460F4631
:103720000025684601F0F6F9002442E056F824002E
:1037300057F82410A0EB010ABAF1000F01DB514643
:1037400001E0CAF10001084603F0BEFE83464FF0D7
:103750008F4103F087FD80465DF82400002103F0CF
:1037600043FE16D05DF82410404603F07BFD8246F0
:103770004FF07E5104F010F8814629F0004A0F48BE
:10378000416A504603F0CCFF12D20120A04005430D
:103790000EE00A48C169404603F0C2FE05D307485F
:1037A000016A404603F0BCFF02D20120A04005435D
:1037B000641C032CBADB2846BDE8FE8FA079000804
:1037C0002DE9F04D8D4F21F0004A86B005460C469C
:1037D000BA452ADBAAEB070028430AD0884882456D
:1037E00001DC1AD1CDB106B02846BDE8F04DFFF797
:1037F00076BF844A844B284603F0C0F907460E463C
:10380000824A834B2846214603F0B8F906B03A466F
:103810003346BDE8F04D02F079BF0120FCF7CAFE47
:1038200006B0BDE8F04DFFF75FBF7A48824542DA47
:10383000BAF1795F0BDA2846FFF7E8FE042808BFE3
:10384000FFF758FF284606B02146BDE8F08D2A460E
:103850000B46104603F092F9834602466E480E4628
:103860000B4606217844FFF7E5FE5A46334603F03F
:1038700085F9804669488A465A4633460421784489
:10388000FFF7D8FE5A46334603F078F900223B464C
:1038900002F03CFF02460B464046514602F0E6FF6E
:1038A0002A46234603F06AF906B02A462346BDE8B5
:1038B000F04D02F02BBF284624F0004100223D4687
:1038C0003B4603F059FA4FF0FF3204F00EF806467B
:1038D000024653480F460B4606217844FFF7AAFEDE
:1038E00032463B4603F04AF9CDE900014D483246E5
:1038F0003B4604217844FFF79DFE32463B4603F0E9
:103900003DF900222B4602F001FF8346029130462A
:10391000394602F08DFE804643480D46504517DC7F
:10392000DDE900015A46029B02F0A0FF42462B4609
:1039300003F024F942462B4602F0E8FE012203F090
:10394000D4FF304A304B03F009FB304A304B4CE097
:103950004FF0000A52460B46404602F0D7FECDE932
:10396000031052462B461046194603F007F932461B
:103970003B4603F001FADDE9033202F077FF064629
:103980000F46DDE900015A46029B02F06FFF8346B5
:10399000009101223046394603F0A7FF194A1A4B1D
:1039A00003F0EAF906460F4601224046294603F095
:1039B0009CFF5A46009B03F0E1F832463B4603F079
:1039C000CDFA06460F4601225046294603F08DFFE8
:1039D0000E4DDFF858802A46434603F0CDF93246B3
:1039E0003B4603F0C9F92A46434603F0C5F9002CCB
:1039F000D8BF81F0004106B0BDE8F08D0000F03F77
:103A00000000F07F075C143326A6913C182D445427
:103A1000FB21F93F0000E03F684D00007E4D0000B3
:103A2000F24C0000084D00003333EF3FFB21E93F2B
:103A30002DE9F84F04460D4621F0004000917349EE
:103A4000814211DC7249884201DC06D12CB120464A
:103A50002946BDE8F84FFFF742BE6E48002DCCBFA7
:103A60006D496E49BDE8F88F6D49814211DD6D49A0
:103A70008142D8BF4FF0FF366DDD20462946FFF763
:103A8000C5FD042808BFFFF735FE20462946BDE8DE
:103A9000F88F6549654F25F00045814233DD644963
:103AA000814219DD002632464FF0804320462946E8
:103AB00002F02CFE80468A4601222046294603F069
:103AC00014FF00223B4603F049FA4246534602F0F7
:103AD000CDFE04460D463EE001260022BA463B4696
:103AE0002046294602F012FE80460F460022534629
:103AF0002046294603F032FA42463B4602F0B6FE23
:103B000004460D4627E04B4981421BDDDFF828A122
:103B10000226002253462046294603F02FF80022B1
:103B20003B4602F0F3FD80460F46002253462046F6
:103B3000294603F013FA42463B4602F097FE04463C
:103B40000D4608E0032622462B4600203B4902F0A2
:103B50008DFE04460D4622462B461046194603F0BC
:103B60000DF88B46824602460B4603F007F80746DF
:103B70000246334888460B4606217844FFF75AFD33
:103B800052465B4602F0FAFF82462E488B463A4682
:103B9000434605217844FFF74DFD3A46434602F07F
:103BA000EDFF02460B46002E504659460CDA02F055
:103BB000ADFD22462B4602F0E1FF01B022462B4626
:103BC000BDE8F04F03F0D8B802F0A0FD22462B4626
:103BD00002F0D4FF1C4A7A4402EBC603D3E9002367
:103BE00003F0BCF922462B4603F0B8F9174A7A4491
:103BF00002EBC603D3E9002303F0BEF8009A002AC3
:103C0000B8BF81F00041BDE8F88F0000000010440B
:103C10000000F07F182D4454FB21F93FFB21F9BF30
:103C20000000DC3F0000203E0000F33F0000F03FBA
:103C30000000E63F008003400000F83F0000F0BFB6
:103C40000A4B0000C84A0000664A00002E4A0000E5
:103C50002DE9F04D9446CCF1000423F000464CEAE7
:103C60000404524F46EAD4749A46884621F0004232
:103C7000BC4206D8454240EA050442EAD474BC423C
:103C800004D9BDE8F04D6246FFF72CBDAAF14055BE
:103C9000A5F17F6555EA0C040BD0022404EAAA744E
:103CA000434DDFF810E144EAD87452EA000B04D027
:103CB0000CE0BDE8F04DFFF7BBBE002C14BF012C9B
:103CC000BDE8F08D022C30D0032C32D056EA0C0B1C
:103CD0000AD0BE4220D1BA4209D126F0804622F055
:103CE00080423346114617E000291ADB25E0DFF851
:103CF000C8B0FB44002C04BFDBE90001BDE8F08D37
:103D0000012C02BFDBE9000181F00041BDE8F08D2C
:103D1000022C0AD0032C0CD0BA4212D1B8F1000FF9
:103D20000BDA23482549BDE8F08D28462449BDE833
:103D3000F08D28467146BDE8F08D1D482149BDE84B
:103D4000F08D921B12153C2AC4BF19481D490EDC88
:103D5000BAF1000FBEBF12F13C0F0020014606DB96
:103D6000624602F083FD21F00041FFF761FE002C66
:103D700008BFBDE8F08D012C04BF81F00041BDE813
:103D8000F08D114A114B022C07D003F0E7F82A46B8
:103D9000BDE8F04D0A4B03F0E1B803F0DFF82A4626
:103DA000BDE8F04D064B02F0E7BF00000000F07FD9
:103DB000182D4454FB2109C0C2490000FB21F9BF62
:103DC000FB210940FB21F93F075C143326A6A13CE7
:103DD0002DE9F0410446E07800F0C006E07800F0FC
:103DE0003F05607800F0010098B1EF102846E91710
:103DF00005EB5171C910A5EBC101491C01F0FF0889
:103E00000B48006820B10A4841460268384690478E
:103E100000BF607800F0080030B10548406818B174
:103E2000B011034A516888470020BDE8F0810000C6
:103E30001028002010B56FF00400FEF7F5FD0A48C9
:103E400000680A49B0FBF1F009490870084600789B
:103E500000EB4001C1EBC0104FF6FF7101EAC0005A
:103E60000449088010BD00002000002000127A00E4
:103E700000000020020000200146114A12884A4337
:103E80004FF0E0235A6100229A611A46126942F00B
:103E900001021A6100BF4FF0E022106900F0010238
:103EA0001AB100F48032002AF5D04FF0E0221269F6
:103EB00022F001024FF0E0231A6100229A6170475C
:103EC000020000200146104A12784A434FF0E023D6
:103ED0005A6100229A6101221A6100BF4FF0E0226C
:103EE000106900F001021AB100F48032002AF5D006
:103EF0004FF0E022126922F001024FF0E0231A6134
:103F000000229A61704700000000002038B5044686
:103F100064B120208DF8000028208DF801003020A9
:103F20008DF8020038208DF8030004E0A32204215C
:103F30006846FCF7B7FA6A46042140F69E2002F074
:103F4000A5FA01F08FFE38BD3EB5044602208DF87B
:103F50000000CA208DF80100E3208DF8020009203E
:103F60008DF803006A460421682002F08FFAA3202E
:103F70008DF8000004F0400048B1C0208DF8010029
:103F8000C8208DF80200C2208DF8030006E0A320AF
:103F90008DF801008DF802008DF8030004F4C07064
:103FA00048B1C4208DF80400CC208DF80500C6204F
:103FB0008DF8060006E0A3208DF804008DF80500BA
:103FC0008DF80600A3208DF807008DF808008DF805
:103FD00009006A460A2140F6A72002F057FA04F0C9
:103FE000030018B120208DF8000002E0D8208DF8E1
:103FF00000006A46012140F6B62002F047FA04F0BC
:10400000200018B1012000F0ADF802E0002000F01F
:10401000A9F804F4C07008B304F4807060B1B22051
:104020008DF800008B208DF80100B6208DF802007D
:104030009B208DF803000BE0B0208DF8000080205D
:104040008DF80100B4208DF8020090208DF8030057
:104050006A46042140F6A22002F018FA04F001009A
:1040600020B3F8208DF800006A4601214FF40B6060
:1040700002F00CFAFA21072000F02CFC072000F0D7
:10408000F3FB012000F013FC642000F0F3FC4FF47C
:10409000FA7000F002FDC821304800F0A3FB282090
:1040A00000F0BCFB0A2000F0CCFB08E0D8208DF823
:1040B00000006A4601214FF40B6002F0E7F904F0BA
:1040C000020018B1D9208DF8000002E0D8208DF848
:1040D00000006A46012140F23D7002F0D7F904F079
:1040E000040018B1012000F069F802E0002000F09F
:1040F00065F804F0100018B10120FFF707FF02E097
:104100000020FFF703FF44F008001549488101F043
:10411000A9FD00201249887304F0400018B1084638
:10412000807B801D887304F4C07020B10C48807BB4
:10413000801D0B49887304F0140020B10848807B6F
:1041400010300749887304F0030020B10448807BD5
:10415000001D0349887300203EBD000009E3CA0228
:10416000102800203EB504466CB10EA1D1E9002014
:104170008968CDE9002002916A4609214FF49760D1
:1041800002F084F93EBD0AA2D2E900109268CDE99E
:10419000010200916A4609214FF4976002F076F916
:1041A000F0E70000B8AAB38DB4980D355D000000AB
:1041B000B8AAAAAAB088C3C5C700000038B504468B
:1041C00064B1C0208DF80000C2208DF80100C42029
:1041D0008DF80200C6208DF8030004E08B22042134
:1041E0006846FCF75FF96A46042140F6982002F021
:1041F0004DF901F037FD38BD10B5C8234FF480628A
:10420000024940F6F63001F0C1FB10BDC879000844
:104210002DE9F04F8DB00746884615469946DDE9F1
:10422000166B0024002030806B49887B5A4605A914
:1042300001F078FC18B1601E0DB0BDE8F08F664843
:10424000807A00F01400002867D09DF81400000662
:104250009DF8151040EA01409DF8161040EA012033
:104260009DF81710084328609DF8180000069DF877
:10427000191040EA01409DF81A1040EA01209DF80B
:104280001B10084368609DF81C0000069DF81D1077
:1042900040EA01409DF81E1040EA01209DF81F10E1
:1042A0000843A8609DF8200000069DF8211040EA10
:1042B00001409DF8221040EA01209DF82310084398
:1042C000E86004F11000C4B2286800140190686826
:1042D00000140290A86800140390E8680014049089
:1042E00001984043029901FB0100039901FB010081
:1042F000049901FB010ABAF1706F02DBBAF1885F21
:1043000005DD01F0AFFC00203080401E94E7B6F9D7
:10431000000040F48070308000BF2F48807A00F0A9
:10432000400020B305A9601C085C095D40EA01203B
:1043300000B2A8F8000005A9E01C095C05AAA01CB1
:10434000105C41EA002000B2A8F8020005A9601D37
:10435000095C201D105C41EA002000B2A8F80400AE
:10436000A01DC4B2B6F9000040F0080030801A4821
:10437000408900F4C07008B305A9601C085C095DA1
:1043800040EA012000B2388005A9E01C095C05AABA
:10439000A01C105C41EA002000B2788005A9601DD5
:1043A000095C201D105C41EA002000B2B880A01D0D
:1043B000C4B2B6F9000040F0700030800648807A40
:1043C00000F0030018B105A90819FFF701FD4846E0
:1043D00000F066FF00202FE71028002070B588B09D
:1043E000064601A801F026F9BDF804000021C90322
:1043F00041EA5045C4034448007A00F0030056F8EF
:10440000200005904048007A00F0040010B10598A3
:10441000404205903C48007AC0F3C10056F82000A5
:1044200006903948007A00F0200010B1069840420A
:1044300006903548007AC0F3811056F820000790A6
:104440003148008900F4807010B10798404207900D
:104450000598C117A0FB042301FB043100FB0510E4
:10446000810041EA927005900698C117A0FB0423D1
:1044700001FB043100FB0510810041EA92700690B7
:104480000798C117A0FB042301FB043100FB0510B2
:10449000810041EA927007900598000E8DF808009F
:1044A0000598000C8DF809000598000A8DF80A009F
:1044B0000598C0B28DF80B000698000E8DF80C0020
:1044C0000698000C8DF80D000698000A8DF80E0075
:1044D0000698C0B28DF80F000798000E8DF81000F6
:1044E0000798000C8DF811000798000A8DF812004B
:1044F0000798C0B28DF8130002AA0C214FF4257062
:1045000001F0C4FF08B070BD1028002030B585B0A0
:10451000044616A207CA02AB07C3C82C03DD4FF03E
:10452000FF3005B030BDC82090FBF4F0401E85B2CE
:10453000280A8DF80000E8B28DF801006A460221D1
:1045400040F2162001F0A2FF10B14FF0FF30E8E773
:1045500002AA0C2140F6C12001F098FF10B14FF0E3
:10456000FF30DEE7044884810020DAE7FEF2ABC4C6
:10457000AAF1DFDFBBAFDFDF102800201FB5044644
:104580004848007A00F0030054F8200001904548A4
:10459000007A00F0040010B10198404201904148B7
:1045A000007AC0F3C10054F8200002903D48007A20
:1045B00000F0200010B10298404202903948007A81
:1045C000C0F3811054F8200003903648008900F4AD
:1045D000807010B10398404203903349019880FBEA
:1045E0000101800F40EA810001902F49029880FB71
:1045F0000110820042EA917002902B49039880FBDF
:104600000110820042EA917003900198000E8DF82B
:1046100000000198000C8DF801000198000A8DF847
:1046200002000198C0B28DF803006A4604214FF4DD
:10463000747001F02BFF18B14FF0FF3004B010BDC3
:104640000298000E8DF800000298000C8DF8010011
:104650000298000A8DF802000298C0B28DF803009B
:104660006A4604214FF4757001F010FF10B14FF04D
:10467000FF30E3E70398000E8DF800000398000C6C
:104680008DF801000398000A8DF802000398C0B26B
:104690008DF803006A4604214FF4767001F0F6FEAF
:1046A000CCE700001028002009E3CA0210B586B04C
:1046B000044647A00068039046A00068029046A008
:1046C0000068019045A00068009004F0030003A971
:1046D000085C8DF8140003A8C4F3C101405C8DF898
:1046E000150003A8C4F38111405C8DF8160004F096
:1046F000030002A9085C8DF8100002A8C4F3C101F0
:10470000405C8DF8110002A8C4F38111405C8DF863
:10471000120005AA032140F2264001F0B7FE18B1AD
:104720004FF0FF3006B010BD04AA032140F22A402A
:1047300001F0ACFE10B14FF0FF30F3E701980590A7
:104740000098049004F0040058B19DF8140040F063
:1047500001008DF814009DF8100040F001008DF864
:10476000100004F0200058B19DF8150040F0010041
:104770008DF815009DF8110040F001008DF8110032
:1047800004F4807058B19DF8160040F001008DF8D7
:1047900016009DF8120040F001008DF8120005AAE5
:1047A00003214FF4886001F071FE10B14FF0FF302B
:1047B000B8E704AA032140F2314001F067FE10B1CE
:1047C0004FF0FF30AEE7064804810020AAE7000062
:1047D0004CCD6C000CC92C0036567600264666007F
:1047E00010280020F8B505460E464FF47A7095FB68
:1047F000F0F000FB06F4200E8DF80000200C8DF880
:104800000100200A8DF80200E0B28DF803006A462C
:1048100004214FF4AE7001F039FEF8BD38B50446FE
:10482000052094FBF0F084B220128DF80000E0B275
:104830008DF801006A4602214FF4AD7001F026FEAA
:1048400038BD38B50446052094FBF0F084B2201240
:104850008DF80000E0B28DF801006A4602214FF4A5
:10486000AC7001F013FE38BD38B50446002000904E
:1048700004F0010020B19DF8000040F030000090ED
:1048800004F0020020B19DF8000040F00C00009000
:1048900004F0040020B19DF8000040F003000090F7
:1048A0006A4601214FF4A47001F0F0FD38BD38B51F
:1048B0000446012C01DA012402E0042C00DD04246A
:1048C000601EC0B200906A46012140F24F1001F014
:1048D000DDFD38BD2DE9FC4706460F4606F0070012
:1048E00010B1B7F5C86F03DD4FF0FF30BDE8FC87AE
:1048F000384602F001FE8146594902F0B3FC804679
:10490000684600F071FE9DF80000022806D00428D9
:1049100016D0082826D0102848D135E04FF08D4118
:10492000404602F031FE814602F0AEFD84B24D49B0
:10493000404602F029FE814602F0A6FD85B238E02D
:104940004FF08C41404602F01FFE814602F09CFD74
:1049500084B24549404602F017FE814602F094FDBC
:1049600085B226E04FF08B41404602F00DFE8146B5
:1049700002F08AFD84B23D49404602F005FE8146C0
:1049800002F082FD85B214E04FF08A41404602F009
:10499000FBFD814602F078FD84B23549404602F0C5
:1049A000F3FD814602F070FD85B202E04FF0FF306A
:1049B0009CE700BF20128DF80400E0B28DF80500DE
:1049C00028128DF80600E8B28DF8070006F0010005
:1049D000A0B101AA02214FF4EA7001F057FD10B115
:1049E0004FF0FF3082E70DF1060202214FF4927082
:1049F00001F04CFD10B14FF0FF3077E706F00200F8
:104A0000A0B101AA02214FF4EC7001F03FFD10B1FA
:104A10004FF0FF306AE70DF1060202214FF4947067
:104A200001F034FD10B14FF0FF305FE706F00400F5
:104A3000A0B101AA02214FF4EE7001F027FD10B1E0
:104A40004FF0FF3052E70DF1060202214FF496704D
:104A500001F01CFD10B14FF0FF3047E7002045E7A3
:104A600000004843000040460000C04500004045AB
:104A70000000C04438B50446052094FBF0F085B230
:104A800028128DF80000E8B28DF801006A46022174
:104A90004FF4EF7001F0FAFC38BD38B5044605203C
:104AA00094FBF0F085B228128DF80000E8B28DF882
:104AB00001006A4602214FF4ED7001F0E7FC38BDB9
:104AC00010B504464FF08641204602F029FE01D879
:104AD000FF2010BD4FF04341204602F021FD01D8D8
:104AE0000020F6E7204602F0B3FC8030C0B2F0E7C9
:104AF00070B504460D46E1B20548FEF74AFD00BF19
:104B000080210348FEF777FC0028F9D0204670BDCD
:104B1000003801407CB5054628494968087801AB52
:104B200004220D21FDF712FA08B107207CBD9DF883
:104B30000700C0F301109DF8041001F0E00140EA05
:104B4000E1008DF800009DF80700C0F381009DF89A
:104B5000051001F0E00140EAE1008DF801009DF848
:104B6000070000F003009DF8061001F0E00140EAA4
:104B7000E1008DF8020000241CE01DF8040018B9C3
:104B8000002045F8240013E00D4845F8240006E015
:104B900055F824000B4902F0F7FC45F824001DF8F5
:104BA0000400401EC0B20DF804000028F0D100BF80
:104BB000601CC4B2032CE0DB0020B7E748000020F3
:104BC0007B14AE3E1D5A843F2DE9F04F87B0054659
:104BD0000C46914601208DF8100000208DF8110040
:104BE000FE4A1268917CFD4A5268107804AB02229A
:104BF000FDF752FA20B14FF0FF3007B0BDE8F08F5B
:104C0000C820FFF739F900208DF81000F34A126828
:104C1000D17BF24A5268107804AB0122FDF73CFACE
:104C200010B14FF0FF30E8E7EC4A12685179EB4AD7
:104C30005268107804AB0122FDF72EFA10B14FF044
:104C4000FF30DAE7E54A1268917CE44A526810784E
:104C500004AB0122FDF720FA10B14FF0FF30CCE792
:104C6000DE4A1268D17DDD4A5268107804AB012219
:104C7000FDF712FA10B14FF0FF30BEE7D74A1268C5
:104C80001179D64A5268107804AB0122FDF704FA74
:104C900010B14FF0FF30B0E70C208DF81000CF4A74
:104CA00012681179CD4A5268107804AB0122FDF7E1
:104CB000F3F910B14FF0FF309FE70F20FFF7DCF85A
:104CC000C648806A407A8DF81000C44A126891780C
:104CD000C24A5268107804AB0122FDF7DDF910B129
:104CE0004FF0FF3089E7BD48806A007A8DF81000E8
:104CF000BA4A12685178B94A5268107804AB012256
:104D0000FDF7CAF910B14FF0FF3076E7B9F1000FA7
:104D100007D0B248806A807A40F0E0008DF8100039
:104D200004E0AE48806A807A8DF81000AB4A1268C1
:104D30009179AA4A5268107804AB0122FDF7ACF9C8
:104D400010B14FF0FF3058E7B9F1000F07D0A3487A
:104D5000806AC07A40F0E0008DF8100003E0A048BF
:104D6000C07A8DF810009D4A1268D1799B4A52682A
:104D7000107804AB0122FDF78FF910B14FF0FF302E
:104D80003BE7B9F1000F02D0C820FFF775F84020CB
:104D90008DF81000914A12681179904A5268107883
:104DA00004AB0122FDF778F910B14FF0FF3024E792
:104DB00078208DF81000894A12685179874A526824
:104DC000107804AB0122FDF767F910B14FF0FF3006
:104DD00013E783498889FFF74FF800208DF810000A
:104DE0007E4A126851797D4A5268107804AB0122DC
:104DF000FDF752F910B14FF0FF30FEE6774A126826
:104E0000917A764A5268107804AB0222FDF79EF838
:104E100010B14FF0FF30F0E69DF811009DF8101032
:104E200040EA012B0C209BFBF0F0C6B20020A860EA
:104E300068602860A06060602060824665E0674A24
:104E40001268D17A654A5268107804AB0C22FDF7DB
:104E50007DF810B14FF0FF30CFE69DF811009DF8BE
:104E6000101040EA012000B2ADF808009DF81300D0
:104E70009DF8121040EA012000B2ADF80A009DF83A
:104E800015009DF8141040EA012000B2ADF80C00A6
:104E9000BDF90810206808442060BDF90A10606858
:104EA00008446060BDF90C10A0680844A0609DF83B
:104EB00017009DF8161040EA012000B2ADF800007E
:104EC0009DF819009DF8181040EA012000B2ADF8D5
:104ED00002009DF81B009DF81A1040EA012000B264
:104EE000ADF80400BDF90010286808442860BDF939
:104EF0000210686808446860BDF90410A868084496
:104F0000A8600AF1010000F0FF0AB24597DB3448BF
:104F1000D0F800C02868C117090441EA104107040D
:104F2000624600233846FBF760F932460023CDE99C
:104F30000201FBF75AF928602948D0F800C06868D8
:104F4000C117090441EA10410704624600233846AC
:104F5000FBF74BF932460023CDE90201FBF745F997
:104F600068601F48D0F800C0A868C117090441EA6A
:104F700010410704624600233846FBF736F93246F3
:104F80000023CDE90201FBF730F9A8601448D0F8FE
:104F900004C02168C817000440EA11480F046246A3
:104FA000002338464146FBF720F932460023CDE97D
:104FB0000201FBF71AF920600948D0F804C06068C4
:104FC000C117090441EA104107046246002338462C
:104FD000FBF70BF93246002304E0000048000020F4
:104FE000A0790008CDE90201FBF7FFF860601148E5
:104FF000D0F804C0A068C117090441EA10410704B1
:10500000624600233846FBF7F0F832460023CDE92C
:105010000201FBF7EAF8A060A068002804DDA068A0
:10502000A0F58030A06003E0A06800F58030A060AB
:105030000020E2E5A07900082DE9FC5F06460F4656
:1050400000253D494968087801AB03220D21FCF792
:105050007DFF10B10720BDE8FC9F9DF8040000F023
:105060001F008DF804009DF8050000F01F008DF86A
:1050700005009DF8060000F01F008DF806000024D2
:1050800056E056F8240057F82410A0EB010BBBF1B2
:10509000000F01DB594601E0CBF10001084602F0A8
:1050A00013FA4FF08F41009002F0DCF8814601A81E
:1050B000005D68B32149086802F01EFA834659462C
:1050C0001F4802F0CFF8804604E01E49404602F037
:1050D0005BFA804601A8005D401EC0B201A90855D8
:1050E0000028F2D14146484602F0BCF883464FF012
:1050F0007E5102F051FB82462AF0004B0F48816935
:10510000584602F00DFB12D20120A04005430EE0EC
:105110000A480169484602F003FA05D30748416985
:10512000484602F0FDFA02D20120A0400543641C6B
:10513000032CA6DB28468EE748000020A079000853
:1051400000B04C4554E3853F10B50446204600F0BE
:105150000FF80346E01C00F00BF843EAC00083B2EE
:10516000A01D00F005F843EA801083B2184610BD78
:10517000014691F90020002A01DD00201EE091F98E
:105180000020002A01DA042018E091F90120002A09
:1051900001DD012012E091F90120002A01DA052049
:1051A0000CE091F90220002A01DD022006E091F9CD
:1051B0000220002A01DA062000E0072070470000E4
:1051C0000024FDF7A7F9FEF735FE4FF4FA70FCF75F
:1051D00090FAFEF7C7F84FF41650FEF73BF8FDF7CC
:1051E000F3FEFCF7F7F9002211461046FDF754F9DB
:1051F000FCF752FE10B11AA0FBF71CF803E02146A1
:105200001CA0FBF717F800F09FF9041EF7D1FEF77A
:10521000C5F94FF47A70FCF76CFAFCF711FA1AA092
:10522000FBF708F818214EF66020FDF7A5FFFCF704
:1052300066FF13E0184801680120FDF7D9FA174806
:1052400001680220FDF7D4FA134801680320FDF736
:10525000CFFA124801680420FDF7CAFAEAE7000015
:105260004D50555F496E6974204661696C656421D3
:105270000D0A00006D70755F646D702065726F724D
:1052800072203A25640D0A00B3F5CABCBBAFCDEA63
:10529000B3C9A3A10D0A0000C0000020C400002073
:1052A0007047000070B50446002624F00104184839
:1052B00090F8240008B1002070BD1548807A10B91C
:1052C0004FF0FF30F8E71248057C807A2040104903
:1052D00008740846007CA04202D04FF0FF3600E080
:1052E000002614B90A48007D18B1012001F058F9D0
:1052F00002E0002001F054F93CB100F0B3FC20B111
:10530000034805744FF0FF30D6E73046D4E700007D
:10531000480000202DE9F04F9BB081468A46934615
:105320001C464FF07E55002600274FF0000814A8B9
:1053300015A91AAB10AACDE9001016A918A8FEF7F6
:1053400067FF18B101201BB0BDE8F08FBDF8540015
:1053500000F4807000287DD0109802F0B5F84FF06E
:105360009D410F9001F07EFF0546119802F0ACF8C8
:105370004FF09D410F9001F075FF0646129802F024
:10538000A3F84FF09D410F9001F06CFF0746139872
:1053900002F09AF84FF09D410F9001F063FF8046B4
:1053A00029464FF0804002F0EFF83946069002F0AF
:1053B000EBF8314608904FF0404002F0E5F84146E6
:1053C000069002F0E1F80790089901F0DDFE0990DF
:1053D00001F0AEFECDE90A01FEF7F2F94FF06632B8
:1053E000584BCDE90C0101F0C9FBCDE90E0101F0EC
:1053F0005BF9C9F8000039464FF0804002F0C4F86C
:105400003946039002F0C0F8314605904FF0404015
:1054100002F0BAF83146039002F0B6F8049005990C
:1054200002F0BAF94FF07E51069001F0ADFE079000
:1054300001F07EFECDE90A0129464FF0804002F0DE
:10544000A3F83146049002F09FF8394606904FF0D9
:10545000804000E071E002F097F84146049002F0CD
:1054600093F80590069901F08FFE079001F060FE19
:10547000CDE90801DDE90A23FEF7EAFB4FF06632C9
:10548000304BCDE90C0101F079FBCDE90E0101F0C3
:105490000BF9CAF800004146404602F075F839465B
:1054A0000690384602F070F831460490304602F01B
:1054B0006BF829460290284602F066F8019002999E
:1054C00001F062FE0390049902F066F905900699D6
:1054D00002F062F9079001F02BFECDE90A01414686
:1054E000284602F051F839460590304602F04CF853
:1054F0000490059901F048FE4FF08041069002F0BB
:1055000043F8079001F014FECDE90801DDE90A2314
:10551000FEF79EFB4FF066320A4BCDE90C0101F01D
:105520002DFBCDE90E0101F0BFF8CBF8000025609E
:105530006660A760C4F80C8001E0022003E7002049
:1055400001E7000066A64C4070B50024FCF786FB1E
:1055500000F024F9002840D1782000F02FFFC4B2D9
:105560000CB1012070BD7820FFF79CFEC4B20CB1D5
:105570000220F7E7642000F0D3FEC4B20CB1032090
:10558000F0E7FEF739FEC4B20CB10420EAE7154893
:10559000FFF7DAFD0546FFF789F8C4B20CB1052024
:1055A000E0E740F27310FEF7CFFCC4B20CB1062066
:1055B000D8E76420FEF7AAFFC4B20CB10720D1E7F8
:1055C00000F0A4FF04460CB10820CBE7012000F056
:1055D000A3FDC4B21CB10920C4E70A20C2E7002021
:1055E000C0E700007400002001461148407A30B145
:1055F000012807D0022808D003280CD108E0022097
:1056000008700BE00420087008E00820087005E02E
:105610001020087002E04FF0FF30704700BF0448D0
:10562000C07C18B108784006000E08700020F4E72E
:105630004800002001461348407A30B1012808D0C4
:1056400002280AD0032810D10BE04FF480400880D4
:105650000EE041F69C7008800AE04FF4805008800C
:1056600006E04FF40060088002E04FF0FF30704722
:1056700000BF0448C07C10B108884010088000209A
:10568000F5E700004800002001460248007C087051
:10569000002070474800002001460F48007A30B1D2
:1056A000012807D0022809D003280FD10AE0FA20E8
:1056B00008800EE04FF4FA7008800AE04FF47A7028
:1056C000088006E04FF4FA60088002E000200880BD
:1056D00000BF00BF002070474800002001460E4870
:1056E000007A30B1012807D0022808D003280CD155
:1056F00008E00A4808600BE00948086008E009482B
:10570000086005E00848086002E04FF0FF3070478D
:1057100000BF0020FBE7000048000020000003431A
:10572000000083423333034233338341014612483E
:10573000C07A082817D2DFE800F01704070A0D1016
:105740001318BC20088013E06220088010E02A2093
:1057500008800DE0142008800AE00A20088007E095
:105760000520088004E000BF00BF0020088000BFC3
:1057700000BF002070470000480000200146064896
:1057800090F8240010B14FF0FF3070470248C089F4
:1057900008800020F9E70000480000201CB58020A8
:1057A0008DF80000654A1268917C644A526810784E
:1057B0006B460122FCF770FC10B14FF0FF301CBDAE
:1057C0006420FEF759FB00208DF800005B4A126848
:1057D000917C5A4A526810786B460122FCF75CFCB7
:1057E00010B14FF0FF30EAE7544A1268917D534AF6
:1057F000526810786B460622FCF7A8FB10B14FF0F8
:10580000FF30DCE79DF80500C007400F9DF803104E
:1058100001F0010140EA41009DF8011001F0010191
:1058200040EA010494B1012C03D101214348C17421
:1058300031E0022C03D100214048C1742BE0214605
:105840003FA0FAF7F7FC4FF0FF30B8E73B4A126889
:10585000D1783A4A526810786B460122FCF776FB01
:1058600010B14FF0FF30AAE79DF8000000F00F04E0
:105870002CB93D48FAF7DEFC4FF0FF309FE7042CCF
:1058800006D13AA0FAF7D6FC01212C48C17402E0F7
:1058900000212A48C174FF2128488172FF2027492E
:1058A0000872FF2125484172C1724FF6FF71C18114
:1058B000FF21017481740121017380F822100021FD
:1058C00080F82310417501751630016041608160D8
:1058D000163880F8241080F82510C1844FF4FA603F
:1058E00000F062FC10B14FF0FF3068E7022000F0DA
:1058F0002BFB10B14FF0FF3061E72A2000F0CEFC07
:1059000010B14FF0FF305AE7322000F009FD10B11E
:105910004FF0FF3053E70020FFF7C4FC10B14FF009
:10592000FF304CE7002000F051FB10B14FF0FF308A
:1059300045E7002000F042FD002040E7480000203D
:10594000556E737570706F7274656420736F6674D2
:10595000776172652070726F64756374207265760A
:105960002025642E0A0000005487000848616C66F8
:105970002073656E736974697669747920706172D9
:105980007420666F756E642E0A0000002DE9F043E6
:1059900085B005460E4690469946294890F8250060
:1059A00020B14FF0FF3005B0BDE8F08316B94FF0DD
:1059B000FF30F8E7002423E0281B102801DD102029
:1059C00000E0281B87B232193946204600F05EFD00
:1059D00010B14FF0FF30E6E701AA3946204600F04B
:1059E00001F910B14FF0FF30DDE730193A4601A957
:1059F000FAF72CFD10B16FF00100D4E7E01984B282
:105A0000AC42D9DB4FEA28208DF8000008F0FF00F7
:105A10008DF801000A4A1268917E094A526810788E
:105A20006B460222FCF738FB10B14FF0FF30BAE7AB
:105A30000121034880F82510A0F826900020B2E745
:105A40004800002038B50446282C02DD4FF0FF3016
:105A500038BDDCB9002000F0EBFB00208DF8000021
:105A600007208DF801002E4A1268917C2C4A52685A
:105A700010786B460222FCF70FFB10B14FF0FF309D
:105A8000E6E70021264801750020E1E7012000F04B
:105A9000CFFB20208DF80000012C06D100208DF8CE
:105AA0000100052000F0FAFB17E0052C06DC0120C0
:105AB0008DF80100052000F0F1FB0EE0142C06DC4F
:105AC00002208DF801000A2000F0E8FB05E0032029
:105AD0008DF80100142000F0E1FB9DF80100072182
