:020000040800F2
:10000000802E0020A901000815210008171C0008F7
:1000100011210008CF150008F53400080000000089
:10002000000000000000000000000000BB0100080C
:100030003D17000800000000BF010008C1010008D2
:10004000C3010008C3010008C3010008C301000880
:10005000C3010008C301000859170008C3010008C4
:10006000C3010008C3010008C3010008C301000860
:10007000C3010008C3010008C3010008C301000850
:10008000C3010008C3010008C3010008C301000840
:10009000C3010008C3010008C3010008C301000830
:1000A000C3010008C3010008C3010008C301000820
:1000B000C1280008C3010008C3010008C3010008EB
:1000C000C3010008C3010008C3010008C301000800
:1000D000C3010008CD300008DD310008E13100081F
:1000E000C3010008C3010008C301000800F002F8C2
:1000F00000F04AF80AA090E8000C82448344AAF178
:100100000107DA4501D100F03FF8AFF2090EBAE875
:100110000F0013F0010F18BFFB1A43F0010318473B
:10012000CC850000EC850000103A24BF78C878C167
:10013000FAD8520724BF30C830C144BF04680C60ED
:10014000704700000023002400250026103A28BF35
:1001500078C1FBD8520728BF30C148BF0B60704739
:10016000662907F03083642900F070800020704712
:100170001FB500F0D7FC04000020002106F020FA93
:10018000E0601FBD10B510BD00F0F8FD1146FFF78F
:10019000EFFF04F08BFF00F016FE03B4FFF7F2FF51
:1001A00003BC03F02CFA00000948804709480047C7
:1001B000FEE7FEE7FEE7FEE7FEE7FEE7FEE7FEE717
:1001C000FEE7FEE704480549054A064B7047000074
:1001D00061280008ED00000880280020802E002003
:1001E000802A0020802A0020704710B54C1084EA35
:1001F000530404D54042C1F1000138BF491E1B42DF
:1002000004D55242C3F1000338BF5B1E00F056F91B
:1002100014F0804F04D04042C1F1000138BF491EA4
:1002200014F0004F04D05242C3F1000338BF5B1EEC
:1002300010BD00000FB4044910B503AA029800F0E5
:100240003DFC10BC5DF814FB040000202DE9F041DA
:100250000646002410687529314616A510D0AFF364
:100260000080002802DA404213A507E031688A07BF
:1002700001D512A502E0490704D511A5012401E02A
:10028000AFF3008000210A2206F1240709E0B0FB49
:10029000F2FCB0FBF2F302FB1C003030785418463D
:1002A000491C0028F3D123462A463046BDE8F041D8
:1002B00000F086B9000000002D0000002B000000B7
:1002C000200000002DE9F05F894604464FF0000A47
:1002D000DFF874B1FB44C0F820A02046E1688847ED
:1002E000002874D0252806D0D4E901219047206A3F
:1002F000401C2062F1E700265F462046E1688847FF
:100300002028054607DB312D05D2781910F8200C7E
:1003100008B10643F1E7B00701D526F00406C4F89A
:100320001CA00027C4F818A02A2D09D0284603F0E5
:100330005FF938B304EB8708303DC8F8185019E06E
:1003400059F8041B204604EB87029161E168884755
:10035000012F054618D1E069002820DA26F0200692
:100360001DE0D8F8180000EB800005EB40003038A5
:10037000C8F818002046E1688847054603F038F9B8
:100380000028EED1012F0AD02E2D08D12046E16899
:1003900088477F1C0546022F46F02006C4DBA06973
:1003A000002803DA404246F00106A061F00701D0C0
:1003B00026F010066C2D0BD0682D09D04C2D39D0AD
:1003C0006A2D35D0742D35D07A2D33D016E038E033
:1003D000E1682F4620468847B842054609D16C2F70
:1003E00026D04FF48060E1680643204688470546E2
:1003F00004E06C2F1AD04FF4807006430DB3A5F1C2
:100400004100192802D8203546F400664A4629469C
:10041000204626604E46FFF7A3FE80B101280BD090
:10042000F61D26F0070000F1080956E74020E4E732
:100430008020D8E70020D6E706F104094DE72846DA
:1004400052E7206ABDE8F09F2A82000040EA0103DB
:1004500010B59B070FD1042A0DD310C808C9121F6D
:100460009C42F8D020BA19BA884201D9012010BDA7
:100470004FF0FF3010BD1AB1D30703D0521C07E074
:10048000002010BD10F8013B11F8014B1B1B07D1D8
:1004900010F8013B11F8014B1B1B01D1921EF1D149
:1004A000184610BD02F0FF0343EA032242EA02426B
:1004B00000F018BB704770477047704753EA020C52
:1004C00000F069802DE9F04B4FF00006002B1FBFB4
:1004D000B3FA83F503FA05F424FA05F65E4012BF79
:1004E0001643B2FA82F502FA05F4C5F120051EBFE3
:1004F00022FA05FC44EA0C04203556EA044C4FEA83
:10050000144418BF641C4FF000084FF000099042DB
:1005100071EB030C39D3002919BFB1FA81F701FA45
:1005200007F6B0FA80F700FA07F6C7F120071EBFFA
:1005300020FA07FC46EA0C062037B6FBF4FCA7EBD2
:100540000507103F07F01F0BCBF120060CFA0BFB41
:100550002CFA06F644BFB3460026202FA4BF5E4601
:100560004FF0000B5BEA060C08BF4FF0010B19EBD4
:100570000B09ABFB027C48EB0608C01B06FB02CC58
:100580000BFB03CC71EB0C01C1E70B460246414665
:100590004846BDE8F08B13B54FF000004FF0000166
:1005A000AFF30080BDE81C40704710B500F0BEFA04
:1005B000006810BD10B5044600F0B8FA046010BD24
:1005C0002DE9F0470D4699469246044600F124086D
:1005D0000168880604D5E06921F01001216000E07F
:1005E0000120A84201DD471B00E00027A1697A191C
:1005F00002EB0900081AA0612078C00602D4204648
:10060000AFF30080002608E0D4E901211AF80600C3
:100610009047206A401C761C20624E45F4DB20780F
:10062000C0060AD52046AFF3008006E0D4E90121D8
:1006300030209047206A401C2062381EA7F1010735
:10064000F4DC07E0D4E9012118F805009047206A9E
:10065000401C2062281EA5F10105F3DC2046AFF303
:1006600000802078000602D50220BDE8F087012036
:10067000FBE770472DE9FF4F0C461E464FF0FF3752
:100680008BB0D2E90001DDF860800A908A46C1F3A0
:100690000A5505B93D46002108464FF00000BAF161
:1006A000000F00F4400005DA00EB80004FF4400139
:1006B00001EA50004FEA9059B9F1010F00DDB94647
:1006C0000A9850EA4A000ED044F61050A5F2FF35C1
:1006D00045432F14B8F1000F1ED07542291E1EDDB0
:1006E000C9F100021CE0B8F1010F4FF0000001D089
:1006F000302103E0F24305E02154401CB042FBDB13
:1007000030460022002121540B99C1F80880C1E92C
:1007100000200FB0BDE8F08FBD1B6D1CDEE74A4620
:1007200000DA694206A800F08BFA06AB93E80700EE
:1007300003AB83E8070050460A9900F08DFB8DE873
:100740000700A0F500501F3800900398002D09DD28
:1007500042F21F014A46084403A90390684600F08C
:10076000ECFD08E0A0F500504A461F3803A90390AD
:10077000684600F0F6FD8DE807000004000C03D089
:100780004FF0FF30410800E01046B8F1000F03D0F1
:100790000022009215461EE0751E05D400F0CAF92D
:1007A000303262556D1EF9D5B3460122084302D09E
:1007B00000227F1C04E02078302801D100227F1E17
:1007C000002A099786D01DE0112D07DA00F0B2F952
:1007D000303262556D1C50EA0102F5D1084302D057
:1007E0000098C8B10EE00021681E05E0235C625C41
:1007F00063542254401E491C8142F7DBAB46A81BC0
:10080000401E0990002004F80B000B98099AC0F8CC
:100810000880C0E9002B7CE711264FF0000859E75B
:100820002DE9F04F88460446D21D22F0070191B011
:10083000D1E90001CDE90A0102F05EFE02460B9803
:10084000C00F01D02D2007E02068810701D52B20A3
:1008500002E0202101EAC000032A099001D0072A02
:1008600005DB03464146204600F0AAF90BE120785B
:10087000800601D5E06900E00620B8F1650F8146E9
:1008800006D0B8F1660F18D0B8F1670F70D131E01B
:100890000020B9F1110F009001DB112301E009F1F3
:1008A00001030AAA01A90CA8FFF7E4FEDDE90C7018
:1008B000002609F10105834647E001204B460090E0
:1008C0004FF000470AAA01A90CA8FFF7D3FEDDE903
:1008D0000DB00C995D46002610B909F101000D1804
:1008E000B9EB050003D4C0F1FF3609F10105A5EB12
:1008F00009002BE0B9F1010F01DA4FF001090020E6
:10090000B9F1110F0090484601DD112300E00346C4
:100910000AAA01A90CA8FFF7ADFEDDE90C704D464F
:1009200000268346207800070AD4AB4500DA5D46EE
:1009300001A8012D04DD411911F8011C302907D04F
:100940004F4502DA17F1040F04DA012082460FE066
:100950006D1EEEE7002F02DCED1B3E4403E0781C29
:10096000A84200DD7D1CB81B00F1010A4FF00047D2
:100970002078000703D4AA4501DB4FF0FF3A00219D
:10098000B7F1004F0DF143088DF8431024D0022039
:100990002B23002F01DA7F422D230A21021EA0F112
:1009A000010000DC5FB197FBF1FC97FBF1F201FB6A
:1009B0001C7C17460CF1300C08F801CDEEE7A8F1CD
:1009C000010003702188090501D5452100E065215A
:1009D000A0F1010800F8011C09980FA9A1EB080774
:1009E000FF1D00B10120411901EBEA70A1693844F3
:1009F000081A401EA0612078C00602D42046AFF33A
:100A00000080099828B1D4E901219047206A401C50
:100A100020622078C00622D52046AFF300801EE079
:100A2000002E04DBB34502DD01A8805D00E030202C
:100A3000D4E901219047206A401C2062761CAAF16B
:100A400001005FEA000A0AD100F06CF8C068016892
:100A5000405CD4E901219047206A401C2062281E96
:100A6000A5F10105DCDC07E0D4E9012118F8010B50
:100A70009047206A401C2062381EA7F10107F3DC72
:100A80002046AFF30080032011B043E601694A1C01
:100A900002610878704700B58FB0CDE901310021BF
:100AA000059105497944CDE9031011466846FFF7E1
:100AB00009FC0FB000BD0000E5FFFFFF074B70B55C
:100AC0000D467B44FFF7E7FF0446284600F026F971
:100AD00010B14FF0FF3070BD204670BD173F0000D1
:100AE0004FF000020429C0F0128010F0030C00F057
:100AF0001B81CCF1040CBCF1020F18BF00F8012BD4
:100B0000A8BF20F8022BA1EB0C0100F00DB95FEAA1
:100B1000C17C24BF00F8012B00F8012B48BF00F86E
:100B2000012B70470048704740280020004870475C
:100B30002028002030B5B0F10A024FEA900E71F182
:100B400000034EEA817EB0EB0E0061EB91014FEAAB
:100B5000101E4EEA017E10EB0E0041EB11114FEA20
:100B6000102E4EEA016E10EB0E0041EB11214FEA00
:100B7000104E4EEA014E10EB0E0041EB11414018B1
:100B800041F100014FEAD00040EA41704FEAD10143
:100B900010EB80054FEA810444EA907444EB0104B1
:100BA0006D1944EB0404521BA3414FF0000348BFEE
:100BB0000A3200D530BD401C41F1000130BD0000BB
:100BC0002DE9F0411F46044603260168072A01F477
:100BD000006004DB08B116A505E016A503E008B126
:100BE00015A500E015A521F010002060A069C01E29
:100BF000A0610FB1401EA0612046AFF300804FB14D
:100C0000D4E9012138469047206A401C2062C01C6C
:100C1000206206E0206AFAE7D4E9012115F8010B09
:100C20009047761EF8D22046AFF30080BDE8F081F1
:100C30004E414E006E616E00494E4600696E660080
:100C40002DE9F047814616468AB0334878440DC8EE
:100C50008DE80D0030487844801C03AC0DC884E852
:100C60000D0041F69B300844372190FBF1F290FBD8
:100C7000F1F5A5F1800501FB12041B3C02D564428D
:100C8000012000E00020DFF890A080460027FA4411
:100C9000AAF1BE0A0DE0E00709D03246684607EB2C
:100CA00047010AEB810100F05CFB8DE8070064104E
:100CB0007F1C002CEFD1184F7F44AC3F18E0E807B1
:100CC00014D007EB04100DF1180A90E80E008AE822
:100CD0000E00C068F04201D198190890324606A96A
:100CE00003A800F03EFB03AB83E807006D10641C13
:100CF000002DE4D132466946B8F1000F03A802D0B6
:100D000000F01BFB01E000F02CFBC9E90001C9F871
:100D100008200AB0BDE8F087347A0000007B00F0BC
:100D2000800070474FF0000200B513469446964687
:100D3000203922BFA0E80C50A0E80C50B1F12001EE
:100D4000BFF4F7AF090728BFA0E80C5048BF0CC09C
:100D50005DF804EB890028BF40F8042B08BF7047FA
:100D600048BF20F8022B11F0804F18BF00F8012B6C
:100D70007047000000487047202800207546FFF7A4
:100D8000F9FFAE4605006946534620F00700854648
:100D900018B020B5FFF716FABDE820404FF0000666
:100DA0004FF000074FF000084FF0000B21F0070153
:100DB000AC46ACE8C009ACE8C009ACE8C009ACE896
:100DC000C0098D46704710B50446AFF30080204639
:100DD000BDE81040FFF7E1B94FF0013C50F8042B9B
:100DE00051F8043B9A4221D1A2EB0C03934313EA3E
:100DF000CC1317D150F8042B51F8043B9A4215D16B
:100E0000A2EB0C03934313EACC130BD150F8042B41
:100E100051F8043B9A4209D1A2EB0C03934313EA25
:100E2000CC13DBD04FF00000704700BFD01A01BADE
:100E3000B1FA81F101F0180122FA01F0CB40C1F1C1
:100E40002001DBB2C0B2C01A2CFA01F3D11A9143CF
:100E500011EAC311E6D170475FEA400C08BF91F078
:100E6000000F4FEA8C234FEAC12243EA51514FEA67
:100E70001C5018BF00F5F0404FEA300018BF41F099
:100E800000415FEA6C5C00F02980BCF1FF3F08BFC5
:100E900040F080407047130C06BF12044FF0100C56
:100EA0004FF0000C130E04BF12020CF1080C130FCC
:100EB00004BF12010CF1040C930F04BF92000CF15B
:100EC000020CD30F04BF52000CF1010C11464FF07D
:100ED0000002A0F11F00A0EB0C00704711F0004FC2
:100EE00008BF704731F000413FF4D5AF0B0C06BF8F
:100EF00009044FF0100C4FF0000C0B0E04BF090258
:100F00000CF1080C0B0F04BF09010CF1040C8B0F42
:100F100004BF89000CF1020CCB0F04BF49000CF197
:100F2000010CCCF12003A0EB0C0022FA03F302FA2F
:100F30000CF241EA030100F10100704720F07F4C00
:100F400080EA030023F07F47ACEB070303F57C53F3
:100F500000F0004003F1FF032DE980494FEA154BF3
:100F600009B44FEA144325EA0B4E24EA03480FF272
:100F7000042606EB132749083E785FEA320203FB9A
:100F80000667C7F5000707FB06F64FEA54374FEA36
:100F9000D64606F1020607FB066CCCF1005C4FEA70
:100FA0001C472CEA074C07FB06F40CFB06F504EB88
:100FB00015464FEA961634BF00204FF000404FEA26
:100FC000D13706FB07FC4FEA1C4C0CFB0BF7D21B7E
:100FD00003FB0CF761EB07010CFB0EF7B0EB0740CE
:100FE00072EB17420CFB08F734BFA2EB0742B2EBDF
:100FF000074261EB17414FEA0C444FEA910706FBA9
:1010000007FC4FEA1C4C0CFB0BF7B0EBC74072EB34
:10101000573203FB0CF734BFA2EBC742B2EBC74217
:1010200061EB57310CFB0EF7B0EBC70072EB577258
:101030000CFB08F734BFA2EBC702B2EBC70261EBAF
:101040005771039F4FEA816141EA921104EBCC048E
:101050004FEAD1374FEA826206FB07FC42EA901260
:101060004FEA80604FEA1C4C0CFB0BF7D21B03FBD2
:101070000CF761EB07010CFB0EF7B0EB074072EBCE
:1010800017420CFB08F734BFA2EB0742B2EB074252
:1010900061EB17414FEA8C554FEA910704EB9C2412
:1010A00006FB07FC4FEA1C4C0CFB0BF7B0EBC740F0
:1010B00072EB573203FB0CF734BFA2EBC742B2EB23
:1010C000C74261EB57310CFB0EF7B0EBC70072EB78
:1010D00057720CFB08F734BFA2EBC702B2EBC70292
:1010E00061EB577115EB4C254FEA816141EA921192
:1010F0004FEA82624FEAD13742EA901206FB07FCC0
:1011000044F100044FEA80604FEA1C4C0CFB0BF7E3
:10111000D21B03FB0CF761EB07010CFB0EF7B0EBE6
:10112000074072EB17420CFB08F734BFA2EB0742F3
:10113000B2EB074261EB174115EB1C154FEA813109
:1011400041EA92414FEA823242EA90424FEA8030CD
:101150004FEA0C7644F1000448EA03434EEA0B4898
:101160004FF0000EB2EB080C71EB030724BF624690
:1011700039464EEB0E0E4FF0000B0018524149411C
:101180004BEB0B0BB2EB080C71EB03077BF1000B85
:1011900024BF624639464EEB0E0E4FF0000B00188E
:1011A000524149414BEB0B0BB2EB080C71EB0307BF
:1011B0007BF1000B24BF624639464EEB0E0E51EA1E
:1011C000020718BF46F0010616EB0E7655F1000235
:1011D00054F1000103D5BDE88901BDE80088BDE8F0
:1011E0008901BDE80048B619524141EB0101A3F164
:1011F0000103704780807F7E7D7C7B7A797877766B
:1012000076757473727171706F6E6E6D6C6C6B6AE3
:101210006A69686867666665646463636261616081
:10122000605F5F5E5E5D5D5C5C5B5B5A5A595958FE
:101230005857575656555555545453535252525168
:10124000515050504F4F4F4E4E4D4D4D4C4C4C4BBE
:101250004B4B4A4A4A494949484848474747474605
:101260004646454545444444444343434342424241
:1012700042414141002B26D4770021D01CB54FEAD2
:10128000370703B44FF010004FF010014FF000008B
:101290000FBCBDE810400BF1010BBBF1010F08BF03
:1012A0005FEA170722BF12F1010211F101014FF0AD
:1012B000004143F1000300F0004043EA00007047A2
:1012C000F9D35708DAE746EA064613F1400F4FEA2A
:1012D00016461FDD13F1200FDFBF16430A4600211B
:1012E00020335B42C8D0C3F1200746EA064602FA23
:1012F00007F74FEA164646EA0706C3F1200722FA27
:1013000003F201FA07F721FA03F14FF0000342EA72
:101310000702B1E746EA020646EA06464FEA1646E3
:1013200046EA0106BCBF46EA0646360C4FF000030B
:101330004FF000024FF000019EE72DE9C0489346B0
:1013400030B491E8380007C831EA400C48BF34EAAD
:10135000430C03D5FFF7F2FDFFF78CFFF0BCBDE8AF
:1013600000882DE9C048934630B491E8380007C89A
:1013700010F0804F08BF13F0804F03D100F005F844
:10138000FFF778FFF0BCBDE8008820F07F4780EAD7
:10139000030023F07F4C07EB0C03A3F57C5300F014
:1013A0000040A3F1FE0392F0000F00F0B38095F02F
:1013B000000F00F077802DE901494FEA11404FEA14
:1013C000144621EA004800FB06FC24EA064708FB15
:1013D00006F607FB08F800FB07F718EB06484CEB8E
:1013E000164C4FEA124B18EB07484FEA15464CEBE8
:1013F000174022EA0B4E0BFB06FC25EA06470EFBC4
:1014000006F607FB0EFE0BFB07F71EEB064E4CEB3A
:10141000164C4FF000061EEB074E4CEB174B18EB2B
:101420000B0840F1000018EB0E0B58EB000840F1E0
:1014300000008F1A4FF000013CBFC943661B14BF68
:10144000B5EB040C00213CBFC943F61B4FEA17441F
:101450004EEA8E0E27EA04454FEA1C4704FB07625A
:101460002CEA074C05FB07F70CFB05F604FB0CFC0C
:1014700016EB074642EB174216EB0C4642EB1C42BA
:101480001BEB060658EB0202414146EA9E0601D5D7
:10149000BDE80189B619524141EB0101A3F10103F5
:1014A000BDE801894FEA14454FEA114724EA054691
:1014B00021EA074C05FB07F406FB07F70CFB06F1D6
:1014C00005FB0CFC11EB074144EB17444FEA1247B4
:1014D00011EB0C4144EB1C4422EA074C05FB07F2DC
:1014E00006FB07F70CFB06F605FB0CFC16EB0746A4
:1014F00042EB174216EB0C4642EB1C456A1854F1BE
:10150000000148BF7047B619524141EB0101A3F1F8
:101510000103704795F0000F37D04FEA11424FEAB0
:10152000144721EA024624EA074C02FB07F106FBB6
:1015300007F70CFB06F402FB0CFC14EB074441EB31
:1015400017414FEA154714EB0C4441EB1C4125EAC7
:10155000074C02FB07F506FB07F70CFB06F602FB40
:101560000CFC16EB074645EB174516EB0C4645EB16
:101570001C42121951F1000148BF7047B61952417F
:1015800041EB0101A3F1010370474FEA14454FEA13
:10159000114724EA054621EA074C05FB07F106FB43
:1015A00007F70CFB06F24FF0000605FB0CFC12EBF4
:1015B000074241EB174112EB0C4251EB1C4148BF73
:1015C0007047921841EB0101A3F10103704700BF7E
:1015D000FEE7000008B50220ADF8000010208DF8ED
:1015E000030002208DF802006946164800F084FAD4
:1015F0000221144800F00BFB2020ADF80000102061
:101600008DF8030002208DF8020069460E4800F0B4
:1016100073FA20210C4800F0FAFA4FF44050ADF86C
:10162000000010208DF8030002208DF802006946AA
:10163000054800F061FA4FF44051034800F0E7FA22
:1016400008BD000000080140000C014010B5022157
:10165000054800F0DEFA4FF47A7000F070F80221CD
:10166000014800F0D4FA10BD0008014010B5022175
:10167000054800F0CEFA4FF4FA7000F060F802214D
:10168000014800F0C4FA10BD0008014010B5022165
:101690000D4800F0BEFA4FF4FA7000F050F8022145
:1016A000094800F0B4FAC82000F049F802210648C1
:1016B00000F0AFFA4FF4FA7000F041F8022102484E
:1016C00000F0A5FA10BD00000008014000F08051B4
:1016D00011B10349086001E0024948607047000009
:1016E000040402400000024021B1026842F00102FD
:1016F000026004E002684FF6FE731A400260704711
:1017000010B50022026847F6F0739A430C6A8B68A2
:1017100023430C6923434C6923438C692343CC69DD
:1017200023434C6A23438C6A23431A430260CB68E9
:1017300043600B6883604B68C36010BD704710B591
:10174000044603E04FF47A7002F032FB201EA4F14D
:1017500001018CB2F6D110BD10B5012000F034F8B3
:1017600068B1094B094A111F081F03F075FD0849AC
:10177000087020B10846017806A0FEF75BFD012045
:1017800000F01CF810BD000000280020FC270020FD
:101790000E0000206D70755F646D705F6765745F2B
:1017A00064617461204661696C65642065726F7262
:1017B00072206E756D3A25640A0D000001490860BB
:1017C0007047000014040140014600200022074B2E
:1017D0001B6803EA0102054B14331B680B4013B16D
:1017E0000AB1012000E00020704700000004014021
:1017F000002123498279002A3AD00A4612680368F8
:101800009A430B461A600A1D126803689A430B1D1F
:101810001A60027911440A6803681A430A60184A78
:101820000832126803689A43154B08331A601A1D70
:10183000126803689A43124B0C331A604279102ADB
:101840000ED11A1F126803681A430D4B08331A6031
:101850001A1D126803681A43094B0C331A600DE015
:101860000749427911440A6803681A430A6005E08F
:10187000027911440A6803689A430A6070470000BD
:10188000000401400149C860704700000020024088
:1018900030B5044604254FF4302000F0B9F8054671
:1018A000042D17D10C48006940F002000A49086174
:1018B00008464461006940F0400008614FF4302060
:1018C00000F0A6F805460448006941F6FD7108409D
:1018D00001490861284630BD0020024004200B4920
:1018E000C96801F0010109B101200EE00749C9688A
:1018F00001F0040109B1022007E00449C96801F0C0
:10190000100109B1032000E00420704700200240CC
:101910000348006940F080000149086170470000F9
:101920000020024078B506460C46042500200090B1
:10193000E80200F06DF80546042D24D11348006933
:1019400040F00100114908613480E80200F060F8BD
:101950000546042D10D1B01C0090200C0099088081
:10196000E80200F055F805460848006941F6FE71A6
:1019700008400649086106E00448006941F6FE7126
:10198000084002490861284678BD00000020024056
:101990002DE9F84F04468A464FF0010920E0D4F8BB
:1019A00000B0584605F032FD009005F063FB074695
:1019B00000220D4B04F0FCFE05462A460B460BA008
:1019C000FEF738FC032099FBF0F100FB119010B9F1
:1019D00008A0FEF72FFC241D09F101001FFA80F971
:1019E000D145DCDDBDE8F88F00005940252E326678
:1019F000200000000D0A0000024803494860034827
:101A0000486070472301674500200240AB89EFCD55
:101A100000B502460423FFF761FF034603E0FFF72A
:101A20005DFF0346521E012B01D1002AF7D102B9F6
:101A30000523184600BD00002DE9F04705460C4679
:101A400003260027DFF868A04FF000094FF00408D4
:101A5000FFF7D2FFA000C11700EB9151891201F1ED
:101A600001093420FFF70EFF002607E011494A1450
:101A700002FB0610FFF70CFF8046761C4E4502D293
:101A8000B8F1040FF2D00B4F05E038462968FFF794
:101A900049FF3F1D2D1D074800EB8400B84202D3CB
:101AA000B8F1040FF1D0FFF733FF0020BDE8F08755
:101AB000CDAB103200A0000830B500228B071C0F00
:101AC0000F2303FA04F20B4B8C1053F8243093438A
:101AD000084C8D1044F8253023468C1053F82430E0
:101AE0008C07240F00FA04F42343024C8D1044F8B1
:101AF000253030BD080001402DE9F04102460025A7
:101B00000026002000230024002791F803C00CF0D9
:101B10000F0591F803C00CF0100CBCF1000F03D0BE
:101B200091F802C04CEA050591F800C0BCF1000F25
:101B300031D0146800202BE04FF0010C0CFA00F3B8
:101B4000B1F800C00CEA03069E4220D183004FF09A
:101B50000F0C0CFA03F7BC4305FA03FC4CEA04042F
:101B600091F803C0BCF1280F06D14FF0010C0CFA1C
:101B700000FCC2F814C00AE091F803C0BCF1480FA1
:101B800005D14FF0010C0CFA00FCC2F810C0401C4B
:101B90000828D1D31460B1F800C0BCF1FF0F34DDC8
:101BA000546800202EE000F1080C4FF0010808FAFC
:101BB0000CF3B1F800C00CEA03069E4221D1830069
:101BC0004FF00F0C0CFA03F7BC4305FA03FC4CEA88
:101BD000040491F803C0BCF1280F05D100F1080CF2
:101BE00008FA0CF8C2F8148091F803C0BCF1480F51
:101BF00007D100F1080C4FF0010808FA0CF8C2F800
:101C00001080401C0828CED35460BDE8F0814161AB
:101C100070470161704700BFFEE7000010B500206B
:101C20000E4908600E48006820F070400C490860BA
:101C30000846006840F04050086000200949C1F89B
:101C40009C0100F011F801200449086000F00CF834
:101C500000200449C1F8980110BD0000988121427C
:101C6000000C01400080214210B5022002F0A0F8D3
:101C700010BD000008B50121082000F047FCC0207D
:101C8000ADF8000010208DF8030003208DF802004D
:101C900069460448FFF730FFC0210248FFF7B9FF4B
:101CA00008BD0000000C014010B500200E4908607E
:101CB0000E48006820F070400C4908600846006833
:101CC00040F04050086001200949C1F89C01FFF72D
:101CD000CBFF012004490860FFF7C6FF002004493C
:101CE000C1F8980110BD000098812142000C01400C
:101CF0000080214270B5054600241648006820F097
:101D00007040144908600846006840F000400860D0
:101D1000002614E0002010490860FFF7A5FF01200D
:101D20000E49C1F898016006040E0B487C38006823
:101D300008B1601CC4B2FFF797FF701CC6B2082E32
:101D4000E8DB15B9FFF7B0FF01E0FFF767FF2046BA
:101D500070BD0000000C01409881214200802142AA
:101D600070B504461248006820F0704010490860C1
:101D70000846006840F04050086000200D490860A7
:101D8000002512E0E0090B49091D08606006040EF9
:101D900001200949C1F89801FFF766FF00200549B5
:101DA0000860FFF761FF681CC5B2082DEADB70BD53
:101DB000000C0140988121420080214210B50E485C
:101DC000006820F070400C4908600846006840F048
:101DD000405008600120094908600949C1F898018C
:101DE000FFF742FF002005490860FFF73DFF002094
:101DF0000349C1F8980110BD000C01409C812142AB
:101E00000080214210B50E48006820F070400C4957
:101E100008600846006840F040500860002009490A
:101E200008600949C1F89C01FFF71EFF0120054920
:101E300008600549C1F89C01FFF716FF10BD0000BE
:101E4000000C0140988121420080214210B50024FD
:101E50001448006820F07040124908600846006885
:101E600040F00040086001200F490860FFF7FCFEC9
:101E700001200E49C1F89801FFF7F6FE07E0601C4B
:101E8000C4B2FA2C03DDFFF7BDFF012010BD0648E8
:101E9000803800680028F2D10349091F086000BF9C
:101EA000F4E70000000C01409C81214200802142A7
:101EB00010B5FFF7DFFE80216B2000F0D7F864201B
:101EC00001F050FF00216B2000F0D0F8032000F05B
:101ED0008BF8002000F080F8642000F0AAF80021C0
:101EE000382000F0C3F800216A2000F0BFF800217C
:101EF000232000F0BBF88021372000F0B7F87520D0
:101F000000F013F80446682C0BD101216B2000F07F
:101F1000ADF800216C2000F0A9F8642000F089F8E9
:101F200001E0012010BD0020FCE770B50446FFF77A
:101F300045FFD020FFF714FFFFF788FF2046FFF78B
:101F40000FFFFFF783FFFFF739FFD120FFF708FFEF
:101F5000FFF77CFF0020FFF7CDFE0546FFF752FF9D
:101F6000284670BD2DE9F04106460F4614461D4631
:101F7000FFF724FF002141EA4601C8B2FFF7F0FE57
:101F8000FFF764FF20B1FFF73DFF0120BDE8F081BE
:101F90003846FFF7E5FEFFF759FFFFF70FFF012176
:101FA00001EB4601C8B2FFF7DBFEFFF74FFF0DE084
:101FB000012C04D10020FFF79DFE287003E00120D2
:101FC000FFF798FE2870601EC4B26D1C002CEFD184
:101FD000FFF718FF0020D9E710B50446E006010E10
:101FE0001C2000F043F810BD10B50446E006010EB9
:101FF0001B2000F03BF810BD70B504460025BC2C3A
:1020000001DB012510E0622C01DB02250CE02A2C0B
:1020100001DB032508E0142C01DB042504E00A2C75
:1020200001DB052500E0062529461A2000F01EF8F0
:1020300070BD70B50446B4F57A7F01DD4FF47A7453
:10204000042C00DA04244FF47A7090FBF4F0401E64
:10205000C5B22946192000F009F80546264604EBCA
:10206000D671C1F34F00FFF7C7FF70BD70B50546CD
:102070000C46FFF7A3FED020FFF772FEFFF7E6FE47
:1020800018B1FFF7BFFE012070BD2846FFF768FEBC
:10209000FFF7DCFE2046FFF763FEFFF7D7FE18B11F
:1020A000FFF7B0FE0120EFE7FFF7ACFE0020EBE703
:1020B0002DE9F04105460E4617469846FFF77EFE8D
:1020C000002141EA4501C8B2FFF74AFEFFF7BEFE14
:1020D00020B1FFF797FE0120BDE8F0813046FFF701
:1020E0003FFEFFF7B3FE00240CE018F80400FFF7F2
:1020F00037FEFFF7ABFE18B1FFF784FE0120EBE7D8
:10210000601CC4B2BC42F0DBFFF77CFE0020E3E7BA
:1021100000BFFEE770470EB50121042000F0F6F97C
:102120000121084600F0F2F900210846FFF7C4FC3F
:10213000012000908DF8060000208DF80400082092
:102140008DF805006846FFF753FB06208DF8080060
:1021500001208DF80B0000208DF809008DF80A0091
:1021600002A800F001F80EBD70B5002100230F2277
:10217000C47804B3154C246804F4E064C4F5E06446
:10218000210AC1F10403CA40447804FA03F18478B7
:102190001440214309010E4C0678A155047804F03F
:1021A0001F050124AC4005786D11AD0005F1E02557
:1021B000C5F8004109E0047804F01F050124AC4093
:1021C000044D0678761145F8264070BD0CED00E010
:1021D00000E400E080E100E02DE9F04F87B08246A6
:1021E00049480168504605F06EFA48490860484879
:1021F000007805F023F9834604F03CFF80468946C9
:102200004248006804F036FF0022424BCDE900014D
:1022100004F056FC42464B46CDE9020104F0C8FAF0
:1022200004460D463C48006804F024FF064622465A
:102230002B4604F00DFACDE9040104F0D7F9364934
:10224000086036493448006805F00CFA03D2334878
:102250003149086008E032492F48006805F002F96A
:1022600002D22F482C4908602E480168504605F0DC
:102270002AFA2D4908602B48C0F800A008460168DA
:10228000002005F023F9044604F0F4FE8046894658
:102290002148006804F0EEFE0646244A244B04F070
:1022A0000FFC04460D461948006804F0E3FE06469C
:1022B0000022204B04F004FC22462B46CDE900010D
:1022C00004F0C6F942464B46CDE9020104F0C0F9DC
:1022D000CDE9040104F08AF9174908601749164846
:1022E000006805F0BFF903D2144807B0BDE8F08FCD
:1022F00013491148006805F0B5F801D21048F4E719
:102300000D480068F1E70000800000208C000020EC
:10231000BA7800080000F03F980000200000484212
:10232000000048C2A4000020B00000209A999999AA
:102330009999A93F0000E03FBC0000200000F04157
:102340000000F0C12DE9F04F87B08246494801688E
:10235000504605F0B8F9484908604848007805F04B
:102360006DF8834604F086FE804689464248006840
:1023700004F080FE0022424BCDE9000104F0A0FBF6
:1023800042464B46CDE9020104F012FA04460D46DE
:102390003C48006804F06EFE064622462B4604F0D8
:1023A00057F9CDE9040104F021F9364908603649AE
:1023B0003448006805F056F903D2334831490860C3
:1023C00008E032492F48006805F04CF802D22F4847
:1023D0002C4908602E480168504605F074F92D49D3
:1023E00008602B48C0F800A008460168002005F0EE
:1023F0006DF8044604F03EFE804689462148006898
:1024000004F038FE0646244A244B04F059FB0446E7
:102410000D461948006804F02DFE06460022204BA8
:1024200004F04EFB22462B46CDE9000104F010F9E2
:1024300042464B46CDE9020104F00AF9CDE9040118
:1024400004F0D4F81749086017491648006805F0E9
:1024500009F903D2144807B0BDE8F08F13491148B9
:10246000006804F0FFFF01D21048F4E70D4800684F
:10247000F1E700008400002090000020BA780008F6
:102480000000F03F9C00002000004842000048C2CD
:10249000A8000020B40000209A9999999999A93F21
:1024A0000000E03FBC0000200000F0410000F0C14F
:1024B000034B1860034B1960034B1A607047000010
:1024C00080000020840000208800002029B1064AF6
:1024D00052690243044B5A6104E0034A5269824341
:1024E000014B5A61704700000010024029B1064AB2
:1024F000D2690243044BDA6104E0034AD2698243A1
:10250000014BDA61704700000010024029B1064A11
:1025100092690243044B9A6104E0034A9269824340
:10252000014B9A61704700000010024030B5002155
:102530000022002400232D4D6D6805F00C0121B10F
:10254000042905D0082923D105E0294D056022E0A2
:10255000274D05601FE0254D6D6805F47012234D71
:102560006D6805F48034022505EB92421CB9214DBB
:10257000554305600BE01D4D6D6805F400351DB138
:102580001C4D5543056002E0194D5543056002E0BE
:10259000174D056000BF00BF144D6D6805F0F001D8
:1025A0000909154D6B5C0568DD4045600F4D6D6890
:1025B00005F4E061090A104D6B5C4568DD408560FB
:1025C0000A4D6D6805F46051C90A0B4D6B5C456896
:1025D000DD40C560054D6D6805F44041890B074D30
:1025E0006B5CC568B5FBF3F5056130BD00100240BA
:1025F00000127A0000093D00340000204400002051
:102600002DE9F04F85B004468946012C06D0022CF6
:1026100027D0032C48D0042C22D168E0484604F08F
:1026200029FD0022454BCDE9000104F0C1F800224C
:10263000434BCDE9020104F00BF882460022414BE6
:1026400004F03EFA074600223F4B04F0B1F805467D
:1026500004F006FA80B2014604903C4800F0A4FC65
:1026600068E0484604F006FD07460022334B04F0BC
:102670009FF805460022324B03F0EAFF0022314B5F
:10268000CDE9000104F01CFA00222F4BCDE9020134
:1026900004F08EF8824604F0E3F980B2014604901B
:1026A0002A4800F083FC45E0484604F0E3FC0022A1
:1026B000224BCDE9000104F07BF882460022204B3A
:1026C00003F0C6FF054600221E4B04F0F9F9074649
:1026D00000221D4B04F06CF8CDE9020104F0C0F9B2
:1026E00080B201460490194800F062FC22E048469E
:1026F00004F0C0FC0022114BCDE9000104F058F8B1
:10270000074600220E4B03F0A3FF824600220D4B2A
:1027100004F0D6F9054600220B4B04F049F8CDE948
:10272000020104F09DF980B201460490074800F0D0
:1027300041FC00BF00BF05B0BDE8F08F00805640EF
:102740000000F83F004CED40000034400004004021
:1027500010B500F001F810BD0CB5002001900090FC
:102760003348006840F480303149086000BF304889
:10277000006800F4003000900198401C019000981F
:1027800018B90198B0F5A06FF1D12948006800F49C
:10279000003010B10120009001E00020009000986E
:1027A000012843D12348006840F010002149086007
:1027B0000846006820F0030008600846006840F002
:1027C000020008601A484068194948600846406895
:1027D00048600846406840F48060486008464068A9
:1027E00020F47C1048600846406840F4E8104860D7
:1027F0000846006840F08070086000BF0C48006820
:1028000000F000700028F9D00948406820F003006B
:10281000074948600846406840F00200486000BF31
:102820000348406800F00C000828F9D10CBD0000F6
:102830000010024000200240042808D14FF0E0219F
:10284000096941F004014FF0E022116107E04FF007
:10285000E021096921F004014FF0E0221161704785
:1028600010B51348006840F001001149086008469F
:102870004068104908400E494860084600680E4903
:1028800008400B4908600846006820F48020086072
:102890000846406820F4FE0048604FF41F0088603E
:1028A000FFF756FF4FF000600449086010BD0000BC
:1028B000001002400000FFF8FFFFF6FE08ED00E008
:1028C0002DE9F84F0121880700F055F900287DD047
:1028D0000121880700F040F981480078002876D06F
:1028E00080498148006804F0BDFD54D87F490868DC
:1028F00002F05CF87E497F4A128888547B49486818
:1029000002F054F87A4A7B490988491C50547749A7
:10291000886802F04BF80146754A76480088801CAA
:1029200011547249086804F0A5FB06460022724B58
:1029300004F0C6F8044604F093F870496D4A128812
:1029400041F822006949486804F094FB06460022D9
:10295000694B04F0B5F8044604F082F8674A65490B
:102960000988491C42F821006049886804F082FB0C
:1029700006460022604B04F0A3F8044604F070F809
:102980005E4A5C490988891C42F821005948008840
:10299000C01C584908805A495348006804F062FE38
:1029A0000AD25848007838B9FEF760FE0120554930
:1029B000087055A0FDF73EFC57494B48006804F0ED
:1029C00051FE12D25548007878B901E085E02AE03E
:1029D0004FF4FA614948FFF72FF8FEF747FE012050
:1029E0004E4908704EA0FDF725FC5448007804F0CD
:1029F00025FD009004F03EFB824652460B46002027
:102A00004F4903F0D5FE06460F463748006804F0EC
:102A100031FB804632463B4603F01AFE044603F083
:102A2000E5FD3149086047480078C0B14648007864
:102A300050B100F055FD00228021444800F048FCD0
:102A40004FF40050FEF742FE012280213F4800F083
:102A50003FFC01203C49087000203A490870234996
:102A60000868FFF7B9FB3A49086020494868FFF752
:102A700069FC384908604FF081413548006804F02E
:102A800025FD044621460120FFF7BAFD4FF08141A4
:102A90003048006804F01AFD044621460220FFF782
:102AA000AFFD2B48006880F000454FF0814128467B
:102AB00004F00CFD044621460320FFF7A1FD254844
:102AC000006880F000454FF08141284604F0FEFC8C
:102AD000044621460420FFF793FDBDE8F88F00006F
:102AE00014000020000040411C000020F4270020BA
:102AF000CC00002012000020000059409C0800205B
:102B00000000A04017000020D2D1B4A5B7A2BFAAF0
:102B1000C9A1A3A10D0A0000000050411800002027
:102B2000D2D1BDABB7C9D0D0CAFDBEDDD0B4C8EBE1
:102B3000464C415348A3A10D0A000000BA78000892
:102B40000000F03F15000020160000200038014072
:102B5000C0000020C4000020CA430282704721B197
:102B6000028842F00102028004E002884FF6FE7300
:102B70001A400280704730B502460020002300242E
:102B8000158A05EA0103958905EA010413B10CB120
:102B9000012000E0002030BD1AB183890B438381FE
:102BA00002E083898B4383817047000070B5002465
:102BB00000220023058C4FF6FE7635400584028CFA
:102BC0008388048B4FF68F752C40B51E2C400D88E2
:102BD0002C43751E2A400D892A434D882A43144DE3
:102BE000A8420BD0134DA84208D0134DA84205D0DF
:102BF000124DA84202D0124DA84213D14FF6F775DC
:102C00002A404D892A434FF6FB752A408D882A4376
:102C10004FF6FF652B404FF6FF552B408D892B4318
:102C2000CD892B4383800483CD888586028470BD43
:102C3000002C0140003401400040014000440140AC
:102C4000004801400A460021018B4FF6F7731940F6
:102C5000114301837047000070B500240022002357
:102C6000058C4FF6EF7635400584028C8388048B03
:102C700048F6FF752C404FF6FF452C400D884FF667
:102C8000FF7606EA05252C434FF6DF752A400D89AD
:102C900006EA05152A434D8806EA05152A43154D0F
:102CA000A84202D0144DA8421DD14FF67F752A408C
:102CB0004D894FF6FF7606EA05152A434FF6BF7594
:102CC0002A408D8806EA05152A434FF6FF352B402A
:102CD0004FF2FF752B408D8906EA85052B43CD8980
:102CE00006EA85052B4383800483CD88058702840B
:102CF00070BD0000002C0140003401400A46002154
:102D0000018B4FF2FF7319404FF6FF7303EA022362
:102D1000194301837047000070B50024002200238E
:102D2000058C4FF6FF6635400584028C8388848BC2
:102D30004FF68F752C404FF6FC752C400D882C43B8
:102D40004FF6FF552A400D894FF6FF7606EA052516
:102D50002A434D8806EA05252A43154DA84202D08C
:102D6000144DA8421DD14FF2FF752A404D894FF6F0
:102D7000FF7606EA05252A434FF6FF352A408D885F
:102D800006EA05252A434EF6FF752B404DF6FF75E2
:102D90002B408D8906EA05152B43CD8906EA0515DA
:102DA0002B4383808483CD888587028470BD000097
:102DB000002C0140003401400A460021818B4FF66F
:102DC000F7731940114381837047000070B50022EA
:102DD00000230024058C4EF6FF7635400584038CD5
:102DE0008488828B48F6FF752A404FF6FF452A40BB
:102DF0000D884FF6FF7606EA05252A434DF6FF7546
:102E00002B400D8906EA05352B434D8806EA05352A
:102E10002B430B4DA84202D00A4DA84208D14BF6D5
:102E2000FF752C408D894FF6FF7606EA85152C43F9
:102E300084808283CD88A0F84050038470BD000058
:102E4000002C0140003401400A460021818B4FF2E2
:102E5000FF7319404FF6FF7303EA0223194381837E
:102E60007047000000B589B001210220FFF73EFB4A
:102E700001210420FFF74AFB01210820FFF746FB50
:102E80004020ADF8200018208DF8230003208DF895
:102E9000220008A94148FEF72FFE8020ADF820004F
:102EA00018208DF8230003208DF8220008A93B4844
:102EB000FEF722FE0120ADF8200018208DF8230037
:102EC00003208DF8220008A93548FEF715FE0220E0
:102ED000ADF8200018208DF8230003208DF8220083
:102EE00008A92F48FEF708FE4EF65F20ADF808004F
:102EF0001720ADF804000020ADF80600ADF80A0078
:102F000001A9284800F05AF86020ADF81000002010
:102F1000ADF818000120ADF8120004A92148FFF710
:102F200045FE6020ADF810000020ADF8180001202B
:102F3000ADF8120004A91B48FFF78EFE6020ADF823
:102F400010000020ADF818000120ADF8120004A90F
:102F50001448FFF7E1FE6020ADF810000020ADF846
:102F600018000120ADF8120004A90E48FFF72EFF4B
:102F700008210C48FFF766FE08210A48FFF7BEFE4D
:102F800008210848FFF718FF08210648FFF75CFFF3
:102F900001210448FFF7E3FD09B000BD000801402E
:102FA000000C014000040040818670470187704793
:102FB00081877047A0F84010704700000022028807
:102FC0001D4B98420ED01D4B98420BD0B0F1804F54
:102FD00008D01B4B984205D01A4B984202D01A4B8E
:102FE000984204D14FF68F731A404B881A43174BFF
:102FF000984207D0164B984204D04FF6FF431A4030
:10300000CB881A4302808B8883850B8803850A4B03
:1030100098420BD0094B984208D00E4B984205D0ED
:103020000D4B984202D00D4B984201D10B7A03868A
:103030000123838270470000002C014000340140CE
:103040000004004000080040000C00400010004058
:10305000001400400040014000440140004801408D
:103060003EB505460C4601210846FFF73FFA00F041
:103070001CF8681E80B2ADF80400601E80B2ADF886
:1030800000000020ADF80200ADF8060069464FF0E0
:103090008040FFF793FF012211469007FFF77CFD68
:1030A00001218807FFF75BFD3EBD08B51C208DF8A8
:1030B000000003208DF801008DF8020001208DF83A
:1030C00003006846FFF750F808BD000010B540F255
:1030D0002551124800F012F9F0B1104800F0CAF979
:1030E000C4B2662C07D10EA0FDF7A4F8FEF7AEFA25
:1030F00001200F490870642C02D101200D4908708D
:10310000442C04D14FF4FA610B48FEF741FC40F225
:103110002551024800F080F810BD00000038014041
:10312000BFAACABCB7A2C9E4B3CCD0F2210D0A0031
:10313000140000201500002000A0000810B586B083
:103140000446012144F20400FFF7E0F94FF4007057
:10315000ADF8140003208DF8160018208DF8170024
:1031600005A91C48FEF7C8FC4FF48060ADF81400B8
:1031700004208DF8170005A91648FEF7BDFC252090
:103180008DF8000001208DF801008DF802008DF807
:1031900003006846FEF7E8FF01940020ADF8080040
:1031A000ADF80A00ADF80C00ADF810000C20ADF839
:1031B0000E0001A9084800F0F1F8012240F2255163
:1031C000054800F0C5F80121034800F034F806B0C6
:1031D00010BD0000000801400038014070470000A9
:1031E00010B540F225510A4800F088F870B108483F
:1031F00000F040F9C4B2532C03D1012005490880E6
:1032000004E04B2C02D102200249088010BD0000CE
:10321000004800400C00002010B50022002340F6BA
:103220006A14A14200D100BF0A1201249440A3B243
:10323000DC43048010BD21B1828942F400528281B6
:1032400004E082894DF6FF731A40828170470000C6
:1032500000B585B001210420FFF758F9012188034A
:10326000FFF754F94FF40070ADF8100018208DF8F6
:10327000130003208DF8120004A91348FEF73CFC4C
:103280004FF48060ADF8100004208DF8130004A9FD
:103290000D48FEF731FC4FF4165000900020ADF8B9
:1032A0000400ADF80600ADF80800ADF80C000C20E5
:1032B000ADF80A006946054800F070F8012103489E
:1032C000FFF7B9FF05B000BD00080140003801401C
:1032D0001AB1838A0B43838202E0838A8B43838201
:1032E000704702460020B1F5007F00D100BF13886F
:1032F0000B400BB1012000E00020704770B5024682
:10330000002400230025002040F66A16B14200D1B7
:1033100000BFC1F3421501F01F03012606FA03F3B3
:10332000012D02D19689334006E0022D02D1168A82
:10333000334001E0968A33400C12012606FA04F469
:103340001688344013B10CB1012000E0002070BD9C
:10335000F0B50346002400260025002040F66A1739
:10336000B94200D100BF1846C1F3421401F01F0654
:10337000012707FA06F5012C01D10C3004E0022CDC
:1033800001D1103000E014301AB107682F430760F4
:1033900002E00768AF430760F0BD00002DE9F04789
:1033A00086B005460E460024A24600BFA14600276F
:1033B000B08900B100BF2F462C8A4CF6FF70044044
:1033C000F08804432C82AC894EF6F3100440B08898
:1033D00031890843718908430443AC81AC8A4FF6B4
:1033E000FF400440B0890443AC8201A8FFF79EF877
:1033F0001F48874202D1DDF810A001E0DDF80CA0E3
:10340000A88900F4004040B10AEBCA0000EB0A10A2
:1034100031684900B0FBF1F807E00AEBCA0000EBA5
:103420000A1031688900B0FBF1F86420B8FBF0F0B5
:1034300004012009642101FB1089A88900F40040DF
:1034400040B1322000EBC900B0FBF1F000F0070002
:10345000044308E0322000EB09106421B0FBF1F0D6
:1034600000F00F0004432C8106B0BDE8F087000097
:103470000038014001468888C0F308007047C1F356
:10348000080282807047000000B58BB00121084619
:10349000FFF71CF80F4800900F4801901020029091
:1034A0004FF4FA60039000200490802005900020E3
:1034B0000690079008904FF48050099000200A90E1
:1034C00069460648FEF71CF901210448FEF70CF98D
:1034D0000BB000BD04380140CC0000204400024085
:1034E00010B500210248FEF7FFF8FFF7CDFF10BD31
:1034F0004400024000BFFEE7490050EAC12018BF67
:1035000004204A0D18BF40F0010040F2FF72B2EBF8
:10351000515F08BF40F00200012808BF0520704736
:103520002DE9F0414F1E00EBC7010446D1E900012F
:1035300015461E4637F006020DD02A46334603F0E4
:10354000BFFA7F1E04EBC703D3E9002303F080F822
:1035500037F00602F1D1022F25D0042F13D0062F09
:1035600018BFBDE8F0812A46334603F0A9FAD4E932
:103570000A2303F06DF82A46334603F0A1FAD4E992
:10358000082303F065F82A46334603F099FAD4E994
:10359000062303F05DF82A46334603F091FAD4E996
:1035A000042303F055F82A46334603F089FAD4E998
:1035B000022303F04DF82A46334603F081FAD4E99A
:1035C0000023BDE8F04103F043B8012204F02FB915
:1035D00003F03EB8002213461046114603F0E8B847
:1035E000024A0020110704F022B9000001FDFFFF8C
:1035F00030380A2801D20120704700207047014668
:1036000000BF70472DE9FE4F06460F46002568466D
:1036100001F0F6F9002442E056F8240057F824108F
:10362000A0EB010ABAF1000F01DB514601E0CAF13B
:103630000001084603F0EAFE83464FF08F4103F095
:10364000B3FD80465DF82400002103F06FFE16D024
:103650005DF82410404603F0A7FD82464FF07E51EE
:1036600004F03CF8814629F0004A0F48416A504670
:1036700003F0F8FF12D20120A04005430EE00A48F3
:10368000C169404603F0EEFE05D30748016A404693
:1036900003F0E8FF02D20120A0400543641C032C84
:1036A000BADB2846BDE8FE8FE47800082DE9F04D2E
:1036B0008D4F21F0004A86B005460C46BA452ADBFC
:1036C000AAEB070028430AD08848824501DC1AD1BA
:1036D000CDB106B02846BDE8F04DFFF776BF844A6D
:1036E000844B284603F0ECF907460E46824A834B8A
:1036F0002846214603F0E4F906B03A463346BDE8D1
:10370000F04D02F0A5BF0120FCF754FF06B0BDE864
:10371000F04DFFF75FBF7A48824542DABAF1795F30
:103720000BDA2846FFF7E8FE042808BFFFF758FF2A
:10373000284606B02146BDE8F08D2A460B461046C5
:1037400003F0BEF9834602466E480E460B4606213C
:103750007844FFF7E5FE5A46334603F0B1F9804658
:1037600069488A465A46334604217844FFF7D8FE12
:103770005A46334603F0A4F900223B4602F068FFA4
:1037800002460B464046514603F012F82A462346AD
:1037900003F096F906B02A462346BDE8F04D02F044
:1037A00057BF284624F0004100223D463B4603F027
:1037B00085FA4FF0FF3204F03AF8064602465348C5
:1037C0000F460B4606217844FFF7AAFE32463B46D9
:1037D00003F076F9CDE900014D4832463B4604211D
:1037E0007844FFF79DFE32463B4603F069F900221C
:1037F0002B4602F02DFF834602913046394602F0F7
:10380000B9FE804643480D46504517DCDDE900010E
:103810005A46029B02F0CCFF42462B4603F050F979
:1038200042462B4602F014FF012204F000F8304A11
:10383000304B03F035FB304A304B4CE04FF0000A80
:1038400052460B46404602F003FFCDE903105246B4
:103850002B461046194603F033F932463B4603F037
:103860002DFADDE9033202F0A3FF06460F46DDE93B
:1038700000015A46029B02F09BFF83460091012201
:103880003046394603F0D3FF194A1A4B03F016FAB3
:1038900006460F4601224046294603F0C8FF5A4615
:1038A000009B03F00DF932463B4603F0F9FA064659
:1038B0000F4601225046294603F0B9FF0E4DDFF8AE
:1038C00058802A46434603F0F9F932463B4603F056
:1038D000F5F92A46434603F0F1F9002CD8BF81F0F0
:1038E000004106B0BDE8F08D0000F03F0000F07F21
:1038F000075C143326A6913C182D4454FB21F93F54
:103900000000E03FC44D0000DA4D00004E4D0000C5
:10391000644D00003333EF3FFB21E93F2DE9F84FC1
:1039200004460D4621F0004000917349814211DCAC
:103930007249884201DC06D12CB120462946BDE8F7
:10394000F84FFFF742BE6E48002DCCBF6D496E495F
:10395000BDE8F88F6D49814211DD6D498142D8BFC4
:103960004FF0FF366DDD20462946FFF7C5FD0428E0
:1039700008BFFFF735FE20462946BDE8F88F6549A8
:10398000654F25F00045814233DD6449814219DDF0
:10399000002632464FF080432046294602F058FE6A
:1039A00080468A4601222046294603F040FF002235
:1039B0003B4603F075FA4246534602F0F9FE0446D0
:1039C0000D463EE001260022BA463B4620462946E7
:1039D00002F03EFE80460F4600225346204629460E
:1039E00003F05EFA42463B4602F0E2FE04460D4614
:1039F00027E04B4981421BDDDFF828A10226002287
:103A000053462046294603F05BF800223B4602F06D
:103A10001FFE80460F46002253462046294603F0EB
:103A20003FFA42463B4602F0C3FE04460D4608E01C
:103A3000032622462B4600203B4902F0B9FE0446ED
:103A40000D4622462B461046194603F039F88B46A0
:103A5000824602460B4603F033F8074602463348D7
:103A600088460B4606217844FFF75AFD52465B46CE
:103A700003F026F882462E488B463A4643460521F7
:103A80007844FFF74DFD3A46434603F019F80246E5
:103A90000B46002E504659460CDA02F0D9FD22465C
:103AA0002B4603F00DF801B022462B46BDE8F04F3F
:103AB00003F004B902F0CCFD22462B4603F000F8D7
:103AC0001C4A7A4402EBC603D3E9002303F0E8F969
:103AD00022462B4603F0E4F9174A7A4402EBC60368
:103AE000D3E9002303F0EAF8009A002AB8BF81F076
:103AF0000041BDE8F88F0000000010440000F07F96
:103B0000182D4454FB21F93FFB21F9BF0000DC3F95
:103B10000000203E0000F33F0000F03F0000E63FC1
:103B2000008003400000F83F0000F0BF664B00003B
:103B3000244B0000C24A00008A4A00002DE9F04DE3
:103B40009446CCF1000423F000464CEA0404524FA2
:103B500046EAD4749A46884621F00042BC4206D810
:103B6000454240EA050442EAD474BC4204D9BDE8A7
:103B7000F04D6246FFF72CBDAAF14055A5F17F65D7
:103B800055EA0C040BD0022404EAAA74434DDFF872
:103B900010E144EAD87452EA000B04D00CE0BDE80E
:103BA000F04DFFF7BBBE002C14BF012CBDE8F08D1B
:103BB000022C30D0032C32D056EA0C0B0AD0BE4275
:103BC00020D1BA4209D126F0804622F08042334605
:103BD000114617E000291ADB25E0DFF8C8B0FB44E6
:103BE000002C04BFDBE90001BDE8F08D012C02BF11
:103BF000DBE9000181F00041BDE8F08D022C0AD024
:103C0000032C0CD0BA4212D1B8F1000F0BDA2348C2
:103C10002549BDE8F08D28462449BDE8F08D2846A9
:103C20007146BDE8F08D1D482149BDE8F08D921B1D
:103C300012153C2AC4BF19481D490EDCBAF1000F09
:103C4000BEBF12F13C0F0020014606DB624602F0C7
:103C5000AFFD21F00041FFF761FE002C08BFBDE879
:103C6000F08D012C04BF81F00041BDE8F08D114AB8
:103C7000114B022C07D003F013F92A46BDE8F04D92
:103C80000A4B03F00DB903F00BF92A46BDE8F04DDD
:103C9000064B03F013B800000000F07F182D4454C9
:103CA000FB2109C01E4A0000FB21F9BFFB2109408E
:103CB000FB21F93F075C143326A6A13C2DE9F04116
:103CC0000446E07800F0C006E07800F03F05607838
:103CD00000F0010098B1EF102846E91705EB51718B
:103CE000C910A5EBC101491C01F0FF080B48006891
:103CF00020B10A48414602683846904700BF6078C4
:103D000000F0080030B10548406818B1B011034A0E
:103D1000516888470020BDE8F0810000102800208D
:103D200010B56FF00400FEF787FD0A4800680A49E5
:103D3000B0FBF1F0094908700846007800EB40013B
:103D4000C1EBC0104FF6FF7101EAC00004490880C2
:103D500010BD00002000002000127A0000000020AA
:103D6000020000200146114A12884A434FF0E02326
:103D70005A6100229A611A46126942F001021A61E0
:103D800000BF4FF0E022106900F001021AB100F408
:103D90008032002AF5D04FF0E022126922F00102B1
:103DA0004FF0E0231A6100229A6170470200002060
:103DB0000146104A12784A434FF0E0235A6100222C
:103DC0009A6101221A6100BF4FF0E022106900F0F1
:103DD00001021AB100F48032002AF5D04FF0E0223F
:103DE000126922F001024FF0E0231A6100229A6169
:103DF000704700000000002038B5044664B1202060
:103E00008DF8000028208DF8010030208DF8020088
:103E100038208DF8030004E0A32204216846FCF753
:103E200041FB6A46042140F69E2002F0D1FA01F0DF
:103E3000BBFE38BD3EB5044602208DF80000CA2006
:103E40008DF80100E3208DF8020009208DF80300B1
:103E50006A460421682002F0BBFAA3208DF8000016
:103E600004F0400048B1C0208DF80100C8208DF852
:103E70000200C2208DF8030006E0A3208DF80100A7
:103E80008DF802008DF8030004F4C07048B1C4201E
:103E90008DF80400CC208DF80500C6208DF80600B2
:103EA00006E0A3208DF804008DF805008DF80600CB
:103EB000A3208DF807008DF808008DF809006A46E8
:103EC0000A2140F6A72002F083FA04F0030018B19B
:103ED00020208DF8000002E0D8208DF800006A460E
:103EE000012140F6B62002F073FA04F0200018B168
:103EF000012000F0ADF802E0002000F0A9F804F481
:103F0000C07008B304F4807060B1B2208DF8000076
:103F10008B208DF80100B6208DF802009B208DF8D3
:103F200003000BE0B0208DF8000080208DF8010028
:103F3000B4208DF8020090208DF803006A46042119
:103F400040F6A22002F044FA04F0010020B3F82069
:103F50008DF800006A4601214FF40B6002F038FA38
:103F6000FA21072000F02CFC072000F0F3FB0120D1
:103F700000F013FC642000F0F3FC4FF4FA7000F042
:103F800002FDC821304800F0A3FB282000F0BCFB54
:103F90000A2000F0CCFB08E0D8208DF800006A462B
:103FA00001214FF40B6002F013FA04F0020018B183
:103FB000D9208DF8000002E0D8208DF800006A4674
:103FC000012140F23D7002F003FA04F0040018B140
:103FD000012000F069F802E0002000F065F804F02C
:103FE000100018B10120FFF707FF02E00020FFF7E3
:103FF00003FF44F008001549488101F0D5FD002079
:104000001249887304F0400018B10846807B801D77
:10401000887304F4C07020B10C48807B801D0B496C
:10402000887304F0140020B10848807B10300749E1
:10403000887304F0030020B10448807B001D03490D
:10404000887300203EBD000009E3CA02102800204A
:104050003EB504466CB10EA1D1E900208968CDE9D6
:10406000002002916A4609214FF4976002F0B0F9EE
:104070003EBD0AA2D2E900109268CDE9010200918A
:104080006A4609214FF4976002F0A2F9F0E70000B8
:10409000B8AAB38DB4980D355D000000B8AAAAAADD
:1040A000B088C3C5C700000038B5044664B1C0205D
:1040B0008DF80000C2208DF80100C4208DF80200A8
:1040C000C6208DF8030004E08B2204216846FCF72B
:1040D000E9F96A46042140F6982002F079F901F0E6
:1040E00063FD38BD10B5C8234FF48062024940F625
:1040F000F63001F0EDFB10BD0C7900082DE9F04F12
:104100008DB00746884615469946DDE9166B0024B2
:10411000002030806B49887B5A4605A901F0A4FC39
:1041200018B1601E0DB0BDE8F08F6648807A00F0CF
:104130001400002867D09DF8140000069DF81510A3
:1041400040EA01409DF8161040EA01209DF8171042
:10415000084328609DF8180000069DF8191040EAF1
:1041600001409DF81A1040EA01209DF81B100843F9
:1041700068609DF81C0000069DF81D1040EA014093
:104180009DF81E1040EA01209DF81F100843A8600A
:104190009DF8200000069DF8211040EA01409DF89E
:1041A000221040EA01209DF823100843E86004F142
:1041B0001000C4B2286800140190686800140290CE
:1041C000A86800140390E868001404900198404324
:1041D000029901FB0100039901FB0100049901FB15
:1041E000010ABAF1706F02DBBAF1885F05DD01F0F8
:1041F000DBFC00203080401E94E7B6F9000040F45C
:104200008070308000BF2F48807A00F0400020B3DB
:1042100005A9601C085C095D40EA012000B2A8F80D
:10422000000005A9E01C095C05AAA01C105C41EA7D
:10423000002000B2A8F8020005A9601D095C201D3D
:10424000105C41EA002000B2A8F80400A01DC4B22E
:10425000B6F9000040F0080030801A48408900F4A8
:10426000C07008B305A9601C085C095D40EA012024
:1042700000B2388005A9E01C095C05AAA01C105CEE
:1042800041EA002000B2788005A9601D095C201D6C
:10429000105C41EA002000B2B880A01DC4B2B6F99B
:1042A000000040F0700030800648807A00F0030083
:1042B00018B105A90819FFF701FD484600F092FF63
:1042C00000202FE71028002070B588B0064601A80E
:1042D00001F052F9BDF804000021C90341EA50453C
:1042E000C4034448007A00F0030056F8200005900B
:1042F0004048007A00F0040010B105984042059053
:104300003C48007AC0F3C10056F8200006903948B6
:10431000007A00F0200010B106984042069035481F
:10432000007AC0F3811056F82000079031480089C8
:1043300000F4807010B10798404207900598C117AB
:10434000A0FB042301FB043100FB0510810041EABE
:10435000927005900698C117A0FB042301FB04315D
:1043600000FB0510810041EA927006900798C11782
:10437000A0FB042301FB043100FB0510810041EA8E
:10438000927007900598000E8DF808000598000CB3
:104390008DF809000598000A8DF80A000598C0B24A
:1043A0008DF80B000698000E8DF80C000698000C96
:1043B0008DF80D000698000A8DF80E000698C0B220
:1043C0008DF80F000798000E8DF810000798000C6C
:1043D0008DF811000798000A8DF812000798C0B2F6
:1043E0008DF8130002AA0C214FF4257001F0F0FFA4
:1043F00008B070BD1028002030B585B0044616A264
:1044000007CA02AB07C3C82C03DD4FF0FF3005B06D
:1044100030BDC82090FBF4F0401E85B2280A8DF80C
:104420000000E8B28DF801006A46022140F2162031
:1044300001F0CEFF10B14FF0FF30E8E702AA0C21E7
:1044400040F6C12001F0C4FF10B14FF0FF30DEE7AD
:10445000044884810020DAE7FEF2ABC4AAF1DFDF72
:10446000BBAFDFDF102800201FB504464848007AA4
:1044700000F0030054F8200001904548007A00F055
:10448000040010B10198404201904148007AC0F305
:10449000C10054F8200002903D48007A00F020004E
:1044A00010B10298404202903948007AC0F381105E
:1044B00054F8200003903648008900F4807010B151
:1044C0000398404203903349019880FB0101800F1B
:1044D00040EA810001902F49029880FB0110820080
:1044E00042EA917002902B49039880FB01108200F0
:1044F00042EA917003900198000E8DF80000019837
:10450000000C8DF801000198000A8DF80200019856
:10451000C0B28DF803006A4604214FF4747001F0B4
:1045200057FF18B14FF0FF3004B010BD0298000ED5
:104530008DF800000298000C8DF801000298000A26
:104540008DF802000298C0B28DF803006A4604217B
:104550004FF4757001F03CFF10B14FF0FF30E3E70E
:104560000398000E8DF800000398000C8DF80100F0
:104570000398000A8DF802000398C0B28DF803007A
:104580006A4604214FF4767001F022FFCCE7000068
:104590001028002009E3CA0210B586B0044647A0DF
:1045A0000068039046A00068029046A00068019051
:1045B00045A00068009004F0030003A9085C8DF892
:1045C000140003A8C4F3C101405C8DF8150003A8D2
:1045D000C4F38111405C8DF8160004F0030002A9B9
:1045E000085C8DF8100002A8C4F3C101405C8DF88E
:1045F000110002A8C4F38111405C8DF8120005AAD5
:10460000032140F2264001F0E3FE18B14FF0FF30E5
:1046100006B010BD04AA032140F22A4001F0D8FEE2
:1046200010B14FF0FF30F3E7019805900098049027
:1046300004F0040058B19DF8140040F001008DF81A
:1046400014009DF8100040F001008DF8100004F0F7
:10465000200058B19DF8150040F001008DF81500BC
:104660009DF8110040F001008DF8110004F48070F5
:1046700058B19DF8160040F001008DF816009DF825
:10468000120040F001008DF8120005AA03214FF43A
:10469000886001F09DFE10B14FF0FF30B8E704AA2A
:1046A000032140F2314001F093FE10B14FF0FF3092
:1046B000AEE7064804810020AAE700004CCD6C005C
:1046C0000CC92C00365676002646660010280020BD
:1046D000F8B505460E464FF47A7095FBF0F000FBF6
:1046E00006F4200E8DF80000200C8DF80100200A41
:1046F0008DF80200E0B28DF803006A4604214FF401
:10470000AE7001F065FEF8BD38B50446052094FB97
:10471000F0F084B220128DF80000E0B28DF80100B4
:104720006A4602214FF4AD7001F052FE38BD38B533
:104730000446052094FBF0F084B220128DF80000AE
:10474000E0B28DF801006A4602214FF4AC7001F02E
:104750003FFE38BD38B504460020009004F001004B
:1047600020B19DF8000040F03000009004F00200FD
:1047700020B19DF8000040F00C00009004F004000F
:1047800020B19DF8000040F0030000906A4601212E
:104790004FF4A47001F01CFE38BD38B50446012C5E
:1047A00001DA012402E0042C00DD0424601EC0B202
:1047B00000906A46012140F24F1001F009FE38BD19
:1047C0002DE9FC4706460F4606F0070010B1B7F585
:1047D000C86F03DD4FF0FF30BDE8FC87384602F0BC
:1047E0002DFE8146594902F0DFFC8046684600F004
:1047F0009DFE9DF80000022806D0042816D0082847
:1048000026D0102848D135E04FF08D41404602F0C7
:104810005DFE814602F0DAFD84B24D49404602F069
:1048200055FE814602F0D2FD85B238E04FF08C4152
:10483000404602F04BFE814602F0C8FD84B2454975
:10484000404602F043FE814602F0C0FD85B226E0FC
:104850004FF08B41404602F039FE814602F0B6FD32
:1048600084B23D49404602F031FE814602F0AEFD81
:1048700085B214E04FF08A41404602F027FE81469F
:1048800002F0A4FD84B23549404602F01FFE814685
:1048900002F09CFD85B202E04FF0FF309CE700BFC4
:1048A00020128DF80400E0B28DF8050028128DF872
:1048B0000600E8B28DF8070006F00100A0B101AAD9
:1048C00002214FF4EA7001F083FD10B14FF0FF3088
:1048D00082E70DF1060202214FF4927001F078FD9B
:1048E00010B14FF0FF3077E706F00200A0B101AA47
:1048F00002214FF4EC7001F06BFD10B14FF0FF306E
:104900006AE70DF1060202214FF4947001F060FD98
:1049100010B14FF0FF305FE706F00400A0B101AA2C
:1049200002214FF4EE7001F053FD10B14FF0FF3053
:1049300052E70DF1060202214FF4967001F048FD96
:1049400010B14FF0FF3047E7002045E70000484333
:10495000000040460000C045000040450000C04443
:1049600038B50446052094FBF0F085B228128DF886
:104970000000E8B28DF801006A4602214FF4EF70A2
:1049800001F026FD38BD38B50446052094FBF0F053
:1049900085B228128DF80000E8B28DF801006A4651
:1049A00002214FF4ED7001F013FD38BD10B504463F
:1049B0004FF08641204602F055FE01D8FF2010BD81
:1049C0004FF04341204602F04DFD01D80020F6E7AC
:1049D000204602F0DFFC8030C0B2F0E770B504463C
:1049E0000D46E1B20548FEF74AFD00BF80210348AD
:1049F000FEF777FC0028F9D0204670BD0038014052
:104A00007CB5054628494968087801AB04220D2188
:104A1000FDF7A8FA08B107207CBD9DF80700C0F398
:104A200001109DF8041001F0E00140EAE1008DF86A
:104A300000009DF80700C0F381009DF8051001F00B
:104A4000E00140EAE1008DF801009DF8070000F068
:104A500003009DF8061001F0E00140EAE1008DF846
:104A6000020000241CE01DF8040018B9002045F8DD
:104A7000240013E00D4845F8240006E055F8240012
:104A80000B4902F023FD45F824001DF80400401EE8
:104A9000C0B20DF804000028F0D100BF601CC4B201
:104AA000032CE0DB0020B7E7480000207B14AE3E7B
:104AB0001D5A843F2DE9F04F87B005460C469146BC
:104AC00001208DF8100000208DF81100FE4A1268B8
:104AD000917CFD4A5268107804AB0222FDF7E8FA97
:104AE00020B14FF0FF3007B0BDE8F08FC820FFF7CE
:104AF00039F900208DF81000F34A1268D17BF24A90
:104B00005268107804AB0122FDF7D2FA10B14FF0D1
:104B1000FF30E8E7EC4A12685179EB4A52681078A6
:104B200004AB0122FDF7C4FA10B14FF0FF30DAE711
:104B3000E54A1268917CE44A5268107804AB01227D
:104B4000FDF7B6FA10B14FF0FF30CCE7DE4A12683D
:104B5000D17DDD4A5268107804AB0122FDF7A8FA36
:104B600010B14FF0FF30BEE7D74A12681179D64A2C
:104B70005268107804AB0122FDF79AFA10B14FF099
:104B8000FF30B0E70C208DF81000CF4A1268117981
:104B9000CD4A5268107804AB0122FDF789FA10B1B2
:104BA0004FF0FF309FE70F20FFF7DCF8C648806A20
:104BB000407A8DF81000C44A12689178C24A52684F
:104BC000107804AB0122FDF773FA10B14FF0FF30FB
:104BD00089E7BD48806A007A8DF81000BA4A1268E9
:104BE0005178B94A5268107804AB0122FDF760FA97
:104BF00010B14FF0FF3076E7B9F1000F07D0B2489F
:104C0000806A807A40F0E0008DF8100004E0AE4841
:104C1000806A807A8DF81000AB4A12689179AA4AAE
:104C20005268107804AB0122FDF742FA10B14FF040
:104C3000FF3058E7B9F1000F07D0A348806AC07A67
:104C400040F0E0008DF8100003E0A048C07A8DF835
:104C500010009D4A1268D1799B4A5268107804ABC3
:104C60000122FDF725FA10B14FF0FF303BE7B9F113
:104C7000000F02D0C820FFF775F840208DF8100013
:104C8000914A12681179904A5268107804AB012257
:104C9000FDF70EFA10B14FF0FF3024E778208DF8C1
:104CA0001000894A12685179874A5268107804AB1B
:104CB0000122FDF7FDF910B14FF0FF3013E78349F2
:104CC0008889FFF74FF800208DF810007E4A12689F
:104CD00051797D4A5268107804AB0122FDF7E8F95A
:104CE00010B14FF0FF30FEE6774A1268917A764AAB
:104CF0005268107804AB0222FDF734F910B14FF07E
:104D0000FF30F0E69DF811009DF8101040EA012BED
:104D10000C209BFBF0F0C6B20020A8606860286001
:104D2000A06060602060824665E0674A1268D17AC0
:104D3000654A5268107804AB0C22FDF713F910B1E4
:104D40004FF0FF30CFE69DF811009DF8101040EABB
:104D5000012000B2ADF808009DF813009DF8121074
:104D600040EA012000B2ADF80A009DF815009DF858
:104D7000141040EA012000B2ADF80C00BDF9081093
:104D8000206808442060BDF90A106068084460602B
:104D9000BDF90C10A0680844A0609DF817009DF8AC
:104DA000161040EA012000B2ADF800009DF819008D
:104DB0009DF8181040EA012000B2ADF802009DF8FD
:104DC0001B009DF81A1040EA012000B2ADF8040063
:104DD000BDF90010286808442860BDF90210686811
:104DE00008446860BDF90410A8680844A8600AF186
:104DF000010000F0FF0AB24597DB3448D0F800C04C
:104E00002868C117090441EA1041070462460023DB
:104E10003846FBF7EAF932460023CDE90201FBF7F9
:104E2000E4F928602948D0F800C06868C11709046F
:104E300041EA10410704624600233846FBF7D5F9E2
:104E400032460023CDE90201FBF7CFF968601F4825
:104E5000D0F800C0A868C117090441EA104107044E
:104E6000624600233846FBF7C0F932460023CDE9FD
:104E70000201FBF7BAF9A8601448D0F804C0216811
:104E8000C817000440EA11480F0462460023384660
:104E90004146FBF7AAF932460023CDE90201FBF7B0
:104EA000A4F920600948D0F804C06068C11709045B
:104EB00041EA10410704624600233846FBF795F9A2
:104EC0003246002304E0000048000020E478000897
:104ED000CDE90201FBF789F960601148D0F804C000
:104EE000A068C117090441EA104107046246002383
:104EF0003846FBF77AF932460023CDE90201FBF789
:104F000074F9A060A068002804DDA068A0F58030D6
:104F1000A06003E0A06800F58030A0600020E2E51A
:104F2000E47800082DE9FC5F06460F4600253D4960
:104F30004968087801AB03220D21FDF713F810B181
:104F40000720BDE8FC9F9DF8040000F01F008DF8CD
:104F500004009DF8050000F01F008DF805009DF885
:104F6000060000F01F008DF80600002456E056F8F9
:104F7000240057F82410A0EB010BBBF1000F01DB5C
:104F8000594601E0CBF10001084602F03FFA4FF02C
:104F90008F41009002F008F9814601A8005D68B3D6
:104FA0002149086802F04AFA834659461F4802F030
:104FB000FBF8804604E01E49404602F087FA80462E
:104FC00001A8005D401EC0B201A908550028F2D119
:104FD0004146484602F0E8F883464FF07E5102F021
:104FE0007DFB82462AF0004B0F488169584602F04B
:104FF00039FB12D20120A04005430EE00A480169A6
:10500000484602F02FFA05D307484169484602F0A6
:1050100029FB02D20120A0400543641C032CA6DB1F
:1050200028468EE748000020E478000800B04C4590
:1050300054E3853F10B50446204600F00FF80346C0
:10504000E01C00F00BF843EAC00083B2A01D00F0A2
:1050500005F843EA801083B2184610BD014691F965
:105060000020002A01DD00201EE091F90020002A26
:1050700001DA042018E091F90120002A01DD012065
:1050800012E091F90120002A01DA05200CE091F9E3
:105090000220002A01DD022006E091F90220002A08
:1050A00001DA062000E00720704700000024FEF728
:1050B00037FE4FF4FA70FCF742FBFEF7C9F84FF4E5
:1050C0001650FEF73BF8FDF7CDFE002211461046C4
:1050D000FDF7EEF9FCF77EFAFCF7D8FAFCF7E8FEEC
:1050E00010B12DA0FBF7A6F807E0214631A0FBF791
:1050F000A1F801E0FCF7CAFAFCE700F0C7F9041ECA
:10510000F3D1FEF7C1F94FF47A70FCF718FB2021B8
:105110002D48FCF77EFDFCF799FA2CA0FBF78AF8E6
:1051200018214EF66020FDF79BFFFCF7F4FF31E0FD
:105130004FF081412948006802F0C8F90546294628
:105140000120FDF75DFA4FF081412548006802F02B
:10515000BDF9054629460220FDF752FA1F480068AE
:1051600080F000464FF08141304602F0AFF905462D
:1051700029460320FDF744FA1948006880F00046EC
:105180004FF08141304602F0A1F90546294604203E
:10519000FDF736FACCE700004D5055B3F5CABCBB5D
:1051A000AFCAA7B0DCA3A1A3A1A3A1A3A1A3A1A35C
:1051B000A10D0A006D70755F646D702065726F726D
:1051C000722025640D0A0000000C0140B3F5CABC32
:1051D000BBAFCDEAB3C9A3A10D0A0000C0000020F7
:1051E000C40000207047000070B50446002624F07B
:1051F0000104184890F8240008B1002070BD15483B
:10520000807A10B94FF0FF30F8E71248057C807AB9
:105210002040104908740846007CA04202D04FF09C
:10522000FF3600E0002614B90A48007D18B10120BD
:1052300001F058F902E0002001F054F93CB100F00F
:10524000B3FC20B1034805744FF0FF30D6E7304679
:10525000D4E70000480000202DE9F04F9BB08146C4
:105260008A4693461C464FF07E55002600274FF095
:10527000000814A815A91AAB10AACDE9001016A9A8
:1052800018A8FEF73BFF18B101201BB0BDE8F08F56
:10529000BDF8540000F4807000287DD0109802F012
:1052A000B5F84FF09D410F9001F07EFF0546119833
:1052B00002F0ACF84FF09D410F9001F075FF0646EB
:1052C000129802F0A3F84FF09D410F9001F06CFF8F
:1052D0000746139802F09AF84FF09D410F9001F0A5
:1052E00063FF804629464FF0804002F0EFF83946D0
:1052F000069002F0EBF8314608904FF0404002F083
:10530000E5F84146069002F0E1F80790089901F0AF
:10531000DDFE099001F0AEFECDE90A01FEF7C6F907
:105320004FF06632584BCDE90C0101F0C9FBCDE9D5
:105330000E0101F05BF9C9F8000039464FF08040DA
:1053400002F0C4F83946039002F0C0F831460590E7
:105350004FF0404002F0BAF83146039002F0B6F840
:105360000490059902F0BAF94FF07E51069001F0D1
:10537000ADFE079001F07EFECDE90A0129464FF00F
:10538000804002F0A3F83146049002F09FF83946BD
:1053900006904FF0804000E071E002F097F841463F
:1053A000049002F093F80590069901F08FFE0790A3
:1053B00001F060FECDE90801DDE90A23FEF7BEFB3E
:1053C0004FF06632304BCDE90C0101F079FBCDE9AD
:1053D0000E0101F00BF9CAF800004146404602F008
:1053E00075F839460690384602F070F83146049058
:1053F000304602F06BF829460290284602F066F823
:105400000190029901F062FE0390049902F066F99E
:105410000590069902F062F9079001F02BFECDE9A4
:105420000A014146284602F051F8394605903046B7
:1054300002F04CF80490059901F048FE4FF08041CD
:10544000069002F043F8079001F014FECDE9080140
:10545000DDE90A23FEF772FB4FF066320A4BCDE915
:105460000C0101F02DFBCDE90E0101F0BFF8CBF8E6
:10547000000025606660A760C4F80C8001E002208F
:1054800003E7002001E7000066A64C4070B5002449
:10549000FCF7F0FB00F024F9002840D1782000F060
:1054A0002FFFC4B20CB1012070BD7820FFF79CFE25
:1054B000C4B20CB10220F7E7642000F0D3FEC4B2FE
:1054C0000CB10320F0E7FEF70DFEC4B20CB10420CE
:1054D000EAE71548FFF7AEFD0546FFF75DF8C4B2F1
:1054E0000CB10520E0E740F27310FEF7A3FCC4B254
:1054F0000CB10620D8E76420FEF77EFFC4B20CB1E1
:105500000720D1E700F0A4FF04460CB10820CBE748
:10551000012000F0A3FDC4B21CB10920C4E70A2099
:10552000C2E70020C0E700007400002001461148D7
:10553000407A30B1012807D0022808D003280CD1C6
:1055400008E0022008700BE00420087008E0082042
:10555000087005E01020087002E04FF0FF3070473F
:1055600000BF0448C07C18B108784006000E0870DF
:105570000020F4E74800002001461348407A30B18B
:10558000012808D002280AD0032810D10BE04FF4DC
:10559000804008800EE041F69C7008800AE04FF4DD
:1055A0008050088006E04FF40060088002E04FF071
:1055B000FF30704700BF0448C07C10B1088840101D
:1055C00008800020F5E7000048000020014602485E
:1055D000007C0870002070474800002001460F48FA
:1055E000007A30B1012807D0022809D003280FD152
:1055F0000AE0FA2008800EE04FF4FA7008800AE012
:105600004FF47A70088006E04FF4FA60088002E0F8
:105610000020088000BF00BF002070474800002025
:1056200001460E48007A30B1012807D0022808D080
:1056300003280CD108E00A4808600BE0094808601C
:1056400008E00948086005E00848086002E04FF0FB
:10565000FF30704700BF0020FBE70000480000203B
:10566000000003430000834233330342333383415A
:1056700001461248C07A082817D2DFE800F0170464
:10568000070A0D101318BC20088013E06220088060
:1056900010E02A2008800DE0142008800AE00A208B
:1056A000088007E00520088004E000BF00BF00205C
:1056B000088000BF00BF00207047000048000020A5
:1056C0000146064890F8240010B14FF0FF307047B3
:1056D0000248C08908800020F9E700004800002047
:1056E0001CB580208DF80000654A1268917C644AE0
:1056F000526810786B460122FCF7DAFC10B14FF0CB
:10570000FF301CBD6420FEF72DFB00208DF800004B
:105710005B4A1268917C5A4A526810786B460122A3
:10572000FCF7C6FC10B14FF0FF30EAE7544A1268AC
:10573000917D534A526810786B460622FCF712FCA2
:1057400010B14FF0FF30DCE79DF80500C007400FB7
:105750009DF8031001F0010140EA41009DF801109D
:1057600001F0010140EA010494B1012C03D10121AF
:105770004348C17431E0022C03D100214048C17478
:105780002BE021463FA0FAF755FD4FF0FF30B8E778
:105790003B4A1268D1783A4A526810786B46012227
:1057A000FCF7E0FB10B14FF0FF30AAE79DF80000D6
:1057B00000F00F042CB93D48FAF73CFD4FF0FF30E4
:1057C0009FE7042C06D13AA0FAF734FD01212C48BA
:1057D000C17402E000212A48C174FF212848817267
:1057E000FF2027490872FF2125484172C1724FF6F8
:1057F000FF71C181FF21017481740121017380F85F
:105800002210002180F823104175017516300160C7
:1058100041608160163880F8241080F82510C1841A
:105820004FF4FA6000F062FC10B14FF0FF3068E70F
:10583000022000F02BFB10B14FF0FF3061E72A206F
:1058400000F0CEFC10B14FF0FF305AE7322000F0EC
:1058500009FD10B14FF0FF3053E70020FFF7C4FC03
:1058600010B14FF0FF304CE7002000F051FB10B1B9
:105870004FF0FF3045E7002000F042FD002040E7F8
:1058800048000020556E737570706F7274656420E7
:10589000736F6674776172652070726F647563747C
:1058A000207265762025642E0A0000009C86000880
:1058B00048616C662073656E736974697669747982
:1058C000207061727420666F756E642E0A0000008D
:1058D0002DE9F04385B005460E4690469946294885
:1058E00090F8250020B14FF0FF3005B0BDE8F083FF
:1058F00016B94FF0FF30F8E7002423E0281B1028EA
:1059000001DD102000E0281B87B2321939462046FD
:1059100000F05EFD10B14FF0FF30E6E701AA394616
:10592000204600F001F910B14FF0FF30DDE73019EB
:105930003A4601A9FAF78AFD10B16FF00100D4E7E9
:10594000E01984B2AC42D9DB4FEA28208DF8000080
:1059500008F0FF008DF801000A4A1268917E094A9A
:10596000526810786B460222FCF7A2FB10B14FF090
:10597000FF30BAE70121034880F82510A0F82690EF
:105980000020B2E74800002038B50446282C02DD8C
:105990004FF0FF3038BDDCB9002000F0EBFB0020F9
:1059A0008DF8000007208DF801002E4A1268917CC6
:1059B0002C4A526810786B460222FCF779FB10B132
:1059C0004FF0FF30E6E70021264801750020E1E7AF
:1059D000012000F0CFFB20208DF80000012C06D123
:1059E00000208DF80100052000F0FAFB17E0052CDF
:1059F00006DC01208DF80100052000F0F1FB0EE02F
:105A0000142C06DC02208DF801000A2000F0E8FBCF
:105A100005E003208DF80100142000F0E1FB9DF863
:105A20000100072101EB8010C0B28DF801000D4A82
:105A30001268917C0B4A526810786B460222FCF780
:105A400037FB10B14FF0FF30A4E708210548817201
:105A500000210173012101750020FFF7C5FB002023
:105A600098E7000048000020F8B504460F461646A7
:105A70002C4890F8240010B94FF0FF30F8BD2948A9
:105A8000807A10B94FF0FF30F8E7264A1268917A11
:105A9000244A526810786B460222FCF763FA10B170
:105AA0004FF0FF30EAE79DF801009DF8001040EA52
:105AB0000125A54203DA00203070401EDEE71948B8
:105AC00040684088B5EB600F17DD164A1268517CBC
:105AD000144A526810786B460122FCF743FA10B161
